:020000040800F2
:1000000000C00120F13C0008753100087D31000876
:10001000853100088D31000895310008000000008E
:100020000000000000000000000000009D310008FA
:10003000A931000800000000B5310008C1310008F6
:10004000413D0008413D0008413D0008413D000898
:10005000413D0008413D0008413D0008413D000888
:10006000413D0008413D0008413D0008413D000878
:10007000413D0008413D0008413D0008413D000868
:10008000413D0008413D0008413D0008413D000858
:10009000413D0008413D0008413D0008413D000848
:1000A000413D0008413D0008413D0008413D000838
:1000B000413D0008413D0008413D0008413D000828
:1000C000413D0008413D0008413D0008413D000818
:1000D000413D0008413D0008413D0008413D000808
:1000E000413D0008413D0008413D0008413D0008F8
:1000F000413D0008413D0008413D0008413D0008E8
:10010000413D0008413D0008413D0008413D0008D7
:10011000CD310008413D0008413D0008413D000847
:10012000413D0008413D0008413D0008413D0008B7
:10013000413D0008413D0008413D0008413D0008A7
:10014000413D0008413D0008413D0008413D000897
:10015000413D0008413D0008413D0008413D000887
:10016000413D0008413D0008413D0008413D000877
:10017000413D0008413D0008413D000800000000ED
:08018000413D0008413D00086B
:1001900081F0004102E000BF83F0004330B54FEA38
:1001A00041044FEA430594EA050F08BF90EA020FA5
:1001B0001FBF54EA000C55EA020C7FEA645C7FEA38
:1001C000655C00F0E2804FEA5454D4EB5555B8BF5B
:1001D0006D420CDD2C4480EA020281EA030382EACC
:1001E000000083EA010180EA020281EA0303362D5E
:1001F00088BF30BD11F0004F4FEA01314FF4801C31
:100200004CEA113102D0404261EB410113F0004F42
:100210004FEA03334CEA133302D0524263EB4303F9
:1002200094EA050F00F0A780A4F10104D5F1200E97
:100230000DDB02FA0EFC22FA05F2801841F10001F2
:1002400003FA0EF2801843FA05F359410EE0A5F1C6
:1002500020050EF1200E012A03FA0EFC28BF4CF0F7
:10026000020C43FA05F3C01851EBE37101F00045AD
:1002700007D54FF0000EDCF1000C7EEB00006EEBBA
:100280000101B1F5801F1BD3B1F5001F0CD3490844
:100290005FEA30004FEA3C0C04F101044FEA44529B
:1002A00012F5800F80F09A80BCF1004F08BF5FEA22
:1002B000500C50F1000041EB045141EA050130BD02
:1002C0005FEA4C0C404141EB0101013C28BFB1F514
:1002D000801FE9D291F0000F04BF01460020B1FA5F
:1002E00081F308BF2033A3F10B03B3F120020CDA32
:1002F0000C3208DD02F1140CC2F10C0201FA0CF010
:1003000021FA02F10CE002F11402D8BFC2F1200C74
:1003100001FA02F120FA0CFCDCBF41EA0C0190402A
:10032000E41AA2BF01EB0451294330BD6FEA040473
:100330001F3C1CDA0C340EDC04F11404C4F120025E
:1003400020FA04F001FA02F340EA030021FA04F370
:1003500045EA030130BDC4F10C04C4F1200220FAC7
:1003600002F001FA04F340EA0300294630BD21FA05
:1003700004F0294630BD94F0000F83F4801306BFCB
:1003800081F480110134013D4EE77FEA645C18BFBF
:100390007FEA655C29D094EA050F08BF90EA020F56
:1003A00005D054EA000C04BF1946104630BD91EA4E
:1003B000030F1EBF0021002030BD5FEA545C05D151
:1003C0004000494128BF41F0004130BD14F5800490
:1003D0003CBF01F5801130BD01F0004545F0FE4104
:1003E00041F470014FF0000030BD7FEA645C1ABF39
:1003F000194610467FEA655C1CBF0B46024650EA70
:10040000013406BF52EA033591EA030F41F400219B
:1004100030BD00BF90F0000F04BF0021704730B521
:100420004FF4806404F132044FF000054FF00001F6
:1004300050E700BF90F0000F04BF0021704730B5B7
:100440004FF4806404F1320410F0004548BF40428C
:100450004FF000013EE700BF42004FEAE2014FEAE1
:1004600031014FEA02701FBF12F07F4393F07F4FBC
:1004700081F06051704732F07F4208BF704793F0BF
:100480007F4F04BF41F40021704730B54FF46074D2
:1004900001F0004521F000411CE700BF50EA0102D5
:1004A00008BF704730B54FF000050AE050EA01027E
:1004B00008BF704730B511F0004502D5404261EBEE
:1004C00041014FF4806404F132045FEA915C3FF42F
:1004D000D8AE4FF003025FEADC0C18BF03325FEACC
:1004E000DC0C18BF033202EBDC02C2F1200300FA7D
:1004F00003FC20FA02F001FA03FE40EA0E0021FAA2
:1005000002F11444BDE600BF70B54FF0FF0C4CF48F
:10051000E06C1CEA11541DBF1CEA135594EA0C0F41
:1005200095EA0C0F00F0DEF82C4481EA030621EA7C
:100530004C5123EA4C5350EA013518BF52EA0335B7
:1005400041F4801143F4801338D0A0FB02CE4FF069
:100550000005E1FB02E506F00042E0FB03E54FF099
:100560000006E1FB03569CF0000F18BF4EF0010E91
:10057000A4F1FF04B6F5007F64F5407404D25FEA8D
:100580004E0E6D4146EB060642EAC62141EA555140
:100590004FEAC52040EA5E504FEACE2EB4F1FD0C82
:1005A00088BFBCF5E06F1ED8BEF1004F08BF5FEA00
:1005B000500E50F1000041EB045170BD06F00046B2
:1005C00046EA010140EA020081EA0301B4EB5C045F
:1005D000C2BFD4EB0C0541EA045170BD41F4801157
:1005E0004FF0000E013C00F3AB8014F1360FDEBF7C
:1005F000002001F0004170BDC4F10004203C35DA58
:100600000C341BDC04F11404C4F1200500FA05F3DA
:1006100020FA04F001FA05F240EA020001F000427B
:1006200021F0004110EBD37021FA04F642EB0601F1
:100630005EEA430E08BF20EAD37070BDC4F10C041B
:10064000C4F1200500FA04F320FA05F001FA04F2DF
:1006500040EA020001F0004110EBD37041F10001CB
:100660005EEA430E08BF20EAD37070BDC4F12005D6
:1006700000FA05F24EEA020E20FA04F301FA05F23E
:1006800043EA020321FA04F001F0004121FA04F2E6
:1006900020EA020000EBD3705EEA430E08BF20EAB6
:1006A000D37070BD94F0000F0FD101F000464000F0
:1006B00041EB010111F4801F08BF013CF7D041EA72
:1006C000060195F0000F18BF704703F00046520076
:1006D00043EB030313F4801F08BF013DF7D043EA47
:1006E0000603704794EA0C0F0CEA135518BF95EAFD
:1006F0000C0F0CD050EA410618BF52EA4306D1D184
:1007000081EA030101F000414FF0000070BD50EAA2
:10071000410606BF1046194652EA430619D094EA2C
:100720000C0F02D150EA013613D195EA0C0F05D116
:1007300052EA03361CBF104619460AD181EA03016A
:1007400001F0004141F0FE4141F470014FF0000022
:1007500070BD41F0FE4141F4780170BD70B54FF0BD
:10076000FF0C4CF4E06C1CEA11541DBF1CEA13553D
:1007700094EA0C0F95EA0C0F00F0A7F8A4EB05041F
:1007800081EA030E52EA03354FEA013100F0888016
:100790004FEA03334FF0805545EA131343EA1263DF
:1007A0004FEA022245EA111545EA10654FEA002694
:1007B0000EF000419D4208BF964244F1FD0404F54D
:1007C000407402D25B084FEA3202B61A65EB0305A9
:1007D0005B084FEA32024FF480104FF4002CB6EB66
:1007E000020E75EB030E22BFB61A754640EA0C00E6
:1007F0005B084FEA3202B6EB020E75EB030E22BF26
:10080000B61A754640EA5C005B084FEA3202B6EB66
:10081000020E75EB030E22BFB61A754640EA9C0025
:100820005B084FEA3202B6EB020E75EB030E22BFF5
:10083000B61A754640EADC0055EA060E18D04FEAB3
:10084000051545EA16754FEA06164FEAC30343EA53
:1008500052734FEAC2025FEA1C1CC0D111F4801F20
:100860000BD141EA00014FF000004FF0004CB6E719
:1008700011F4801F04BF01430020B4F1FD0C88BFB8
:10088000BCF5E06F3FF6AFAEB5EB030C04BFB6EBC3
:10089000020C5FEA500C50F1000041EB045170BDB6
:1008A0000EF0004E4EEA113114EB5C04C2BFD4EBE3
:1008B0000C0541EA045170BD41F480114FF0000E67
:1008C000013C90E645EA060E8DE60CEA135594EAE3
:1008D0000C0F08BF95EA0C0F3FF43BAF94EA0C0FE6
:1008E0000AD150EA01347FF434AF95EA0C0F7FF45B
:1008F00025AF104619462CE795EA0C0F06D152EAAF
:1009000003353FF4FDAE1046194622E750EA410692
:1009100018BF52EA43067FF4C5AE50EA41047FF4A3
:100920000DAF52EA43057FF4EBAE12E74FF0FF3C08
:1009300006E000BF4FF0010C02E000BF4FF0010CD9
:100940004DF804CD4FEA410C7FEA6C5C4FEA430C52
:1009500018BF7FEA6C5C1BD001B050EA410C0CBFA1
:1009600052EA430C91EA030F02BF90EA020F002003
:10097000704710F1000F91EA030F58BF994208BF6A
:1009800090422CBFD8176FEAE37040F00100704727
:100990004FEA410C7FEA6C5C02D150EA013C07D17E
:1009A0004FEA430C7FEA6C5CD6D152EA033CD3D0C9
:1009B0005DF8040B704700BF8446104662468C46C3
:1009C0001946634600E000BF01B5FFF7B7FF0028F6
:1009D00048BF10F1000F01BD4DF808EDFFF7F4FF1F
:1009E0000CBF012000205DF808FB00BF4DF808EDAA
:1009F000FFF7EAFF34BF012000205DF808FB00BFCD
:100A00004DF808EDFFF7E0FF94BF012000205DF8EE
:100A100008FB00BF4DF808EDFFF7CEFF94BF0120A3
:100A200000205DF808FB00BF4DF808EDFFF7C4FF9C
:100A300034BF012000205DF808FB00BF4FEA410CE5
:100A40007FEA6C5C02D150EA013C0AD14FEA430CC8
:100A50007FEA6C5C02D152EA033C02D14FF0000005
:100A600070474FF0010070474FEA410212F5001243
:100A700015D211D56FF47873B3EB625212D94FEAE5
:100A8000C12343F0004343EA505311F0004F23FACF
:100A900002F018BF404270474FF00000704750EA24
:100AA000013005D111F0004008BF6FF000407047E1
:100AB0004FF00000704700BF4FEA4102B2F1E0433F
:100AC00024BFB3F5001CDCF1FE5C0DD901F0004C35
:100AD0004FEAC0024CEA5070B2F1004F40EB830085
:100AE00008BF20F00100704711F0804F21D113F1B1
:100AF0003872BCBF01F00040704741F480114FEAEA
:100B00005252C2F11802C2F1200C10FA0CF320FA72
:100B100002F018BF40F001004FEAC1234FEAD3238F
:100B200003FA0CFC40EA0C0023FA02F34FEA4303F9
:100B3000CCE77FEA625307D150EA01331EBF4FF082
:100B4000FE4040F44000704701F0004040F0FE409D
:100B500040F40000704700BF7BB972B90029BEBFE6
:100B600000204FF0004106E008BF00281CBF6FF0D6
:100B700000414FF0FF3000F057B8ADF1080C6DE9BF
:100B800004CE002909DB002B1ADB33F0FFF8DDF877
:100B900004E0DDE9022304B07047404261EB41010B
:100BA000002B1BDB33F0F2F8DDF804E0DDE9022373
:100BB00004B0404261EB4101524263EB4303704792
:100BC000524263EB430333F0E1F8DDF804E0DDE982
:100BD000022304B0404261EB41017047524263EB93
:100BE000430333F0D3F8DDF804E0DDE9022304B079
:100BF000524263EB4303704753B94AB9002908BF17
:100C000000281CBF4FF0FF314FF0FF3000F00CB850
:100C1000ADF1080C6DE904CE33F0B8F8DDF804E06E
:100C2000DDE9022304B07047704700BF4A0011D2CB
:100C300012F5001211D20DD56FF47873B3EB625236
:100C40000ED44FEAC12343F0004343EA505323FA42
:100C500002F070474FF00000704750EA013002D1B7
:100C60004FF0FF3070474FF00000704710F8012B35
:100C700011F8013B012A28BF9A42F7D0D01A7047D9
:100C800001F0FF01102A2BDB10F0070F08D010F83D
:100C9000013B013A8B422DD010F0070F42B3F6D141
:100CA000F0B441EA012141EA014122F007047FF05A
:100CB00000070023F0E80256083C85EA010586EAB1
:100CC000010685FA47F5A3FA87F586FA47F6A5FAED
:100CD00087F68EB9EED1F0BC01F0FF0102F00702F9
:100CE00032B110F8013B013A83EA010313B1F8D1A4
:100CF0000020704701387047002D06BF3546033885
:100D0000073815F0010F07D1013015F4807F02BFBD
:100D1000013015F4C03F0130F0BC0138704700BF0E
:100D2000034613F8012B002AFBD1181A013870472B
:100D30000348044B834202D0034B03B1184770476A
:100D40005C0800205C080020000000000548064BFD
:100D50001B1AD90F01EBA301491002D0034B03B1B9
:100D6000184770475C0800205C0800200000000065
:100D700010B5064C237843B9FFF7DAFF044B13B1E3
:100D80000448AFF300800123237010BD60080020E9
:100D900000000000D86C030808B5054B1BB10549DD
:100DA0000548AFF30080BDE80840FFF7CFBF00BFA4
:100DB0000000000064080020D86C030880B400AF75
:100DC000054BD3F88830044A43F47003C2F88830E6
:100DD00000BFBD4680BC704700ED00E080B586B026
:100DE00000AF78607B68002B01D1012367E27B684C
:100DF0001B6803F00103002B75D0884B9B6803F040
:100E00000C03042B0CD0854B9B6803F00C03082BC0
:100E100012D1824B5B6803F48003B3F5800F0BD1D2
:100E20007E4B1B6803F40033002B5BD07B685B6850
:100E3000002B57D1012342E27B685B68B3F5803F0A
:100E400006D1764B1B68754A43F4803313601DE06E
:100E50007B685B68B3F5A02F0CD1704B1B686F4AA1
:100E600043F4802313606D4B1B686C4A43F480335A
:100E700013600BE0694B1B68684A23F480331360EE
:100E8000664B1B68654A23F4802313607B685B68AC
:100E9000002B13D000F0F4FF386108E000F0F0FF01
:100EA00002463B69D31A642B01D9032307E25B4B4B
:100EB0001B6803F40033002BF0D014E000F0E0FFD7
:100EC000386108E000F0DCFF02463B69D31A642B6E
:100ED00001D90323F3E1514B1B6803F40033002BCA
:100EE000F0D100E000BF7B681B6803F00203002B19
:100EF00063D04A4B9B6803F00C03002B0BD0474B8D
:100F00009B6803F00C03082B1CD1444B5B6803F473
:100F10008003002B16D1414B1B6803F00203002B0A
:100F200005D07B68DB68012B01D00123C7E13B4B77
:100F30001B6823F0F8027B681B69DB003749134309
:100F40000B603AE07B68DB68002B20D0344B012239
:100F50001A6000F095FF386108E000F091FF02464A
:100F60003B69D31A022B01D90323A8E12B4B1B6841
:100F700003F00203002BF0D0284B1B6823F0F8028B
:100F80007B681B69DB00254913430B6015E0244B8C
:100F900000221A6000F074FF386108E000F070FF72
:100FA00002463B69D31A022B01D9032387E11B4B6D
:100FB0001B6803F00203002BF0D17B681B6803F071
:100FC0000803002B36D07B685B69002B16D0154BCD
:100FD00001221A6000F054FF386108E000F050FF71
:100FE00002463B69D31A022B01D9032367E10B4B5D
:100FF0005B6F03F00203002BF0D01BE0094B0022D3
:101000001A6000F03DFF38610EE000F039FF024643
:101010003B69D31A022B07D9032350E10038024061
:1010200000004742800E4742884B5B6F03F002038B
:10103000002BEAD17B681B6803F00403002B00F04F
:1010400097800023FB75814B1B6C03F08053002BB2
:101050000FD10023BB607D4B1B6C7C4A43F0805357
:1010600013647A4B1B6C03F08053BB60BB68012395
:10107000FB75774B1B6803F48073002B18D1744BFE
:101080001B68734A43F48073136000F0F9FE386103
:1010900008E000F0F5FE02463B69D31A022B01D9A5
:1010A00003230CE16A4B1B6803F48073002BF0D020
:1010B0007B689B68012B06D1644B1B6F634A43F02E
:1010C000010313671CE07B689B68052B0CD15F4B09
:1010D0001B6F5E4A43F0040313675C4B1B6F5B4A54
:1010E00043F0010313670BE0584B1B6F574A23F083
:1010F00001031367554B1B6F544A23F00403136716
:101100007B689B68002B15D000F0BAFE38610AE0BE
:1011100000F0B6FE02463B69D31A41F28832934290
:1011200001D90323CBE0494B1B6F03F00203002BD3
:10113000EED014E000F0A4FE38610AE000F0A0FE5A
:1011400002463B69D31A41F28832934201D9032304
:10115000B5E03E4B1B6F03F00203002BEED1FB7D8D
:10116000012B05D1394B1B6C384A23F08053136493
:101170007B689B69002B00F0A180344B9B6803F0D7
:101180000C03082B5CD07B689B69022B41D1314B4F
:1011900000221A6000F074FE386108E000F070FE72
:1011A00002463B69D31A022B01D9032387E0274B60
:1011B0001B6803F00073002BF0D17B68DA697B6851
:1011C0001B6A1A437B685B6A9B011A437B689B6AB4
:1011D0005B08013B1B041A437B68DB6A1B061B4947
:1011E00013434B601B4B01221A6000F049FE38612B
:1011F00008E000F045FE02463B69D31A022B01D9F4
:1012000003235CE0114B1B6803F00073002BF0D04C
:1012100054E0104B00221A6000F032FE386108E002
:1012200000F02EFE02463B69D31A022B01D903239C
:1012300045E0064B1B6803F00073002BF0D13DE046
:101240007B689B69012B07D1012338E000380240FD
:1012500000700040600047421B4B5B68FB607B688E
:101260009B69012B28D0FB6803F480027B68DB6953
:101270009A4221D1FB6803F03F027B681B6A9A42C5
:101280001AD1FA6847F6C07313407A68526A92011D
:10129000934211D1FB6803F440327B689B6A5B0880
:1012A000013B1B049A4207D1FB6803F070627B6824
:1012B000DB6A1B069A4201D0012300E00023184696
:1012C0001837BD4680BD00BF0038024080B584B0ED
:1012D00000AF786039607B68002B01D10123CCE03E
:1012E000684B1B6803F007033A689A420CD9654BB8
:1012F0003A68D2B21A70634B1B6803F007033A686E
:101300009A4201D00123B8E07B681B6803F0020316
:10131000002B20D07B681B6803F00403002B05D052
:10132000594B9B68584A43F4E05393607B681B68B1
:1013300003F00803002B05D0534B9B68524A43F43B
:1013400060439360504B9B6823F0F0027B689B687E
:101350004D4913438B607B681B6803F00103002B2E
:1013600044D07B685B68012B07D1474B1B6803F4B3
:101370000033002B19D101237FE07B685B68022BCF
:1013800003D07B685B68032B07D13F4B1B6803F0DE
:101390000073002B09D101236FE03B4B1B6803F066
:1013A0000203002B01D1012367E0374B9B6823F038
:1013B00003027B685B68344913438B6000F060FD77
:1013C000F8600AE000F05CFD0246FB68D31A41F2C7
:1013D0008832934201D903234FE02B4B9B6803F0E3
:1013E0000C027B685B689B009A42EBD1254B1B6823
:1013F00003F007033A689A420CD2224B3A68D2B201
:101400001A70204B1B6803F007033A689A4201D018
:10141000012332E07B681B6803F00403002B08D033
:10142000194B9B6823F4E0527B68DB681649134331
:101430008B607B681B6803F00803002B09D0124BFC
:101440009B6823F460427B681B69DB000E491343F1
:101450008B6000F021F802460B4B9B681B0903F0E0
:101460000F030A49CB5C22FA03F3094A1360094BC4
:101470001B68184600F0C2FC002318461037BD4612
:1014800080BD00BF003C0240003802408CC503080C
:1014900004000020080000202DE9B04F94B000AFF8
:1014A00000237B640023FB6400233B640023BB64B4
:1014B000794B9B6803F00C03082B0DD0082B00F22E
:1014C000E180002B02D0042B03D0DBE0734BBB6424
:1014D000DBE0734BBB64D8E06F4B5B6803F03F030A
:1014E0007B646D4B5B6803F48003002B63D06A4B15
:1014F0005B689B090022BB63FA63BB6BC3F3080301
:101500003B6300237B63D7E90C4522462B464FF013
:1015100000004FF00001590141EAD261500102463A
:101520000B462146511A3961294663EB01037B6161
:101530004FF000024FF00003D7E904AB59468B018E
:10154000514643EA916351468A015146B2EB010884
:10155000594663EB01094FF000024FF000034FEAD8
:10156000C90343EA58734FEAC80290469946234696
:1015700018EB0303BB602B4649EB0303FB604FF002
:1015800000024FF00003D7E9024529464B022146ED
:1015900043EAD15321464A02104619467B6C002289
:1015A000BB62FA62D7E90A23FFF726FB02460B4625
:1015B0001346FB6458E0384B5B689B0900221846D1
:1015C0001146C0F308033B6200237B62D7E9088918
:1015D00042464B464FF000004FF00001590141EAEE
:1015E000D261500102460B464146B2EB010A494620
:1015F00063EB010B4FF000024FF000034FEA8B1337
:1016000043EA9A634FEA8A12B2EB0A0463EB0B05D2
:101610004FF000024FF00003EB0043EA5473E20086
:1016200014461D464346E3183B604B4645EB030317
:101630007B604FF000024FF00003D7E900452946D8
:101640008B02214643EA915321468A0210461946ED
:101650007B6C0022BB61FA61D7E90623FFF7CCFA65
:1016600002460B461346FB640B4B5B681B0C03F0F6
:10167000030301335B003B64FA6C3B6CB2FBF3F396
:10168000BB6402E0054BBB6400BFBB6C184650371F
:10169000BD46BDE8B08F00BF003802400024F40012
:1016A00000127A0080B400AF024B1B681846BD469A
:1016B00080BC70470400002080B500AFFFF7F2FF48
:1016C0000246054B9B689B0A03F007030349CB5C6A
:1016D00022FA03F3184680BD003802409CC5030877
:1016E00080B500AFFFF7DEFF0246054B9B685B0B42
:1016F00003F007030349CB5C22FA03F3184680BDCD
:10170000003802409CC5030880B489B000AF7860FF
:10171000396000237B6100233B610023BB61002310
:10172000FB616BE10122FB6902FA03F37B613B6819
:101730001B687A6913403B613A697B699A4240F0C1
:101740005A813B685B6803F00303012B05D03B68BB
:101750005B6803F00303022B30D17B689B68BB619D
:10176000FB695B00032202FA03F3DB43BA6913400F
:10177000BB613B68DA68FB695B0002FA03F3BA6994
:101780001343BB617B68BA699A607B685B68BB6125
:101790000122FB6902FA03F3DB43BA691340BB6120
:1017A0003B685B681B0903F00102FB6902FA03F363
:1017B000BA691343BB617B68BA695A603B685B686E
:1017C00003F00303032B17D07B68DB68BB61FB6965
:1017D0005B00032202FA03F3DB43BA691340BB61E7
:1017E0003B689A68FB695B0002FA03F3BA6913432A
:1017F000BB617B68BA69DA603B685B6803F003032E
:10180000022B23D1FB69DA087B68083253F82230B7
:10181000BB61FB6903F007039B000F2202FA03F38D
:10182000DB43BA691340BB613B681A69FB6903F08B
:1018300007039B0002FA03F3BA691343BB61FB6918
:10184000DA087B680832B96943F822107B681B68A4
:10185000BB61FB695B00032202FA03F3DB43BA6955
:101860001340BB613B685B6803F00302FB695B00EC
:1018700002FA03F3BA691343BB617B68BA691A6061
:101880003B685B6803F44033002B00F0B480002316
:10189000FB605F4B5B6C5E4A43F4804353645C4B7C
:1018A0005B6C03F48043FB60FB685A4AFB699B084E
:1018B000023352F82330BB61FB6903F003039B0042
:1018C0000F2202FA03F3DB43BA691340BB617B6862
:1018D000514A93422BD07B68504A934225D07B6873
:1018E0004F4A93421FD07B684E4A934219D07B687F
:1018F0004D4A934213D07B684C4A93420DD07B688B
:101900004B4A934207D07B684A4A934201D107234E
:101910000EE008230CE006230AE0052308E0042378
:1019200006E0032304E0022302E0012300E0002399
:10193000FA6902F0030292009340BA691343BB6153
:101940003449FB699B080233BA6941F823203A4BBA
:101950009B68BB613B69DB43BA691340BB613B6871
:101960005B6803F48013002B03D0BA693B6913430F
:10197000BB61314ABB6993602F4BDB68BB613B693C
:10198000DB43BA691340BB613B685B6803F4001337
:10199000002B03D0BA693B691343BB61264ABB697C
:1019A000D360254B5B68BB613B69DB43BA6913407D
:1019B000BB613B685B6803F40033002B03D0BA695A
:1019C0003B691343BB611C4ABB6953601A4B1B68DC
:1019D000BB613B69DB43BA691340BB613B685B6831
:1019E00003F48033002B03D0BA693B691343BB6116
:1019F000114ABB691360FB690133FB61FB690F2B63
:101A00007FF690AE00BF00BF2437BD4680BC704754
:101A1000003802400038014000000240000402404B
:101A200000080240000C0240001002400014024076
:101A300000180240001C0240003C014080B483B00A
:101A400000AF78600B467B8013467B707B78002B61
:101A500003D07A887B689A6103E07B881A047B68EC
:101A60009A6100BF0C37BD4680BC704780B584B01A
:101A700000AF78607B689B6DFB6000F001FAB86096
:101A80007B6893F83530DBB2022B08D07B6880226C
:101A90005A657B68002283F83420012352E07B687A
:101AA0001B681A687B681B6822F016021A607B6844
:101AB0001B685A697B681B6822F080025A617B6848
:101AC0001B6C002B03D17B689B6C002B07D07B68C1
:101AD0001B681A687B681B6822F008021A607B6822
:101AE0001B681A687B681B6822F001021A6013E009
:101AF00000F0C6F90246BB68D31A052B0CD97B68E7
:101B000020225A657B68032283F835207B680022F7
:101B100083F83420032315E07B681B681B6803F0FF
:101B20000103002BE4D17B68DB6D3F229A40FB6808
:101B30009A607B68012283F835207B68002283F855
:101B40003420002318461037BD4680BD80B483B0D2
:101B500000AF78607B6893F83530DBB2022B04D09D
:101B60007B6880225A6501230CE07B68052283F89C
:101B700035207B681B681A687B681B6822F00102AD
:101B80001A60002318460C37BD4680BC7047000021
:101B900080B485B000AF78607B6803F00703FB601A
:101BA0000C4BDB68BB60BA684FF6FF031340BB60A9
:101BB000FB681A02BB68134343F0BF6343F400336E
:101BC000BB60044ABB68D36000BF1437BD4680BC0D
:101BD000704700BF00ED00E080B400AF044BDB684D
:101BE0001B0A03F007031846BD4680BC704700BFC0
:101BF00000ED00E080B483B000AF0346FB7197F9BD
:101C00000730002B0BDBFB7903F01F02064997F925
:101C100007305B09012000FA02F241F8232000BFDF
:101C20000C37BD4680BC704700E100E080B483B053
:101C300000AF03463960FB7197F90730002B0ADBD0
:101C40003B68DAB20C4997F907301201D2B20B4463
:101C500083F800230AE03B68DAB20849FB7903F015
:101C60000F03043B1201D2B20B441A7600BF0C37AB
:101C7000BD4680BC704700BF00E100E000ED00E021
:101C800080B489B000AFF860B9607A60FB6803F097
:101C900007037B617B69033B042B04D87B69C3F199
:101CA0000703FB6101E00423FB617B690433062B1E
:101CB00003D97B69033BBB6101E00023BB614FF0AB
:101CC000FF32FB6902FA03F3DA43BB681A40BB69CF
:101CD0009A404FF0FF31BB6901FA03F3D9437B68A7
:101CE0000B40134318462437BD4680BC70470000A4
:101CF00080B582B000AF78607B68013BB3F1807F34
:101D000001D301230FE00A4A7B68013B53600F2196
:101D10004FF0FF30FFF78AFF054B00229A60044B1B
:101D200007221A60002318460837BD4680BD00BF51
:101D300010E000E080B582B000AF78607868FFF70F
:101D400027FF00BF0837BD4680BD80B586B000AF15
:101D50000346B9607A60FB7300237B61FFF73CFFA9
:101D600078617A68B9687869FFF78AFF024697F95F
:101D70000F3011461846FFF759FF00BF1837BD4610
:101D800080BD80B582B000AF0346FB7197F9073084
:101D90001846FFF72FFF00BF0837BD4680BD80B54E
:101DA00082B000AF78607868FFF7A2FF034618465C
:101DB0000837BD4680BD000080B500AF0E4B1B68E4
:101DC0000D4A43F4007313600B4B1B680A4A43F43B
:101DD00080631360084B1B68074A43F480731360E9
:101DE0000320FFF7A7FF0F2000F008F801F0F8F933
:101DF0000023184680BD00BF003C024080B582B081
:101E000000AF7860124B1A68124B1B7819464FF4DA
:101E10007A73B3FBF1F3B2FBF3F31846FFF7BFFF9E
:101E20000346002B01D001230EE07B680F2B0AD85C
:101E3000002279684FF0FF30FFF787FF064A7B6882
:101E40001360002300E0012318460837BD4680BD1B
:101E5000040000200C0000200800002080B400AF27
:101E6000054B1B781A46054B1B681344034A136045
:101E700000BFBD4680BC70470C0000207C080020DD
:101E800080B400AF024B1B681846BD4680BC70474B
:101E90007C08002080B582B000AF78607B68002BA2
:101EA00001D1012342E07B6893F84130DBB2002B83
:101EB00006D17B68002283F84020786801F0F4F8AE
:101EC0007B68242283F841207B681B68DA687B6882
:101ED0001B6822F40052DA60786800F077FD7B68B6
:101EE0001B681A697B681B6822F490421A617B6840
:101EF0001B685A697B681B6822F02A025A617B685A
:101F00001B68DA687B681B6842F40052DA607B6801
:101F100000225A647B68202283F841207B682022BB
:101F200083F842207B6800225A6300231846083752
:101F3000BD4680BD80B58AB002AFF860B9603B6035
:101F40001346FB8000237B61FB6893F84130DBB2D2
:101F5000202B75D1BB68002B02D0FB88002B01D150
:101F600001236EE0FB6800225A64FB68212283F89B
:101F70004120FFF785FF7861FB68FA889A84FB6847
:101F8000FA88DA84FB689B68B3F5805F08D1FB6848
:101F90001B69002B04D10023FB61BB68BB6103E01C
:101FA000BB68FB610023BB612EE03B6800937B694B
:101FB00000228021F86800F017FB0346002B05D0B3
:101FC000FB68202283F8412003233AE0FB69002BC1
:101FD0000BD1BB691B881A46FB681B68C2F3080259
:101FE0005A60BB690233BB6107E0FB691A78FB6882
:101FF0001B685A60FB690133FB61FB68DB8C9BB299
:10200000013B9AB2FB68DA84FB68DB8C9BB2002B45
:10201000CBD13B6800937B6900224021F86800F037
:10202000E3FA0346002B05D0FB68202283F8412009
:10203000032306E0FB68202283F84120002300E010
:10204000022318462037BD4680BD000080B5BAB0D7
:1020500000AF78607B681B681B68C7F8E4307B685A
:102060001B68DB68C7F8E0307B681B685B69C7F8F2
:10207000DC300023C7F8D8300023C7F8D430D7F8B5
:10208000E43003F00F03C7F8D830D7F8D830002B6E
:102090000FD1D7F8E43003F02003002B09D0D7F894
:1020A000E03003F02003002B03D0786800F0CFFB72
:1020B00071E2D7F8D830002B00F0DC80D7F8DC30A4
:1020C00003F00103002B06D1D7F8E03003F490733E
:1020D000002B00F0CF80D7F8E43003F00103002B91
:1020E0000BD0D7F8E03003F48073002B05D07B6869
:1020F0005B6C43F001027B685A64D7F8E43003F06C
:102100000403002B0BD0D7F8DC3003F00103002BC5
:1021100005D07B685B6C43F002027B685A64D7F899
:10212000E43003F00203002B0BD0D7F8DC3003F0CF
:102130000103002B05D07B685B6C43F004027B68D5
:102140005A64D7F8E43003F00803002B11D0D7F815
:10215000E03003F02003002B05D1D7F8DC3003F08A
:102160000103002B05D07B685B6C43F008027B68A1
:102170005A647B685B6C002B00F00882D7F8E4306F
:1021800003F02003002B08D0D7F8E03003F0200341
:10219000002B02D0786800F05AFB7B681B685B69F3
:1021A00003F04003C3F38013DBB2C7F8D4307B687D
:1021B0005B6C03F00803002B03D1D7F8D430002B5D
:1021C0004FD0786800F069FA7B681B685B6903F0A0
:1021D0004003402B41D17B681B681433C7F89C3007
:1021E000D7F89C3053E8003FC7F89830D7F89830BC
:1021F00023F04003C7F8D0307B681B681433D7F84E
:10220000D020C7F8A820C7F8A430D7F8A410D7F872
:10221000A82041E80023C7F8A030D7F8A030002B51
:10222000D9D17B68DB6B002B13D07B68DB6B8A4AD0
:102230001A657B68DB6B1846FFF788FC0346002BAA
:1022400016D07B68DB6B1B6D7A68D26B10469847A3
:102250000EE0786800F0B4F90AE0786800F0B0F9B0
:1022600006E0786800F0ACF97B6800225A648DE1E2
:1022700000BF8BE17B681B6B012B40F06781D7F8B7
:10228000E43003F01003002B00F06081D7F8E03059
:1022900003F01003002B00F059810023BB607B6822
:1022A0001B681B68BB607B681B685B68BB60BB68A6
:1022B0007B681B685B6903F04003402B40F0CE80D5
:1022C0007B68DB6B1B685B68A7F8BE30B7F8BE3075
:1022D000002B00F0A9807B689B8DB7F8BE209A4246
:1022E00080F0A2807B68B7F8BE20DA857B68DB6B64
:1022F000DB69B3F5807F00F088807B681B680C3356
:10230000C7F88830D7F8883053E8003FC7F88430E2
:10231000D7F8843023F48073C7F8B8307B681B6823
:102320000C33D7F8B820C7F89420C7F89030D7F806
:102330009010D7F8942041E80023C7F88C30D7F8E4
:102340008C30002BD9D17B681B6814337B677B6F83
:1023500053E8003F3B673B6F23F00103C7F8B430FD
:102360007B681B681433D7F8B420C7F88020FB675C
:10237000F96FD7F8802041E80023BB67BB6F002BC3
:10238000E1D17B681B6814333B663B6E53E8003F2A
:10239000FB65FB6D23F04003C7F8B0307B681B681A
:1023A0001433D7F8B020FA66BB66B96EFA6E41E80E
:1023B00000237B667B6E002BE3D17B68202283F8B1
:1023C00042207B6800221A637B681B680C33FB6425
:1023D000FB6C53E8003FBB64BB6C23F01003C7F8F1
:1023E000AC307B681B680C33D7F8AC20BA657B65D2
:1023F000796DBA6D41E800233B653B6D002BE3D15D
:102400007B68DB6B1846FFF731FB7B6802225A635F
:102410007B689A8D7B68DB8D9BB2D31A9BB2194681
:10242000786800F0D6F8B3E07B689B8DB7F8BE20E3
:102430009A4240F0AD807B68DB6BDB69B3F5807F4F
:1024400040F0A6807B6802225A637B689B8D194608
:10245000786800F0BEF89BE05F2700087B689A8DE3
:102460007B68DB8D9BB2D31AA7F8CE307B68DB8DFF
:102470009BB2002B00F08E80B7F8CE30002B00F01E
:1024800089807B681B680C33BB63BB6B53E8003FE0
:102490007B637B6B23F49073C7F8C8307B681B6841
:1024A0000C33D7F8C8207A643B64396C7A6C41E805
:1024B0000023FB63FB6B002BE3D17B681B681433A9
:1024C0007B627B6A53E8003F3B623B6A23F0010377
:1024D000C7F8C4307B681B681433D7F8C4203A634C
:1024E000FB62F96A3A6B41E80023BB62BB6A002BCE
:1024F000E3D17B68202283F842207B6800221A63A4
:102500007B681B680C333B613B6953E8003FFB6011
:10251000FB6823F01003C7F8C0307B681B680C33DE
:10252000D7F8C020FA61BB61B969FA6941E80023B4
:102530007B617B69002BE3D17B6802225A63B7F889
:10254000CE301946786800F044F823E0D7F8E4303C
:1025500003F08003002B09D0D7F8E03003F08003AC
:10256000002B03D0786800F00BF914E0D7F8E430C2
:1025700003F04003002B0ED0D7F8E03003F0400307
:10258000002B08D0786800F04AF904E000BF02E0B0
:1025900000BF00E000BFE837BD4680BD80B483B017
:1025A00000AF786000BF0C37BD4680BC704780B478
:1025B00083B000AF786000BF0C37BD4680BC704769
:1025C00080B483B000AF786000BF0C37BD4680BCDC
:1025D000704780B483B000AF78600B467B8000BF4B
:1025E0000C37BD4680BC704780B586B000AFF86040
:1025F000B9603B601346FB713BE03B6AB3F1FF3FC0
:1026000037D0FFF73DFC02463B68D31A3A6A9A423C
:1026100002D33B6A002B01D103233AE0FB681B681D
:10262000DB6803F00403002B23D0BB68802B20D091
:10263000BB68402B1DD0FB681B681B6803F00803B8
:10264000082B16D100237B61FB681B681B687B612C
:10265000FB681B685B687B617B69F86800F01DF8AC
:10266000FB6808225A64FB68002283F8402001239B
:102670000FE0FB681B681A68BB681340BA689A428F
:102680000CBF01230023DBB21A46FB799A42B4D077
:10269000002318461837BD4680BD80B495B000AF02
:1026A00078607B681B680C337B637B6B53E8003F6F
:1026B0003B633B6B23F49073FB647B681B680C33B8
:1026C000FA6C3A64FB63F96B3A6C41E80023BB6334
:1026D000BB6B002BE5D17B681B6814333B623B6A04
:1026E00053E8003FFB61FB6923F00103BB647B6897
:1026F0001B681433BA6CFA62BB62B96AFA6A41E8C1
:1027000000237B627B6A002BE5D17B681B6B012B6E
:1027100019D17B681B680C33FB60FB6853E8003FF2
:10272000BB60BB6823F010037B647B681B680C33C1
:102730007A6CBA617B617969BA6941E800233B61CF
:102740003B69002BE5D17B68202283F842207B681F
:1027500000221A6300BF5437BD4680BC704780B565
:1027600084B000AF78607B689B6BFB60FB680022E5
:10277000DA85F868FFF724FF00BF1037BD4680BD3B
:1027800080B485B000AF78607B6893F84130DBB2ED
:10279000212B3ED17B689B68B3F5805F14D17B68A9
:1027A0001B69002B10D17B681B6AFB60FB681B88D0
:1027B0001A467B681B68C2F308025A607B681B6A72
:1027C0009A1C7B681A6208E07B681B6A591C7A684D
:1027D00011621A787B681B685A607B68DB8C9BB23D
:1027E000013B9BB27A681946D184002B0FD17B68DC
:1027F0001B68DA687B681B6822F08002DA607B68FD
:102800001B68DA687B681B6842F04002DA600023CC
:1028100000E0022318461437BD4680BC704780B5DF
:1028200082B000AF78607B681B68DA687B681B68E1
:1028300022F04002DA607B68202283F84120786829
:10284000FFF7ACFE002318460837BD4680BD80B5B3
:102850008CB000AF78600023FB620023BB627B6812
:1028600093F84230DBB2222B40F0AA807B689B6851
:10287000B3F5805F15D17B681B69002B11D17B6894
:102880009B6ABB627B681B685B689BB2C3F30803EF
:102890009AB2BB6A1A807B689B6A9A1C7B689A62B0
:1028A00024E07B689B6AFB627B689B68B3F5805F72
:1028B00007D07B689B68002B0AD17B681B69002BC3
:1028C00006D17B681B685B68DAB2FB6A1A7008E0A5
:1028D0007B681B685B68DBB203F07F03DAB2FB6ADC
:1028E0001A707B689B6A5A1C7B689A627B68DB8DD6
:1028F0009BB2013B9BB27A681946D185002B5DD112
:102900007B681B68DA687B681B6822F02002DA604B
:102910007B681B68DA687B681B6822F48072DA6067
:102920007B681B685A697B681B6822F001025A6148
:102930007B68202283F842207B6800225A637B68F0
:102940001B6B012B35D17B6800221A637B681B68E7
:102950000C337B617B6953E8003F3B613B6923F0AB
:1029600010037B627B681B680C337A6A3A62FB61F6
:10297000F9693A6A41E80023BB61BB69002BE5D1E4
:102980007B681B681B6803F01003102B0AD100231F
:10299000FB607B681B681B68FB607B681B685B686F
:1029A000FB60FB687B689B8D19467868FFF711FE1A
:1029B00002E07868FFF7FBFD002302E0002300E05F
:1029C000022318463037BD4680BD00002DE9B04FC8
:1029D000C0B000AFC7F8F400D7F8F4301B681B692B
:1029E00023F44050D7F8F430D968D7F8F4301A6897
:1029F00040EA01031361D7F8F4309A68D7F8F4304D
:102A00001B691A43D7F8F4305B691A43D7F8F430DE
:102A1000DB691343C7F8F830D7F8F4301B68DB687C
:102A200023F4164121F00C01D7F8F4301A68D7F8D6
:102A3000F8300B43D360D7F8F4301B685B6923F49C
:102A40004070D7F8F4309969D7F8F4301A6840EA42
:102A500001035361D7F8F4301A688F4B9A4205D0BE
:102A6000D7F8F4301A688D4B9A4204D1FEF738FE3D
:102A7000C7F8FC0003E0FEF71FFEC7F8FC00D7F81C
:102A8000F430DB69B3F5004F40F00C81D7F8FC302F
:102A90000022C7F8E830C7F8EC20D7E93A452246CB
:102AA0002B469118B9655B41FB65D7E91623214692
:102AB00012EB0108294643EB01094FF000024FF0E9
:102AC00000034FEAC90343EA58734FEAC80290462D
:102AD0009946234618EB0303C7F8E0302B4649EB31
:102AE0000303C7F8E430D7F8F4305B680022C7F876
:102AF000D830C7F8DC20D7E936120B46DB183B6527
:102B0000134642EB03037B65D7E91423D7E9380169
:102B1000FEF772F802460B46614BA3FB02235B09EA
:102B20001C01D7F8FC300022C7F8D030C7F8D420F9
:102B3000D7E9348942464B469118B9645B41FB643E
:102B4000D7E91223414612EB010A494643EB010B38
:102B50004FF000024FF000034FEACB0343EA5A73F1
:102B60004FEACA0292469B4643461AEB0303C7F854
:102B7000C8304B464BEB0303C7F8CC30D7F8F430E2
:102B80005B680022C7F8C030C7F8C420D7E930120C
:102B90000B46DB183B64134642EB03037B64D7E927
:102BA0001023D7E93201FEF727F802460B461146FB
:102BB0003B4BA3FB01235B09642202FB03F3CB1A0B
:102BC000DB0003F13202364BA3FB02235B095B00FF
:102BD00003F4F8731C44D7F8FC300022C7F8B8306F
:102BE000C7F8BC20D7E92E8942464B469118B963F5
:102BF0005B41FB63D7E90E234146511839634946CF
:102C00004B417B634FF000024FF00003D7E90CAB60
:102C10005946CB00514643EA51735146CA0010460B
:102C20001946034642469B18C7F8B0304B460A4641
:102C300042EB0303C7F8B430D7F8F4305B680022E6
:102C4000C7F8A830C7F8AC20D7E92A120B46DB1822
:102C5000BB62134642EB0303FB62D7E90A23D7E9C1
:102C60002C01FDF7C9FF02460B460D4BA3FB0213D7
:102C70005B09642101FB03F3D31ADB003233084AFA
:102C8000A2FB03235B0903F00702D7F8F4301B68AB
:102C900022449A6006E100BF001001400014014088
:102CA0001F85EB51D7F8FC300022C7F8A030C7F8D9
:102CB000A420D7E9288942464B46911839625B41E6
:102CC0007B62D7E9082341465418494643EB010586
:102CD0004FF000024FF00003EB0043EA5473E200B0
:102CE00014461D464346E318C7F898304B4645EB5B
:102CF0000303C7F89C30D7F8F4305B680022C7F8AC
:102D00009030C7F894204FF000024FF00003D7E94D
:102D1000244529468B00214643EA917321468A00C7
:102D2000D7E92601FDF768FF02460B46604BA3FB7F
:102D300002235B091C01D7F8FC300022C7F8883059
:102D4000C7F88C20D7E9228942464B469118B961D1
:102D50005B41FB61D7E90623414651183961494679
:102D60004B417B614FF000024FF00003D7E904AB09
:102D70005946CB00514643EA51735146CA001046AA
:102D80001946034642469B18C7F880304B460A4610
:102D900042EB0303C7F88430D7F8F4305B680022B5
:102DA000BB67FA674FF000024FF00003D7E91E89B6
:102DB00049468B00414643EA917341468A00D7E970
:102DC0002001FDF719FF02460B461146384BA3FBC5
:102DD00001235B09642202FB03F3CB1A1B0132338C
:102DE000334AA2FB03235B0903F0F0031C44D7F82A
:102DF000FC3000223B677A67D7E91C8942464B4684
:102E00009118B9605B41FB60D7E902234146511834
:102E1000396049464B417B604FF000024FF00003A0
:102E2000D7E900AB5946CB00514643EA51735146AE
:102E3000CA0010461946034642469B18BB664B46DD
:102E40000A4642EB0303FB66D7F8F4305B680022C6
:102E50003B667A664FF000024FF00003D7E918890D
:102E600049468B00414643EA917341468A00D7E9BF
:102E70001A01FDF7C1FE02460B460D4BA3FB0213E0
:102E80005B09642101FB03F3D31A1B013233084AA7
:102E9000A2FB03235B0903F00F02D7F8F4301B6891
:102EA00022449A6000BF07F58077BD46BDE8B08F29
:102EB0001F85EB5180B500AFFEF77EFF00F00AF8EA
:102EC00000F078F800F0C6F800F09CFE00F0BAFEC2
:102ED000FCE7000080B594B000AF07F1200330227A
:102EE0000021184632F03FF907F10C0300221A6066
:102EF0005A609A60DA601A610023BB60284B1B6C31
:102F0000274A43F080531364254B1B6C03F0805316
:102F1000BB60BB6800237B60224B1B68214A43F4E3
:102F2000804313601F4B1B6803F480437B607B6806
:102F300001233B624FF480337B620223BB634FF477
:102F40008003FB6304233B64A8237B640223BB64EC
:102F50000423FB6407F120031846FDF73FFF0346F7
:102F6000002B01D000F020F80F23FB6002233B610F
:102F700000237B614FF4A053BB614FF48053FB618E
:102F800007F10C0305211846FEF7A0F90346002BB4
:102F900001D000F009F800BF5037BD4680BD00BF2A
:102FA000003802400070004080B400AF72B600BF2D
:102FB00000BFFDE780B588B000AF07F10C03002229
:102FC0001A605A609A60DA601A610023BB601F4B76
:102FD0001B6B1E4A43F0800313631C4B1B6B03F0F7
:102FE0008003BB60BB6800237B60184B1B6B174AD8
:102FF00043F001031363154B1B6B03F001037B606C
:103000007B6800233B60114B1B6B104A43F00203AB
:1030100013630E4B1B6B03F002033B603B68002203
:1030200004210B48FEF70AFD0423FB6001233B61EA
:1030300000237B610023BB6107F10C0319460448A0
:10304000FEF762FB00BF2037BD4680BD003802405E
:103050000004024080B500AF114B124A1A60104BB9
:103060004FF4E1325A600E4B00229A600C4B002262
:10307000DA600B4B00221A61094B0C225A61084B93
:1030800000229A61064B0022DA610548FEF702FF32
:103090000346002B01D0FFF787FF00BF80BD00BFB4
:1030A00080080020004C004080B58AB000AF7860F6
:1030B00007F1140300221A605A609A60DA601A61FC
:1030C0007B681B681D4A934233D100233B611C4B34
:1030D0001B6C1B4A43F400231364194B1B6C03F451
:1030E00000233B613B690023FB60154B1B6B144ABB
:1030F00043F001031363124B1B6B03F00103FB60EE
:10310000FB6803237B610223BB610023FB61032374
:103110003B6208237B6207F1140319460948FEF756
:10312000F3FA002200213420FEF70FFE3420FEF7D0
:1031300028FE00BF2837BD4680BD00BF004C0040C0
:10314000003802400000024080B584B000AFF86053
:10315000B9607A607B689AB24FF0FF33B96804486F
:10316000FEF7E8FE7B6818461037BD4680BD00BFFD
:103170008008002080B400AF00BFFDE780B400AF3E
:1031800000BFFDE780B400AF00BFFDE780B400AF33
:1031900000BFFDE780B400AF00BFFDE780B400AF23
:1031A00000BFBD4680BC704780B400AF00BFBD46C5
:1031B00080BC704780B400AF00BFBD4680BC704784
:1031C00080B500AFFEF74AFE00BF80BD80B500AFFE
:1031D0000248FEF73BFF00BF80BD00BF8008002013
:1031E00080B483B000AF00237B600F4B5B6C0E4A52
:1031F00043F4804353640C4B5B6C03F480437B606B
:103200007B6800233B60084B1B6C074A43F08053EC
:103210001364054B1B6C03F080533B603B6800BF9D
:103220000C37BD4680BC70470038024080B586B080
:1032300000AF7860144A154BD31A7B617B693B6100
:10324000134B1B68002B02D1114B124A1A60104B12
:103250001A687B6813443A699A4207D232F03CF804
:1032600003460C221A604FF0FF3309E0084B1B683D
:10327000FB60074B1A687B681344054A1360FB68C0
:1032800018461837BD4680BD00C001200008000068
:10329000C8080020C871002080B400AF0123184680
:1032A000BD4680BC704780B582B000AF78603960A1
:1032B00032F012F8034616221A604FF0FF33184618
:1032C0000837BD4680BD80B582B000AF78604FF052
:1032D000FF317868FFF7E7FF00BFFDE780B586B0F4
:1032E00000AFF860B9607A6000237B610AE0AFF359
:1032F00000800146BB685A1CBA60CAB21A707B696A
:1033000001337B617A697B689A42F0DB7B681846FF
:103310001837BD4680BD80B483B000AF78604FF0F1
:10332000FF3318460C37BD4680BC704780B483B06D
:1033300000AF786039603B684FF400525A60002358
:1033400018460C37BD4680BC704780B483B000AFD0
:103350007860012318460C37BD4680BC704780B4A6
:1033600085B000AFF860B9607A6000231846143762
:10337000BD4680BC7047000080B582B000AF786069
:1033800039603A68012131482AF03AFF0346002BA0
:1033900051D02E4B1B6803F6E8132D4A93602B4B3C
:1033A0001B6803F6E8132A4AD360284B1B6803F511
:1033B0008C531033274A9360244B1B6803F58C53BE
:1033C0001033244AD360214B1B68234A93601F4B60
:1033D0001B68214AD3601D4B1B6803F57A631F4AA3
:1033E00093601A4B1B6803F57A631C4AD360174B32
:1033F0001B6803F53D531833194A9360134B1B6840
:1034000003F53D531833164AD360104B1B68154A19
:1034100093600E4B1B68134AD3600C4B1B6803F57B
:103420007873114A9360094B1B6803F578730E4A51
:10343000D360012305E01322302178682AF062FF6F
:10344000002318460837BD4680BD00BFCC080020C9
:10345000100000209000002020000020A00000208C
:1034600030000020B00000204000002080B582B075
:1034700000AF786039603A6801212C482AF06EFE6E
:103480000346002B47D02A4B1B6843F08043284A51
:103490001360264B1B68264A9360244B1B68244A02
:1034A000D360244B1B6843F08043224A13601F4BB8
:1034B0001B6803F520731F4A93601C4B1B6803F5C0
:1034C00020731C4AD3601C4B1B6843F080431A4A8C
:1034D0001360164B1B6803F52873174A9360134B50
:1034E0001B6803F52873144AD360144B1B6843F020
:1034F0008043124A13600D4B1B6803F53E43203393
:103500000E4A9360094B1B6803F53E4320330B4A78
:10351000D360012305E01222302178682AF0F2FE00
:10352000002318460837BD4680BD00BFD0080020E4
:10353000500000206000002070000020800000206B
:1035400080B582B000AF786078682AF0CFFE03467D
:1035500018460837BD4680BD80B584B002AF78609C
:10356000396000230193052300930123044A39683D
:1035700078682AF0B5FF034618460837BD4680BD77
:10358000B805002080B594B000AFF860B9607A60EB
:103590000021F868FFF7E0FF0346BB6497F8483066
:1035A000002B01D0BB6C67E007F11003184600F058
:1035B000E7F8034683F00103DBB2002B08D0FB6879
:1035C0001B681846FFF7BCFF0346BB64BB6C53E0A7
:1035D0000023A7F84E3012E0B7F84E10B7F84E307F
:1035E0009B00BA6813441A6807F110030C3318469D
:1035F0002AF0A6FDB7F84E300133A7F84E30BB686D
:10360000002B04D0FB8BB7F84E209A42E4D3002362
:10361000A7F84C3012E0B7F84C10B7F84C309B00CC
:103620007A6813441A6807F11003043318462AF025
:1036300087FDB7F84C300133A7F84C307B68002B7E
:1036400004D0FB8AB7F84C209A42E4D3FB681B688D
:1036500007F110021146184600F046F8034683F0C1
:103660000103DBB2002B06D0FB681B681846FFF78E
:1036700067FF0346BB64BB6C18465037BD4680BD30
:1036800080B582B000AF786039607B68002B04D1D0
:10369000064B7B607B68064A1A60396878682AF0B6
:1036A00037FE034618460837BD4680BDB8050020E2
:1036B0000001C0A180B582B000AF786039607B683E
:1036C000002B04D1064B7B607B68064A1A60396880
:1036D00078682AF093FE034618460837BD4680BD39
:1036E000B80500200001C0A180B584B000AF7860AB
:1036F0003960396878682AF035FFF8600123FB7279
:10370000FB68002B01D1002326E03968F868FFF739
:10371000ADFE03461A46FB7A1340002B14BF01236B
:103720000023FB723968F868FFF726FE03461A4645
:10373000FB7A1340002B14BF01230023FB7278682F
:103740002AF0A8FF03461A46FB7A1340002B14BF49
:1037500001230023FB72FB7A18461037BD4680BD5B
:1037600080B584B000AFF860B9607A607A68B968F3
:10377000F8682AF0BDFF034618461037BD4680BDE5
:1037800080B586B000AF78607B68002B01D1002344
:1037900016E00D4A07F1100392E8030083E80300E6
:1037A0000A4A07F1080392E8030083E8030007F1DF
:1037B000100207F10803194678682AF075FD0346E0
:1037C00018461837BD4680BD206D0308286D0308D4
:1037D00090B5A5B000AF29F07BFF044629F082FF29
:1037E00003464F4A4F4911604D4A54604C4A93601A
:1037F00029F080FF044629F087FF0346484A4A49DA
:10380000D160474A1461464A536129F03DFF04469E
:1038100029F044FF0346424A44499161404AD46139
:103820003F4A136229F042FF044629F049FF03464C
:103830003B4A3F4951623A4A9462394AD36229F07D
:10384000E9FF044629F0F0FF0346354A3949116380
:10385000334A5463324A936329F05EFF044629F0E9
:1038600065FF03462E4A3449D1632D4A14642C4A1D
:10387000536429F075FF044629F07CFF0346284A6B
:103880002E499164264AD464254A136529F09EFF87
:10389000044629F0A5FF0346214A29495165204ADB
:1038A00094651F4AD36529F07FFF044629F086FFFF
:1038B00003461B4A23491166194A5466184A9366FF
:1038C00029F060FF044629F067FF0346144A1E49A9
:1038D000D166134A1467124A536729F089FF0446D8
:1038E00029F090FF03460E4A184991670C4AD467A5
:1038F0000B4AC2F8803029F021FF044629F028FF46
:103900000346074A1249C2F88410054AC2F88840A3
:10391000034AC2F88C3000BF9437BD4690BD00BF4B
:103920000C480020C86D0308186E0308E06D0308FA
:10393000E46D0308E86D0308EC6D0308F46D0308FB
:10394000FC6D0308046E0308086E03080C6E030880
:10395000146E030880B584B000AF786000227968E7
:103960001948FFF70FFE0346FB603B7B002B0BD093
:103970003B7B1946FB68C3F317231A46134831F003
:1039800083FA4FF0FF331AE00F4B1B6800211846F3
:10399000FFF776FE03460E4A13600B4B1B680021AF
:1039A0001846FFF787FE03460A4A1360084B1B6858
:1039B000094A5A60074B1B68084A5A600023184698
:1039C0001037BD4680BD00BFA4380020206E03081C
:1039D000A8380020AC3800205840002000480020C3
:1039E00080B582B000AF124B1B68124A1168124AB0
:1039F00012681846FFF7B4FE78607B68012B12D07E
:103A00000B4B1B681846FFF79BFD03463B603B785A
:103A100019463B68C3F317231A46084831F034FAB5
:103A20004FF0FF3300E0002318460837BD4680BD45
:103A3000A4380020A8380020AC380020506E0308BD
:103A400080B594B002AF78607B681B6819465D480A
:103A500031F01AFA7B6858687B689B685A4A1946A5
:103A600029F0BEFD0346002B05D0584831F074FA0A
:103A70004FF0FF33A1E0564A534B104619464FF41E
:103A8000F5631A4631F055FCFFF7AAFF0346002BF9
:103A900005D0504831F060FA6FF001038DE000234B
:103AA0007B644D4B3B647B681B6819464B4831F087
:103AB000EBF90023FB6341E0494AFB6B134493F9A4
:103AC0000030803307EE903AF8EEE77A9FED457AC2
:103AD00067EE877AFB6B9B0048333B44403BC3ED6A
:103AE000007AFB6B9B0048333B44403B1B68184605
:103AF000FCF7B2FC02460B463B48F96B50F821102C
:103B000000913A4831F0C0F9FB6B9B0048333B44CD
:103B1000403BD3ED007A97ED107AB4EEE77AF1EE00
:103B200010FA08D5FB6B9B0048333B44403B1B68B5
:103B30003B64FB6B7B64FB6B0133FB63FB6B0B2B0D
:103B4000BADD0023BB637B681A6827497B6C51F898
:103B5000233019461046FDF789F80346002B02D1A1
:103B60000123BB6315E07B681B6821491846FDF7FC
:103B70007DF80346002B0CD11B4A7B6C52F8233096
:103B80001C491846FDF772F80346002B01D10123AA
:103B9000BB63154A7B6C52F82310BB6B002B01D022
:103BA000154B00E0154B1A46154831F06DF9BB6B0B
:103BB000002B14BF01230023DBB218464837BD4653
:103BC00080BD00BF786E0308B0380020906E0308F7
:103BD00058400020AC6E030800C079C4C06E0308D2
:103BE000004800200000803B60060020D86E0308DB
:103BF000186E0308C86D0308E46E0308E86E030836
:103C0000F46E030880B582B000AF0B4831F0A4F920
:103C100029F050FC78607B68002B03D07968074856
:103C200031F032F90648FFF795FEFFF7D1FD00BFEE
:103C30000837BD4680BD00BF086F03081C6F03082E
:103C40005C06002080B582B000AF214B1B68002BC2
:103C50003AD1204B1B680B2B36DC1E4B1A681346DF
:103C60005B0013449B001C4A13441846FFF7E8FE10
:103C700078607B68002B05DD184B1B680133174A01
:103C8000136004E0164B1B680133154A1360114B97
:103C90001B6801330F4A13600E4B1B680B2B13DD9F
:103CA0000B4B01221A600F4831F056F90B4B1B6881
:103CB0000C2219460C4831F0E7F8094B1B680C221E
:103CC00019460A4831F0E0F800BF0837BD4680BD0C
:103CD000A04800209C4800200C480020A448002058
:103CE000A8480020346F03085C6F03086C6F03085A
:103CF000DFF834D0FDF762F80C480D490D4A002377
:103D000002E0D458C4500433C4188C42F9D30A4A90
:103D10000A4C002301E013600432A242FBD331F0CD
:103D2000E1FAFFF7C7F8704700C00120000000204B
:103D30005C08002080900A085C080020C471002004
:103D4000FEE72DE9F00FADF5547D00AF07F5547493
:103D5000A4F50F74206007F55470A0F51070016091
:103D600007F55471A1F511710A6007F55472A2F5B7
:103D700012721360D7F89C23D30F13445B10C7F85B
:103D80004C3300F0B5BD07F55473A3F5A67207F5E3
:103D90008A73136007F55473A3F5A6731B681B6839
:103DA0001B681A4607F55473A3F5FE731A6007F5EE
:103DB0005473A3F5A6731B681B681A1D07F554738B
:103DC000A3F5A6731B681A6007F55473A3F5FE7379
:103DD0001B68C7F83C3307F55473A3F5A47207F5C5
:103DE0008873136007F55473A3F5A4731B681B68ED
:103DF0001B681A4607F55473A3F500731A6007F59C
:103E00005473A3F5A4731B681B681A1D07F554733C
:103E1000A3F5A4731B681A6007F55473A3F5007328
:103E20001B68C7F83833D7F83C331BB21A46D7F8AB
:103E3000803302FA03F3C7F8483307F55473A3F548
:103E40008C72D7F84833136007F55473A3F58E725C
:103E500007F55473A3F512731B68136007F55473C9
:103E6000A3F59072D7F87033136007F55473A3F578
:103E700090731B6823EAE37207F55473A3F58C7300
:103E80001B6803FA02F207F55473A3F592731A60E4
:103E900007F55473A3F5947207F55473A3F58E7365
:103EA0001B68136007F55473A3F596720023136023
:103EB00007F55473A3F502724FF08043136007F5C2
:103EC0005473A3F5027200235360D7E9520107F53A
:103ED0005473A3F592731B68DA17C7F89830C7F8C4
:103EE0009C2007F55473A3F594731B68DA17C7F881
:103EF0009030C7F89420D7F89C30D7F8902002FB78
:103F000003F2D7F89430D7F8984004FB03F3134436
:103F1000D7F89820D7F89040A2FB0424C7F8F440C3
:103F2000C7F8F020D7F8F4201344C7F8F430D7F8D6
:103F3000F030C318BB64D7F8F43041EB0303FB64E3
:103F4000D7E91234C7E95234D7E952234FF00000C1
:103F50004FF00001D00F40EA4300D91707F5547322
:103F6000A3F596720346136007F55473A3F5967391
:103F7000196807F55473A3F590731B68002B06DCD2
:103F800007F55473A3F590731B685A4200E00022B2
:103F900007F55473A3F59873196007F55473A3F5E7
:103FA0009A731A6007F55473A3F59C72002313608B
:103FB00007F55473A3F59A7301221B6802FA03F103
:103FC00007F55473A3F59E724B1E136007F55473E7
:103FD000A3F5A07107F55473A3F5987207F5547310
:103FE000A3F59E7312681B6813400B6007F55473AA
:103FF000A3F59C7107F55473A3F5987207F55473F4
:10400000A3F59A7312681B6842FA03F30B6007F575
:104010005473A3F5A27207F55473A3F59E731B683E
:104020005B10136007F55473A3F59C731B68002B9A
:104030000ADA07F55473A3F5A27207F55473A3F5D2
:10404000A2731B680133136007F55473A3F5A072C4
:1040500007F55473A3F5A27312681B689A420ADD30
:1040600007F55473A3F59C7207F55473A3F59C737D
:104070001B680133136007F55473A3F59C731B6829
:1040800000BFC7F84833D7F838331BB21A46D7F801
:10409000803302FA03F3C7F84433D7F84433C7F840
:1040A0006832D7F87833C7F86432D7F87C33C7F86A
:1040B0006032D7F8603223EAE372D7F8683293406F
:1040C000C7F85C32D7F86432C7F858320023C7F813
:1040D000543207F55473A3F504724FF08043136014
:1040E00007F55473A3F5047200235360D7E9500118
:1040F000D7F85C32DA17C7F8A830C7F8AC20D7F881
:104100005832DA17C7F8A030C7F8A420D7F8AC3077
:10411000D7F8A02002FB03F2D7F8A430D7F8A840C4
:1041200004FB03F31344D7F8A820D7F8A040A2FB60
:104130000424C7F8FC40C7F8F820D7F8FC20134443
:10414000C7F8FC30D7F8F830C3183B65D7F8FC3017
:1041500041EB03037B65D7E91434C7E95034D7E951
:1041600050234FF000004FF00001D00F40EA430011
:10417000D9170346C7F85432D7F85412D7F860322B
:10418000002B03DCD7F860325A4200E0002207F52A
:104190005473A3F58073196007F55473A3F5827304
:1041A0001A6007F55473A3F584720023136007F5B2
:1041B0005473A3F5827301221B6802FA03F107F519
:1041C0005473A3F586724B1E136007F55473A3F561
:1041D000887107F55473A3F5807207F55473A3F53E
:1041E000867312681B6813400B6007F55473A3F5C0
:1041F000847107F55473A3F5807207F55473A3F522
:10420000827312681B6842FA03F30B6007F554735C
:10421000A3F58A7207F55473A3F586731B685B10C8
:10422000136007F55473A3F584731B68002B0ADA37
:1042300007F55473A3F58A7207F55473A3F58A73CF
:104240001B680133136007F55473A3F5887207F5F3
:104250005473A3F58A7312681B689A420ADD07F546
:104260005473A3F5847207F55473A3F584731B6824
:104270000133136007F55473A3F584731B6800BF03
:10428000C7F84433D7F84823D7F844331344C7F862
:104290004033D7F84033C7F89832D7F88C33C7F893
:1042A0009432D7F89033C7F89032D7F8903223EA97
:1042B000E372D7F898329340C7F88C32D7F894322B
:1042C000C7F888320023C7F8843207F55473A3F582
:1042D00006724FF08043136007F55473A3F506721E
:1042E00000235360D7E94E01D7F88C32DA17C7F8AC
:1042F000B830C7F8BC20D7F88832DA17C7F8B03022
:10430000C7F8B420D7F8BC30D7F8B02002FB03F2CE
:10431000D7F8B430D7F8B84004FB03F31344D7F808
:10432000B820D7F8B040A2FB0424C7F80441C7F86E
:104330000021D7F804211344C7F80431D7F800311D
:10434000C318BB65D7F8043141EB0303FB65D7E91C
:104350001634C7E94E34D7E94E234FF000004FF032
:104360000001D00F40EA4300D9170346C7F8843252
:10437000D7F88422D7F89032002B03DCD7F890329C
:104380005B4200E00023C7F88022C7F87C3200239C
:10439000C7F878320122D7F87C3202FA03F3013BE6
:1043A000C7F87432D7F88022D7F874321340C7F8B0
:1043B0007032D7F88022D7F87C3242FA03F3C7F87C
:1043C0007832D7F874325B10C7F86C32D7F878328D
:1043D000002B04DAD7F86C320133C7F86C32D7F807
:1043E0007022D7F86C329A4204DDD7F87832013364
:1043F000C7F87832D7F8783200BFC7F84033D7F81B
:104400004023D7F894339342B8BF1346C7F84033DC
:10441000D7F84023D7F898339342A8BF1346C7F87C
:104420004033D7F84033A7F83633D7F83C331B1462
:104430001BB21A46D7F8803302FA03F3C7F84833A1
:10444000D7F84833C7F8C83207F55473A3F5127389
:104450001B68C7F8C432D7F87033C7F8C032D7F832
:10446000C03223EAE372D7F8C8329340C7F8BC32AF
:10447000D7F8C432C7F8B8320023C7F8B43207F50A
:104480005473A3F508724FF08043136007F554731B
:10449000A3F5087200235360D7E94C01D7F8BC326A
:1044A000DA17C7F8C830C7F8CC20D7F8B832DA170F
:1044B000C7F8C030C7F8C420D7F8CC30D7F8C02030
:1044C00002FB03F2D7F8C430D7F8C84004FB03F36B
:1044D0001344D7F8C820D7F8C040A2FB0456334491
:1044E0001E4643193B6641EB06037B66D7E9183449
:1044F000C7E94C34D7E94C234FF000004FF00001DE
:10450000D00F40EA4300D9170346C7F8B432D7F8B2
:10451000B422D7F8C032002B03DCD7F8C0325B429C
:1045200000E00023C7F8B022C7F8AC320023C7F878
:10453000A8320122D7F8AC3202FA03F3013BC7F8E4
:10454000A432D7F8B022D7F8A4321340C7F8A0326B
:10455000D7F8B022D7F8AC3242FA03F3C7F8A83242
:10456000D7F8A4325B10C7F89C32D7F8A832002BDA
:1045700004DAD7F89C320133C7F89C32D7F8A0226E
:10458000D7F89C329A4204DDD7F8A8320133C7F835
:10459000A832D7F8A83200BFC7F84833D7F8383365
:1045A0001B141BB21A46D7F8803302FA03F3C7F87C
:1045B0004433D7F84433C7F8F832D7F87833C7F81C
:1045C000F432D7F87C33C7F8F032D7F8F03223EA68
:1045D000E372D7F8F8329340C7F8EC32D7F8F432E8
:1045E000C7F8E8320023C7F8E43207F55473A3F59F
:1045F0000A724FF08043136007F55473A3F50A72F3
:1046000000235360D7E94A01D7F8EC32DA17C7F82C
:10461000D830C7F8DC20D7F8E832DA17C7F8D0303E
:10462000C7F8D420D7F8DC30D7F8D02002FB03F24B
:10463000D7F8D430D7F8D84004FB03F31344D7F8A5
:10464000D820D7F8D040A2FB04AB5B449B4610EBCC
:104650000A03BB6641EB0B03FB66D7E91A34C7E9D3
:104660004A34D7E94A234FF000004FF00001D00F41
:1046700040EA4300D9170346C7F8E432D7F8E422EA
:10468000D7F8F032002B03DCD7F8F0325B4200E0C1
:104690000023C7F8E022C7F8DC320023C7F8D8327D
:1046A0000122D7F8DC3202FA03F3013BC7F8D43217
:1046B000D7F8E022D7F8D4321340C7F8D032D7F871
:1046C000E022D7F8DC3242FA03F3C7F8D832D7F841
:1046D000D4325B10C7F8CC32D7F8D832002B04DACA
:1046E000D7F8CC320133C7F8CC32D7F8D022D7F87C
:1046F000CC329A4204DDD7F8D8320133C7F8D83229
:10470000D7F8D83200BFC7F84433D7F84823D7F8D2
:1047100044331344C7F84033D7F84033C7F828333D
:10472000D7F88C33C7F82433D7F89033C7F8203341
:10473000D7F8203323EAE372D7F828339340C7F839
:104740001C33D7F82433C7F818330023C7F81433C1
:1047500007F55473A3F50C724FF08043136007F50F
:104760005473A3F50C7200235360D7E94801D7F8BE
:104770001C33DA17C7F8E830C7F8EC20D7F818333D
:10478000DA17C7F8E030C7F8E420D7F8EC30D7F8EC
:10479000E02002FB03F2D7F8E430D7F8E84004FB4E
:1047A00003F31344D7F8E820D7F8E040A2FB0489CC
:1047B0004B44994610EB08033B6741EB09037B67C9
:1047C000D7E91C34C7E94834D7E948234FF0000043
:1047D0004FF00001D00F40EA4300D9170346C7F855
:1047E0001433D7F81423D7F82033002B03DCD7F881
:1047F00020335B4200E00023C7F81023C7F80C33D6
:104800000023C7F808330122D7F80C3302FA03F368
:10481000013BC7F80433D7F81023D7F8043313400B
:10482000C7F80033D7F81023D7F80C3342FA03F354
:10483000C7F80833D7F804335B10C7F8FC32D7F851
:104840000833002B04DAD7F8FC320133C7F8FC3206
:10485000D7F80023D7F8FC329A4204DDD7F80833A2
:104860000133C7F80833D7F8083300BFC7F840331F
:10487000D7F84023D7F894339342B8BF1346C7F80C
:104880004033D7F84023D7F898339342A8BF134654
:10489000C7F84033D7F84033A7F83433B7F9363385
:1048A0009AB2B7F934331B041A4307F56173C7F89A
:1048B0003033C7F82C2307F55473A3F50D72D7F8DE
:1048C0002C331360D7F830331A6807F55473A3F507
:1048D0000D731B681360D7F830331B681A1DD7F8A7
:1048E00030331A6000BFD7F84C33013BC7F84C3364
:1048F000D7F84C33002B3FF746AAD7F89C3303F088
:104900000103C7F84C33A4E307F55473A3F50F7301
:1049100019688A1C07F55473A3F50F731A60B1F96F
:1049200000301A46D7F8803302FA03F3C7F8483349
:1049300007F55473A3F5107319688A1C07F55473AF
:10494000A3F510731A60B1F900301A46D7F8803316
:1049500002FA03F3C7F8443307F55473A3F5D8728A
:10496000D7F84833136007F55473A3F5DA7207F5E7
:104970005473A3F512731B68136007F55473A3F502
:10498000DC72D7F87033136007F55473A3F5DC734A
:104990001B6823EAE37207F55473A3F5D8731B6809
:1049A00003FA02F207F55473A3F5DE731A6007F5F4
:1049B0005473A3F5E07207F55473A3F5DA731B681B
:1049C000136007F55473A3F5E2720023136007F533
:1049D0005473A3F5F4724FF08043136007F55473DA
:1049E000A3F5F47200235360D7E95A0107F5547315
:1049F000A3F5DE731B68DA173B617A6107F5547320
:104A0000A3F5E0731B68DA17BB60FA60D7E90456B8
:104A10003346D7E90289424602FB03F24B462C4655
:104A200004FB03F313442A464446A2FB0424FC6718
:104A3000BA67FA6F1344FB67D7E91E452346C318CC
:104A40003B602B4641EB03037B60D7E90034C7E9A9
:104A50005A34D7E95A234FF000004FF00001D00F2D
:104A600040EA4300D91707F55473A3F5E2720346F1
:104A7000136007F55473A3F5E273196807F55473CF
:104A8000A3F5DC731B68002B06DC07F55473A3F554
:104A9000DC731B685A4200E0002207F55473A3F54B
:104AA000E473196007F55473A3F5E6731A6007F50C
:104AB0005473A3F5E8720023136007F55473A3F54C
:104AC000E67301221B6802FA03F107F55473A3F59C
:104AD000EA724B1E136007F55473A3F5EC7107F5EA
:104AE0005473A3F5E47207F55473A3F5EA731268DF
:104AF0001B6813400B6007F55473A3F5E87107F5C5
:104B00005473A3F5E47207F55473A3F5E6731268C2
:104B10001B6842FA03F30B6007F55473A3F5EE72BA
:104B200007F55473A3F5EA731B685B10136007F570
:104B30005473A3F5E8731B68002B0ADA07F5547366
:104B4000A3F5EE7207F55473A3F5EE731B680133FA
:104B5000136007F55473A3F5EC7207F55473A3F5CE
:104B6000EE7312681B689A420ADD07F55473A3F5C9
:104B7000E87207F55473A3F5E8731B6801331360FB
:104B800007F55473A3F5E8731B6800BFC7F84833F3
:104B900007F55473A3F5C072D7F84433136007F5D3
:104BA0005473A3F5C272D7F87833136007F55473C2
:104BB000A3F5C472D7F87C33136007F55473A3F5DB
:104BC000C4731B6823EAE37207F55473A3F5C0733B
:104BD0001B6803FA02F207F55473A3F5C6731A6053
:104BE00007F55473A3F5C87207F55473A3F5C273A0
:104BF0001B68136007F55473A3F5CA720023136092
:104C000007F55473A3F5F8724FF08043136007F56E
:104C10005473A3F5F87200235360D7E9580107F5E0
:104C20005473A3F5C6731B68DA17BB62FA6207F503
:104C30005473A3F5C8731B68DA173B627A62D7E92D
:104C40000A563346D7E90889424602FB03F24B462F
:104C50002C4604FB03F313442A464446A2FB0424D7
:104C6000C7F88440C7F88020D7F884201344C7F8D9
:104C70008430D7E920452346C318BB612B4641EB5E
:104C80000303FB61D7E90634C7E95834D7E9582351
:104C90004FF000004FF00001D00F40EA4300D91759
:104CA00007F55473A3F5CA720346136007F55473EE
:104CB000A3F5CA73196807F55473A3F5C4731B6889
:104CC000002B06DC07F55473A3F5C4731B685A4226
:104CD00000E0002207F55473A3F5CC73196007F5C3
:104CE0005473A3F5CE731A6007F55473A3F5D0720D
:104CF0000023136007F55473A3F5CE7301221B68DC
:104D000002FA03F107F55473A3F5D2724B1E136038
:104D100007F55473A3F5D47107F55473A3F5CC725A
:104D200007F55473A3F5D27312681B6813400B6028
:104D300007F55473A3F5D07107F55473A3F5CC723E
:104D400007F55473A3F5CE7312681B6842FA03F398
:104D50000B6007F55473A3F5D67207F55473A3F5EA
:104D6000D2731B685B10136007F55473A3F5D073FF
:104D70001B68002B0ADA07F55473A3F5D67207F502
:104D80005473A3F5D6731B680133136007F554738E
:104D9000A3F5D47207F55473A3F5D67312681B6894
:104DA0009A420ADD07F55473A3F5D07207F55473E0
:104DB000A3F5D0731B680133136007F55473A3F593
:104DC000D0731B6800BFC7F84433D7F84823D7F81F
:104DD00044331344C7F8403307F55473A3F5A8725E
:104DE000D7F84033136007F55473A3F5AA72D7F8C8
:104DF0008C33136007F55473A3F5AC72D7F8903376
:104E0000136007F55473A3F5AC731B6823EAE372D0
:104E100007F55473A3F5A8731B6803FA02F207F5AC
:104E20005473A3F5AE731A6007F55473A3F5B0720B
:104E300007F55473A3F5AA731B68136007F5547341
:104E4000A3F5B2720023136007F55473A3F5FC7247
:104E50004FF08043136007F55473A3F5FC720023F1
:104E60005360D7E9560107F55473A3F5AE731B6879
:104E7000DA173B647A6407F55473A3F5B0731B68C3
:104E8000DA17BB63FA63D7E910563346D7E90E89C0
:104E9000424602FB03F24B462C4604FB03F3134449
:104EA0002A464446A2FB0424C7F88C40C7F8882051
:104EB000D7F88C201344C7F88C30D7E92245234615
:104EC000C3183B632B4641EB03037B63D7E90C34E8
:104ED000C7E95634D7E956234FF000004FF00001E0
:104EE000D00F40EA4300D91707F55473A3F5B27207
:104EF0000346136007F55473A3F5B273196807F5F9
:104F00005473A3F5AC731B68002B06DC07F55473D0
:104F1000A3F5AC731B685A4200E0002207F55473F6
:104F2000A3F5B473196007F55473A3F5B6731A604B
:104F300007F55473A3F5B8720023136007F5547393
:104F4000A3F5B67301221B6802FA03F107F5547347
:104F5000A3F5BA724B1E136007F55473A3F5BC7129
:104F600007F55473A3F5B47207F55473A3F5BA7338
:104F700012681B6813400B6007F55473A3F5B871F2
:104F800007F55473A3F5B47207F55473A3F5B6731C
:104F900012681B6842FA03F30B6007F55473A3F51C
:104FA000BE7207F55473A3F5BA731B685B101360E8
:104FB00007F55473A3F5B8731B68002B0ADA07F5DD
:104FC0005473A3F5BE7207F55473A3F5BE731B6843
:104FD0000133136007F55473A3F5BC7207F55473DE
:104FE000A3F5BE7312681B689A420ADD07F5547375
:104FF000A3F5B87207F55473A3F5B8731B680133B2
:10500000136007F55473A3F5B8731B6800BFC7F8A6
:105010004033D7F84023D7F894339342B8BF1346B0
:10502000C7F84033D7F84023D7F898339342A8BF46
:105030001346C7F84033D7F88423931CC7F884334A
:10504000D7F840331BB21380D7F84C33013BC7F875
:105050004C33D7F84C33002B3FF756AC002318469F
:1050600007F55477BD46BDE8F00F70472DE9F00F06
:10507000ADF5BB6D00AF07F5BB64A4F2044420603E
:1050800007F5BB60A0F58160016007F5BB61A1F287
:105090000C410A6007F5BB62A2F58262136007F556
:1050A000BB63A3F20C431B681A0407F5BB63A3F2AE
:1050B0000C431B689BB21343C7F8D035D7F8FC35B7
:1050C0001A04D7F8FC359BB21343C7F8CC35D7F890
:1050D00024369B10C7F8D43501F0DDBE07F5BB635D
:1050E000A3F5637207F5BB63A3F204431B68136067
:1050F00007F5BB63A3F52B7207F51C73136007F567
:10510000BB63A3F52C7207F51D73136007F5BB6332
:10511000A3F52D7207F51373136007F5BB63A3F5B1
:105120002D731B681B681B681A4607F5BB63A3F544
:1051300064731A6007F5BB63A3F52D731B681B68C6
:105140001A1D07F5BB63A3F52D731B681A6007F5DD
:10515000BB63A3F564731A6807F5BB63A3F52E73ED
:105160001A6007F5BB63A3F52E731A6807F5BB63D6
:10517000A3F52F731A6007F5BB63A3F530720823FC
:10518000136007F5BB63A3F5307207F5BB63A3F5A6
:1051900030731B6803F01F03136007F5BB63A3F5AF
:1051A00030731B68002B05D107F5BB63A3F52F7384
:1051B0001A680AE007F5BB63A3F52F7207F5BB6316
:1051C000A3F5307312681B68DA4107F5BB63A3F5DA
:1051D00031731A6007F5BB63A3F531731B682FFAAF
:1051E00083F207F5BB63A3F532731A6007F5BB635F
:1051F000A3F532731B681A4607F5BB63A3F52C733E
:105200001B681A6007F5BB63A3F52E731A6807F5D0
:10521000BB63A3F533731A6007F5BB63A3F5337360
:105220001B682FFA83F207F5BB63A3F534731A608A
:1052300007F5BB63A3F534731B681A4607F5BB6318
:10524000A3F52B731B681A6007F5BB63A3F56373A3
:105250001A6807F5BB63A3F204431A6007F5BB6342
:10526000A3F5657207F5BB63A3F581631B68136043
:1052700007F5BB63A3F5217207F51A73136007F5F1
:10528000BB63A3F5227207F51B73136007F5BB63BD
:10529000A3F5237207F51173136007F5BB63A3F53C
:1052A00023731B681B681B681A4607F5BB63A3F5CD
:1052B00066731A6007F5BB63A3F523731B681B684D
:1052C0001A1D07F5BB63A3F523731B681A6007F566
:1052D000BB63A3F566731A6807F5BB63A3F5247374
:1052E0001A6007F5BB63A3F524731A6807F5BB635F
:1052F000A3F525731A6007F5BB63A3F5267208238F
:10530000136007F5BB63A3F5267207F5BB63A3F52E
:1053100026731B6803F01F03136007F5BB63A3F537
:1053200026731B68002B05D107F5BB63A3F5257316
:105330001A680AE007F5BB63A3F5257207F5BB639E
:10534000A3F5267312681B68DA4107F5BB63A3F562
:1053500027731A6007F5BB63A3F527731B682FFA41
:1053600083F207F5BB63A3F528731A6007F5BB63E7
:10537000A3F528731B681A4607F5BB63A3F52273D0
:105380001B681A6007F5BB63A3F524731A6807F559
:10539000BB63A3F529731A6007F5BB63A3F52973F3
:1053A0001B682FFA83F207F5BB63A3F52A731A6013
:1053B00007F5BB63A3F52A731B681A4607F5BB63A1
:1053C000A3F521731B681A6007F5BB63A3F565732A
:1053D0001A6807F5BB63A3F581631A6007F5BB6321
:1053E000A3F559731A6807F5BB63A3F51F731A6019
:1053F00007F5BB63A3F52072D7F8D035136007F526
:10540000BB63A3F51F731A6807F5BB63A3F520738D
:105410001B6892FA03F207F5BB63A3F559731A6090
:1054200007F5BB63A3F55A731A6807F5BB63A3F5C9
:105430001D731A6007F5BB63A3F51E72D7F8D0354C
:10544000136007F5BB63A3F51D731A6807F5BB630B
:10545000A3F51E731B6892FA03F207F5BB63A3F56D
:105460005A731A6007F5BB63A3F55B731A6807F5F7
:10547000BB63A3F51B731A6007F5BB63A3F51C722E
:10548000D7F8CC35136007F5BB63A3F51B731A6817
:1054900007F5BB63A3F51C731B6892FA03F207F5CB
:1054A000BB63A3F55B731A6007F5BB63A3F55C737D
:1054B0001A6807F5BB63A3F519731A6007F5BB6398
:1054C000A3F51A72D7F8CC35136007F5BB63A3F5C3
:1054D00019731A6807F5BB63A3F51A731B6892FA70
:1054E00003F207F5BB63A3F55C731A6007F5BB63B2
:1054F000A3F55A731B689AB2D7F8083602FA03F379
:10550000C7F8C83507F5BB63A3F50D72D7F8C835E2
:10551000136007F5BB63A3F50E7207F5BB63A3F534
:1055200082631B68136007F5BB63A3F50F72D7F89E
:10553000F835136007F5BB63A3F50F731B6823EA07
:10554000E37207F5BB63A3F50D731B6803FA02F260
:1055500007F5BB63A3F510731A6007F5BB63A3F5EA
:10556000117207F5BB63A3F50E731B68136007F593
:10557000BB63A3F512720023136007F5BB63A3F5A9
:1055800068724FF08043136007F5BB63A3F5687240
:1055900000235360D7E98E0107F5BB63A3F51073B1
:1055A0001B68DA17C7F8C830C7F8CC2007F5BB630B
:1055B000A3F511731B68DA17C7F8C030C7F8C42009
:1055C000D7F8CC30D7F8C02002FB03F2D7F8C430AC
:1055D000D7F8C84004FB03F31344D7F8C820D7F822
:1055E000C040A2FB0424C7F88441C7F88021D7F843
:1055F00084211344C7F88431D7F88031C318BB64C1
:10560000D7F8843141EB0303FB64D7E91234C7E9CF
:105610008E34D7E98E234FF000004FF00001D00FF9
:1056200040EA4300D91707F5BB63A3F5127203469E
:10563000136007F5BB63A3F51273196807F5BB6325
:10564000A3F50F731B68002B06DC07F5BB63A3F5FE
:105650000F731B685A4200E0002207F5BB63A3F5F5
:105660001373196007F5BB63A3F514731A6007F58C
:10567000BB63A3F515720023136007F5BB63A3F5A5
:10568000147301221B6802FA03F107F5BB63A3F54B
:1056900016724B1E136007F5BB63A3F5177107F570
:1056A000BB63A3F5137207F5BB63A3F5167312680A
:1056B0001B6813400B6007F5BB63A3F5157107F575
:1056C000BB63A3F5137207F5BB63A3F514731268EC
:1056D0001B6842FA03F30B6007F5BB63A3F518726E
:1056E00007F5BB63A3F516731B685B10136007F522
:1056F000BB63A3F515731B68002B0ADA07F5BB63C0
:10570000A3F5187207F5BB63A3F518731B68013383
:10571000136007F5BB63A3F5177207F5BB63A3F529
:10572000187312681B689A420ADD07F5BB63A3F57C
:10573000157207F5BB63A3F515731B68013313607E
:1057400007F5BB63A3F515731B6800BFC7F8C83521
:1057500007F5BB63A3F55C731B689AB2D7F80836EC
:1057600002FA03F3C7F8C43507F5BB63A3F501726A
:10577000D7F8C435136007F5BB63A3F50272D7F8F9
:105780000036136007F5BB63A3F50372D7F8043640
:10579000136007F5BB63A3F503731B6823EAE37289
:1057A00007F5BB63A3F501731B6803FA02F207F563
:1057B000BB63A3F504731A6007F5BB63A3F5057219
:1057C00007F5BB63A3F502731B68136007F5BB63A2
:1057D000A3F506720023136007F5BB63A3F56A7295
:1057E0004FF08043136007F5BB63A3F56A72002393
:1057F0005360D7E98C0107F5BB63A3F504731B68FD
:10580000DA17C7F8D830C7F8DC2007F5BB63A3F573
:1058100005731B68DA17C7F8D030C7F8D420D7F85B
:10582000DC30D7F8D02002FB03F2D7F8D430D7F819
:10583000D84004FB03F31344D7F8D820D7F8D0405E
:10584000A2FB0424C7F88C41C7F88821D7F88C2123
:105850001344C7F88C31D7F88831C3183B65D7F8A3
:105860008C3141EB03037B65D7E91434C7E98C34F1
:10587000D7E98C234FF000004FF00001D00F40EA31
:105880004300D91707F5BB63A3F5067203461360FF
:1058900007F5BB63A3F50673196807F5BB63A3F5AA
:1058A00003731B68002B06DC07F5BB63A3F50373CA
:1058B0001B685A4200E0002207F5BB63A3F507739B
:1058C000196007F5BB63A3F508731A6007F5BB639E
:1058D000A3F509720023136007F5BB63A3F50873F2
:1058E00001221B6802FA03F107F5BB63A3F50A72F4
:1058F0004B1E136007F5BB63A3F50B7107F5BB6384
:10590000A3F5077207F5BB63A3F50A7312681B685A
:1059100013400B6007F5BB63A3F5097107F5BB6383
:10592000A3F5077207F5BB63A3F5087312681B683C
:1059300042FA03F30B6007F5BB63A3F50C7207F59E
:10594000BB63A3F50A731B685B10136007F5BB63A9
:10595000A3F509731B68002B0ADA07F5BB63A3F5EF
:105960000C7207F5BB63A3F50C731B68013313605E
:1059700007F5BB63A3F50B7207F5BB63A3F50C73C7
:1059800012681B689A420ADD07F5BB63A3F509722A
:1059900007F5BB63A3F509731B680133136007F5B3
:1059A000BB63A3F509731B6800BFC7F8C435D7F8FC
:1059B000C825D7F8C4351344C7F8C03507F5BB630D
:1059C000A3F5EA72D7F8C035136007F5BB63A3F5FA
:1059D000EC72D7F81436136007F5BB63A3F5EE72CB
:1059E000D7F81836136007F5BB63A3F5EE731B6891
:1059F00023EAE37207F5BB63A3F5EA731B6803FAB6
:105A000002F207F5BB63A3F5F0731A6007F5BB63F9
:105A1000A3F5F27207F5BB63A3F5EC731B68136083
:105A200007F5BB63A3F5F4720023136007F5BB63AE
:105A3000A3F56C724FF08043136007F5BB63A3F5C9
:105A40006C7200235360D7E98A0107F5BB63A3F5A5
:105A5000F0731B68DA17C7F8E830C7F8EC2007F5D1
:105A6000BB63A3F5F2731B68DA17C7F8E030C7F819
:105A7000E420D7F8EC30D7F8E02002FB03F2D7F8A7
:105A8000E430D7F8E84004FB03F31344D7F8E820E8
:105A9000D7F8E040A2FB0424C7F89441C7F890214E
:105AA000D7F894211344C7F89431D7F89031C3182C
:105AB000BB65D7F8943141EB0303FB65D7E9163496
:105AC000C7E98A34D7E98A234FF000004FF000017C
:105AD000D00F40EA4300D91707F5BB63A3F5F47272
