:020000040800F2
:1000000000C00120E5430008253000082D3000081D
:10001000353000083D300008453000080000000081
:100020000000000000000000000000004D3000084B
:1000300059300008000000006530000871300008E9
:1000400035440008354400083544000835440008AC
:10005000354400083544000835440008354400089C
:10006000354400083544000835440008354400088C
:10007000354400083544000835440008354400087C
:10008000354400083544000835440008354400086C
:10009000354400083544000835440008354400085C
:1000A000354400083544000835440008354400084C
:1000B000354400083544000835440008354400083C
:1000C000354400083544000835440008354400082C
:1000D000354400083544000835440008354400081C
:1000E000354400083544000835440008354400080C
:1000F00035440008354400083544000835440008FC
:1001000035440008354400083544000835440008EB
:100110007D300008354400083544000835440008A7
:1001200035440008354400083544000835440008CB
:1001300035440008354400083544000835440008BB
:1001400035440008354400083544000835440008AB
:10015000354400083544000835440008354400089B
:10016000354400083544000835440008354400088B
:1001700035440008354400083544000800000000FC
:08018000354400083544000875
:1001900081F0004102E000BF83F0004330B54FEA38
:1001A00041044FEA430594EA050F08BF90EA020FA5
:1001B0001FBF54EA000C55EA020C7FEA645C7FEA38
:1001C000655C00F0E2804FEA5454D4EB5555B8BF5B
:1001D0006D420CDD2C4480EA020281EA030382EACC
:1001E000000083EA010180EA020281EA0303362D5E
:1001F00088BF30BD11F0004F4FEA01314FF4801C31
:100200004CEA113102D0404261EB410113F0004F42
:100210004FEA03334CEA133302D0524263EB4303F9
:1002200094EA050F00F0A780A4F10104D5F1200E97
:100230000DDB02FA0EFC22FA05F2801841F10001F2
:1002400003FA0EF2801843FA05F359410EE0A5F1C6
:1002500020050EF1200E012A03FA0EFC28BF4CF0F7
:10026000020C43FA05F3C01851EBE37101F00045AD
:1002700007D54FF0000EDCF1000C7EEB00006EEBBA
:100280000101B1F5801F1BD3B1F5001F0CD3490844
:100290005FEA30004FEA3C0C04F101044FEA44529B
:1002A00012F5800F80F09A80BCF1004F08BF5FEA22
:1002B000500C50F1000041EB045141EA050130BD02
:1002C0005FEA4C0C404141EB0101013C28BFB1F514
:1002D000801FE9D291F0000F04BF01460020B1FA5F
:1002E00081F308BF2033A3F10B03B3F120020CDA32
:1002F0000C3208DD02F1140CC2F10C0201FA0CF010
:1003000021FA02F10CE002F11402D8BFC2F1200C74
:1003100001FA02F120FA0CFCDCBF41EA0C0190402A
:10032000E41AA2BF01EB0451294330BD6FEA040473
:100330001F3C1CDA0C340EDC04F11404C4F120025E
:1003400020FA04F001FA02F340EA030021FA04F370
:1003500045EA030130BDC4F10C04C4F1200220FAC7
:1003600002F001FA04F340EA0300294630BD21FA05
:1003700004F0294630BD94F0000F83F4801306BFCB
:1003800081F480110134013D4EE77FEA645C18BFBF
:100390007FEA655C29D094EA050F08BF90EA020F56
:1003A00005D054EA000C04BF1946104630BD91EA4E
:1003B000030F1EBF0021002030BD5FEA545C05D151
:1003C0004000494128BF41F0004130BD14F5800490
:1003D0003CBF01F5801130BD01F0004545F0FE4104
:1003E00041F470014FF0000030BD7FEA645C1ABF39
:1003F000194610467FEA655C1CBF0B46024650EA70
:10040000013406BF52EA033591EA030F41F400219B
:1004100030BD00BF90F0000F04BF0021704730B521
:100420004FF4806404F132044FF000054FF00001F6
:1004300050E700BF90F0000F04BF0021704730B5B7
:100440004FF4806404F1320410F0004548BF40428C
:100450004FF000013EE700BF42004FEAE2014FEAE1
:1004600031014FEA02701FBF12F07F4393F07F4FBC
:1004700081F06051704732F07F4208BF704793F0BF
:100480007F4F04BF41F40021704730B54FF46074D2
:1004900001F0004521F000411CE700BF50EA0102D5
:1004A00008BF704730B54FF000050AE050EA01027E
:1004B00008BF704730B511F0004502D5404261EBEE
:1004C00041014FF4806404F132045FEA915C3FF42F
:1004D000D8AE4FF003025FEADC0C18BF03325FEACC
:1004E000DC0C18BF033202EBDC02C2F1200300FA7D
:1004F00003FC20FA02F001FA03FE40EA0E0021FAA2
:1005000002F11444BDE600BF70B54FF0FF0C4CF48F
:10051000E06C1CEA11541DBF1CEA135594EA0C0F41
:1005200095EA0C0F00F0DEF82C4481EA030621EA7C
:100530004C5123EA4C5350EA013518BF52EA0335B7
:1005400041F4801143F4801338D0A0FB02CE4FF069
:100550000005E1FB02E506F00042E0FB03E54FF099
:100560000006E1FB03569CF0000F18BF4EF0010E91
:10057000A4F1FF04B6F5007F64F5407404D25FEA8D
:100580004E0E6D4146EB060642EAC62141EA555140
:100590004FEAC52040EA5E504FEACE2EB4F1FD0C82
:1005A00088BFBCF5E06F1ED8BEF1004F08BF5FEA00
:1005B000500E50F1000041EB045170BD06F00046B2
:1005C00046EA010140EA020081EA0301B4EB5C045F
:1005D000C2BFD4EB0C0541EA045170BD41F4801157
:1005E0004FF0000E013C00F3AB8014F1360FDEBF7C
:1005F000002001F0004170BDC4F10004203C35DA58
:100600000C341BDC04F11404C4F1200500FA05F3DA
:1006100020FA04F001FA05F240EA020001F000427B
:1006200021F0004110EBD37021FA04F642EB0601F1
:100630005EEA430E08BF20EAD37070BDC4F10C041B
:10064000C4F1200500FA04F320FA05F001FA04F2DF
:1006500040EA020001F0004110EBD37041F10001CB
:100660005EEA430E08BF20EAD37070BDC4F12005D6
:1006700000FA05F24EEA020E20FA04F301FA05F23E
:1006800043EA020321FA04F001F0004121FA04F2E6
:1006900020EA020000EBD3705EEA430E08BF20EAB6
:1006A000D37070BD94F0000F0FD101F000464000F0
:1006B00041EB010111F4801F08BF013CF7D041EA72
:1006C000060195F0000F18BF704703F00046520076
:1006D00043EB030313F4801F08BF013DF7D043EA47
:1006E0000603704794EA0C0F0CEA135518BF95EAFD
:1006F0000C0F0CD050EA410618BF52EA4306D1D184
:1007000081EA030101F000414FF0000070BD50EAA2
:10071000410606BF1046194652EA430619D094EA2C
:100720000C0F02D150EA013613D195EA0C0F05D116
:1007300052EA03361CBF104619460AD181EA03016A
:1007400001F0004141F0FE4141F470014FF0000022
:1007500070BD41F0FE4141F4780170BD70B54FF0BD
:10076000FF0C4CF4E06C1CEA11541DBF1CEA13553D
:1007700094EA0C0F95EA0C0F00F0A7F8A4EB05041F
:1007800081EA030E52EA03354FEA013100F0888016
:100790004FEA03334FF0805545EA131343EA1263DF
:1007A0004FEA022245EA111545EA10654FEA002694
:1007B0000EF000419D4208BF964244F1FD0404F54D
:1007C000407402D25B084FEA3202B61A65EB0305A9
:1007D0005B084FEA32024FF480104FF4002CB6EB66
:1007E000020E75EB030E22BFB61A754640EA0C00E6
:1007F0005B084FEA3202B6EB020E75EB030E22BF26
:10080000B61A754640EA5C005B084FEA3202B6EB66
:10081000020E75EB030E22BFB61A754640EA9C0025
:100820005B084FEA3202B6EB020E75EB030E22BFF5
:10083000B61A754640EADC0055EA060E18D04FEAB3
:10084000051545EA16754FEA06164FEAC30343EA53
:1008500052734FEAC2025FEA1C1CC0D111F4801F20
:100860000BD141EA00014FF000004FF0004CB6E719
:1008700011F4801F04BF01430020B4F1FD0C88BFB8
:10088000BCF5E06F3FF6AFAEB5EB030C04BFB6EBC3
:10089000020C5FEA500C50F1000041EB045170BDB6
:1008A0000EF0004E4EEA113114EB5C04C2BFD4EBE3
:1008B0000C0541EA045170BD41F480114FF0000E67
:1008C000013C90E645EA060E8DE60CEA135594EAE3
:1008D0000C0F08BF95EA0C0F3FF43BAF94EA0C0FE6
:1008E0000AD150EA01347FF434AF95EA0C0F7FF45B
:1008F00025AF104619462CE795EA0C0F06D152EAAF
:1009000003353FF4FDAE1046194622E750EA410692
:1009100018BF52EA43067FF4C5AE50EA41047FF4A3
:100920000DAF52EA43057FF4EBAE12E74FF0FF3C08
:1009300006E000BF4FF0010C02E000BF4FF0010CD9
:100940004DF804CD4FEA410C7FEA6C5C4FEA430C52
:1009500018BF7FEA6C5C1BD001B050EA410C0CBFA1
:1009600052EA430C91EA030F02BF90EA020F002003
:10097000704710F1000F91EA030F58BF994208BF6A
:1009800090422CBFD8176FEAE37040F00100704727
:100990004FEA410C7FEA6C5C02D150EA013C07D17E
:1009A0004FEA430C7FEA6C5CD6D152EA033CD3D0C9
:1009B0005DF8040B704700BF8446104662468C46C3
:1009C0001946634600E000BF01B5FFF7B7FF0028F6
:1009D00048BF10F1000F01BD4DF808EDFFF7F4FF1F
:1009E0000CBF012000205DF808FB00BF4DF808EDAA
:1009F000FFF7EAFF34BF012000205DF808FB00BFCD
:100A00004DF808EDFFF7E0FF94BF012000205DF8EE
:100A100008FB00BF4DF808EDFFF7CEFF94BF0120A3
:100A200000205DF808FB00BF4DF808EDFFF7C4FF9C
:100A300034BF012000205DF808FB00BF4FEA410CE5
:100A40007FEA6C5C02D150EA013C0AD14FEA430CC8
:100A50007FEA6C5C02D152EA033C02D14FF0000005
:100A600070474FF0010070474FEA410212F5001243
:100A700015D211D56FF47873B3EB625212D94FEAE5
:100A8000C12343F0004343EA505311F0004F23FACF
:100A900002F018BF404270474FF00000704750EA24
:100AA000013005D111F0004008BF6FF000407047E1
:100AB0004FF00000704700BF53B94AB9002908BF82
:100AC00000281CBF4FF0FF314FF0FF3000F00CB892
:100AD000ADF1080C6DE904CE11F052F8DDF804E038
:100AE000DDE9022304B07047704700BF4A0011D20D
:100AF00012F5001211D20DD56FF47873B3EB625278
:100B00000ED44FEAC12343F0004343EA505323FA83
:100B100002F070474FF00000704750EA013002D1F8
:100B20004FF0FF3070474FF00000704700000000AA
:100B300001F0FF01102A2BDB10F0070F08D010F88E
:100B4000013B013A8B422DD010F0070F42B3F6D192
:100B5000F0B441EA012141EA014122F007047FF0AB
:100B600000070023F0E80256083C85EA010586EA02
:100B7000010685FA47F5A3FA87F586FA47F6A5FA3E
:100B800087F68EB9EED1F0BC01F0FF0102F007024A
:100B900032B110F8013B013A83EA010313B1F8D1F5
:100BA0000020704701387047002D06BF35460338D6
:100BB000073815F0010F07D1013015F4807F02BF0F
:100BC000013015F4C03F0130F0BC0138704700BF60
:100BD000034613F8012B002AFBD1181A013870477D
:100BE0000348044B834202D0034B03B118477047BC
:100BF0003C2500203C250020000000000548064B55
:100C00001B1AD90F01EBA301491002D0034B03B10A
:100C1000184770473C2500203C25002000000000BC
:100C200010B5064C237843B9FFF7DAFF044B13B134
:100C30000448AFF300800123237010BD402500203D
:100C400000000000B848010808B5054B1BB1054974
:100C50000548AFF30080BDE80840FFF7CFBF00BFF5
:100C60000000000044250020B848010880B400AF0F
:100C7000054BD3F88830044A43F47003C2F8883037
:100C800000BFBD4680BC704700ED00E080B586B077
:100C900000AF78607B68002B01D1012367E27B689D
:100CA0001B6803F00103002B75D0884B9B6803F091
:100CB0000C03042B0CD0854B9B6803F00C03082B12
:100CC00012D1824B5B6803F48003B3F5800F0BD124
:100CD0007E4B1B6803F40033002B5BD07B685B68A2
:100CE000002B57D1012342E27B685B68B3F5803F5C
:100CF00006D1764B1B68754A43F4803313601DE0C0
:100D00007B685B68B3F5A02F0CD1704B1B686F4AF2
:100D100043F4802313606D4B1B686C4A43F48033AB
:100D200013600BE0694B1B68684A23F4803313603F
:100D3000664B1B68654A23F4802313607B685B68FD
:100D4000002B13D000F0F4FF386108E000F0F0FF52
:100D500002463B69D31A642B01D9032307E25B4B9C
:100D60001B6803F40033002BF0D014E000F0E0FF28
:100D7000386108E000F0DCFF02463B69D31A642BBF
:100D800001D90323F3E1514B1B6803F40033002B1B
:100D9000F0D100E000BF7B681B6803F00203002B6A
:100DA00063D04A4B9B6803F00C03002B0BD0474BDE
:100DB0009B6803F00C03082B1CD1444B5B6803F4C5
:100DC0008003002B16D1414B1B6803F00203002B5C
:100DD00005D07B68DB68012B01D00123C7E13B4BC9
:100DE0001B6823F0F8027B681B69DB00374913435B
:100DF0000B603AE07B68DB68002B20D0344B01228B
:100E00001A6000F095FF386108E000F091FF02469B
:100E10003B69D31A022B01D90323A8E12B4B1B6892
:100E200003F00203002BF0D0284B1B6823F0F802DC
:100E30007B681B69DB00254913430B6015E0244BDD
:100E400000221A6000F074FF386108E000F070FFC3
:100E500002463B69D31A022B01D9032387E11B4BBE
:100E60001B6803F00203002BF0D17B681B6803F0C2
:100E70000803002B36D07B685B69002B16D0154B1E
:100E800001221A6000F054FF386108E000F050FFC2
:100E900002463B69D31A022B01D9032367E10B4BAE
:100EA0005B6F03F00203002BF0D01BE0094B002224
:100EB0001A6000F03DFF38610EE000F039FF024695
:100EC0003B69D31A022B07D9032350E100380240B3
:100ED00000004742800E4742884B5B6F03F00203DD
:100EE000002BEAD17B681B6803F00403002B00F0A1
:100EF00097800023FB75814B1B6C03F08053002B04
:100F00000FD10023BB607D4B1B6C7C4A43F08053A8
:100F100013647A4B1B6C03F08053BB60BB680123E6
:100F2000FB75774B1B6803F48073002B18D1744B4F
:100F30001B68734A43F48073136000F0F9FE386154
:100F400008E000F0F5FE02463B69D31A022B01D9F6
:100F500003230CE16A4B1B6803F48073002BF0D071
:100F60007B689B68012B06D1644B1B6F634A43F07F
:100F7000010313671CE07B689B68052B0CD15F4B5A
:100F80001B6F5E4A43F0040313675C4B1B6F5B4AA5
:100F900043F0010313670BE0584B1B6F574A23F0D4
:100FA00001031367554B1B6F544A23F00403136767
:100FB0007B689B68002B15D000F0BAFE38610AE010
:100FC00000F0B6FE02463B69D31A41F288329342E2
:100FD00001D90323CBE0494B1B6F03F00203002B25
:100FE000EED014E000F0A4FE38610AE000F0A0FEAC
:100FF00002463B69D31A41F28832934201D9032356
:10100000B5E03E4B1B6F03F00203002BEED1FB7DDE
:10101000012B05D1394B1B6C384A23F080531364E4
:101020007B689B69002B00F0A180344B9B6803F028
:101030000C03082B5CD07B689B69022B41D1314BA0
:1010400000221A6000F074FE386108E000F070FEC3
:1010500002463B69D31A022B01D9032387E0274BB1
:101060001B6803F00073002BF0D17B68DA697B68A2
:101070001B6A1A437B685B6A9B011A437B689B6A05
:101080005B08013B1B041A437B68DB6A1B061B4998
:1010900013434B601B4B01221A6000F049FE38617C
:1010A00008E000F045FE02463B69D31A022B01D945
:1010B00003235CE0114B1B6803F00073002BF0D09E
:1010C00054E0104B00221A6000F032FE386108E054
:1010D00000F02EFE02463B69D31A022B01D90323EE
:1010E00045E0064B1B6803F00073002BF0D13DE098
:1010F0007B689B69012B07D1012338E0003802404F
:1011000000700040600047421B4B5B68FB607B68DF
:101110009B69012B28D0FB6803F480027B68DB69A4
:101120009A4221D1FB6803F03F027B681B6A9A4216
:101130001AD1FA6847F6C07313407A68526A92016E
:10114000934211D1FB6803F440327B689B6A5B08D1
:10115000013B1B049A4207D1FB6803F070627B6875
:10116000DB6A1B069A4201D0012300E000231846E7
:101170001837BD4680BD00BF0038024080B584B03E
:1011800000AF786039607B68002B01D10123CCE08F
:10119000684B1B6803F007033A689A420CD9654B09
:1011A0003A68D2B21A70634B1B6803F007033A68BF
:1011B0009A4201D00123B8E07B681B6803F0020368
:1011C000002B20D07B681B6803F00403002B05D0A4
:1011D000594B9B68584A43F4E05393607B681B6803
:1011E00003F00803002B05D0534B9B68524A43F48D
:1011F00060439360504B9B6823F0F0027B689B68D0
:101200004D4913438B607B681B6803F00103002B7F
:1012100044D07B685B68012B07D1474B1B6803F404
:101220000033002B19D101237FE07B685B68022B20
:1012300003D07B685B68032B07D13F4B1B6803F02F
:101240000073002B09D101236FE03B4B1B6803F0B7
:101250000203002B01D1012367E0374B9B6823F089
:1012600003027B685B68344913438B6000F060FDC8
:10127000F8600AE000F05CFD0246FB68D31A41F218
:101280008832934201D903234FE02B4B9B6803F034
:101290000C027B685B689B009A42EBD1254B1B6874
:1012A00003F007033A689A420CD2224B3A68D2B252
:1012B0001A70204B1B6803F007033A689A4201D06A
:1012C000012332E07B681B6803F00403002B08D085
:1012D000194B9B6823F4E0527B68DB681649134383
:1012E0008B607B681B6803F00803002B09D0124B4E
:1012F0009B6823F460427B681B69DB000E49134343
:101300008B6000F021F802460B4B9B681B0903F031
:101310000F030A49CB5C22FA03F3094A1360094B15
:101320001B68184600F0C2FC002318461037BD4663
:1013300080BD00BF003C024000380240C84B01089D
:1013400000000020040000202DE9B04F94B000AF51
:1013500000237B640023FB6400233B640023BB6405
:10136000794B9B6803F00C03082B0DD0082B00F27F
:10137000E180002B02D0042B03D0DBE0734BBB6475
:10138000DBE0734BBB64D8E06F4B5B6803F03F035B
:101390007B646D4B5B6803F48003002B63D06A4B66
:1013A0005B689B090022BB63FA63BB6BC3F3080352
:1013B0003B6300237B63D7E90C4522462B464FF065
:1013C00000004FF00001590141EAD261500102468C
:1013D0000B462146511A3961294663EB01037B61B3
:1013E0004FF000024FF00003D7E904AB59468B01E0
:1013F000514643EA916351468A015146B2EB0108D6
:10140000594663EB01094FF000024FF000034FEA29
:10141000C90343EA58734FEAC802904699462346E7
:1014200018EB0303BB602B4649EB0303FB604FF053
:1014300000024FF00003D7E9024529464B0221463E
:1014400043EAD15321464A02104619467B6C0022DA
:10145000BB62FA62D7E90A23FFF72EFB02460B466E
:101460001346FB6458E0384B5B689B090022184622
:101470001146C0F308033B6200237B62D7E9088969
:1014800042464B464FF000004FF00001590141EA3F
:10149000D261500102460B464146B2EB010A494671
:1014A00063EB010B4FF000024FF000034FEA8B1388
:1014B00043EA9A634FEA8A12B2EB0A0463EB0B0524
:1014C0004FF000024FF00003EB0043EA5473E200D8
:1014D00014461D464346E3183B604B4645EB030369
:1014E0007B604FF000024FF00003D7E9004529462A
:1014F0008B02214643EA915321468A02104619463F
:101500007B6C0022BB61FA61D7E90623FFF7D4FAAE
:1015100002460B461346FB640B4B5B681B0C03F047
:10152000030301335B003B64FA6C3B6CB2FBF3F3E7
:10153000BB6402E0054BBB6400BFBB6C1846503770
:10154000BD46BDE8B08F00BF003802400024F40063
:1015500000127A0080B400AF024B1B681846BD46EB
:1015600080BC70470000002080B500AFFFF7F2FF9D
:101570000246054B9B689B0A03F007030349CB5CBB
:1015800022FA03F3184680BD00380240D84B010808
:1015900080B500AFFFF7DEFF0246054B9B685B0B93
:1015A00003F007030349CB5C22FA03F3184680BD1E
:1015B00000380240D84B010880B489B000AF786091
:1015C000396000237B6100233B610023BB61002362
:1015D000FB616BE10122FB6902FA03F37B613B686B
:1015E0001B687A6913403B613A697B699A4240F013
:1015F0005A813B685B6803F00303012B05D03B680D
:101600005B6803F00303022B30D17B689B68BB61EE
:10161000FB695B00032202FA03F3DB43BA69134060
:10162000BB613B68DA68FB695B0002FA03F3BA69E5
:101630001343BB617B68BA699A607B685B68BB6176
:101640000122FB6902FA03F3DB43BA691340BB6171
:101650003B685B681B0903F00102FB6902FA03F3B4
:10166000BA691343BB617B68BA695A603B685B68BF
:1016700003F00303032B17D07B68DB68BB61FB69B6
:101680005B00032202FA03F3DB43BA691340BB6138
:101690003B689A68FB695B0002FA03F3BA6913437B
:1016A000BB617B68BA69DA603B685B6803F003037F
:1016B000022B23D1FB69DA087B68083253F8223009
:1016C000BB61FB6903F007039B000F2202FA03F3DF
:1016D000DB43BA691340BB613B681A69FB6903F0DD
:1016E00007039B0002FA03F3BA691343BB61FB696A
:1016F000DA087B680832B96943F822107B681B68F6
:10170000BB61FB695B00032202FA03F3DB43BA69A6
:101710001340BB613B685B6803F00302FB695B003D
:1017200002FA03F3BA691343BB617B68BA691A60B2
:101730003B685B6803F44033002B00F0B480002367
:10174000FB605F4B5B6C5E4A43F4804353645C4BCD
:101750005B6C03F48043FB60FB685A4AFB699B089F
:10176000023352F82330BB61FB6903F003039B0093
:101770000F2202FA03F3DB43BA691340BB617B68B3
:10178000514A93422BD07B68504A934225D07B68C4
:101790004F4A93421FD07B684E4A934219D07B68D0
:1017A0004D4A934213D07B684C4A93420DD07B68DC
:1017B0004B4A934207D07B684A4A934201D10723A0
:1017C0000EE008230CE006230AE0052308E00423CA
:1017D00006E0032304E0022302E0012300E00023EB
:1017E000FA6902F0030292009340BA691343BB61A5
:1017F0003449FB699B080233BA6941F823203A4B0C
:101800009B68BB613B69DB43BA691340BB613B68C2
:101810005B6803F48013002B03D0BA693B69134360
:10182000BB61314ABB6993602F4BDB68BB613B698D
:10183000DB43BA691340BB613B685B6803F4001388
:10184000002B03D0BA693B691343BB61264ABB69CD
:10185000D360254B5B68BB613B69DB43BA691340CE
:10186000BB613B685B6803F40033002B03D0BA69AB
:101870003B691343BB611C4ABB6953601A4B1B682D
:10188000BB613B69DB43BA691340BB613B685B6882
:1018900003F48033002B03D0BA693B691343BB6167
:1018A000114ABB691360FB690133FB61FB690F2BB4
:1018B0007FF690AE00BF00BF2437BD4680BC7047A6
:1018C000003802400038014000000240000402409D
:1018D00000080240000C02400010024000140240C8
:1018E00000180240001C0240003C014080B483B05C
:1018F00000AF78600B467B8013467B707B78002BB3
:1019000003D07A887B689A6103E07B881A047B683D
:101910009A6100BF0C37BD4680BC704780B584B06B
:1019200000AF78607B689B6DFB6000F001FAB860E7
:101930007B6893F83530DBB2022B08D07B688022BD
:101940005A657B68002283F83420012352E07B68CB
:101950001B681A687B681B6822F016021A607B6895
:101960001B685A697B681B6822F080025A617B6899
:101970001B6C002B03D17B689B6C002B07D07B6812
:101980001B681A687B681B6822F008021A607B6873
:101990001B681A687B681B6822F001021A6013E05A
:1019A00000F0C6F90246BB68D31A052B0CD97B6838
:1019B00020225A657B68032283F835207B68002249
:1019C00083F83420032315E07B681B681B6803F051
:1019D0000103002BE4D17B68DB6D3F229A40FB685A
:1019E0009A607B68012283F835207B68002283F8A7
:1019F0003420002318461037BD4680BD80B483B024
:101A000000AF78607B6893F83530DBB2022B04D0EE
:101A10007B6880225A6501230CE07B68052283F8ED
:101A200035207B681B681A687B681B6822F00102FE
:101A30001A60002318460C37BD4680BC7047000072
:101A400080B485B000AF78607B6803F00703FB606B
:101A50000C4BDB68BB60BA684FF6FF031340BB60FA
:101A6000FB681A02BB68134343F0BF6343F40033BF
:101A7000BB60044ABB68D36000BF1437BD4680BC5E
:101A8000704700BF00ED00E080B400AF044BDB689E
:101A90001B0A03F007031846BD4680BC704700BF11
:101AA00000ED00E080B483B000AF0346FB7197F90E
:101AB0000730002B0BDBFB7903F01F02064997F977
:101AC00007305B09012000FA02F241F8232000BF31
:101AD0000C37BD4680BC704700E100E080B483B0A5
:101AE00000AF03463960FB7197F90730002B0ADB22
:101AF0003B68DAB20C4997F907301201D2B20B44B5
:101B000083F800230AE03B68DAB20849FB7903F066
:101B10000F03043B1201D2B20B441A7600BF0C37FC
:101B2000BD4680BC704700BF00E100E000ED00E072
:101B300080B489B000AFF860B9607A60FB6803F0E8
:101B400007037B617B69033B042B04D87B69C3F1EA
:101B50000703FB6101E00423FB617B690433062B6F
:101B600003D97B69033BBB6101E00023BB614FF0FC
:101B7000FF32FB6902FA03F3DA43BB681A40BB6920
:101B80009A404FF0FF31BB6901FA03F3D9437B68F8
:101B90000B40134318462437BD4680BC70470000F5
:101BA00080B582B000AF78607B68013BB3F1807F85
:101BB00001D301230FE00A4A7B68013B53600F21E8
:101BC0004FF0FF30FFF78AFF054B00229A60044B6D
:101BD00007221A60002318460837BD4680BD00BFA3
:101BE00010E000E080B582B000AF78607868FFF761
:101BF00027FF00BF0837BD4680BD80B586B000AF67
:101C00000346B9607A60FB7300237B61FFF73CFFFA
:101C100078617A68B9687869FFF78AFF024697F9B0
:101C20000F3011461846FFF759FF00BF1837BD4661
:101C300080BD80B582B000AF0346FB7197F90730D5
:101C40001846FFF72FFF00BF0837BD4680BD80B59F
:101C500082B000AF78607868FFF7A2FF03461846AD
:101C60000837BD4680BD000080B500AF0E4B1B6835
:101C70000D4A43F4007313600B4B1B680A4A43F48C
:101C800080631360084B1B68074A43F4807313603A
:101C90000320FFF7A7FF0F2000F008F801F0F8F984
:101CA0000023184680BD00BF003C024080B582B0D2
:101CB00000AF7860124B1A68124B1B7819464FF42C
:101CC0007A73B3FBF1F3B2FBF3F31846FFF7BFFFF0
:101CD0000346002B01D001230EE07B680F2B0AD8AE
:101CE000002279684FF0FF30FFF787FF064A7B68D4
:101CF0001360002300E0012318460837BD4680BD6D
:101D000000000020080000200400002080B400AF84
:101D1000054B1B781A46054B1B681344034A136096
:101D200000BFBD4680BC7047080000205C25002035
:101D300080B400AF024B1B681846BD4680BC70479C
:101D40005C25002080B582B000AF78607B68002BF6
:101D500001D1012342E07B6893F84130DBB2002BD4
:101D600006D17B68002283F84020786801F0F4F8FF
:101D70007B68242283F841207B681B68DA687B68D3
:101D80001B6822F40052DA60786800F077FD7B6807
:101D90001B681A697B681B6822F490421A617B6891
:101DA0001B685A697B681B6822F02A025A617B68AB
:101DB0001B68DA687B681B6842F40052DA607B6853
:101DC00000225A647B68202283F841207B6820220D
:101DD00083F842207B6800225A63002318460837A4
:101DE000BD4680BD80B58AB002AFF860B9603B6087
:101DF0001346FB8000237B61FB6893F84130DBB224
:101E0000202B75D1BB68002B02D0FB88002B01D1A1
:101E100001236EE0FB6800225A64FB68212283F8EC
:101E20004120FFF785FF7861FB68FA889A84FB6898
:101E3000FA88DA84FB689B68B3F5805F08D1FB6899
:101E40001B69002B04D10023FB61BB68BB6103E06D
:101E5000BB68FB610023BB612EE03B6800937B699C
:101E600000228021F86800F017FB0346002B05D004
:101E7000FB68202283F8412003233AE0FB69002B12
:101E80000BD1BB691B881A46FB681B68C2F30802AA
:101E90005A60BB690233BB6107E0FB691A78FB68D3
:101EA0001B685A60FB690133FB61FB68DB8C9BB2EA
:101EB000013B9AB2FB68DA84FB68DB8C9BB2002B97
:101EC000CBD13B6800937B6900224021F86800F089
:101ED000E3FA0346002B05D0FB68202283F841205B
:101EE000032306E0FB68202283F84120002300E062
:101EF000022318462037BD4680BD000080B5BAB029
:101F000000AF78607B681B681B68C7F8E4307B68AB
:101F10001B68DB68C7F8E0307B681B685B69C7F843
:101F2000DC300023C7F8D8300023C7F8D430D7F806
:101F3000E43003F00F03C7F8D830D7F8D830002BBF
:101F40000FD1D7F8E43003F02003002B09D0D7F8E5
:101F5000E03003F02003002B03D0786800F0CFFBC3
:101F600071E2D7F8D830002B00F0DC80D7F8DC30F5
:101F700003F00103002B06D1D7F8E03003F490738F
:101F8000002B00F0CF80D7F8E43003F00103002BE2
:101F90000BD0D7F8E03003F48073002B05D07B68BA
:101FA0005B6C43F001027B685A64D7F8E43003F0BD
:101FB0000403002B0BD0D7F8DC3003F00103002B17
:101FC00005D07B685B6C43F002027B685A64D7F8EB
:101FD000E43003F00203002B0BD0D7F8DC3003F021
:101FE0000103002B05D07B685B6C43F004027B6827
:101FF0005A64D7F8E43003F00803002B11D0D7F867
:10200000E03003F02003002B05D1D7F8DC3003F0DB
:102010000103002B05D07B685B6C43F008027B68F2
:102020005A647B685B6C002B00F00882D7F8E430C0
:1020300003F02003002B08D0D7F8E03003F0200392
:10204000002B02D0786800F05AFB7B681B685B6944
:1020500003F04003C3F38013DBB2C7F8D4307B68CE
:102060005B6C03F00803002B03D1D7F8D430002BAE
:102070004FD0786800F069FA7B681B685B6903F0F1
:102080004003402B41D17B681B681433C7F89C3058
:10209000D7F89C3053E8003FC7F89830D7F898300D
:1020A00023F04003C7F8D0307B681B681433D7F89F
:1020B000D020C7F8A820C7F8A430D7F8A410D7F8C4
:1020C000A82041E80023C7F8A030D7F8A030002BA3
:1020D000D9D17B68DB6B002B13D07B68DB6B8A4A22
:1020E0001A657B68DB6B1846FFF788FC0346002BFC
:1020F00016D07B68DB6B1B6D7A68D26B10469847F5
:102100000EE0786800F0B4F90AE0786800F0B0F901
:1021100006E0786800F0ACF97B6800225A648DE133
:1021200000BF8BE17B681B6B012B40F06781D7F808
:10213000E43003F01003002B00F06081D7F8E030AA
:1021400003F01003002B00F059810023BB607B6873
:102150001B681B68BB607B681B685B68BB60BB68F7
:102160007B681B685B6903F04003402B40F0CE8026
:102170007B68DB6B1B685B68A7F8BE30B7F8BE30C6
:10218000002B00F0A9807B689B8DB7F8BE209A4297
:1021900080F0A2807B68B7F8BE20DA857B68DB6BB5
:1021A000DB69B3F5807F00F088807B681B680C33A7
:1021B000C7F88830D7F8883053E8003FC7F8843034
:1021C000D7F8843023F48073C7F8B8307B681B6875
:1021D0000C33D7F8B820C7F89420C7F89030D7F858
:1021E0009010D7F8942041E80023C7F88C30D7F836
:1021F0008C30002BD9D17B681B6814337B677B6FD5
:1022000053E8003F3B673B6F23F00103C7F8B4304E
:102210007B681B681433D7F8B420C7F88020FB67AD
:10222000F96FD7F8802041E80023BB67BB6F002B14
:10223000E1D17B681B6814333B663B6E53E8003F7B
:10224000FB65FB6D23F04003C7F8B0307B681B686B
:102250001433D7F8B020FA66BB66B96EFA6E41E85F
:1022600000237B667B6E002BE3D17B68202283F802
:1022700042207B6800221A637B681B680C33FB6476
:10228000FB6C53E8003FBB64BB6C23F01003C7F842
:10229000AC307B681B680C33D7F8AC20BA657B6523
:1022A000796DBA6D41E800233B653B6D002BE3D1AE
:1022B0007B68DB6B1846FFF731FB7B6802225A63B1
:1022C0007B689A8D7B68DB8D9BB2D31A9BB21946D3
:1022D000786800F0D6F8B3E07B689B8DB7F8BE2035
:1022E0009A4240F0AD807B68DB6BDB69B3F5807FA1
:1022F00040F0A6807B6802225A637B689B8D19465A
:10230000786800F0BEF89BE00F2600087B689A8D85
:102310007B68DB8D9BB2D31AA7F8CE307B68DB8D50
:102320009BB2002B00F08E80B7F8CE30002B00F06F
:1023300089807B681B680C33BB63BB6B53E8003F31
:102340007B637B6B23F49073C7F8C8307B681B6892
:102350000C33D7F8C8207A643B64396C7A6C41E856
:102360000023FB63FB6B002BE3D17B681B681433FA
:102370007B627B6A53E8003F3B623B6A23F00103C8
:10238000C7F8C4307B681B681433D7F8C4203A639D
:10239000FB62F96A3A6B41E80023BB62BB6A002B1F
:1023A000E3D17B68202283F842207B6800221A63F5
:1023B0007B681B680C333B613B6953E8003FFB6063
:1023C000FB6823F01003C7F8C0307B681B680C3330
:1023D000D7F8C020FA61BB61B969FA6941E8002306
:1023E0007B617B69002BE3D17B6802225A63B7F8DB
:1023F000CE301946786800F044F823E0D7F8E4308E
:1024000003F08003002B09D0D7F8E03003F08003FD
:10241000002B03D0786800F00BF914E0D7F8E43013
:1024200003F04003002B0ED0D7F8E03003F0400358
:10243000002B08D0786800F04AF904E000BF02E001
:1024400000BF00E000BFE837BD4680BD80B483B068
:1024500000AF786000BF0C37BD4680BC704780B4C9
:1024600083B000AF786000BF0C37BD4680BC7047BA
:1024700080B483B000AF786000BF0C37BD4680BC2D
:10248000704780B483B000AF78600B467B8000BF9C
:102490000C37BD4680BC704780B586B000AFF86091
:1024A000B9603B601346FB713BE03B6AB3F1FF3F11
:1024B00037D0FFF73DFC02463B68D31A3A6A9A428E
:1024C00002D33B6A002B01D103233AE0FB681B686F
:1024D000DB6803F00403002B23D0BB68802B20D0E3
:1024E000BB68402B1DD0FB681B681B6803F008030A
:1024F000082B16D100237B61FB681B681B687B617E
:10250000FB681B685B687B617B69F86800F01DF8FD
:10251000FB6808225A64FB68002283F840200123EC
:102520000FE0FB681B681A68BB681340BA689A42E0
:102530000CBF01230023DBB21A46FB799A42B4D0C8
:10254000002318461837BD4680BD80B495B000AF53
:1025500078607B681B680C337B637B6B53E8003FC0
:102560003B633B6B23F49073FB647B681B680C3309
:10257000FA6C3A64FB63F96B3A6C41E80023BB6385
:10258000BB6B002BE5D17B681B6814333B623B6A55
:1025900053E8003FFB61FB6923F00103BB647B68E8
:1025A0001B681433BA6CFA62BB62B96AFA6A41E812
:1025B00000237B627B6A002BE5D17B681B6B012BC0
:1025C00019D17B681B680C33FB60FB6853E8003F44
:1025D000BB60BB6823F010037B647B681B680C3313
:1025E0007A6CBA617B617969BA6941E800233B6121
:1025F0003B69002BE5D17B68202283F842207B6871
:1026000000221A6300BF5437BD4680BC704780B5B6
:1026100084B000AF78607B689B6BFB60FB68002236
:10262000DA85F868FFF724FF00BF1037BD4680BD8C
:1026300080B485B000AF78607B6893F84130DBB23E
:10264000212B3ED17B689B68B3F5805F14D17B68FA
:102650001B69002B10D17B681B6AFB60FB681B8821
:102660001A467B681B68C2F308025A607B681B6AC3
:102670009A1C7B681A6208E07B681B6A591C7A689E
:1026800011621A787B681B685A607B68DB8C9BB28E
:10269000013B9BB27A681946D184002B0FD17B682D
:1026A0001B68DA687B681B6822F08002DA607B684E
:1026B0001B68DA687B681B6842F04002DA6000231E
:1026C00000E0022318461437BD4680BC704780B531
:1026D00082B000AF78607B681B68DA687B681B6833
:1026E00022F04002DA607B68202283F8412078687B
:1026F000FFF7ACFE002318460837BD4680BD80B505
:102700008CB000AF78600023FB620023BB627B6863
:1027100093F84230DBB2222B40F0AA807B689B68A2
:10272000B3F5805F15D17B681B69002B11D17B68E5
:102730009B6ABB627B681B685B689BB2C3F3080340
:102740009AB2BB6A1A807B689B6A9A1C7B689A6201
:1027500024E07B689B6AFB627B689B68B3F5805FC3
:1027600007D07B689B68002B0AD17B681B69002B14
:1027700006D17B681B685B68DAB2FB6A1A7008E0F6
:102780007B681B685B68DBB203F07F03DAB2FB6A2D
:102790001A707B689B6A5A1C7B689A627B68DB8D27
:1027A0009BB2013B9BB27A681946D185002B5DD163
:1027B0007B681B68DA687B681B6822F02002DA609D
:1027C0007B681B68DA687B681B6822F48072DA60B9
:1027D0007B681B685A697B681B6822F001025A619A
:1027E0007B68202283F842207B6800225A637B6842
:1027F0001B6B012B35D17B6800221A637B681B6839
:102800000C337B617B6953E8003F3B613B6923F0FC
:1028100010037B627B681B680C337A6A3A62FB6147
:10282000F9693A6A41E80023BB61BB69002BE5D135
:102830007B681B681B6803F01003102B0AD1002370
:10284000FB607B681B681B68FB607B681B685B68C0
:10285000FB60FB687B689B8D19467868FFF711FE6B
:1028600002E07868FFF7FBFD002302E0002300E0B0
:10287000022318463037BD4680BD00002DE9B04F19
:10288000C0B000AFC7F8F400D7F8F4301B681B697C
:1028900023F44050D7F8F430D968D7F8F4301A68E8
:1028A00040EA01031361D7F8F4309A68D7F8F4309E
:1028B0001B691A43D7F8F4305B691A43D7F8F43030
:1028C000DB691343C7F8F830D7F8F4301B68DB68CE
:1028D00023F4164121F00C01D7F8F4301A68D7F828
:1028E000F8300B43D360D7F8F4301B685B6923F4EE
:1028F0004070D7F8F4309969D7F8F4301A6840EA94
:1029000001035361D7F8F4301A688F4B9A4205D00F
:10291000D7F8F4301A688D4B9A4204D1FEF738FE8E
:10292000C7F8FC0003E0FEF71FFEC7F8FC00D7F86D
:10293000F430DB69B3F5004F40F00C81D7F8FC3080
:102940000022C7F8E830C7F8EC20D7E93A4522461C
:102950002B469118B9655B41FB65D7E916232146E3
:1029600012EB0108294643EB01094FF000024FF03A
:1029700000034FEAC90343EA58734FEAC80290467E
:102980009946234618EB0303C7F8E0302B4649EB82
:102990000303C7F8E430D7F8F4305B680022C7F8C7
:1029A000D830C7F8DC20D7E936120B46DB183B6578
:1029B000134642EB03037B65D7E91423D7E93801BB
:1029C000FEF77AF802460B46614BA3FB02235B0934
:1029D0001C01D7F8FC300022C7F8D030C7F8D4204B
:1029E000D7E9348942464B469118B9645B41FB6490
:1029F000D7E91223414612EB010A494643EB010B8A
:102A00004FF000024FF000034FEACB0343EA5A7342
:102A10004FEACA0292469B4643461AEB0303C7F8A5
:102A2000C8304B464BEB0303C7F8CC30D7F8F43033
:102A30005B680022C7F8C030C7F8C420D7E930125D
:102A40000B46DB183B64134642EB03037B64D7E978
:102A50001023D7E93201FEF72FF802460B46114644
:102A60003B4BA3FB01235B09642202FB03F3CB1A5C
:102A7000DB0003F13202364BA3FB02235B095B0050
:102A800003F4F8731C44D7F8FC300022C7F8B830C0
:102A9000C7F8BC20D7E92E8942464B469118B96346
:102AA0005B41FB63D7E90E23414651183963494620
:102AB0004B417B634FF000024FF00003D7E90CABB2
:102AC0005946CB00514643EA51735146CA0010465D
:102AD0001946034642469B18C7F8B0304B460A4693
:102AE00042EB0303C7F8B430D7F8F4305B68002238
:102AF000C7F8A830C7F8AC20D7E92A120B46DB1874
:102B0000BB62134642EB0303FB62D7E90A23D7E912
:102B10002C01FDF7D1FF02460B460D4BA3FB021320
:102B20005B09642101FB03F3D31ADB003233084A4B
:102B3000A2FB03235B0903F00702D7F8F4301B68FC
:102B400022449A6006E100BF0010014000140140D9
:102B50001F85EB51D7F8FC300022C7F8A030C7F82A
:102B6000A420D7E9288942464B46911839625B4137
:102B70007B62D7E9082341465418494643EB0105D7
:102B80004FF000024FF00003EB0043EA5473E20001
:102B900014461D464346E318C7F898304B4645EBAC
:102BA0000303C7F89C30D7F8F4305B680022C7F8FD
:102BB0009030C7F894204FF000024FF00003D7E99F
:102BC000244529468B00214643EA917321468A0019
:102BD000D7E92601FDF770FF02460B46604BA3FBC9
:102BE00002235B091C01D7F8FC300022C7F88830AB
:102BF000C7F88C20D7E9228942464B469118B96123
:102C00005B41FB61D7E906234146511839614946CA
:102C10004B417B614FF000024FF00003D7E904AB5A
:102C20005946CB00514643EA51735146CA001046FB
:102C30001946034642469B18C7F880304B460A4661
:102C400042EB0303C7F88430D7F8F4305B68002206
:102C5000BB67FA674FF000024FF00003D7E91E8907
:102C600049468B00414643EA917341468A00D7E9C1
:102C70002001FDF721FF02460B461146384BA3FB0E
:102C800001235B09642202FB03F3CB1A1B013233DD
:102C9000334AA2FB03235B0903F0F0031C44D7F87B
:102CA000FC3000223B677A67D7E91C8942464B46D5
:102CB0009118B9605B41FB60D7E902234146511886
:102CC000396049464B417B604FF000024FF00003F2
:102CD000D7E900AB5946CB00514643EA5173514600
:102CE000CA0010461946034642469B18BB664B462F
:102CF0000A4642EB0303FB66D7F8F4305B68002218
:102D00003B667A664FF000024FF00003D7E918895E
:102D100049468B00414643EA917341468A00D7E910
:102D20001A01FDF7C9FE02460B460D4BA3FB021329
:102D30005B09642101FB03F3D31A1B013233084AF8
:102D4000A2FB03235B0903F00F02D7F8F4301B68E2
:102D500022449A6000BF07F58077BD46BDE8B08F7A
:102D60001F85EB5180B500AFFEF77EFF00F00AF83B
:102D700000F078F800F0C6F801F00CFA01F026FA3D
:102D8000FCE7000080B594B000AF07F120033022CB
:102D9000002118460FF0EAFF07F10C0300221A6029
:102DA0005A609A60DA601A610023BB60284B1B6C82
:102DB000274A43F080531364254B1B6C03F0805368
:102DC000BB60BB6800237B60224B1B68214A43F435
:102DD000804313601F4B1B6803F480437B607B6858
:102DE00001233B624FF480337B620223BB634FF4C9
:102DF0008003FB6304233B64A8237B640223BB643E
:102E00000423FB6407F120031846FDF73FFF034648
:102E1000002B01D000F020F80F23FB6002233B6160
:102E200000237B614FF4A053BB614FF48053FB61DF
:102E300007F10C0305211846FEF7A0F90346002B05
:102E400001D000F009F800BF5037BD4680BD00BF7B
:102E5000003802400070004080B400AF72B600BF7E
:102E600000BFFDE780B588B000AF07F10C0300227A
:102E70001A605A609A60DA601A610023BB601F4BC7
:102E80001B6B1E4A43F0800313631C4B1B6B03F048
:102E90008003BB60BB6800237B60184B1B6B174A29
:102EA00043F001031363154B1B6B03F001037B60BD
:102EB0007B6800233B60114B1B6B104A43F00203FD
:102EC00013630E4B1B6B03F002033B603B68002255
:102ED00004210B48FEF70AFD0423FB6001233B613C
:102EE00000237B610023BB6107F10C0319460448F2
:102EF000FEF762FB00BF2037BD4680BD00380240B0
:102F00000004024080B500AF114B124A1A60104B0A
:102F10004FF4E1325A600E4B00229A600C4B0022B3
:102F2000DA600B4B00221A61094B0C225A61084BE4
:102F300000229A61064B0022DA610548FEF702FF83
:102F40000346002B01D0FFF787FF00BF80BD00BF05
:102F500060250020004C004080B58AB000AF78604A
:102F600007F1140300221A605A609A60DA601A614D
:102F70007B681B681D4A934233D100233B611C4B85
:102F80001B6C1B4A43F400231364194B1B6C03F4A2
:102F900000233B613B690023FB60154B1B6B144A0C
:102FA00043F001031363124B1B6B03F00103FB603F
:102FB000FB6803237B610223BB610023FB610323C6
:102FC0003B6208237B6207F1140319460948FEF7A8
:102FD000F3FA002200213420FEF70FFE3420FEF722
:102FE00028FE00BF2837BD4680BD00BF004C004012
:102FF000003802400000024080B584B000AFF860A5
:10300000B9607A607B689AB24FF0FF33B9680448C0
:10301000FEF7E8FE7B6818461037BD4680BD00BF4E
:103020006025002080B400AF00BFFDE780B400AF92
:1030300000BFFDE780B400AF00BFFDE780B400AF84
:1030400000BFFDE780B400AF00BFFDE780B400AF74
:1030500000BFBD4680BC704780B400AF00BFBD4616
:1030600080BC704780B400AF00BFBD4680BC7047D5
:1030700080B500AFFEF74AFE00BF80BD80B500AF4F
:103080000248FEF73BFF00BF80BD00BF6025002067
:1030900080B483B000AF00237B600F4B5B6C0E4AA3
:1030A00043F4804353640C4B5B6C03F480437B60BC
:1030B0007B6800233B60084B1B6C074A43F080533E
:1030C0001364054B1B6C03F080533B603B6800BFEF
:1030D0000C37BD4680BC70470038024080B586B0D2
:1030E00000AF7860144A154BD31A7B617B693B6152
:1030F000134B1B68002B02D1114B124A1A60104B64
:103100001A687B6813443A699A4207D20FF0D4FEDA
:1031100003460C221A604FF0FF3309E0084B1B688E
:10312000FB60074B1A687B681344054A1360FB6811
:1031300018461837BD4680BD00C0012000080000B9
:10314000A8250020F8A0002080B400AF0123184675
:10315000BD4680BC704780B582B000AF78603960F2
:103160000FF0AAFE034616221A604FF0FF331846EE
:103170000837BD4680BD80B582B000AF78604FF0A3
:10318000FF317868FFF7E7FF00BFFDE780B586B045
:1031900000AFF860B9607A6000237B610AE0AFF3AA
:1031A00000800146BB685A1CBA60CAB21A707B69BB
:1031B00001337B617A697B689A42F0DB7B68184651
:1031C0001837BD4680BD80B483B000AF78604FF043
:1031D000FF3318460C37BD4680BC704780B483B0BF
:1031E00000AF786039603B684FF400525A600023AA
:1031F00018460C37BD4680BC704780B483B000AF22
:103200007860012318460C37BD4680BC704780B4F7
:1032100085B000AFF860B9607A60002318461437B3
:10322000BD4680BC7047000080B582B000AF7860BA
:1032300039603A680121994806F09CFA0346002B50
:1032400000F02882954B1B6803F56D532033944A98
:103250009360924B1B6803F56D532033904AD36003
:103260008E4B1B6803F5864308338E4A93608B4B65
:103270001B6803F5864308338A4AD360874B1B6873
:1032800003F53B532033884A9360844B1B6803F556
:103290003B532033844AD360804B1B6803F516638D
:1032A000824A93607D4B1B6803F516637F4AD360A7
:1032B0007A4B1B6803F53B5320337D4A9360774B71
:1032C0001B6803F53B532033794AD360734B1B686B
:1032D00003F51663774A9360704B1B6803F516631A
:1032E000744AD3606D4B1B6803F52F53724A936089
:1032F0006A4B1B6803F52F536F4AD360674B1B68FB
:1033000003F5B74360336D4A9360644B1B6803F564
:10331000B7436033694AD360604B1B68684A936067
:103320005E4B1B68664AD3605C4B1B6803F5964393
:10333000644A9360594B1B6803F59643614AD36016
:10334000564B1B6803F5974320335F4A9360534BFA
:103350001B6803F5974320335B4AD3604F4B1B68D0
:1033600003F599436033594A93604C4B1B6803F54E
:1033700099436033554AD360484B1B6803F5964325
:10338000534A9360454B1B6803F59643504AD360FC
:10339000424B1B6803F5964314334E4A93603F4BF0
:1033A0001B6803F5964314334A4AD3603B4B1B68B2
:1033B00003F597433433484A9360384B1B6803F551
:1033C00097433433444AD360344B1B68434A936079
:1033D000324B1B68414AD360304B1B6803F5964360
:1033E0003F4A93602D4B1B6803F596433C4AD360DC
:1033F0002A4B1B683B4A9360284B1B68394AD360B1
:10340000264B1B6803F50C53374A9360234B1B680C
:1034100003F50C53344AD360204B1B6803F5685303
:103420002433324A93601D4B1B6803F568532433E1
:103430002E4AD360194B1B682D4A9360174B1B68AB
:103440002B4AD360154B1B6803F53463294A9360FC
:10345000124B1B6803F53463264AD3600F4B1B687D
:10346000254A93600D4B1B68234AD3600B4B1B68A6
:10347000E033224A9360094B1B68E0331F4AD36054
:10348000064B1B6803F528731D4A9360034B1B68AA
:1034900003F528731A4AD36034E000BFAC2500203E
:1034A0000C0000209C030020AC0300201C00002026
:1034B0002C000020BC0300203C000020CC03002096
:1034C0004C0000205C000020DC0300206C00002089
:1034D000EC0300207C0000208C0000209C000020D9
:1034E000AC000020BC000020FC030020CC00002029
:1034F0000C040020DC000020EC0000201C04002054
:10350000FC000020684B1B68684A9360664B1B6890
:10351000664AD360644B1B681C33654A9360624BF8
:103520001B681C33624AD3605F4B1B68FC33614AE3
:1035300093605D4B1B68FC335E4AD3605A4B1B683B
:1035400003F516535C4A9360574B1B6803F51653FB
:10355000594AD360544B1B68584A9360524B1B68BE
:10356000564AD360504B1B6803F5A863544A9360D6
:103570004D4B1B6803F5A863514AD3604A4B1B6847
:1035800003F5B6534F4A9360474B1B6803F5B65398
:103590004C4AD360444B1B684B4A9360424B1B68B8
:1035A000494AD360404B1B6803F5A863474A9360C0
:1035B0003D4B1B6803F5A863444AD3603A4B1B6834
:1035C00003F5A053424A9360374B1B6803F5A053A1
:1035D0003F4AD360344B1B683E4A9360324B1B68B2
:1035E0003C4AD360304B1B6803F590733A4A9360B2
:1035F0002D4B1B6803F59073374AD3602A4B1B6829
:1036000003F55873354A9360274B1B6803F55873CD
:10361000324AD360244B1B68314A9360224B1B68AB
:103620002F4AD360204B1B6824332E4A93601E4BD5
:103630001B6824332B4AD3601B4B1B6803F5A27312
:10364000294A9360184B1B6803F5A273264AD3607E
:10365000154B1B6803F51973244A9360124B1B68C2
:1036600003F51973214AD3600F4B1B6803F624132B
:103670001F4A93600C4B1B6803F624131C4AD3604B
:10368000094B1B681B4A9360074B1B68194AD360A0
:10369000012305E013223021786806F0EDF80023BD
:1036A00018460837BD4680BDAC2500202C040020FC
:1036B0000C0100201C0100202C0100203C010020F6
:1036C0004C0100203C0400205C0100204C04002040
:1036D0006C0100207C0100205C0400208C01002093
:1036E0006C0400209C010020AC010020BC010020E3
:1036F0007C040020CC01002080B582B000AF78604F
:1037000039603A6801219E4805F0E2FF0346002B2C
:1037100000F062829B4B1B6843F08043994A136020
:10372000974B1B68974A9360954B1B68954AD360EB
:10373000954B1B6843F08043934A1360904B1B6882
:1037400003F5C853904A93608D4B1B6803F5C8532B
:103750008D4AD3608D4B1B6843F080438B4A1360C6
:10376000874B1B6803F5D253884A9360844B1B68D0
:1037700003F5D253854AD360854B1B6843F08043E1
:10378000834A13607E4B1B6803F5E8531033804A6D
:1037900093607B4B1B6803F5E85310337C4AD3607E
:1037A0007C4B1B6843F080437A4A1360744B1B6860
:1037B00003F5F2531033774A9360714B1B6803F59E
:1037C000F2531033734AD360734B1B6843F080434A
:1037D000714A13606A4B1B6803F5A04350336E4A6D
:1037E0009360674B1B6803F5A04350336A4AD3606C
:1037F0006A4B1B6843F08043684A1360604B1B6848
:1038000003F5A5435033654A93605D4B1B6803F590
:10381000A5435033614AD360614B1B6843F080433A
:103820005F4A1360564B1B6803F5B24310335C4A82
:103830009360534B1B6803F5B2431033584AD3606F
:10384000584B1B6843F08043564A13604C4B1B682F
:1038500003F5B2433833534A9360494B1B6803F571
:10386000B24338334F4AD3604F4B1B6843F0804319
:103870004D4A1360424B1B6803F5BE4378334A4AF6
:1038800093603F4B1B6803F5BE437833464AD360D1
:10389000464B1B6843F08043444A1360384B1B6817
:1038A00003F5C3437833414A9360354B1B6803F5F6
:1038B000C34378333D4AD3603D4B1B6843F080439C
:1038C0003B4A13602E4B1B6803F5CF431833384A2D
:1038D00093602B4B1B6803F5CF431833344AD360F6
:1038E000344B1B6843F08043324A1360244B1B68FF
:1038F00003F5D44318332F4A9360214B1B6803F51B
:10390000D44318332B4AD3602B4B1B6843F08043BE
:10391000294A13601A4B1B6803F576431833264A6D
:103920009360174B1B6803F576431833224AD36024
:10393000224B1B6843F08043204A1360104B1B68E6
:1039400003F5794398331D4A93600D4B1B6803F5CB
:1039500079439833194AD360194B1B6843F080436D
:10396000174A1360064B1B6803F5823303F5EC73AB
:10397000134A9360024B1B6803F5823322E000BFB9
:10398000B0250020DC010020EC010020FC0100201B
:103990000C0200201C0200202C0200203C0200200F
:1039A0004C0200205C0200206C0200207C020020FF
:1039B0008C0200209C020020AC020020BC020020EF
:1039C000CC02002003F5EC73884AD360884B1B6857
:1039D00043F08043864A1360864B1B6803F58333AC
:1039E0001033834A9360834B1B6803F58333103392
:1039F0007F4AD360804B1B6843F080437E4A13604C
:103A00007C4B1B6803F5893350337B4A9360794BB9
:103A10001B6803F589335033774AD360774B1B68B3
:103A200043F08043754A1360724B1B6803F58A3379
:103A300003F5E873714A93606E4B1B6803F58A3394
:103A400003F5E8736D4AD3606D4B1B6843F0804308
:103A50006B4A1360674B1B6803F58E3303F5D8730D
:103A6000674A9360634B1B6803F58E3303F5D87385
:103A7000634AD360634B1B6843F08043614A136021
:103A80005C4B1B6803F5903303F598735D4A9360B4
:103A9000584B1B6803F5903303F59873594AD3606C
:103AA000594B1B6843F08043574A1360514B1B68C6
:103AB00003F5073303F59873534A93604D4B1B6826
:103AC00003F5073303F598734F4AD3604F4B1B68D8
:103AD00043F080434D4A1360464B1B6803F508339F
:103AE00003F5D873494A9360424B1B6803F50833CA
:103AF00003F5D873454AD360454B1B6843F08043B8
:103B0000434A13603B4B1B6803F50D3303F5F87311
:103B10003F4A9360374B1B6803F50D3303F5F87389
:103B20003B4AD3603B4B1B6843F08043394A1360E8
:103B3000304B1B6803F50D3303F50E73354A936064
:103B40002C4B1B6803F50D3303F50E73314AD3601C
:103B5000314B1B6843F080432F4A1360254B1B6891
:103B600003F5123303F51E732B4A9360214B1B6838
:103B700003F5123303F51E73274AD360274B1B68E6
:103B800043F08043254A13601A4B1B6803F5133337
:103B900003F53E73214A9360164B1B6803F51333FC
:103BA00003F53E731D4AD3601D4B1B6843F08043F1
:103BB0001B4A13600F4B1B6803F5503303F5FC736E
:103BC000174A93600B4B1B6803F5503303F5FC73E6
:103BD000134AD360012305E012223021786805F0F2
:103BE0004BFE002318460837BD4680BDCC0200209E
:103BF000DC020020B0250020EC020020FC020020A6
:103C00000C0300201C0300202C0300203C03002098
:103C10004C0300205C0300206C0300207C03002088
:103C20008C03002080B582B000AF7860786805F022
:103C300017FE034618460837BD4680BD80B584B0E0
:103C400002AF7860396000230193052300930123BC
:103C5000044A3968786805F0FDFE034618460837BF
:103C6000BD4680BDCC22002080B594B000AFF86086
:103C7000B9607A600021F868FFF7E0FF0346BB6493
:103C800097F84830002B01D0BB6C67E007F11003B8
:103C9000184600F0E7F8034683F00103DBB2002B7F
:103CA00008D0FB681B681846FFF7BCFF0346BB64DF
:103CB000BB6C53E00023A7F84E3012E0B7F84E106B
:103CC000B7F84E309B00BA6813441A6807F1100326
:103CD0000C33184605F0EEFCB7F84E300133A7F868
:103CE0004E30BB68002B04D0FB8BB7F84E209A42B5
:103CF000E4D30023A7F84C3012E0B7F84C10B7F823
:103D00004C309B007A6813441A6807F1100304339F
:103D1000184605F0CFFCB7F84C300133A7F84C300B
:103D20007B68002B04D0FB8AB7F84C209A42E4D37E
:103D3000FB681B6807F110021146184600F046F8B0
:103D4000034683F00103DBB2002B06D0FB681B683F
:103D50001846FFF767FF0346BB64BB6C1846503735
:103D6000BD4680BD80B582B000AF786039607B68A9
:103D7000002B04D1064B7B607B68064A1A603968C9
:103D8000786805F07FFD034618460837BD4680BDBC
:103D9000CC2200200001C0A180B582B000AF7860C5
:103DA00039607B68002B04D1064B7B607B68064A38
:103DB0001A603968786805F0DBFD03461846083755
:103DC000BD4680BDCC2200200001C0A180B584B0DA
:103DD00000AF786039603968786805F07DFEF8607A
:103DE0000123FB72FB68002B01D1002326E0396818
:103DF000F868FFF781FC03461A46FB7A1340002B54
:103E000014BF01230023FB723968F868FFF70CFA2E
:103E100003461A46FB7A1340002B14BF01230023EC
:103E2000FB72786805F0F0FE03461A46FB7A1340F1
:103E3000002B14BF01230023FB72FB7A18461037B6
:103E4000BD4680BD80B584B000AFF860B9607A60CF
:103E50007A68B968F86805F005FF03461846103718
:103E6000BD4680BD80B586B000AF78607B68002B12
:103E700001D1002316E00D4A07F1100392E8030078
:103E800083E803000A4A07F1080392E8030083E885
:103E9000030007F1100207F108031946786805F0DE
:103EA000BDFC034618461837BD4680BD00490108D1
:103EB0000849010880B582B000AF786039603B687E
:103EC000002B09D03B791A467B68C3F31723396866
:103ED00007480EF005FE09E03B7919467B68C3F3FD
:103EE00017231A4603480EF0FBFD00BF00BFFDE795
:103EF000104901084449010880B586B000AF7860D8
:103F0000002279682848FFF7AFFE0346FB603B7B41
:103F1000002B06D02549F868FFF7CCFF4FF0FF33A0
:103F20003EE0214B1B6800211846FFF71BFF0346AC
:103F30001F4A13601C4B1B6800211846FFF72CFF1B
:103F400003461C4A136000237B610FE0184B19687D
:103F50007A691346DB009B1A9B000B445A6816498A
:103F60007B6941F823207B6901337B617B69002BEE
:103F7000ECDD00233B610FE00E4B19683A691346F4
:103F8000DB009B1A9B000B445A680C493B6941F8C3
:103F900023203B6901333B613B69002BECDD0023AF
:103FA00018461837BD4680BDC08A002074490108F4
:103FB000C48A0020C88A00204C27002050270020F7
:103FC00080B582B000AF0F4B1B680F4A11680F4AD3
:103FD00012681846FFF736FF78607B68012B0CD01B
:103FE000084B1B681846FFF71DFE03460849184694
:103FF000FFF760FF4FF0FF3300E00023184608375B
:10400000BD4680BDC08A0020C48A0020C88A002026
:104010009449010880B483B000AF00237B600F4B4C
:104020001B6C0E4A43F0080313640C4B1B6C03F02B
:1040300008037B607B680A4B00229A62084B4FF0B2
:10404000FF32DA62064B00225A62054B01221A60E7
:1040500000BF0C37BD4680BC704700BF003802402F
:10406000000C004080B483B000AF78607B6807EE3E
:10407000903AF8EE677A9FED087A67EE877A9FEDBF
:10408000077AC7EE876AF0EE667AB0EE670A0C37F9
:10409000BD4680BC704700BF00247449A037A04CC7
:1040A00080B582B000AF7860124B1B68002B02D045
:1040B0004FF0FF3319E0104804F00CFF0F4B1B6862
:1040C0000F4ADB00134459680E4B4FF47A520A48EA
:1040D00005F084FA7B681B680A4A184611464FF4BB
:1040E000F5631A460EF015FF002318460837BD4643
:1040F00080BD00BF309F0020CC8A00202C9F002074
:1041000098AF04088497002080B487B000AF78602F
:104110007B681B68BB6000237B61BB681B78FB74FA
:104120000123FB6012E0FB68BA68134493F9003086
:1041300097F913209A4206DAFB68BA6813441B7891
:10414000FB74FB687B61FB680133FB60FB68232B1E
:10415000E9DD0D4B1B680D497A6941F823200A4BB4
:104160001B680133084A1360074B1B68092B05DDE8
:10417000074B01221A604FF0FF3300E0002318467E
:104180001C37BD4680BC70472C9F0020849F0020B8
:10419000309F002080B500AF08480EF009FD0848A8
:1041A000FFF7AAFE074804F076FE0346002B02D074
:1041B00005480EF0FDFC00BF80BD00BFA44A010809
:1041C00070230020CC8A0020C44A0108F0B58FB0CB
:1041D00004AF4FF0FF337B626A4B1B68002B00F08B
:1041E000CC80694B1B68002B40F0C780FFF712FFA3
:1041F000664B5B6A7B616648FFF752FF7862634BF0
:104200005B6A3B613A697B69D31A624A1468184653
:10421000FFF728FFF0EE407A5F4AA3001344C3ED96
:10422000007A7B6A002B17D1584B5B6AFB60FFF763
:10423000C7FE7862554B5B6ABB60BA68FB68D31AED
:10424000544A14681846FFF70DFFF0EE407A534ABF
:10425000A3001344C3ED007A7B6A002B03D15048BE
:10426000FFF752FF78627B6A002BC1D04D480EF0F9
:104270009FFC4D4B01934D4B00934D4B4D4A4E4986
:104280004E480EF02DFC4FF000033B624FF0000350
:10429000FB610023BB6147E0BB695E1C484ABB6908
:1042A00052F833307B60474ABB6952F82330464AA4
:1042B00052F823103960384ABB699B0013441B68CD
:1042C0001846FCF7C9F804460D46344ABB699B0002
:1042D00013441B681846FCF7BFF802460B46CDE9AD
:1042E0000223CDE900453B687A68314637480EF035
:1042F000F7FB294ABB699B001344D3ED007A97ED85
:10430000087A77EE277AC7ED087A244ABB699B00C2
:104310001344D3ED007A97ED077A77EE277AC7ED4D
:10432000077ABB690133BB61BB69092BB4DDD7EDEB
:10433000087AB2EE047AC7EE876A16EE900AFCF7A6
:104340008BF804460D46D7ED077AB2EE047AC7EE35
:10435000876A16EE900AFCF77FF802460B46CDE915
:104360000223CDE900451A4B194A1A491A480EF0A2
:10437000B7FB1A491A480EF0B3FB00BF2C37BD46F5
:10438000F0BD00BFC08A0020309F0020000C00401C
:104390004C2700202C9F0020349F00205C9F002091
:1043A00050270020E84A0108404B01084C4B010807
:1043B000084B0108144B01081C4B0108204B010855
:1043C00098AF0408849F002008AF0408584B0108E8
:1043D0007C4B0108804B0108844B010800BD01059E
:1043E000A84B0108DFF834D0FCF740FC0C480D491D
:1043F0000D4A002302E0D458C4500433C4188C4240
:10440000F9D30A4A0A4C002301E013600432A242A5
:10441000FBD30EF057FDFEF7A5FC704700C001204E
:10442000000000203C25002030BD0A083C2500206B
:10443000F8A00020FEE7000080B487B000AFF8606D
:10444000B9607A603B60FF23FB750023FB75BB6896
:104450009BB21A46FB681A60FB68434ADA60FB6845
:10446000424A1A617B68DAB2FB681A713B68DAB2B9
:10447000FB685A71FB681B68B3F5005F29D0B3F580
:10448000005F66D8B3F5805F2AD0B3F5805F60D84F
:10449000B3F5006F2BD0B3F5006F5AD8B3F5806F2A
:1044A0002CD0B3F5806F54D8B3F5007F2DD0B3F581
:1044B000007F4ED8B3F5807F2ED0B3F5807F48D8EB
:1044C000802B30D0802B44D8202B3AD0402B31D0B9
:1044D0003FE0FB6801229A60FB68254A5A613BE095
:1044E000FB6802229A60FB68224A5A6134E0FB684A
:1044F00004229A60FB68204A5A612DE0FB6808227A
:104500009A60FB681D4A5A6126E0FB6810229A6097
:10451000FB681B4A5A611FE0FB6820229A60FB6817
:10452000184A5A6118E0FB6840229A60FB68164AF4
:104530005A6111E0FB6880229A60FB68134A5A6155
:104540000AE0FB684FF480729A60FB68104A5A6177
:1045500002E0FF23FB7500BF97F9173018461C37A0
:10456000BD4680BC704700BFB04D0508B08D050842
:1045700030CE050820CE050810CE050800CE05086F
:10458000F0CD0508E0CD0508D0CD0508C0CD050863
:10459000B0CD050880B588B002AFF860B9607A6028
:1045A000FB685B697B61FB681B685B083B61FB68C0
:1045B0001B79012B1DD1FB68DA68FB681969FB6860
:1045C0009B6801937B6800930B463969B86800F0DB
:1045D00050F9FB681A79FB685B797968786900F0B3
:1045E0002DFAFB681B687A680121786804F0EEF9FF
:1045F00015E0FB681A79FB685B79B968786900F0A7
:104600001DFAFB68DA68FB681969FB689B6801930F
:104610007B6800930B463969B86800F004F800BF66
:104620001837BD4680BD80B4ADB000AFF860B9604A
:104630007A603B60D7F8BC309B007A681344C7F8B7
:10464000A830D7F8BC309B003A681344C7F8A430B0
:10465000FB680433BB63BB6803F18043013B9B00F1
:10466000FA6813447B630123C7F8AC30D7F8B8303D
:104670000433C7F8A030BB68DB00043BD7F8B82090
:104680001344C7F89C30BB68013BC7F8AC30BAE0B4
:10469000BB6BFB63FB6B1B683B633B6B1A46D7F83A
:1046A000A8303B643B6C1B68FB62FB6AFA64BB642A
:1046B000FB6CBA6C43FB02F37B647B6CC7F89830ED
:1046C0007B6B3B653B6D1B68BB62BB6A1946D7F8C9
:1046D000A4307B657B6D1B687B627B6A1A46D7F8CA
:1046E000983079663A66FB657B6E3A6EF96D23FB0E
:1046F0000213BB65BB6D1B0CC7F898307B6B043B8A
:104700007B637B6B0433BB66BB6E1B683B623B6A9F
:104710001A46D7F8A430FB66FB6E1B68FB61FB6989
:10472000BA677B67BB6F7A6F43FB12F33B673B6FE4
:10473000C7F89430BB6B0433BB63BB6B043BFB67B4
:10474000FB6F1B68BB61BB691946D7F8A830C7F877
:104750008030D7F880301B687B617B691A46D7F8B8
:104760009430C7F89010C7F88C20C7F88830D7F875
:104770009030D7F88C20D7F8881023FB1213C7F895
:104780008430D7F88430C7F89430D7F8A0309A1C1A
:10479000C7F8A020D7F8982012B21A80D7F8943022
:1047A0001914D7F8A0309A1CC7F8A0200AB21A80B2
:1047B000D7F898301AB2D7F89C301A80D7F89430CE
:1047C0001B149BB25B429AB2D7F89C30023312B2F0
:1047D0001A80D7F89C30043BC7F89C30D7F8BC301F
:1047E0009B00D7F8A4201344C7F8A430D7F8BC30F6
:1047F0009B00D7F8A8201344C7F8A830D7F8AC30EE
:10480000013BC7F8AC30D7F8AC30002B7FF440AF99
:10481000FB68B3F900301A46FB680233B3F9003085
:10482000D31A5910BB689B00D7F8B82013440AB2BA
:104830001A80BB689B000233D7F8B82013440022CB
:104840001A80FB68B3F900301A46FB680233B3F9EB
:10485000003013445B101AB2D7F8B8301A80D7F87A
:10486000B830023300221A8000BFB437BD4680BC86
:10487000704780B4B1B000AFF860B9607A603B6057
:10488000D7F8C8307B637B68C7F8B8303B68C7F897
:10489000B430FB68FB63BB689B00FA681344BB63DE
:1048A000BB68C7F8BC30BEE0BB6B3B643B6C1B68AD
:1048B0003B633B6B1A46D7F8B4307B647B6C1B6858
:1048C000FB62FB6A3A65FB643B6DFA6C43FB02F3E7
:1048D000BB64BB6CC7F8B030FB6B7B657B6D1B6842
:1048E000BB62BB6A1946D7F8B830BB65BB6D1B68A5
:1048F0007B627B6A1A46D7F8B030B9667A663B6647
:10490000BB6E7A6E396E23FB0213FB65FB6D1B0CCD
:10491000C7F8B030BB6B043BBB63BB6B0433FB66B7
:10492000FB6E1B683B623B6A1A46D7F8B4303B67A4
:104930003B6F1B68FB61FB69FA67BB67FB6FBA6F74
:1049400023FB12F37B677B6FC7F8AC30D7F8B83026
:10495000C7F88030D7F880301B68BB61BB69194647
:10496000FB6B0433FB63FB6B043BC7F88430D7F865
:1049700084301B687B617B691A46D7F8AC305B4298
:10498000C7F89410C7F89020C7F88C30D7F8943047
:10499000D7F89020D7F88C1043FB1213C7F8883053
:1049A000D7F88830C7F8AC30D7F8B030C7F8A8309F
:1049B000D7F8AC301B14C7F8A430D7F8A830D7F814
:1049C000A420C3EA0243C7F8A030D7F8A0301A46A3
:1049D00007F13403C7F89C30C7F89820D7F898300F
:1049E0003B61D7F89C301B683A691A60D7F89C3055
:1049F0001B681A1DD7F89C301A6000BFD7F8CC305E
:104A00009B00D7F8B4201344C7F8B430D7F8CC30A3
:104A10009B00D7F8B8201344C7F8B830D7F8BC309B
:104A2000013BC7F8BC30D7F8BC30002B7FF43CAF5B
:104A300000BF00BFC437BD4680BC704780B586B09C
:104A400000AFF860B96011461A460B46FB71134679
:104A5000BB71FB681B887B61FB79012B4CD17B69A7
:104A6000B3F5805F38D07B69B3F5805F00F28F804B
:104A70007B69B3F5006F37D07B69B3F5006F00F247
:104A800086807B69B3F5806F26D07B69B3F5806F34
:104A90007DD87B69B3F5007F26D07B69B3F5007FB5
:104AA00075D87B69B3F5807F16D07B69B3F5807FBD
:104AB0006DD87B69802B17D07B69802B67D87B6989
:104AC000402B09D07B69402B61D87B69102B03D028
:104AD0007B69202B08D05AE0FB685A68012379696A
:104AE000B86802F093F852E0FB685B681A4679698F
:104AF000B86800F0ADF94AE07B69B3F5805F36D065
:104B00007B69B3F5805F42D87B69B3F5006F36D01F
:104B10007B69B3F5006F3AD87B69B3F5806F26D017
:104B20007B69B3F5806F32D87B69B3F5007F26D0FF
:104B30007B69B3F5007F2AD87B69B3F5807F16D0F7
:104B40007B69B3F5807F22D87B69802B17D07B6986
:104B5000802B1CD87B69402B09D07B69402B16D851
:104B60007B69102B03D07B69202B08D00FE0FB68FA
:104B70005A6801237969B86800F0BCFA07E0FB685D
:104B80005B681A467969B86800F010F800BFBB7915
:104B9000002B07D0FB689989FB689B681A46B868A8
:104BA00003F0C0FD00BF1837BD4680BD80B5B2B070
:104BB00000AFF860B9607A607B68FB62FB68BB623B
:104BC000BB685B00FA6813447B62BB685B08C7F88C
:104BD000C030D7F8C030C7F8C430B1E0FB6A043346
:104BE000FB62FB6A043B3B633B6B1B683B623B6ABB
:104BF000C7F8B430BB6A7B637B6B1B68FB61FB69E6
:104C0000C7F8B030D7F8B0303B640023FB633B6C8F
:104C1000FA6B93FA22F3BB63BB6BC7F8B0307B6AC5
:104C20007B647B6C1B68BB61BB69C7F8AC30D7F891
:104C3000AC303B650023FB643B6DFA6C93FA22F3C6
:104C4000BB64BB6CC7F8AC30D7F8B020D7F8AC3039
:104C5000FA65BB65FB6DBA6DD3FA12F37B657B6DAC
:104C6000C7F8A830D7F8B020D7F8AC30BA667B6662
:104C7000BB6E7A6E93FA22F33B663B6E1A4607F1DF
:104C800028033B67FA66FB6E7B613B6F1B687A69A2
:104C90001A603B6F1B681A1D3B6F1A6000BFD7F884
:104CA000B420D7F8A830FA67BB67FB6FBA6F23FB55
:104CB00002F37B677B6F1B0CC7F8A430D7F8B420D6
:104CC000D7F8A830C7F88820C7F88430D7F88830DC
:104CD000D7F8842043FB12F3C7F88030D7F8803030
:104CE000C7F8A030D7F8A430C7F89C30D7F8A03068
:104CF000C7F89830D7F89C30D7F89820C3EA020359
:104D0000C7F89430D7F894301A4607F12403C7F84F
:104D10009030C7F88C20D7F88C303B61D7F89030B2
:104D20001B683A691A60D7F890301B681A1DD7F8CB
:104D300090301A6000BFD7F8C430013BC7F8C430C8
:104D4000D7F8C430002B7FF449AF02237A68D7F834
:104D5000C010F86800F0CEF9BB685B00FA68D018A4
:104D600002237A68D7F8C01000F0C4F9BB685B086A
:104D7000C7F8C0300023C7F8C4305EE0D7F8C430AD
:104D8000DB00FA6813441B88A7F8BE30D7F8C4309C
:104D9000DB000233FA6813441B88A7F8BC30D7F84D
:104DA000C430DB000433FA6813441B88A7F8BA3018
:104DB000D7F8C430DB000633FA6813441B88A7F821
:104DC000B830B7F8BE305B00A7F8BE30B7F8BC30DB
:104DD0005B00A7F8BC30B7F8BA305B00A7F8BA3070
:104DE000B7F8B8305B00A7F8B830D7F8C430DB00AC
:104DF000FA681344B7F8BE201A80D7F8C430DB0035
:104E00000233FA681344B7F8BC201A80D7F8C430CC
:104E1000DB000433FA681344B7F8BA201A80D7F8D5
:104E2000C430DB000633FA681344B7F8B8201A80A0
:104E3000D7F8C4300133C7F8C430D7F8C420D7F846
:104E4000C0309A429AD300BF00BFC837BD4680BD6C
:104E500080B5B2B000AFF860B9607A607B68FB6281
:104E6000FB68BB62BB685B00FA6813447B62BB688B
:104E70005B08C7F8C030D7F8C030C7F8C430B1E01D
:104E8000FB6A0433FB62FB6A043B3B633B6B1B68BE
:104E90003B623B6AC7F8B430BB6A7B637B6B1B68C1
:104EA000FB61FB69C7F8B030D7F8B0303B64002332
:104EB000FB633B6CFA6B93FA22F3BB63BB6BC7F8E3
:104EC000B0307B6A7B647B6C1B68BB61BB69C7F8D5
:104ED000AC30D7F8AC303B650023FB643B6DFA6C1B
:104EE00093FA22F3BB64BB6CC7F8AC30D7F8B020A0
:104EF000D7F8AC30FA65BB65FB6DBA6DD3FA12F327
:104F00007B657B6DC7F8A830D7F8B020D7F8AC30F8
:104F1000BA667B66BB6E7A6E93FA22F33B663B6E93
:104F20001A4607F128033B67FA66FB6E7B613B6F0D
:104F30001B687A691A603B6F1B681A1D3B6F1A6009
:104F400000BFD7F8B420D7F8A830FA67BB67FB6F6B
:104F5000BA6F43FB02F37B677B6F1B0CC7F8A4306F
:104F6000D7F8B420D7F8A830C7F88820C7F884301D
:104F7000D7F88830D7F8842023FB12F3C7F88030A5
:104F8000D7F88030C7F8A030D7F8A430C7F89C30E5
:104F9000D7F8A030C7F89830D7F89C30D7F89820C9
:104FA000C3EA0203C7F89430D7F894301A4607F1E1
:104FB0002403C7F89030C7F88C20D7F88C303B61B9
:104FC000D7F890301B683A691A60D7F890301B68A0
:104FD0001A1DD7F890301A6000BFD7F8C430013BD3
:104FE000C7F8C430D7F8C430002B7FF449AF022390
:104FF0007A68D7F8C010F86801F008FEBB685B005B
:10500000FA68D01802237A68D7F8C01001F0FEFDC4
:10501000BB685B08C7F8C0300023C7F8C4305EE047
:10502000D7F8C430DB00FA6813441B88A7F8BE30F9
:10503000D7F8C430DB000233FA6813441B88A7F8A2
:10504000BC30D7F8C430DB000433FA6813441B8843
:10505000A7F8BA30D7F8C430DB000633FA68134437
:105060001B88A7F8B830B7F8BE305B00A7F8BE3091
:10507000B7F8BC305B00A7F8BC30B7F8BA305B00BB
:10508000A7F8BA30B7F8B8305B00A7F8B830D7F84F
:10509000C430DB00FA681344B7F8BE201A80D7F892
:1050A000C430DB000233FA681344B7F8BC201A801E
:1050B000D7F8C430DB000433FA681344B7F8BA20D9
:1050C0001A80D7F8C430DB000633FA681344B7F807
:1050D000B8201A80D7F8C4300133C7F8C430D7F8E5
:1050E000C420D7F8C0309A429AD300BF00BFC83757
:1050F000BD4680BD90B4ADF58A6D00AF07F58A64FA
:10510000A4F24444206007F58A60A0F5896001603C
:1051100007F58A61A1F24C410A6007F58A62A2F59F
:105120008A62136007F58A63A3F589631B68C7F871
:105130004C34D7F84C34C7F83834D7F84C349B0883
:10514000C7F84C340023C7F84834D7F84C34C7F8B4
:10515000403407F58A63A3F56B7307F58A62A2F200
:10516000444212681A6007F58A63A3F56B731A68E4
:10517000D7F84C349B001A4407F58A63A3F56C7387
:105180001A6007F58A63A3F56C731A68D7F84C3474
:105190009B001A4407F58A63A3F56D731A6007F53F
:1051A0008A63A3F56D731A68D7F84C349B001A44D0
:1051B00007F58A63A3F56E731A6007F58A63A3F592
:1051C0006B731A6807F58A63A3F504731A6007F511
:1051D0008A63A3F504731B681B681A4607F58A6384
:1051E000A3F582631A6007F58A63A3F582631B68DF
:1051F000C7F83434D7F8342407F58A63A3F501736C
:105200001A6007F58A63A3F5027300221A6007F596
:105210008A63A3F501731B6807F58A62A2F502721F
:10522000126893FA22F207F58A63A3F503731A60F2
:1052300007F58A63A3F503731B68C7F83434D7F8FE
:10524000342407F58A63A3F5FC731A6007F58A63B3
:10525000A3F5FE7300221A6007F58A63A3F5FC73B9
:105260001B6807F58A62A2F5FE72126893FA22F2B1
:1052700007F58A63A3F500731A6007F58A63A3F53F
:1052800000731B68C7F8343407F58A63A3F56D73A0
:105290001A6807F58A63A3F5FA731A6007F58A633B
:1052A000A3F5FA731B681B681A4607F58A63A3F215
:1052B00014431A6007F58A63A3F214431B68C7F806
:1052C0003034D7F8302407F58A63A3F5F4731A60F5
:1052D00007F58A63A3F5F67300221A6007F58A635F
:1052E000A3F5F4731B6807F58A62A2F5F6721268DB
:1052F00093FA22F207F58A63A3F5F8731A6007F5AB
:105300008A63A3F5F8731B68C7F83034D7F83024E4
:1053100007F58A63A3F5EE731A6007F58A63A3F5B0
:10532000F07300221A6007F58A63A3F5EE731B6819
:1053300007F58A62A2F5F072126893FA22F207F575
:105340008A63A3F5F2731A6007F58A63A3F5F27313
:105350001B68C7F83034D7F83414D7F8302407F571
:105360008A63A3F5E873196007F58A63A3F5EA7306
:105370001A6007F58A63A3F5E8731B6807F58A626C
:10538000A2F5EA72126893FA12F207F58A63A3F59E
:10539000EC731A6007F58A63A3F5EC731B68C7F812
:1053A0002C34D7F83414D7F8302407F58A63A3F5E2
:1053B000E273196007F58A63A3F5E4731A6007F5D1
:1053C0008A63A3F5E2731B6807F58A62A2F5E472AB
:1053D0001268D3FA12F207F58A63A3F5E6731A602E
:1053E00007F58A63A3F5E6731B68C7F8303407F541
:1053F0008A63A3F56C731A6807F58A63A3F5E073F3
:105400001A6007F58A63A3F5E0731B681B681A46E8
:1054100007F58A63A3F583631A6007F58A63A3F52A
:1054200083631B68C7F83434D7F8342407F58A63DC
:10543000A3F5DA731A6007F58A63A3F5DC7300221B
:105440001A6007F58A63A3F5DA731B6807F58A62A9
:10545000A2F5DC72126893FA22F207F58A63A3F5CB
:10546000DE731A6007F58A63A3F5DE731B68C7F85D
:105470003434D7F8342407F58A63A3F5D4731A605B
:1054800007F58A63A3F5D67300221A6007F58A63CD
:10549000A3F5D4731B6807F58A62A2F5D672126869
:1054A00093FA22F207F58A63A3F5D8731A6007F519
:1054B0008A63A3F5D8731B68C7F8343407F58A6389
:1054C000A3F56E731A6807F58A63A3F5D2731A60A1
:1054D00007F58A63A3F5D2731B681B681A4607F5A4
:1054E0008A63A3F21C431A6007F58A63A3F21C4384
:1054F0001B68C7F82834D7F8282407F58A63A3F572
:10550000CC731A6007F58A63A3F5CE7300221A6084
:1055100007F58A63A3F5CC731B6807F58A62A2F5C9
:10552000CE72126893FA22F207F58A63A3F5D0735C
:105530001A6007F58A63A3F5D0731B68C7F828348F
:10554000D7F8282407F58A63A3F5C6731A6007F510
:105550008A63A3F5C87300221A6007F58A63A3F56E
:10556000C6731B6807F58A62A2F5C872126893FABF
:1055700022F207F58A63A3F5CA731A6007F58A63F6
:10558000A3F5CA731B68C7F82834D7F83414D7F8C2
:10559000282407F58A63A3F5C073196007F58A63A9
:1055A000A3F5C2731A6007F58A63A3F5C0731B687D
:1055B00007F58A62A2F5C272126893FA12F207F531
:1055C0008A63A3F5C4731A6007F58A63A3F5C473ED
:1055D0001B68C7F83434D7F82C14D7F8342407F5EF
:1055E0008A63A3F5BA73196007F58A63A3F5BC73E0
:1055F0001A6007F58A63A3F5BA731B6807F58A6218
:10560000A2F5BC72126893FA22F207F58A63A3F539
:10561000BE731A6007F58A63A3F5BE731B6819464B
:1056200007F58A63A3F5B67307F1A4021A6007F5BC
:105630008A63A3F5B873196007F58A63A3F58463D9
:1056400007F58A62A2F5B87212681A6007F58A63D4
:10565000A3F5B6731B681B6807F58A62A2F584621E
:1056600012681A6007F58A63A3F5B6731B681B6896
:105670001A1D07F58A63A3F5B6731B681A6000BF8D
:10568000D7F82C14D7F8342407F58A63A3F5B07340
:10569000196007F58A63A3F5B2731A6007F58A6388
:1056A000A3F5B0731B6807F58A62A2F5B27212689F
:1056B000D3FA12F207F58A63A3F5B4731A6007F5FB
:1056C0008A63A3F5B4731B68C7F82C34D7F8483441
:1056D000DB0007F58A62A2F24C4212681A4407F511
:1056E0008A63A3F5AE731A6007F58A63A3F5AE73F8
:1056F0001B681B681A4607F58A63A3F224431A60E5
:1057000007F58A63A3F224431B68C7F82434D7F84B
:105710002414D7F82C2407F58A63A3F5A87319601D
:1057200007F58A63A3F5AA731A6007F58A63A3F5E0
:10573000A8731B6807F58A62A2F5AA72126823FB98
:1057400002F207F58A63A3F5AC731A6007F58A6362
:10575000A3F5AC731B681B0CC7F82034D7F82414CE
:10576000D7F82C2407F58A63A3F5A273196007F50F
:105770008A63A3F5A4731A6007F58A63A3F5A2737D
:105780001B6807F58A62A2F5A472126843FB12F245
:1057900007F58A63A3F5A6731A6007F58A63A3F574
:1057A000A6731B68C7F81C3407F58A63A3F56C73EE
:1057B0001A6807F58A63A3F5A0731A6007F58A6370
:1057C000A3F5A0731B681B681A4607F58A63A3F547
:1057D00085631A6007F58A63A3F585631B68C7F8BC
:1057E0003434D7F8342407F58A63A3F59A731A6022
:1057F00007F58A63A3F59C7300221A6007F58A6394
:10580000A3F59A731B6807F58A62A2F59C72126869
:1058100093FA22F207F58A63A3F59E731A6007F5DF
:105820008A63A3F59E731B68C7F83434D7F8342411
:1058300007F58A63A3F594731A6007F58A63A3F5E5
:10584000967300221A6007F58A63A3F594731B68A8
:1058500007F58A62A2F59672126893FA22F207F5AA
:105860008A63A3F598731A6007F58A63A3F59873A2
:105870001B68C7F83434D7F82034C7F81834D7F881
:105880001C34C7F81434D7F81834D7F81424C3EAF2
:105890000203C7F81034D7F81034194607F58A63A5
:1058A000A3F5907307F1A0021A6007F58A63A3F5C8
:1058B0009273196007F58A63A3F22C4307F58A6295
:1058C000A2F5927212681A6007F58A63A3F59073C5
:1058D0001B681B6807F58A62A2F22C4212681A60E4
:1058E00007F58A63A3F590731B681B681A1D07F5FB
:1058F0008A63A3F590731B681A6000BF07F58A637B
:10590000A3F56E731A6807F58A63A3F58E731A60A0
:1059100007F58A63A3F58E731B681B681A4607F5A3
:105920008A63A3F586631A6007F58A63A3F5866325
:105930001B68C7F82834D7F8282407F58A63A3F52D
:1059400088731A6007F58A63A3F58A7300221A60C8
:1059500007F58A63A3F588731B6807F58A62A2F5C9
:105960008A72126893FA22F207F58A63A3F58C73A0
:105970001A6007F58A63A3F58C731B68C7F828348F
:10598000D7F8282407F58A63A3F582731A6007F510
:105990008A63A3F5847300221A6007F58A63A3F56E
:1059A00082731B6807F58A62A2F58472126893FA03
:1059B00022F207F58A63A3F586731A6007F58A63F6
:1059C000A3F586731B68C7F82834D7F83424D7F8B2
:1059D0002834C7F85823C7F85433D7F85833D7F8C2
:1059E0005423D3FA12F207F58A63A3F580731A6081
:1059F00007F58A63A3F580731B68C7F83434D7F8BA
:105A00003024D7F83434C7F86423C7F86033D7F8A4
:105A10006433D7F86023A3FA12F3C7F85C33D7F8DE
:105A20005C33C7F82C34D7F83024D7F83434C7F8AF
:105A30007023C7F86C33D7F87033D7F86C23E3FAC8
:105A400012F3C7F86833D7F86833C7F83034D7F89B
:105A500048349B0007F58A62A2F24C421268134454
:105A6000C7F87433D7F874331B681A4607F58A638E
:105A7000A3F234431A6007F58A63A3F234431B6828
:105A8000C7F80C34D7F80C24D7F83034C7F8802383
:105A9000C7F87C33D7F88033D7F87C2323FB02F395
:105AA000C7F87833D7F878331B0CC7F82034D7F809
:105AB0000C24D7F83034C7F88C23C7F88833D7F8CC
:105AC0008C33D7F8882343FB12F3C7F88433D7F815
:105AD0008433C7F81C34D7F82034C7F80834D7F813
