:020000040800F2
:1000000000C00120AD3A0008253000082D3000085E
:10001000353000083D300008453000080000000081
:100020000000000000000000000000004D3000084B
:1000300059300008000000006530000871300008E9
:10004000FD3A0008FD3A0008FD3A0008FD3A0008B4
:10005000FD3A0008FD3A0008FD3A0008FD3A0008A4
:10006000FD3A0008FD3A0008FD3A0008FD3A000894
:10007000FD3A0008FD3A0008FD3A0008FD3A000884
:10008000FD3A0008FD3A0008FD3A0008FD3A000874
:10009000FD3A0008FD3A0008FD3A0008FD3A000864
:1000A000FD3A0008FD3A0008FD3A0008FD3A000854
:1000B000FD3A0008FD3A0008FD3A0008FD3A000844
:1000C000FD3A0008FD3A0008FD3A0008FD3A000834
:1000D000FD3A0008FD3A0008FD3A0008FD3A000824
:1000E000FD3A0008FD3A0008FD3A0008FD3A000814
:1000F000FD3A0008FD3A0008FD3A0008FD3A000804
:10010000FD3A0008FD3A0008FD3A0008FD3A0008F3
:100110007D300008FD3A0008FD3A0008FD3A00086D
:10012000FD3A0008FD3A0008FD3A0008FD3A0008D3
:10013000FD3A0008FD3A0008FD3A0008FD3A0008C3
:10014000FD3A0008FD3A0008FD3A0008FD3A0008B3
:10015000FD3A0008FD3A0008FD3A0008FD3A0008A3
:10016000FD3A0008FD3A0008FD3A0008FD3A000893
:10017000FD3A0008FD3A0008FD3A000800000000C2
:08018000FD3A0008FD3A0008F9
:1001900081F0004102E000BF83F0004330B54FEA38
:1001A00041044FEA430594EA050F08BF90EA020FA5
:1001B0001FBF54EA000C55EA020C7FEA645C7FEA38
:1001C000655C00F0E2804FEA5454D4EB5555B8BF5B
:1001D0006D420CDD2C4480EA020281EA030382EACC
:1001E000000083EA010180EA020281EA0303362D5E
:1001F00088BF30BD11F0004F4FEA01314FF4801C31
:100200004CEA113102D0404261EB410113F0004F42
:100210004FEA03334CEA133302D0524263EB4303F9
:1002200094EA050F00F0A780A4F10104D5F1200E97
:100230000DDB02FA0EFC22FA05F2801841F10001F2
:1002400003FA0EF2801843FA05F359410EE0A5F1C6
:1002500020050EF1200E012A03FA0EFC28BF4CF0F7
:10026000020C43FA05F3C01851EBE37101F00045AD
:1002700007D54FF0000EDCF1000C7EEB00006EEBBA
:100280000101B1F5801F1BD3B1F5001F0CD3490844
:100290005FEA30004FEA3C0C04F101044FEA44529B
:1002A00012F5800F80F09A80BCF1004F08BF5FEA22
:1002B000500C50F1000041EB045141EA050130BD02
:1002C0005FEA4C0C404141EB0101013C28BFB1F514
:1002D000801FE9D291F0000F04BF01460020B1FA5F
:1002E00081F308BF2033A3F10B03B3F120020CDA32
:1002F0000C3208DD02F1140CC2F10C0201FA0CF010
:1003000021FA02F10CE002F11402D8BFC2F1200C74
:1003100001FA02F120FA0CFCDCBF41EA0C0190402A
:10032000E41AA2BF01EB0451294330BD6FEA040473
:100330001F3C1CDA0C340EDC04F11404C4F120025E
:1003400020FA04F001FA02F340EA030021FA04F370
:1003500045EA030130BDC4F10C04C4F1200220FAC7
:1003600002F001FA04F340EA0300294630BD21FA05
:1003700004F0294630BD94F0000F83F4801306BFCB
:1003800081F480110134013D4EE77FEA645C18BFBF
:100390007FEA655C29D094EA050F08BF90EA020F56
:1003A00005D054EA000C04BF1946104630BD91EA4E
:1003B000030F1EBF0021002030BD5FEA545C05D151
:1003C0004000494128BF41F0004130BD14F5800490
:1003D0003CBF01F5801130BD01F0004545F0FE4104
:1003E00041F470014FF0000030BD7FEA645C1ABF39
:1003F000194610467FEA655C1CBF0B46024650EA70
:10040000013406BF52EA033591EA030F41F400219B
:1004100030BD00BF90F0000F04BF0021704730B521
:100420004FF4806404F132044FF000054FF00001F6
:1004300050E700BF90F0000F04BF0021704730B5B7
:100440004FF4806404F1320410F0004548BF40428C
:100450004FF000013EE700BF42004FEAE2014FEAE1
:1004600031014FEA02701FBF12F07F4393F07F4FBC
:1004700081F06051704732F07F4208BF704793F0BF
:100480007F4F04BF41F40021704730B54FF46074D2
:1004900001F0004521F000411CE700BF50EA0102D5
:1004A00008BF704730B54FF000050AE050EA01027E
:1004B00008BF704730B511F0004502D5404261EBEE
:1004C00041014FF4806404F132045FEA915C3FF42F
:1004D000D8AE4FF003025FEADC0C18BF03325FEACC
:1004E000DC0C18BF033202EBDC02C2F1200300FA7D
:1004F00003FC20FA02F001FA03FE40EA0E0021FAA2
:1005000002F11444BDE600BF4FEA410212F50012A9
:1005100015D211D56FF47873B3EB625212D94FEA4A
:10052000C12343F0004343EA505311F0004F23FA34
:1005300002F018BF404270474FF00000704750EA89
:10054000013005D111F0004008BF6FF00040704746
:100550004FF00000704700BF53B94AB9002908BFE7
:1005600000281CBF4FF0FF314FF0FF3000F00CB8F7
:10057000ADF1080C6DE904CE05F026FEDDF804E0CF
:10058000DDE9022304B07047704700BF4A0011D272
:1005900012F5001211D20DD56FF47873B3EB6252DD
:1005A0000ED44FEAC12343F0004343EA505323FAE9
:1005B00002F070474FF00000704750EA013002D15E
:1005C0004FF0FF3070474FF0000070470000000010
:1005D00001F0FF01102A2BDB10F0070F08D010F8F4
:1005E000013B013A8B422DD010F0070F42B3F6D1F8
:1005F000F0B441EA012141EA014122F007047FF011
:1006000000070023F0E80256083C85EA010586EA67
:10061000010685FA47F5A3FA87F586FA47F6A5FAA3
:1006200087F68EB9EED1F0BC01F0FF0102F00702AF
:1006300032B110F8013B013A83EA010313B1F8D15A
:100640000020704701387047002D06BF354603383B
:10065000073815F0010F07D1013015F4807F02BF74
:10066000013015F4C03F0130F0BC0138704700BFC5
:10067000034613F8012B002AFBD1181A01387047E2
:1006800070B54FF0FF0C4CF4E06C1CEA11541DBF28
:100690001CEA135594EA0C0F95EA0C0F00F0DEF8F3
:1006A0002C4481EA030621EA4C5123EA4C5350EAD8
:1006B000013518BF52EA033541F4801143F4801329
:1006C00038D0A0FB02CE4FF00005E1FB02E506F0BA
:1006D0000042E0FB03E54FF00006E1FB03569CF00F
:1006E000000F18BF4EF0010EA4F1FF04B6F5007F15
:1006F00064F5407404D25FEA4E0E6D4146EB060687
:1007000042EAC62141EA55514FEAC52040EA5E500F
:100710004FEACE2EB4F1FD0C88BFBCF5E06F1ED8B9
:10072000BEF1004F08BF5FEA500E50F1000041EBF0
:10073000045170BD06F0004646EA010140EA02009D
:1007400081EA0301B4EB5C04C2BFD4EB0C0541EABF
:10075000045170BD41F480114FF0000E013C00F3D4
:10076000AB8014F1360FDEBF002001F0004170BDF8
:10077000C4F10004203C35DA0C341BDC04F1140411
:10078000C4F1200500FA05F320FA04F001FA05F29D
:1007900040EA020001F0004221F0004110EBD3706A
:1007A00021FA04F642EB06015EEA430E08BF20EA96
:1007B000D37070BDC4F10C04C4F1200500FA04F339
:1007C00020FA05F001FA04F240EA020001F00041CB
:1007D00010EBD37041F100015EEA430E08BF20EA3E
:1007E000D37070BDC4F1200500FA05F24EEA020E86
:1007F00020FA04F301FA05F243EA020321FA04F0B5
:1008000001F0004121FA04F220EA020000EBD3706B
:100810005EEA430E08BF20EAD37070BD94F0000F6B
:100820000FD101F00046400041EB010111F4801F9F
:1008300008BF013CF7D041EA060195F0000F18BF50
:10084000704703F00046520043EB030313F4801F8C
:1008500008BF013DF7D043EA0603704794EA0C0F46
:100860000CEA135518BF95EA0C0F0CD050EA41065C
:1008700018BF52EA4306D1D181EA030101F00041D9
:100880004FF0000070BD50EA410606BF1046194601
:1008900052EA430619D094EA0C0F02D150EA01360D
:1008A00013D195EA0C0F05D152EA03361CBF10464E
:1008B00019460AD181EA030101F0004141F0FE41ED
:1008C00041F470014FF0000070BD41F0FE4141F471
:1008D000780170BD70B54FF0FF0C4CF4E06C1CEA71
:1008E00011541DBF1CEA135594EA0C0F95EA0C0F26
:1008F00000F0A7F8A4EB050481EA030E52EA0335E1
:100900004FEA013100F088804FEA03334FF0805501
:1009100045EA131343EA12634FEA022245EA11152E
:1009200045EA10654FEA00260EF000419D4208BFDF
:10093000964244F1FD0404F5407402D25B084FEA8C
:100940003202B61A65EB03055B084FEA32024FF438
:1009500080104FF4002CB6EB020E75EB030E22BF95
:10096000B61A754640EA0C005B084FEA3202B6EB55
:10097000020E75EB030E22BFB61A754640EA5C0004
:100980005B084FEA3202B6EB020E75EB030E22BF94
:10099000B61A754640EA9C005B084FEA3202B6EB95
:1009A000020E75EB030E22BFB61A754640EADC0054
:1009B00055EA060E18D04FEA051545EA16754FEAB6
:1009C00006164FEAC30343EA52734FEAC2025FEAD4
:1009D0001C1CC0D111F4801F0BD141EA00014FF063
:1009E00000004FF0004CB6E711F4801F04BF014334
:1009F0000020B4F1FD0C88BFBCF5E06F3FF6AFAE50
:100A0000B5EB030C04BFB6EB020C5FEA500C50F1DF
:100A1000000041EB045170BD0EF0004E4EEA113162
:100A200014EB5C04C2BFD4EB0C0541EA045170BD69
:100A300041F480114FF0000E013C90E645EA060EAD
:100A40008DE60CEA135594EA0C0F08BF95EA0C0FDB
:100A50003FF43BAF94EA0C0F0AD150EA01347FF423
:100A600034AF95EA0C0F7FF425AF104619462CE7FA
:100A700095EA0C0F06D152EA03353FF4FDAE10465D
:100A8000194622E750EA410618BF52EA43067FF4AE
:100A9000C5AE50EA41047FF40DAF52EA43057FF43E
:100AA000EBAE12E74FF0FF3C06E000BF4FF0010C49
:100AB00002E000BF4FF0010C4DF804CD4FEA410CAD
:100AC0007FEA6C5C4FEA430C18BF7FEA6C5C1BD07A
:100AD00001B050EA410C0CBF52EA430C91EA030FFB
:100AE00002BF90EA020F0020704710F1000F91EA58
:100AF000030F58BF994208BF90422CBFD8176FEA26
:100B0000E37040F0010070474FEA410C7FEA6C5CF3
:100B100002D150EA013C07D14FEA430C7FEA6C5CFA
:100B2000D6D152EA033CD3D05DF8040B704700BF26
:100B30008446104662468C461946634600E000BF74
:100B400001B5FFF7B7FF002848BF10F1000F01BD46
:100B50004DF808EDFFF7F4FF0CBF012000205DF811
:100B600008FB00BF4DF808EDFFF7EAFF34BF012096
:100B700000205DF808FB00BF4DF808EDFFF7E0FF2F
:100B800094BF012000205DF808FB00BF4DF808ED80
:100B9000FFF7CEFF94BF012000205DF808FB00BFE7
:100BA0004DF808EDFFF7C4FF34BF012000205DF8C9
:100BB00008FB00BF4FEA410C7FEA6C5C02D150EAAF
:100BC000013C0AD14FEA430C7FEA6C5C02D152EA45
:100BD000033C02D14FF0000070474FF00100704716
:100BE0000348044B834202D0034B03B118477047BC
:100BF000AC090020AC090020000000000548064BAD
:100C00001B1AD90F01EBA301491002D0034B03B10A
:100C100018477047AC090020AC0900200000000014
:100C200010B5064C237843B9FFF7DAFF044B13B134
:100C30000448AFF300800123237010BDC0090020D9
:100C400000000000248E000808B5054B1BB10549C3
:100C50000548AFF30080BDE80840FFF7CFBF00BFF5
:100C600000000000C4090020248E000880B400AFFA
:100C7000054BD3F88830044A43F47003C2F8883037
:100C800000BFBD4680BC704700ED00E080B586B077
:100C900000AF78607B68002B01D1012367E27B689D
:100CA0001B6803F00103002B75D0884B9B6803F091
:100CB0000C03042B0CD0854B9B6803F00C03082B12
:100CC00012D1824B5B6803F48003B3F5800F0BD124
:100CD0007E4B1B6803F40033002B5BD07B685B68A2
:100CE000002B57D1012342E27B685B68B3F5803F5C
:100CF00006D1764B1B68754A43F4803313601DE0C0
:100D00007B685B68B3F5A02F0CD1704B1B686F4AF2
:100D100043F4802313606D4B1B686C4A43F48033AB
:100D200013600BE0694B1B68684A23F4803313603F
:100D3000664B1B68654A23F4802313607B685B68FD
:100D4000002B13D000F0F4FF386108E000F0F0FF52
:100D500002463B69D31A642B01D9032307E25B4B9C
:100D60001B6803F40033002BF0D014E000F0E0FF28
:100D7000386108E000F0DCFF02463B69D31A642BBF
:100D800001D90323F3E1514B1B6803F40033002B1B
:100D9000F0D100E000BF7B681B6803F00203002B6A
:100DA00063D04A4B9B6803F00C03002B0BD0474BDE
:100DB0009B6803F00C03082B1CD1444B5B6803F4C5
:100DC0008003002B16D1414B1B6803F00203002B5C
:100DD00005D07B68DB68012B01D00123C7E13B4BC9
:100DE0001B6823F0F8027B681B69DB00374913435B
:100DF0000B603AE07B68DB68002B20D0344B01228B
:100E00001A6000F095FF386108E000F091FF02469B
:100E10003B69D31A022B01D90323A8E12B4B1B6892
:100E200003F00203002BF0D0284B1B6823F0F802DC
:100E30007B681B69DB00254913430B6015E0244BDD
:100E400000221A6000F074FF386108E000F070FFC3
:100E500002463B69D31A022B01D9032387E11B4BBE
:100E60001B6803F00203002BF0D17B681B6803F0C2
:100E70000803002B36D07B685B69002B16D0154B1E
:100E800001221A6000F054FF386108E000F050FFC2
:100E900002463B69D31A022B01D9032367E10B4BAE
:100EA0005B6F03F00203002BF0D01BE0094B002224
:100EB0001A6000F03DFF38610EE000F039FF024695
:100EC0003B69D31A022B07D9032350E100380240B3
:100ED00000004742800E4742884B5B6F03F00203DD
:100EE000002BEAD17B681B6803F00403002B00F0A1
:100EF00097800023FB75814B1B6C03F08053002B04
:100F00000FD10023BB607D4B1B6C7C4A43F08053A8
:100F100013647A4B1B6C03F08053BB60BB680123E6
:100F2000FB75774B1B6803F48073002B18D1744B4F
:100F30001B68734A43F48073136000F0F9FE386154
:100F400008E000F0F5FE02463B69D31A022B01D9F6
:100F500003230CE16A4B1B6803F48073002BF0D071
:100F60007B689B68012B06D1644B1B6F634A43F07F
:100F7000010313671CE07B689B68052B0CD15F4B5A
:100F80001B6F5E4A43F0040313675C4B1B6F5B4AA5
:100F900043F0010313670BE0584B1B6F574A23F0D4
:100FA00001031367554B1B6F544A23F00403136767
:100FB0007B689B68002B15D000F0BAFE38610AE010
:100FC00000F0B6FE02463B69D31A41F288329342E2
:100FD00001D90323CBE0494B1B6F03F00203002B25
:100FE000EED014E000F0A4FE38610AE000F0A0FEAC
:100FF00002463B69D31A41F28832934201D9032356
:10100000B5E03E4B1B6F03F00203002BEED1FB7DDE
:10101000012B05D1394B1B6C384A23F080531364E4
:101020007B689B69002B00F0A180344B9B6803F028
:101030000C03082B5CD07B689B69022B41D1314BA0
:1010400000221A6000F074FE386108E000F070FEC3
:1010500002463B69D31A022B01D9032387E0274BB1
:101060001B6803F00073002BF0D17B68DA697B68A2
:101070001B6A1A437B685B6A9B011A437B689B6A05
:101080005B08013B1B041A437B68DB6A1B061B4998
:1010900013434B601B4B01221A6000F049FE38617C
:1010A00008E000F045FE02463B69D31A022B01D945
:1010B00003235CE0114B1B6803F00073002BF0D09E
:1010C00054E0104B00221A6000F032FE386108E054
:1010D00000F02EFE02463B69D31A022B01D90323EE
:1010E00045E0064B1B6803F00073002BF0D13DE098
:1010F0007B689B69012B07D1012338E0003802404F
:1011000000700040600047421B4B5B68FB607B68DF
:101110009B69012B28D0FB6803F480027B68DB69A4
:101120009A4221D1FB6803F03F027B681B6A9A4216
:101130001AD1FA6847F6C07313407A68526A92016E
:10114000934211D1FB6803F440327B689B6A5B08D1
:10115000013B1B049A4207D1FB6803F070627B6875
:10116000DB6A1B069A4201D0012300E000231846E7
:101170001837BD4680BD00BF0038024080B584B03E
:1011800000AF786039607B68002B01D10123CCE08F
:10119000684B1B6803F007033A689A420CD9654B09
:1011A0003A68D2B21A70634B1B6803F007033A68BF
:1011B0009A4201D00123B8E07B681B6803F0020368
:1011C000002B20D07B681B6803F00403002B05D0A4
:1011D000594B9B68584A43F4E05393607B681B6803
:1011E00003F00803002B05D0534B9B68524A43F48D
:1011F00060439360504B9B6823F0F0027B689B68D0
:101200004D4913438B607B681B6803F00103002B7F
:1012100044D07B685B68012B07D1474B1B6803F404
:101220000033002B19D101237FE07B685B68022B20
:1012300003D07B685B68032B07D13F4B1B6803F02F
:101240000073002B09D101236FE03B4B1B6803F0B7
:101250000203002B01D1012367E0374B9B6823F089
:1012600003027B685B68344913438B6000F060FDC8
:10127000F8600AE000F05CFD0246FB68D31A41F218
:101280008832934201D903234FE02B4B9B6803F034
:101290000C027B685B689B009A42EBD1254B1B6874
:1012A00003F007033A689A420CD2224B3A68D2B252
:1012B0001A70204B1B6803F007033A689A4201D06A
:1012C000012332E07B681B6803F00403002B08D085
:1012D000194B9B6823F4E0527B68DB681649134383
:1012E0008B607B681B6803F00803002B09D0124B4E
:1012F0009B6823F460427B681B69DB000E49134343
:101300008B6000F021F802460B4B9B681B0903F031
:101310000F030A49CB5C22FA03F3094A1360094B15
:101320001B68184600F0C2FC002318461037BD4663
:1013300080BD00BF003C024000380240C88E00085B
:1013400000000020040000202DE9B04F94B000AF51
:1013500000237B640023FB6400233B640023BB6405
:10136000794B9B6803F00C03082B0DD0082B00F27F
:10137000E180002B02D0042B03D0DBE0734BBB6475
:10138000DBE0734BBB64D8E06F4B5B6803F03F035B
:101390007B646D4B5B6803F48003002B63D06A4B66
:1013A0005B689B090022BB63FA63BB6BC3F3080352
:1013B0003B6300237B63D7E90C4522462B464FF065
:1013C00000004FF00001590141EAD261500102468C
:1013D0000B462146511A3961294663EB01037B61B3
:1013E0004FF000024FF00003D7E904AB59468B01E0
:1013F000514643EA916351468A015146B2EB0108D6
:10140000594663EB01094FF000024FF000034FEA29
:10141000C90343EA58734FEAC802904699462346E7
:1014200018EB0303BB602B4649EB0303FB604FF053
:1014300000024FF00003D7E9024529464B0221463E
:1014400043EAD15321464A02104619467B6C0022DA
:10145000BB62FA62D7E90A23FFF77EF802460B4621
:101460001346FB6458E0384B5B689B090022184622
:101470001146C0F308033B6200237B62D7E9088969
:1014800042464B464FF000004FF00001590141EA3F
:10149000D261500102460B464146B2EB010A494671
:1014A00063EB010B4FF000024FF000034FEA8B1388
:1014B00043EA9A634FEA8A12B2EB0A0463EB0B0524
:1014C0004FF000024FF00003EB0043EA5473E200D8
:1014D00014461D464346E3183B604B4645EB030369
:1014E0007B604FF000024FF00003D7E9004529462A
:1014F0008B02214643EA915321468A02104619463F
:101500007B6C0022BB61FA61D7E90623FFF724F860
:1015100002460B461346FB640B4B5B681B0C03F047
:10152000030301335B003B64FA6C3B6CB2FBF3F3E7
:10153000BB6402E0054BBB6400BFBB6C1846503770
:10154000BD46BDE8B08F00BF003802400024F40063
:1015500000127A0080B400AF024B1B681846BD46EB
:1015600080BC70470000002080B500AFFFF7F2FF9D
:101570000246054B9B689B0A03F007030349CB5CBB
:1015800022FA03F3184680BD00380240D88E0008C6
:1015900080B500AFFFF7DEFF0246054B9B685B0B93
:1015A00003F007030349CB5C22FA03F3184680BD1E
:1015B00000380240D88E000880B489B000AF78604F
:1015C000396000237B6100233B610023BB61002362
:1015D000FB616BE10122FB6902FA03F37B613B686B
:1015E0001B687A6913403B613A697B699A4240F013
:1015F0005A813B685B6803F00303012B05D03B680D
:101600005B6803F00303022B30D17B689B68BB61EE
:10161000FB695B00032202FA03F3DB43BA69134060
:10162000BB613B68DA68FB695B0002FA03F3BA69E5
:101630001343BB617B68BA699A607B685B68BB6176
:101640000122FB6902FA03F3DB43BA691340BB6171
:101650003B685B681B0903F00102FB6902FA03F3B4
:10166000BA691343BB617B68BA695A603B685B68BF
:1016700003F00303032B17D07B68DB68BB61FB69B6
:101680005B00032202FA03F3DB43BA691340BB6138
:101690003B689A68FB695B0002FA03F3BA6913437B
:1016A000BB617B68BA69DA603B685B6803F003037F
:1016B000022B23D1FB69DA087B68083253F8223009
:1016C000BB61FB6903F007039B000F2202FA03F3DF
:1016D000DB43BA691340BB613B681A69FB6903F0DD
:1016E00007039B0002FA03F3BA691343BB61FB696A
:1016F000DA087B680832B96943F822107B681B68F6
:10170000BB61FB695B00032202FA03F3DB43BA69A6
:101710001340BB613B685B6803F00302FB695B003D
:1017200002FA03F3BA691343BB617B68BA691A60B2
:101730003B685B6803F44033002B00F0B480002367
:10174000FB605F4B5B6C5E4A43F4804353645C4BCD
:101750005B6C03F48043FB60FB685A4AFB699B089F
:10176000023352F82330BB61FB6903F003039B0093
:101770000F2202FA03F3DB43BA691340BB617B68B3
:10178000514A93422BD07B68504A934225D07B68C4
:101790004F4A93421FD07B684E4A934219D07B68D0
:1017A0004D4A934213D07B684C4A93420DD07B68DC
:1017B0004B4A934207D07B684A4A934201D10723A0
:1017C0000EE008230CE006230AE0052308E00423CA
:1017D00006E0032304E0022302E0012300E00023EB
:1017E000FA6902F0030292009340BA691343BB61A5
:1017F0003449FB699B080233BA6941F823203A4B0C
:101800009B68BB613B69DB43BA691340BB613B68C2
:101810005B6803F48013002B03D0BA693B69134360
:10182000BB61314ABB6993602F4BDB68BB613B698D
:10183000DB43BA691340BB613B685B6803F4001388
:10184000002B03D0BA693B691343BB61264ABB69CD
:10185000D360254B5B68BB613B69DB43BA691340CE
:10186000BB613B685B6803F40033002B03D0BA69AB
:101870003B691343BB611C4ABB6953601A4B1B682D
:10188000BB613B69DB43BA691340BB613B685B6882
:1018900003F48033002B03D0BA693B691343BB6167
:1018A000114ABB691360FB690133FB61FB690F2BB4
:1018B0007FF690AE00BF00BF2437BD4680BC7047A6
:1018C000003802400038014000000240000402409D
:1018D00000080240000C02400010024000140240C8
:1018E00000180240001C0240003C014080B483B05C
:1018F00000AF78600B467B8013467B707B78002BB3
:1019000003D07A887B689A6103E07B881A047B683D
:101910009A6100BF0C37BD4680BC704780B584B06B
:1019200000AF78607B689B6DFB6000F001FAB860E7
:101930007B6893F83530DBB2022B08D07B688022BD
:101940005A657B68002283F83420012352E07B68CB
:101950001B681A687B681B6822F016021A607B6895
:101960001B685A697B681B6822F080025A617B6899
:101970001B6C002B03D17B689B6C002B07D07B6812
:101980001B681A687B681B6822F008021A607B6873
:101990001B681A687B681B6822F001021A6013E05A
:1019A00000F0C6F90246BB68D31A052B0CD97B6838
:1019B00020225A657B68032283F835207B68002249
:1019C00083F83420032315E07B681B681B6803F051
:1019D0000103002BE4D17B68DB6D3F229A40FB685A
:1019E0009A607B68012283F835207B68002283F8A7
:1019F0003420002318461037BD4680BD80B483B024
:101A000000AF78607B6893F83530DBB2022B04D0EE
:101A10007B6880225A6501230CE07B68052283F8ED
:101A200035207B681B681A687B681B6822F00102FE
:101A30001A60002318460C37BD4680BC7047000072
:101A400080B485B000AF78607B6803F00703FB606B
:101A50000C4BDB68BB60BA684FF6FF031340BB60FA
:101A6000FB681A02BB68134343F0BF6343F40033BF
:101A7000BB60044ABB68D36000BF1437BD4680BC5E
:101A8000704700BF00ED00E080B400AF044BDB689E
:101A90001B0A03F007031846BD4680BC704700BF11
:101AA00000ED00E080B483B000AF0346FB7197F90E
:101AB0000730002B0BDBFB7903F01F02064997F977
:101AC00007305B09012000FA02F241F8232000BF31
:101AD0000C37BD4680BC704700E100E080B483B0A5
:101AE00000AF03463960FB7197F90730002B0ADB22
:101AF0003B68DAB20C4997F907301201D2B20B44B5
:101B000083F800230AE03B68DAB20849FB7903F066
:101B10000F03043B1201D2B20B441A7600BF0C37FC
:101B2000BD4680BC704700BF00E100E000ED00E072
:101B300080B489B000AFF860B9607A60FB6803F0E8
:101B400007037B617B69033B042B04D87B69C3F1EA
:101B50000703FB6101E00423FB617B690433062B6F
:101B600003D97B69033BBB6101E00023BB614FF0FC
:101B7000FF32FB6902FA03F3DA43BB681A40BB6920
:101B80009A404FF0FF31BB6901FA03F3D9437B68F8
:101B90000B40134318462437BD4680BC70470000F5
:101BA00080B582B000AF78607B68013BB3F1807F85
:101BB00001D301230FE00A4A7B68013B53600F21E8
:101BC0004FF0FF30FFF78AFF054B00229A60044B6D
:101BD00007221A60002318460837BD4680BD00BFA3
:101BE00010E000E080B582B000AF78607868FFF761
:101BF00027FF00BF0837BD4680BD80B586B000AF67
:101C00000346B9607A60FB7300237B61FFF73CFFFA
:101C100078617A68B9687869FFF78AFF024697F9B0
:101C20000F3011461846FFF759FF00BF1837BD4661
:101C300080BD80B582B000AF0346FB7197F90730D5
:101C40001846FFF72FFF00BF0837BD4680BD80B59F
:101C500082B000AF78607868FFF7A2FF03461846AD
:101C60000837BD4680BD000080B500AF0E4B1B6835
:101C70000D4A43F4007313600B4B1B680A4A43F48C
:101C800080631360084B1B68074A43F4807313603A
:101C90000320FFF7A7FF0F2000F008F801F0F8F984
:101CA0000023184680BD00BF003C024080B582B0D2
:101CB00000AF7860124B1A68124B1B7819464FF42C
:101CC0007A73B3FBF1F3B2FBF3F31846FFF7BFFFF0
:101CD0000346002B01D001230EE07B680F2B0AD8AE
:101CE000002279684FF0FF30FFF787FF064A7B68D4
:101CF0001360002300E0012318460837BD4680BD6D
:101D000000000020080000200400002080B400AF84
:101D1000054B1B781A46054B1B681344034A136096
:101D200000BFBD4680BC704708000020DC090020D1
:101D300080B400AF024B1B681846BD4680BC70479C
:101D4000DC09002080B582B000AF78607B68002B92
:101D500001D1012342E07B6893F84130DBB2002BD4
:101D600006D17B68002283F84020786801F0F4F8FF
:101D70007B68242283F841207B681B68DA687B68D3
:101D80001B6822F40052DA60786800F077FD7B6807
:101D90001B681A697B681B6822F490421A617B6891
:101DA0001B685A697B681B6822F02A025A617B68AB
:101DB0001B68DA687B681B6842F40052DA607B6853
:101DC00000225A647B68202283F841207B6820220D
:101DD00083F842207B6800225A63002318460837A4
:101DE000BD4680BD80B58AB002AFF860B9603B6087
:101DF0001346FB8000237B61FB6893F84130DBB224
:101E0000202B75D1BB68002B02D0FB88002B01D1A1
:101E100001236EE0FB6800225A64FB68212283F8EC
:101E20004120FFF785FF7861FB68FA889A84FB6898
:101E3000FA88DA84FB689B68B3F5805F08D1FB6899
:101E40001B69002B04D10023FB61BB68BB6103E06D
:101E5000BB68FB610023BB612EE03B6800937B699C
:101E600000228021F86800F017FB0346002B05D004
:101E7000FB68202283F8412003233AE0FB69002B12
:101E80000BD1BB691B881A46FB681B68C2F30802AA
:101E90005A60BB690233BB6107E0FB691A78FB68D3
:101EA0001B685A60FB690133FB61FB68DB8C9BB2EA
:101EB000013B9AB2FB68DA84FB68DB8C9BB2002B97
:101EC000CBD13B6800937B6900224021F86800F089
:101ED000E3FA0346002B05D0FB68202283F841205B
:101EE000032306E0FB68202283F84120002300E062
:101EF000022318462037BD4680BD000080B5BAB029
:101F000000AF78607B681B681B68C7F8E4307B68AB
:101F10001B68DB68C7F8E0307B681B685B69C7F843
:101F2000DC300023C7F8D8300023C7F8D430D7F806
:101F3000E43003F00F03C7F8D830D7F8D830002BBF
:101F40000FD1D7F8E43003F02003002B09D0D7F8E5
:101F5000E03003F02003002B03D0786800F0CFFBC3
:101F600071E2D7F8D830002B00F0DC80D7F8DC30F5
:101F700003F00103002B06D1D7F8E03003F490738F
:101F8000002B00F0CF80D7F8E43003F00103002BE2
:101F90000BD0D7F8E03003F48073002B05D07B68BA
:101FA0005B6C43F001027B685A64D7F8E43003F0BD
:101FB0000403002B0BD0D7F8DC3003F00103002B17
:101FC00005D07B685B6C43F002027B685A64D7F8EB
:101FD000E43003F00203002B0BD0D7F8DC3003F021
:101FE0000103002B05D07B685B6C43F004027B6827
:101FF0005A64D7F8E43003F00803002B11D0D7F867
:10200000E03003F02003002B05D1D7F8DC3003F0DB
:102010000103002B05D07B685B6C43F008027B68F2
:102020005A647B685B6C002B00F00882D7F8E430C0
:1020300003F02003002B08D0D7F8E03003F0200392
:10204000002B02D0786800F05AFB7B681B685B6944
:1020500003F04003C3F38013DBB2C7F8D4307B68CE
:102060005B6C03F00803002B03D1D7F8D430002BAE
:102070004FD0786800F069FA7B681B685B6903F0F1
:102080004003402B41D17B681B681433C7F89C3058
:10209000D7F89C3053E8003FC7F89830D7F898300D
:1020A00023F04003C7F8D0307B681B681433D7F89F
:1020B000D020C7F8A820C7F8A430D7F8A410D7F8C4
:1020C000A82041E80023C7F8A030D7F8A030002BA3
:1020D000D9D17B68DB6B002B13D07B68DB6B8A4A22
:1020E0001A657B68DB6B1846FFF788FC0346002BFC
:1020F00016D07B68DB6B1B6D7A68D26B10469847F5
:102100000EE0786800F0B4F90AE0786800F0B0F901
:1021100006E0786800F0ACF97B6800225A648DE133
:1021200000BF8BE17B681B6B012B40F06781D7F808
:10213000E43003F01003002B00F06081D7F8E030AA
:1021400003F01003002B00F059810023BB607B6873
:102150001B681B68BB607B681B685B68BB60BB68F7
:102160007B681B685B6903F04003402B40F0CE8026
:102170007B68DB6B1B685B68A7F8BE30B7F8BE30C6
:10218000002B00F0A9807B689B8DB7F8BE209A4297
:1021900080F0A2807B68B7F8BE20DA857B68DB6BB5
:1021A000DB69B3F5807F00F088807B681B680C33A7
:1021B000C7F88830D7F8883053E8003FC7F8843034
:1021C000D7F8843023F48073C7F8B8307B681B6875
:1021D0000C33D7F8B820C7F89420C7F89030D7F858
:1021E0009010D7F8942041E80023C7F88C30D7F836
:1021F0008C30002BD9D17B681B6814337B677B6FD5
:1022000053E8003F3B673B6F23F00103C7F8B4304E
:102210007B681B681433D7F8B420C7F88020FB67AD
:10222000F96FD7F8802041E80023BB67BB6F002B14
:10223000E1D17B681B6814333B663B6E53E8003F7B
:10224000FB65FB6D23F04003C7F8B0307B681B686B
:102250001433D7F8B020FA66BB66B96EFA6E41E85F
:1022600000237B667B6E002BE3D17B68202283F802
:1022700042207B6800221A637B681B680C33FB6476
:10228000FB6C53E8003FBB64BB6C23F01003C7F842
:10229000AC307B681B680C33D7F8AC20BA657B6523
:1022A000796DBA6D41E800233B653B6D002BE3D1AE
:1022B0007B68DB6B1846FFF731FB7B6802225A63B1
:1022C0007B689A8D7B68DB8D9BB2D31A9BB21946D3
:1022D000786800F0D6F8B3E07B689B8DB7F8BE2035
:1022E0009A4240F0AD807B68DB6BDB69B3F5807FA1
:1022F00040F0A6807B6802225A637B689B8D19465A
:10230000786800F0BEF89BE00F2600087B689A8D85
:102310007B68DB8D9BB2D31AA7F8CE307B68DB8D50
:102320009BB2002B00F08E80B7F8CE30002B00F06F
:1023300089807B681B680C33BB63BB6B53E8003F31
:102340007B637B6B23F49073C7F8C8307B681B6892
:102350000C33D7F8C8207A643B64396C7A6C41E856
:102360000023FB63FB6B002BE3D17B681B681433FA
:102370007B627B6A53E8003F3B623B6A23F00103C8
:10238000C7F8C4307B681B681433D7F8C4203A639D
:10239000FB62F96A3A6B41E80023BB62BB6A002B1F
:1023A000E3D17B68202283F842207B6800221A63F5
:1023B0007B681B680C333B613B6953E8003FFB6063
:1023C000FB6823F01003C7F8C0307B681B680C3330
:1023D000D7F8C020FA61BB61B969FA6941E8002306
:1023E0007B617B69002BE3D17B6802225A63B7F8DB
:1023F000CE301946786800F044F823E0D7F8E4308E
:1024000003F08003002B09D0D7F8E03003F08003FD
:10241000002B03D0786800F00BF914E0D7F8E43013
:1024200003F04003002B0ED0D7F8E03003F0400358
:10243000002B08D0786800F04AF904E000BF02E001
:1024400000BF00E000BFE837BD4680BD80B483B068
:1024500000AF786000BF0C37BD4680BC704780B4C9
:1024600083B000AF786000BF0C37BD4680BC7047BA
:1024700080B483B000AF786000BF0C37BD4680BC2D
:10248000704780B483B000AF78600B467B8000BF9C
:102490000C37BD4680BC704780B586B000AFF86091
:1024A000B9603B601346FB713BE03B6AB3F1FF3F11
:1024B00037D0FFF73DFC02463B68D31A3A6A9A428E
:1024C00002D33B6A002B01D103233AE0FB681B686F
:1024D000DB6803F00403002B23D0BB68802B20D0E3
:1024E000BB68402B1DD0FB681B681B6803F008030A
:1024F000082B16D100237B61FB681B681B687B617E
:10250000FB681B685B687B617B69F86800F01DF8FD
:10251000FB6808225A64FB68002283F840200123EC
:102520000FE0FB681B681A68BB681340BA689A42E0
:102530000CBF01230023DBB21A46FB799A42B4D0C8
:10254000002318461837BD4680BD80B495B000AF53
:1025500078607B681B680C337B637B6B53E8003FC0
:102560003B633B6B23F49073FB647B681B680C3309
:10257000FA6C3A64FB63F96B3A6C41E80023BB6385
:10258000BB6B002BE5D17B681B6814333B623B6A55
:1025900053E8003FFB61FB6923F00103BB647B68E8
:1025A0001B681433BA6CFA62BB62B96AFA6A41E812
:1025B00000237B627B6A002BE5D17B681B6B012BC0
:1025C00019D17B681B680C33FB60FB6853E8003F44
:1025D000BB60BB6823F010037B647B681B680C3313
:1025E0007A6CBA617B617969BA6941E800233B6121
:1025F0003B69002BE5D17B68202283F842207B6871
:1026000000221A6300BF5437BD4680BC704780B5B6
:1026100084B000AF78607B689B6BFB60FB68002236
:10262000DA85F868FFF724FF00BF1037BD4680BD8C
:1026300080B485B000AF78607B6893F84130DBB23E
:10264000212B3ED17B689B68B3F5805F14D17B68FA
:102650001B69002B10D17B681B6AFB60FB681B8821
:102660001A467B681B68C2F308025A607B681B6AC3
:102670009A1C7B681A6208E07B681B6A591C7A689E
:1026800011621A787B681B685A607B68DB8C9BB28E
:10269000013B9BB27A681946D184002B0FD17B682D
:1026A0001B68DA687B681B6822F08002DA607B684E
:1026B0001B68DA687B681B6842F04002DA6000231E
:1026C00000E0022318461437BD4680BC704780B531
:1026D00082B000AF78607B681B68DA687B681B6833
:1026E00022F04002DA607B68202283F8412078687B
:1026F000FFF7ACFE002318460837BD4680BD80B505
:102700008CB000AF78600023FB620023BB627B6863
:1027100093F84230DBB2222B40F0AA807B689B68A2
:10272000B3F5805F15D17B681B69002B11D17B68E5
:102730009B6ABB627B681B685B689BB2C3F3080340
:102740009AB2BB6A1A807B689B6A9A1C7B689A6201
:1027500024E07B689B6AFB627B689B68B3F5805FC3
:1027600007D07B689B68002B0AD17B681B69002B14
:1027700006D17B681B685B68DAB2FB6A1A7008E0F6
:102780007B681B685B68DBB203F07F03DAB2FB6A2D
:102790001A707B689B6A5A1C7B689A627B68DB8D27
:1027A0009BB2013B9BB27A681946D185002B5DD163
:1027B0007B681B68DA687B681B6822F02002DA609D
:1027C0007B681B68DA687B681B6822F48072DA60B9
:1027D0007B681B685A697B681B6822F001025A619A
:1027E0007B68202283F842207B6800225A637B6842
:1027F0001B6B012B35D17B6800221A637B681B6839
:102800000C337B617B6953E8003F3B613B6923F0FC
:1028100010037B627B681B680C337A6A3A62FB6147
:10282000F9693A6A41E80023BB61BB69002BE5D135
:102830007B681B681B6803F01003102B0AD1002370
:10284000FB607B681B681B68FB607B681B685B68C0
:10285000FB60FB687B689B8D19467868FFF711FE6B
:1028600002E07868FFF7FBFD002302E0002300E0B0
:10287000022318463037BD4680BD00002DE9B04F19
:10288000C0B000AFC7F8F400D7F8F4301B681B697C
:1028900023F44050D7F8F430D968D7F8F4301A68E8
:1028A00040EA01031361D7F8F4309A68D7F8F4309E
:1028B0001B691A43D7F8F4305B691A43D7F8F43030
:1028C000DB691343C7F8F830D7F8F4301B68DB68CE
:1028D00023F4164121F00C01D7F8F4301A68D7F828
:1028E000F8300B43D360D7F8F4301B685B6923F4EE
:1028F0004070D7F8F4309969D7F8F4301A6840EA94
:1029000001035361D7F8F4301A688F4B9A4205D00F
:10291000D7F8F4301A688D4B9A4204D1FEF738FE8E
:10292000C7F8FC0003E0FEF71FFEC7F8FC00D7F86D
:10293000F430DB69B3F5004F40F00C81D7F8FC3080
:102940000022C7F8E830C7F8EC20D7E93A4522461C
:102950002B469118B9655B41FB65D7E916232146E3
:1029600012EB0108294643EB01094FF000024FF03A
:1029700000034FEAC90343EA58734FEAC80290467E
:102980009946234618EB0303C7F8E0302B4649EB82
:102990000303C7F8E430D7F8F4305B680022C7F8C7
:1029A000D830C7F8DC20D7E936120B46DB183B6578
:1029B000134642EB03037B65D7E91423D7E93801BB
:1029C000FDF7CAFD02460B46614BA3FB02235B09E0
:1029D0001C01D7F8FC300022C7F8D030C7F8D4204B
:1029E000D7E9348942464B469118B9645B41FB6490
:1029F000D7E91223414612EB010A494643EB010B8A
:102A00004FF000024FF000034FEACB0343EA5A7342
:102A10004FEACA0292469B4643461AEB0303C7F8A5
:102A2000C8304B464BEB0303C7F8CC30D7F8F43033
:102A30005B680022C7F8C030C7F8C420D7E930125D
:102A40000B46DB183B64134642EB03037B64D7E978
:102A50001023D7E93201FDF77FFD02460B461146F0
:102A60003B4BA3FB01235B09642202FB03F3CB1A5C
:102A7000DB0003F13202364BA3FB02235B095B0050
:102A800003F4F8731C44D7F8FC300022C7F8B830C0
:102A9000C7F8BC20D7E92E8942464B469118B96346
:102AA0005B41FB63D7E90E23414651183963494620
:102AB0004B417B634FF000024FF00003D7E90CABB2
:102AC0005946CB00514643EA51735146CA0010465D
:102AD0001946034642469B18C7F8B0304B460A4693
:102AE00042EB0303C7F8B430D7F8F4305B68002238
:102AF000C7F8A830C7F8AC20D7E92A120B46DB1874
:102B0000BB62134642EB0303FB62D7E90A23D7E912
:102B10002C01FDF721FD02460B460D4BA3FB0213D2
:102B20005B09642101FB03F3D31ADB003233084A4B
:102B3000A2FB03235B0903F00702D7F8F4301B68FC
:102B400022449A6006E100BF0010014000140140D9
:102B50001F85EB51D7F8FC300022C7F8A030C7F82A
:102B6000A420D7E9288942464B46911839625B4137
:102B70007B62D7E9082341465418494643EB0105D7
:102B80004FF000024FF00003EB0043EA5473E20001
:102B900014461D464346E318C7F898304B4645EBAC
:102BA0000303C7F89C30D7F8F4305B680022C7F8FD
:102BB0009030C7F894204FF000024FF00003D7E99F
:102BC000244529468B00214643EA917321468A0019
:102BD000D7E92601FDF7C0FC02460B46604BA3FB7C
:102BE00002235B091C01D7F8FC300022C7F88830AB
:102BF000C7F88C20D7E9228942464B469118B96123
:102C00005B41FB61D7E906234146511839614946CA
:102C10004B417B614FF000024FF00003D7E904AB5A
:102C20005946CB00514643EA51735146CA001046FB
:102C30001946034642469B18C7F880304B460A4661
:102C400042EB0303C7F88430D7F8F4305B68002206
:102C5000BB67FA674FF000024FF00003D7E91E8907
:102C600049468B00414643EA917341468A00D7E9C1
:102C70002001FDF771FC02460B461146384BA3FBC1
:102C800001235B09642202FB03F3CB1A1B013233DD
:102C9000334AA2FB03235B0903F0F0031C44D7F87B
:102CA000FC3000223B677A67D7E91C8942464B46D5
:102CB0009118B9605B41FB60D7E902234146511886
:102CC000396049464B417B604FF000024FF00003F2
:102CD000D7E900AB5946CB00514643EA5173514600
:102CE000CA0010461946034642469B18BB664B462F
:102CF0000A4642EB0303FB66D7F8F4305B68002218
:102D00003B667A664FF000024FF00003D7E918895E
:102D100049468B00414643EA917341468A00D7E910
:102D20001A01FDF719FC02460B460D4BA3FB0213DB
:102D30005B09642101FB03F3D31A1B013233084AF8
:102D4000A2FB03235B0903F00F02D7F8F4301B68E2
:102D500022449A6000BF07F58077BD46BDE8B08F7A
:102D60001F85EB5180B500AFFEF77EFF00F00AF83B
:102D700000F078F800F0C6F800F060FE00F068FEA1
:102D8000FCE7000080B594B000AF07F120033022CB
:102D90000021184604F0BFF907F10C0300221A6065
:102DA0005A609A60DA601A610023BB60284B1B6C82
:102DB000274A43F080531364254B1B6C03F0805368
:102DC000BB60BB6800237B60224B1B68214A43F435
:102DD000804313601F4B1B6803F480437B607B6858
:102DE00001233B624FF480337B620223BB634FF4C9
:102DF0008003FB6304233B64A8237B640223BB643E
:102E00000423FB6407F120031846FDF73FFF034648
:102E1000002B01D000F020F80F23FB6002233B6160
:102E200000237B614FF4A053BB614FF48053FB61DF
:102E300007F10C0305211846FEF7A0F90346002B05
:102E400001D000F009F800BF5037BD4680BD00BF7B
:102E5000003802400070004080B400AF72B600BF7E
:102E600000BFFDE780B588B000AF07F10C0300227A
:102E70001A605A609A60DA601A610023BB601F4BC7
:102E80001B6B1E4A43F0800313631C4B1B6B03F048
:102E90008003BB60BB6800237B60184B1B6B174A29
:102EA00043F001031363154B1B6B03F001037B60BD
:102EB0007B6800233B60114B1B6B104A43F00203FD
:102EC00013630E4B1B6B03F002033B603B68002255
:102ED00004210B48FEF70AFD0423FB6001233B613C
:102EE00000237B610023BB6107F10C0319460448F2
:102EF000FEF762FB00BF2037BD4680BD00380240B0
:102F00000004024080B500AF114B124A1A60104B0A
:102F10004FF4E1325A600E4B00229A600C4B0022B3
:102F2000DA600B4B00221A61094B0C225A61084BE4
:102F300000229A61064B0022DA610548FEF702FF83
:102F40000346002B01D0FFF787FF00BF80BD00BF05
:102F5000E0090020004C004080B58AB000AF7860E6
:102F600007F1140300221A605A609A60DA601A614D
:102F70007B681B681D4A934233D100233B611C4B85
:102F80001B6C1B4A43F400231364194B1B6C03F4A2
:102F900000233B613B690023FB60154B1B6B144A0C
:102FA00043F001031363124B1B6B03F00103FB603F
:102FB000FB6803237B610223BB610023FB610323C6
:102FC0003B6208237B6207F1140319460948FEF7A8
:102FD000F3FA002200213420FEF70FFE3420FEF722
:102FE00028FE00BF2837BD4680BD00BF004C004012
:102FF000003802400000024080B584B000AFF860A5
:10300000B9607A607B689AB24FF0FF33B9680448C0
:10301000FEF7E8FE7B6818461037BD4680BD00BF4E
:10302000E009002080B400AF00BFFDE780B400AF2E
:1030300000BFFDE780B400AF00BFFDE780B400AF84
:1030400000BFFDE780B400AF00BFFDE780B400AF74
:1030500000BFBD4680BC704780B400AF00BFBD4616
:1030600080BC704780B400AF00BFBD4680BC7047D5
:1030700080B500AFFEF74AFE00BF80BD80B500AF4F
:103080000248FEF73BFF00BF80BD00BFE009002003
:1030900080B483B000AF00237B600F4B5B6C0E4AA3
:1030A00043F4804353640C4B5B6C03F480437B60BC
:1030B0007B6800233B60084B1B6C074A43F080533E
:1030C0001364054B1B6C03F080533B603B6800BFEF
:1030D0000C37BD4680BC70470038024080B586B0D2
:1030E00000AF7860144A154BD31A7B617B693B6152
:1030F000134B1B68002B02D1114B124A1A60104B64
:103100001A687B6813443A699A4207D204F066F859
:1031100003460C221A604FF0FF3309E0084B1B688E
:10312000FB60074B1A687B681344054A1360FB6811
:1031300018461837BD4680BD00C0012000080000B9
:10314000280A0020083B002080B400AF0123184665
:10315000BD4680BC704780B582B000AF78603960F2
:1031600004F03CF8034616221A604FF0FF3318466D
:103170000837BD4680BD80B582B000AF78604FF0A3
:10318000FF317868FFF7E7FF00BFFDE780B586B045
:1031900000AFF860B9607A6000237B610AE0AFF3AA
:1031A00000800146BB685A1CBA60CAB21A707B69BB
:1031B00001337B617A697B689A42F0DB7B68184651
:1031C0001837BD4680BD80B483B000AF78604FF043
:1031D000FF3318460C37BD4680BC704780B483B0BF
:1031E00000AF786039603B684FF400525A600023AA
:1031F00018460C37BD4680BC704780B483B000AF22
:103200007860012318460C37BD4680BC704780B4F7
:1032100085B000AFF860B9607A60002318461437B3
:10322000BD4680BC7047000080B582B000AF7860BA
:1032300039603A680121354800F084FD0346002BCF
:1032400059D0324B1B6803F5B273314A93602F4B50
:103250001B6803F5B2732E4AD3602C4B1B682033D6
:103260002C4A9360294B1B6820332A4AD360274B92
:103270001B68294A9360254B1B68274AD360234B60
:103280001B682033254A9360204B1B682033234A58
:10329000D3601E4B1B6803F5D073214A93601B4B10
:1032A0001B6803F5D0731E4AD360184B1B681D4A78
:1032B0009360164B1B681B4AD360144B1B68E033AA
:1032C000194A9360114B1B68E033174AD3600F4BC8
:1032D0001B68164A93600D4B1B68144AD3600B4B56
:1032E0001B682033124A9360084B1B682033104A36
:1032F000D360012305E013223021786800F0A4FD9B
:10330000002318460837BD4680BD00BF2C0A0020A8
:103310000C000020DC0000201C000020EC0000203D
:103320002C000020FC0000203C0000200C010020AC
:103330004C00002080B582B000AF786039603A68F8
:1033400001214D4800F0ACFC0346002B00F08A80C0
:103350004A4B1B6843F08043484A1360464B1B6846
:10336000464A9360444B1B68444AD360444B1B68F5
:1033700043F08043424A13603F4B1B682033404A6E
:1033800093603D4B1B6820333D4AD3603D4B1B6827
:1033900043F080433B4A1360374B1B68A033394AE4
:1033A0009360354B1B68A033364AD360364B1B689D
:1033B00043F08043344A13602F4B1B6803F594633A
:1033C000314A93602C4B1B6803F594632E4AD360FB
:1033D0002E4B1B6843F080432C4A1360264B1B681E
:1033E00003F5A463294A9360234B1B6803F5A46388
:1033F000264AD360264B1B6843F08043244A13605F
:103400001D4B1B6803F5E463214A93601A4B1B684C
:1034100003F5E4631E4AD3601E4B1B6843F08043F0
:103420001C4A1360144B1B6803F5EC63194A936044
:10343000114B1B6803F5EC63164AD360164B1B68EF
:1034400043F08043144A13600B4B1B6803F5EE6393
:10345000114A9360084B1B6803F5EE630E4AD36074
:10346000012305E012223021786800F0EDFC0023F2
:1034700018460837BD4680BD300A00205C00002099
:103480006C0000207C0000208C0000209C000020AC
:10349000AC000020BC000020CC00002080B582B031
:1034A00000AF7860786800F0C3FC03461846083720
:1034B000BD4680BD80B584B002AF7860396000231E
:1034C0000193052300930123044A3968786800F0CA
:1034D000A9FD034618460837BD4680BD28070020D1
:1034E00080B594B000AFF860B9607A600021F868E8
:1034F000FFF7E0FF0346BB6497F84830002B01D08C
:10350000BB6C67E007F11003184600F0E7F80346CC
:1035100083F00103DBB2002B08D0FB681B68184660
:10352000FFF7BCFF0346BB64BB6C53E00023A7F866
:103530004E3012E0B7F84E10B7F84E309B00BA6824
:1035400013441A6807F110030C33184600F09AFB75
:10355000B7F84E300133A7F84E30BB68002B04D0CB
:10356000FB8BB7F84E209A42E4D30023A7F84C30E7
:1035700012E0B7F84C10B7F84C309B007A6813444F
:103580001A6807F110030433184600F07BFBB7F804
:103590004C300133A7F84C307B68002B04D0FB8AF9
:1035A000B7F84C209A42E4D3FB681B6807F110027D
:1035B0001146184600F046F8034683F00103DBB2DB
:1035C000002B06D0FB681B681846FFF767FF034611
:1035D000BB64BB6C18465037BD4680BD80B582B019
:1035E00000AF786039607B68002B04D1064B7B60AC
:1035F0007B68064A1A603968786800F02BFC03463D
:1036000018460837BD4680BD280700200001C0A12C
:1036100080B582B000AF786039607B68002B04D140
:10362000064B7B607B68064A1A603968786800F050
:1036300087FC034618460837BD4680BD2807002092
:103640000001C0A180B584B000AF786039603968EE
:10365000786800F029FDF8600123FB72FB68002BFD
:1036600001D1002326E03968F868FFF763FE0346BE
:103670001A46FB7A1340002B14BF01230023FB7270
:103680003968F868FFF7D0FD03461A46FB7A134005
:10369000002B14BF01230023FB72786800F09CFD0F
:1036A00003461A46FB7A1340002B14BF0123002364
:1036B000FB72FB7A18461037BD4680BD80B584B0DA
:1036C00000AFF860B9607A607A68B968F86800F0AD
:1036D000B1FD034618461037BD4680BD80B586B0A3
:1036E00000AF78607B68002B01D1002316E00D4A03
:1036F00007F1100392E8030083E803000A4A07F188
:10370000080392E8030083E8030007F1100207F1C1
:1037100008031946786800F069FB03461846183715
:10372000BD4680BD608E0008688E000880B500AF81
:103730004FF0FF33142203490348FEF753FB00BF49
:1037400080BD00BFCC070020E009002080B483B01A
:1037500000AF7860396000BFFDE7000080B586B03B
:1037600000AF7860002279682848FFF7B9FE034669
:10377000FB603B7B002B06D02549F868FFF7E6FF8E
:103780004FF0FF333EE0214B1B6800211846FFF746
:1037900025FF03461F4A13601C4B1B680021184677
:1037A000FFF736FF03461C4A136000237B610FE0DE
:1037B000184B19687A691346DB009B1A9B000B446F
:1037C0005A6816497B6941F823207B6901337B6184
:1037D0007B69002BECDD00233B610FE00E4B196889
:1037E0003A691346DB009B1A9B000B445A680C494C
:1037F0003B6941F823203B6901333B613B69002B66
:10380000ECDD002318461837BD4680BDA4390020E2
:10381000708E0008A8390020AC3900209C0A0020D6
:10382000A00A002080B582B000AF0F4B1B680F4A82
:1038300011680F4A12681846FFF740FF78607B68EE
:10384000012B0CD0084B1B681846FFF727FE0346D8
:1038500008491846FFF77AFF4FF0FF3300E00023D6
:1038600018460837BD4680BDA4390020A83900207D
:10387000AC390020908E000880B584B000AF87ED91
:10388000010AD7ED017A9FED147AC7EE876A16EE2A
:10389000900AFCF7E1FD02460B4643EC102B02F0C8
:1038A00009FC53EC102B10461946FCF72DFE03467D
:1038B000803BFB60FB687F2B01DD7F23FB60FB68A7
:1038C00013F1800F02DA6FF07F03FB60FB685BB2DD
:1038D00018461037BD4680BD24BAC93C80B483B0B9
:1038E00000AF0346FB7197F90730013307EE903ABA
:1038F000F8EEE77A9FED047A67EE877AB0EE670A12
:103900000C37BD4680BC7047EF5D013C80B584B08C
:1039100000AF7860124B1B68002B02D04FF0FF33D2
:103920001AE0104B1B6807EE903AF8EEE77A9FED2D
:103930000E7A27EE877ADFED0D6AC7EE267AC7ED9D
:10394000037A97ED030AFFF797FF0346FB727B6844
:103950001B68FA7A1A70002318461037BD4680BDDE
:10396000B8390020B0390020DB0FC94000803B454A
:1039700080B588B000AF78602A4B1B6807EE903A9C
:10398000F8EEE77A9FED287A27EE877ADFED276A4F
:10399000C7EE267AC7ED077A97ED070A00F0B0F870
:1039A00087ED060A7B681B681B78FB7597F9173053
:1039B0001846FFF793FF87ED040A97ED047AD7EDD9
:1039C000067A77EE677AC7ED037AD7ED037AB0EE21
:1039D000E77A174BD3ED007A77EE277A144BC3EDD5
:1039E000007A144AFB691360124A3B695360114A1A
:1039F000BB6993600F4AFB68D360FFF797FE094BE2
:103A00001B680133074A1360064B1B6840F6B73248
:103A1000934202DD084B01221A600023184620372A
:103A2000BD4680BDB0390020DB0FC94000803B455A
:103A3000B4390020CC070020B839002080B500AF91
:103A40000248FFF78BFE00BF80BD00BFE0070020EB
:103A500080B582B000AF4FF0FF337B600F4B1B6827
:103A6000002B16D00E4B1B68002B12D10D48FFF710
:103A70004DFF78607B68002B02D1FFF7D3FE7860A2
:103A80007B68002B03D10848FFF772FF78607B68E2
:103A9000002B00BF0837BD4680BD00BFA439002001
:103AA000B83900209C0A0020A00A0020DFF834D09A
:103AB000FDF7DCF80C480D490D4A002302E0D4580C
:103AC000C4500433C4188C42F9D30A4A0A4C002368
:103AD00001E013600432A242FBD303F085FBFFF741
:103AE00041F9704700C0012000000020AC0900200F
:103AF00064A40008AC090020083B0020FEE7000099
:103B000080B48BB000AF87ED010AD7ED017A9FED4D
:103B10003C7A67EE877AB5EE007A77EE877AC7ED62
:103B2000067AD7ED067AFDEEE77A17EE903A3B6219
:103B3000D7ED067AF5EEC07AF1EE10FA02D53B6ABF
:103B4000013B3B623B6A07EE903AF8EEE77A97ED6D
:103B5000067A77EE677AC7ED067AD7ED067A9FED9B
:103B6000297A67EE877AC7ED077AD7ED077AFCEEF8
:103B7000E77A17EE903AFB84FB8CB3F5007F09D30C
:103B80000023FB84D7ED077A9FED1E7A77EEC77A84
:103B9000C7ED077AFB8C07EE903AF8EE677A97ED5F
:103BA000077A77EE677AC7ED057AFB8C164A9B0099
:103BB00013441B683B61FB8C0133134A9B00134485
:103BC0001B68FB60B7EE007AD7ED057A37EE677AAF
:103BD000D7ED047A27EE277AD7ED056AD7ED037A79
:103BE00066EEA77A77EE277AC7ED027ABB6807EE12
:103BF000903AB0EE670A2C37BD4680BC704700BFD4
:103C000083F9223E00000044D898000860B330B425
:103C10000368164D846923F07E4323F40003AB420E
:103C200062681BD0037D4169A3F10103B3FA83F3FA
:103C30005B09B3EB112FC1F317200BDA012B02D173
:103C4000022807D0022354F823100133984201FBC5
:103C500002F2F3D122EAE27030BC70470029E1D0D1
:103C60001F3222F01F02DDE7704700BFC0000400D2
:103C700038B1436823B14088003818BF012070472D
:103C80001846704758B1436843B1408838B1C1EB1A
:103C9000C10103EB810301205A6070471846704749
:103CA000F2B1F8B50546C8B10C46B9B1244B11685C
:103CB000994216460BD0566886B137689F4211D09C
:103CC0000660A4F10100B0FA80F04009F8BD101DB3
:103CD000FFF7CEFF10B1F3889C421BD00020F8BD47
:103CE0000020704731460438002304E001339C4231
:103CF00040F8042F05D051F8042FBA42F6D19C4267
:103D0000ECD101340E4B56F82400C01AB0FA80F002
:103D10004009F8BD0021281F8C4605E00CF1010C7C
:103D2000644540F8043F05D0B3680B441C315B6820
:103D3000002BF3D1A4EB0C00B0FA80F04009F8BDE1
:103D4000DECAFAA1FAB1F8B50546D0B10C46C1B148
:103D5000254B1168994216460BD0166A8EB137680A
:103D60009F4212D00660A4F10100B0FA80F0400931
:103D7000F8BD02F10C00FFF77BFF10B1F3899C4204
:103D80001BD00020F8BD00207047314604380023C6
:103D900004E001339C4240F8042F05D051F8042F71
:103DA000BA42F6D19C42ECD101340F4B56F82400B4
:103DB000C01AB0FA80F04009F8BD0021281F8C46D7
:103DC00005E00CF1010C644540F8043F05D033696F
:103DD0000B441C315B68002BF3D1A4EB0C00B0FA50
:103DE00080F04009F8BD00BFDECAFAA1A0B1B1B1B0
:103DF000C2B110B403460D4C43F8044B00F10C0C57
:103E000003C983E8030092E803008CE80300012360
:103E100018465DF8044B70470346184670470B463A
:103E20001846704713461846704700BFDECAFAA10D
:103E3000044B0268934302D10C3000F019BC41F2EC
:103E4000100070470001C0A110B10C3000F016BC8A
:103E5000704700BF394B0268934363D12DE9F04F9F
:103E6000038E85B005460C46002B4ED0476B002FC5
:103E70004BD04FF0000BCDE902015E46BA4616E08A
:103E8000019901227A50A1694C6828604FF0010223
:103E90002A756869AB6068F31F200023C5E9033405
:103EA000C5E90509C5F804C001360BF11C0BBAF8C9
:103EB0000030F200B342019236D9DAF80430002B18
:103EC00032D053F826407CB3DAF80830A269D4F82F
:103ED0000C901068D3E90157A368C3F3172802F0C8
:103EE00049F8A16907EBC603D1F808C05D44002B6F
:103EF000CAD0002147F836102168596011B14988AD
:103F00000029BDD1A1690023BEE71822112105F1C6
:103F10000C00002600F0B2FB304604B1268005B04C
:103F2000BDE8F08F00207047B6B2DDE90254002EE4
:103F3000EBD0DAF808305868EFE700BF0001C0A105
:103F4000374B0268934369D12DE9F04F038E012B63
:103F500085B005460C464BD9476B4FF0000BCDE9B9
:103F600002015E46D846BA4616E0019901227A500F
:103F7000A9694D6820604FF0010222756069C4F89C
:103F800004C069F31F20C4E90450C4E90238009B4F
:103F9000A36101360BF11C0BBAF80C30F200B342EE
:103FA000019232D9DAF810307BB353F8265065B35A
:103FB000DAF81430AA69D3E90147AB681068C3F393
:103FC0001729EB68009301F0D5FFA96907EBC60339
:103FD000D1F808C05C44002BCBD047F83680296864
:103FE000596011B149880029BFD1A9690023C0E7F0
:103FF0001822112105F10C00002600F03FFB30468D
:1040000004B1268005B0BDE8F08FB6B2DDE90254F8
:10401000002EEDD0DAF814305868F1E70020704730
:104020000001C0A12DE9F04383B09DF828809DF8E0
:104030002C9020B3026016461F46044600F016FB83
:1040400070B930250023236010244A464146384683
:1040500002F012F8B06045EA042003B0BDE8F08336
:1040600000224146384602F007F8002205460521A5
:10407000012002F001F8854208D00125E2E7102571
:104080002C4645EA042003B0BDE8F083054B0193BC
:1040900001A800F0FFFA10B100242546D5E702255B
:1040A000D0E700BF038404842DE9F843484A04465E
:1040B00000680B4600EA020182433BD1002B78D016
:1040C000444A1D6895420AD18842D3E90325D3E9C1
:1040D00001633DD0032323612046BDE8F88301211D
:1040E00018461D46D3F80480FFF790FD05F11C0724
:1040F000064601213846D5F82090FFF787FD002EAF
:104100000ABF314601213546B0B1B9F1000F57D091
:104110004FF0010EB8F1000F11D02D4B22689A42DA
:10412000D8D1638C8B421BD21222162104F10C00D1
:1041300000F0A4FA0020D0E707468646EAE7002E02
:10414000EBD01222102104F10C0000F097FAF1E7F5
:10415000C4E90863E562A262204600F0C5FAB9E747
:10416000E1B1AC46BCE80F00656A0FC59CE80700EA
:1041700085E80700638D4FF480367345266211D3BE
:10418000BEF1000F07D03E460FCEE56A0FC596E898
:10419000070085E807004FEA0E42DCE7638D2162E5
:1041A0007345EDD21322162104F10C0000F066FADB
:1041B000C0E71122102104F10C0000F05FFAB9E70A
:1041C0001322102104F10C0000F058FAB2E700BFEE
:1041D0000001C0A1DECAFAA1154B026802EA030180
:1041E000934323D170B503699B07044603D58A42E4
:1041F00008D0012070BD102211210C3000F03EFAD1
:10420000002070BD00F080FA266C002EF1D0A56B66
:10421000002DEED0626C29460020B0472B69AB42DE
:10422000E7D0002BE5D0266C1D46F3E70020704751
:104230000001C0A12DE9F04FB74B0746006883434A
:1042400085B040F02D813B8E002B00F01D813B6935
:10425000D7F8349003F003030026032BBE6140F02F
:104260002981002900F01681B9F1000F00F01281B8
:10427000B9F80030002B00F00D818B69CDE9027296
:10428000D3F800B00C46D9F80430002B72D053F8A4
:104290002650002D6ED0D9F80830D3F800A0330195
:1042A0001AEB0618019300F0BA81AB690121204690
:1042B0005F68FFF7ABFC8742C0F00381E868A16943
:1042C000C268CB689A4240F0FC8082688B689A4250
:1042D00040F0F78042684B689A4240F0F280AB6948
:1042E000D3E9000101F0B6FE0190284601F0CAFEB4
:1042F000019B8342C0F0E580AB69186801F03AFE8B
:104300002368584030F07E4340F093816368002B6F
:1043100000F08581A3691B68002B00F082819B451A
:10432000284638BF9B4601F0ADFEC8F80800A369D7
:104330001B6800FB03F3C8F80C306168C8F8041070
:1043400032010B444AF80230A86903689A0006F16A
:10435000010604F11C0400F1A780D0E902329B1A87
:1043600019448160AB69D8F80420DA60B9F80030EC
:10437000B34288D8DDE902783B8EB8F1000F00F037
:10438000B580012B40F2A580D7F83490B9F80C30F5
:10439000002B00F09E8045460026D9F81030002BF7
:1043A00000F0A38053F82640002C00F09E80D9F83E
:1043B0001430D3F800A033011AEB0618019300F073
:1043C0004081A36901215B6801932846FFF71EFC29
:1043D000019B83427DD3E068A969C268CB689A4299
:1043E00077D182688B689A4273D142684B689A424F
:1043F0006FD1A369D3E9000101F02CFE01902046A2
:1044000001F040FE019B834263D3A369186801F069
:10441000B1FD2B68434033F07E4340F019816B6857
:10442000002B00F00E81AB691B68002B00F0178198
:104430009B45204638BF9B4601F024FEC8F8080083
:10444000AA691268034602FB03F3C8F80C306968D6
:10445000C8F8041032010B444AF80230A06903681E
:104460009B0006F1010605F11C0539D4D0E90232A2
:104470009B1A19448160A369D8F80420DA60B9F85E
:104480000C309E4289D330E03A69BB6102F00302EE
:10449000032A0FD11722122107F10C0000F0EEF8C9
:1044A000002005B0BDE8F08FB9F800309E42FFF45F
:1044B000EAAE5FE73022112107F10C0000F0DEF8D0
:1044C000EEE7029F1822122107F10C0000F0D6F847
:1044D000E6E71822132107F10C0000F0CFF8DFE720
:1044E000B9F80C309E42FFF458AF3B8E1FFA8BFB9D
:1044F000A7F818B0002B00F08C80012B7E6B00F029
:104500008B8006F10C08788B8345CAD94546BB469B
:104510004FF00008AEB92DE00001C0A1DF68C91B53
:104520000844986093696268DA60D4E9013159F807
:104530000A200B44934224BFE368D31A636008F156
:104540000108338843454FEA081A13D973688BB1C1
:1045500053F8282072B1B1689369D1F800901F68B0
:10456000996809EB0814BF006068D7D5A26801F00C
:1045700061F8DAE7584600F0E5F80024B5B93BE009
:1045800059F80A3001EB0C029A4224BFD8F80C20EB
:104590009A1AC8F804208169D1E90237DB1B1A4452
:1045A0008A608369D8F80420DA6001342B88A3423A
:1045B00022D96B6803B353F82400E8B1AB68826971
:1045C000D3F80090136809EB04189B00D8E9011C8C
:1045D0004FEA041AD4D59068624601F02BF8D8E966
:1045E000013159F80A200B44934224BFD8F80C300B
:1045F000D31AC8F80430D8E7BBF81A00BBF8183053
:10460000013080B28342ABF81A0081D805B0BDE812
:10461000F08F1E46984676E74FF0000873E7029F3A
:1046200038E7029F2122122107F10C0000F026F842
:1046300036E7029F1922122107F10C0000F01EF844
:104640002EE71722132107F10C0000F017F827E7D7
:104650001922132107F10C0000F010F820E72122A5
:10466000132107F10C0000F009F819E70120704749
:104670000346002200681A60704700BF03460078B6
:1046800008B1002070471970196862F31F210120DA
:104690001960704782B0134B019318B10378032B54
:1046A00002D0002002B070479DF80420934204D04D
:1046B000012080F0010002B0704742789DF805307B
:1046C0009A4200F10100F3D110F8012F9DF8063055
:1046D0009A42EDD142789DF807309A42E8D1002005
:1046E000E7E700BF03840484836B014653B10020D5
:1046F0001A46D9601B69934200F1010003D0002BD8
:10470000F6D170471846704738B5846BB4B163680A
:10471000DB074FF0000504D5236A20460BB198470C
:1047200001352369A34207D033B11C466368DB0718
:10473000F2D42369A342F7D1284638BD254628463E
:1047400038BD00BF2DE9F041D0F84080856BC563CE
:104750000446B8F1000F2AD02DB3426C294601203F
:10476000C047E66BFEB100273146626C0220C047AD
:10477000E56B28466B6998472E69626CE16BB54220
:104780004FF0030007D0C0470137E663002EEBD19E
:104790003846BDE8F0810320C04700230137E363BA
:1047A0003846BDE8F08100273846BDE8F081002D8D
:1047B000F9D047466B69284698472B462D699D429C
:1047C00004D0E5630137002DF4D1E1E70023E36372
:1047D0000137DDE783691A880AB95368FFDE586834
:1047E000416801B10968012A00F0D880036903B16A
:1047F0001B68022A00F0CF802DE9F04FC46989B010
:10480000002C00F09980058B2768012D40F2B780BD
:104810006468032A00F0C580A269DC689268079288
:10482000CA68856AB2F804A0B4F804B0D4E90202F8
:1048300000FB02F888699A691DB12D680DB1AC6959
:10484000A5681C680E689368BA690693D0F808C01A
:104850003B68D2F808E0002E43D07168002937D0B9
:104860007788002F53D1002C34D062689146002AFB
:1048700000F089806788B7EE000A002F52D1002926
:1048800000F086807788002F71D1F7EE000A0021B2
:10489000002C7BD09146002A73D06788002F31D13D
:1048A000002B00F081805B68002B7DD01B68069890
:1048B00093ED001A079BCDE90017CDE90485CDE9FA
:1048C00002AB7246614600F0B1F909B0BDE8F08F65
:1048D000002C33D1B7EE000A2146F0EE400A0F4615
:1048E000DEE7002CF6D0D4F80490B9F1000F37D0F1
:1048F0006188B7EE000A0029EFD0D9F80020D2ED88
:10490000000A3146D9F8042092F90070C8E70F6810
:1049100097ED000AECB162689146002AAFD0678833
:10492000002FACD01068D0ED000A0029B6D07688F0
:10493000FEB931469146AEE727466AE7626891467E
:10494000002A97D1B7EE000A1146F0EE400A17464A
:10495000A6E74A68F7EE000A92F9001027469FE79B
:10496000B7EE000A4946F0EE400A4F4698E7F7EEE8
:10497000000A496891F90010002C8BD106E0002450
:1049800047E717468CE7B7EE000A7EE7274687E73A
:10499000F7EE000A7FE700235B68FFDE00235B6819
:1049A000FFDE00235B68FFDE00231B68FFDE00BF25
:1049B000826913880BB95B68FFDE5068416801B1FA
:1049C0000968012B00F0F080026902B11268022B25
:1049D00000F0E7802DE9F04FC5698BB0002D00F0A5
:1049E000A780068B2C68012E40F2C8806D68032BCF
:1049F00000F0D480AB69D768856AC8689B68B0F856
:104A000004A0B7F804B0D1F818E00893D7E9026021
:104A100006FB00F0099090691DB12D680DB1AD69DC
:104A2000AD680F681668A269DEF80810806824680F
:104A30009268002F4BD0D7F804E0BEF1000F3ED0B3
:104A4000B7F80280B8F1000F51D1002E39D0D6F856
:104A50000490C846B9F1000F00F09780B6F802C084
:104A6000B7EE000ABCF1000F51D1BEF1000F00F00B
:104A70009180B7F80280B8F1000F40F08180F7EE26
:104A8000000A00274EB1C846B9F1000F7BD0B6F836
:104A900002C0BCF1000F6CD1664614B1646804B169
:104AA0002468089B0097CDE90545099CCDE9016A7A
:104AB000CDE903B400F07CF80BB0BDE8F08F002E18
:104AC00038D1B7EE000A3746F0EE400AE5E7002E8F
:104AD000F7D0D6F80480B8F1000F3FD07688B7EE53
:104AE000000A002E41D13746F0EE400AD5E7DEF845
:104AF000003093ED000A56B3D6F80490C846B9F1D9
:104B0000000FB2D0B6F802C0BCF1000FADD0D9F89A
:104B10000030D3ED000ABEF1000F39D07F88002F9E
:104B2000B1D0DEF8047097F90070002EABD1B4E775
:104B30002C465CE7D6F80490C846B9F1000F8DD139
:104B4000B7EE000A4F46F0EE400A4E46A5E7DEF803
:104B50000470F7EE000A97F900709EE7B7EE000ABE
:104B60004746F0EE400A464697E7D8F80060D6ED93
:104B7000000AD8F8046096F900608EE7002536E751
:104B8000F7EE000ACDE74E4687E7B7EE000A76E774
:104B900077467EE77746F7EE000A75E700235B6805
:104BA000FFDE00235B68FFDE00235B68FFDE00BFE3
:104BB0002DE9F04F8DB0CDE90823BDF86470DDF824
:104BC00070809DF95840DDF868B09DF95C600A94EA
:104BD00008EBC70A04460D461B98BDF860900B967B
:104BE00053464246394600F0B7F8BBF1000F1AD0E1
:104BF000CDF87080C846B9461C9F0026099B0493D7
:104C00000B9B03930A9B08990097CDE90547CDE9D3
:104C100001A328464B460136424600F0CDF8B34585
:104C20004C444544EAD10DB0BDE8F08F2DE9F04F7A
:104C30008FB021EE000A9DF960400A940DF132090F
:104C4000099300249DF96430DDF870A0BDF8687008
:104C5000BDF86C80ADF8324080EE200A054648462B
:104C60000E4693460D940B9300F022F80D90BAF186
:104C7000000F19D04346B8461F461D9B0693099B5B
:104C800004930B9B03930A9B0595CDE901930DAB10
:104C90000093304601343B464246594600F016FB2D
:104CA000A2453D444644E8D10FB0BDE8F08F00BFB7
:104CB000F7EE007AB4EEE70A08B5F1EE10FA4FF01D
:104CC0000003038025D44FF6FF73F7EE007AB6EEAB
:104CD000007A4FF6E07105E0038093B28B4220EE3C
:104CE000070A2DD0B4EEE70AF1EE10FA03F1FF3215
:104CF000F2DCDFED187A60EE277A17EE900A01F009
:104D000031FAB1EBE07F1CBF6FF0004080EAE17048
:104D100008BDB5EEC00AF1EE10FAD4DD0123F6EEBF
:104D2000007A05E0038093B2212B30EE000A0DD00B
:104D3000B4EEE70AF1EE10FA03F10102F2D4D8E77B
:104D40004FF6E27330EE000A0380D2E700230380BF
:104D5000184608BD0000004F61B380EE207A70B5A0
:104D600000EB81019D1E141F0026F0EC017A67EE16
:104D7000277A17EE90EACEF3C752CEF3160C0CF555
:104D8000000CBEF1000FC2F17E02B8BFCCF1000CE6
:104D90001F2A4FEACC1306DC814225F8022F44F883
:104DA000043FE2D170BD814225F8026F44F8046FE0
:104DB000DBD170BD704700BF2DE9F04F97B0994629
:104DC0009DF988E0269BDDF884B012920D4609EB30
:104DD000890103EB410103EB890A1FFA8EF343EAD1
:104DE0000E470D919DF98C30B9F1000F00F06182F2
:104DF0004FEA49010BEB0102844603925C46AAF19B
:104E000004064FF0010834F9022B511E89B208FA4A
:104E100002F0142903FA02F202EB500200F2E681DA
:104E200046F8042F039AA242EDD1129EDDF8348099
:104E3000CDF800E04FEA59043B4660463246414611
:104E400000F096FC002C00F084813046A6F110039F
:104E5000249E259FCDF850A0621E06F1100192B24B
:104E600001EBC2020E92024603381B090F900BF1B0
:104E70000400013304902098CDF884B04FEA031C5D
:104E800008EB431306F1080E08300AF10806023752
:104E90001093131FCDF818E0059711931394B246A1
:104EA000CDF81CC09646CDF854908346069A05EB83
:104EB0000E07BEF10F0F52E90231039740F3D48180
:104EC000079A0D98AE182A68D7F8009004684FEA40
:104ED00032284FEA392C2FFA82F22FFA88F82FFA6B
:104EE00089F92FFA8CFC24FB023224FB0914D0F838
:104EF000049029FB082229FB0C496B687C688168B7
:104F00004FEA33284FEA342C2FFA83F32FFA88F82C
:104F10002FFA84F42FFA8CFC21FB032321FB04924B
:104F2000D0F80C9029FB083329FB0C29AA68BC682F
:104F300001694FEA32284FEA342C2FFA82F22FFA15
:104F400088F82FFA84F42FFA8CFC21FB023221FB23
:104F50000493D0F8149029FB082229FB0C39EB6844
:104F6000FC6881694FEA33284FEA342C103510373A
:104F70002FFA83F32FFA88F82FFA84F42FFA8CFC97
:104F800021FB032321FB0492C169203021FB08335C
:104F900021FB0C21B54296D1039A079C109822441C
:104FA0000392A1460F9A914580F25C81119ADDF837
:104FB0000C800C90A2EB09024FEA920C0CF101025A
:104FC0009500CDE90852CDE90AC906EB82040746EF
:104FD00056F8045B58F8040B3A684FEA35294FEA53
:104FE000302C2FFA85F52FFA89F92FFA80F02FFA55
:104FF0008CFC22FB053322FB00127968083721FB69
:10500000093321FB0C21B442E2D1DDE90852DDE98C
:105010000AC9039E0C982E4409F10409039600EB7B
:10502000C20009EB8C09CE4537DDB0F9005094F988
:105030000060039A15FB063392F9006015FB061118
:1050400009F10105754525DAB0F9025094F90160BE
:1050500015FB063392F9016015FB061109F10205F3
:10506000754517DAB0F9045094F9026015FB063360
:1050700092F9026015FB061109F10305754509DA7D
:10508000B0F9060092F9035010FB051194F9035092
:1050900010FB0533AEEB09094C44049A5BF8087C1D
:1050A00032F9045C5AF8086C152D40F3B480A81E40
:1050B0000122013D02FA00F053FB07002841304471
:1050C00000F307035BB2059A02F8023C049B33F934
:1050D000025C152D40F391805AF8046CA81E012340
:1050E000013D03FA00F05BF8043C51FB030141FA77
:1050F00005F3334403F307035BB202F8013C069B5C
:105100000499023205920E9A083304319A420693AA
:1051100004EB0E0504910BF1080B0AF1080A7FF469
:10512000C5AEDDE9134ADDE9203B03EBC403209360
:10513000249BDDF8549003EBC4032493259B19F0C2
:10514000010F03EB44030BEB840B25930AEBC40A1A
:1051500048D0129A249B96081B6800F0B4800D98E2
:1051600005EB860755F8042BD0F800C044684FEAD9
:10517000322108302FFA82F22FFA81F12CFB023310
:1051800024FB0133BD42EDD10D9A02EBC6020D9214
:10519000129A12F0030213D00D9C97F90010208888
:1051A000012A10FB01330BD097F901106088022A05
:1051B00010FB013304D097F90220A18811FB0233C0
:1051C000BBF900202099DAF800000968152A60DC94
:1051D000002A4EDD5B0053FB0103134103F3070379
:1051E000259A1370002017B0BDE8F08F039A46F897
:1051F000043FA2427FF407AE17E6002D15DD5BF8F1
:10520000043C5AF8040C490051FB0301294101F305
:1052100007035BB271E7002D17DD5B0053FB0763EB
:105220002B4103F307035BB24DE7C5F10105A9402C
:1052300001F31F015BF8043C51FB13F15AF8043CE5
:105240000B4403F307035BB257E7C5F1010003FA10
:1052500000F000F31F0050FB17F0304400F3070389
:105260005BB230E73446DEE60D982E464FF000097B
:1052700098E6C2F10102934003F31F0353FB11F3BD
:10528000034403F30703259A0020137017B0BDE809
:10529000F08F951E0124013AAC4053FB01431341AA
:1052A000034403F30703259A0020137017B0BDE8E9
:1052B000F08F0D99CDF800E03B4600F059FA002040
:1052C00017B0BDE8F08F2F4662E700BF2DE9F04F21
:1052D00091B08A461B991A9CB1F9008024680A9201
:1052E00008F1FF329DF974109DF970600B92142A39
:1052F000CDE90804079107D801FA08F0012101FA65
:1053000008F100EB51020792C2490A9AA1FB03017E
:105310004FEA910B0BEB4B01A3EB41091F9B03EBF6
:1053200041051E9B0BFB02F403EBC107209B04EB22
:1053300044041FFA89F90AEB4404002B00F0A3800F
:1053400019460898C6EA06430096164600F010FA79
:105350001F9B0493099B0293079B019320981E9B1C
:10536000CDF800B0CDF80C805146324600F038FA46
:10537000B9F1000F63D006F00302511E01204FEA7D
:10538000960E8EB2A8F1020100FA01F10EF1FF3380
:105390009BB20D9120990A92013301EBC30A05EBF0
:1053A000090B4FEA830933180C93A0EB08030E9303
:1053B0004946324657F8043BBEF1000F60D0209EAC
:1053C000089504EB010954F8040B2FFA90FC35689A
:1053D0002FFA80F025FB00357368083623FB0C5349
:1053E000A145F0D1089D50460A9C002C39D099F96E
:1053F0000040068816FB043362B199F901404688E3
:1054000016FB04330A9C022C04D0848899F902000C
:1054100014FB00330C9809EB0004B8F1150F12DDF2
:1054200009980D9E53FB00630B98034107980344B2
:1054300003F307035BB205F8013B5D45BAD10020D9
:1054400011B0BDE8F08FB8F1000F0CDD0998079E90
:105450005B0053FB006343FA08F303F307035BB2FB
:10546000E9E74C46D9E70E98834003F31F030998F8
:1054700053FB10F30798034403F307035BB2DAE727
:105480002098A146B0E71F9B0593099BCDF800B07B
:105490005146DDF820A0CDF81080CDE90263079BCE
:1054A000019350461E9B00F073FBB9F1000FC6D06C
:1054B0000A98A0F1100323F00F0305EB090B01215B
:1054C00003F11009A8F1020301FA03F30AEB090240
:1054D00082460E93BAF10F0FA1EB08030F93C6F1AA
:1054E0000001DE4657F8043B0D92C346C1EA014174
:1054F00078DD0898CDF8289004EB09080C9522680F
:1055000005682FFA92F94FEA352C2FFA82F221FA28
:1055100085F521FA8CFC25FB02352CFB0955D4F8C6
:1055200004C043682FFA9CF94FEA33222FFA8CFC0F
:1055300021FA83F321FA82F223FB0C5322FB093276
:10554000D4F808C083682FFA9CF94FEA33252FFA64
:105550008CFC21FA83F321FA85F523FB0C2325FB30
:105560000935D4F80CC0C268103410302FFA9CF9F9
:105570004FEA32232FFA8CFC21FA82F221FA83F3CC
:1055800022FB0C5223FB0923A045B8D1DDF828905B
:105590004C46A245DDE90C5029DDAAEB0404444445
:1055A00018F901CB10F9012BA045A2EB060212FB62
:1055B0000C33F5D1BBF1150F1DDD099A0E9853FB85
:1055C00002030B9A1341079A134403F307035BB2D8
:1055D00005F8013B75453FF432AFBAF10F0F57F8AC
:1055E000043B86DCA0460024A2450898D5DCBBF12C
:1055F000150F4446E1DCBBF1000F0DDD099A079859
:105600005B0053FB020343FA0BF303F307035BB2A4
:10561000DEE700BFABAAAAAA0F9A934003F31F03C9
:10562000099A53FB12F3079A134403F307035BB27F
:10563000CEE700BF884221D002B3884213D3032AA9
:105640001DD8013A10F8013B01F8013BB2B110F846
:10565000013B01F8013B012A00F0888010F8013B72
:1056600001F8013B704783188B42E8D90A4413F9CB
:10567000011D02F8011D9842F9D1704770472DE9CC
:10568000F04301F0030ECEF10403A2EB030C00F093
:105690000308CEF1030210F8013B01F8013B82B18F
:1056A00010F8013B01F8013B012A0AD010F8013B38
:1056B00001F8013BBEF1010F03D010F8013B01F8E6
:1056C000013BC6452AD05FEA1C120AD050F8043BC1
:1056D00050F8044B50F8045B50F8046B78C1013A61
:1056E000F4D11CF0080F04D050F8043B50F8044BE0
:1056F00018C11CF0040F03D050F8043B41F8043BE0
:105700001CF0020F03D030F8023B21F8023B1CF0E2
:10571000010F01D003780B70BDE8F0835FEA9C199C
:105720000ED088468646BEE8FF00A8E8FF00BEE827
:10573000FF00A8E8FF00B9F1010941467046F0D129
:105740001CF0200F07D088468646BEE8FF00A8E878
:10575000FF00414670461CF0100F01D078C878C198
:105760001CF0080FC5D018C818C1C2E7704700BFA9
:10577000F0B59708BDF914602CD000EB87058E4674
:1057800050F804CB2FFA9CF4D4FA03F42FFA8CFCD3
:10579000DCFA03FC8542CEF800C0CEF804400EF1DE
:1057A000080EEDD101EBC70112F0030211D095F9FB
:1057B000000073B2C01A012A08800AD095F90100CE
:1057C000022AA0EB0300488003D095F90220D31AE7
:1057D0008B80F0BD0546E7E70000000000000000F8
:1057E0002DE9F04F86B000BF00BFDDF848B0BBF137
:1057F000000FCCBF4FF0000C4FF0FF3CBBF1150F7A
:10580000C8BF4FF0010CCDF800C0019092469946F8
:10581000CDF81490DDF84CB00F464FEAAA06039677
:105820000AF003060496BDF83C400BEB840202EB41
:1058300044020292002C00F03281039EDDF814E055
:10584000DDF80480BEE83F00CDF814E0013E7DDDC8
:1058500057F804EBB8E800062FFA9EFC2FFA8EFEEC
:105860002CFB0A002EFB090057F804EB2FFA9EFCD4
:105870002FFA8EFE2CFB0A112EFB091157F804EBB0
:105880002FFA9EFC2FFA8EFE2CFB0A222EFB0922F9
:1058900057F804EB2FFA9EFC2FFA8EFE2CFB0A33EE
:1058A0002EFB093357F804EB2FFA9EFC2FFA8EFEDD
:1058B0002CFB0A442EFB094457F804EB2FFA9EFCFC
:1058C0002FFA8EFE2CFB0A552EFB095557F804EBD8
:1058D000B8E800062FFA9EFC2FFA8EFE2CFB0A0079
:1058E0002EFB090057F804EB2FFA9EFC2FFA8EFED0
:1058F0002CFB0A112EFB091157F804EB2FFA9EFC22
:105900002FFA8EFE2CFB0A222EFB092257F804EBFD
:105910002FFA9EFC2FFA8EFE2CFB0A332EFB093346
:1059200057F804EB2FFA9EFC2FFA8EFE2CFB0A444C
:105930002EFB094457F804EB2FFA9EFC2FFA8EFE3B
:105940002CFB0A552EFB0955023E81DC002E3DDB67
:1059500057F804EBB8E800062FFA9EFC2FFA8EFEEB
:105960002CFB0A002EFB090057F804EB2FFA9EFCD3
:105970002FFA8EFE2CFB0A112EFB091157F804EBAF
:105980002FFA9EFC2FFA8EFE2CFB0A222EFB0922F8
:1059900057F804EB2FFA9EFC2FFA8EFE2CFB0A33ED
:1059A0002EFB093357F804EB2FFA9EFC2FFA8EFEDC
:1059B0002CFB0A442EFB094457F804EB2FFA9EFCFB
:1059C0002FFA8EFE2CFB0A552EFB0955049EEEB1D4
:1059D00038F9029B97F900E097F901C01EFB090016
:1059E0001CFB091197F902E097F903C01EFB09227D
:1059F0001CFB093397F904E097F905C01EFB094425
:105A00001CFB0955013E07F10607E1D1009EDDF8B8
:105A100044E0DDF848C0DDF840A0002E42D14FEA56
:105A200040004FEA410150FB0EA051FB0EA140FA8D
:105A30000CF041FA0CF14FEA42024FEA430352FBE9
:105A40000EA253FB0EA342FA0CF243FA0CF34FEAF8
:105A500044044FEA450554FB0EA455FB0EA544FA39
:105A60000CF445FA0CF500F3070001F3070102F30B
:105A7000070203F3070304F3070405F307050BF814
:105A8000010B0BF8011B0BF8012B0BF8013B0BF87A
:105A9000014B029B0BF8015B9B457FF4CEAE06B039
:105AA000BDE8F08F16F101083CD04FF0010808FA6C
:105AB0000CF84FEAA80850FB0E804FEA400040FA6D
:105AC0000CF0504451FB0E814FEA410141FA0CF1B8
:105AD00051444FF0010808FA0CF84FEAA80852FBAD
