:020000040800F2
:1000000000C00120D1650008296400082D640008A3
:1000100031640008356400083964000800000000FD
:100020000000000000000000000000003D64000827
:1000300041640008000000004564000849640008AD
:100040002166000821660008216600082166000874
:100050002166000821660008216600082166000864
:100060002166000821660008216600082166000854
:100070002166000821660008216600082166000844
:100080002166000821660008216600082166000834
:100090002166000821660008216600082166000824
:1000A0002166000821660008216600082166000814
:1000B0002166000821660008216600082166000804
:1000C00021660008216600082166000821660008F4
:1000D00021660008216600082166000821660008E4
:1000E00021660008216600082166000821660008D4
:1000F00021660008216600082166000821660008C4
:1001000021660008216600082166000821660008B3
:100110004D64000821660008216600082166000879
:100120002166000821660008216600082166000893
:100130002166000821660008216600082166000883
:100140002166000821660008216600082166000873
:100150002166000821660008216600082166000863
:100160002166000821660008216600082166000853
:1001700021660008216600082166000800000000D2
:08018000216600082166000859
:1001900081F0004102E000BF83F0004330B54FEA38
:1001A00041044FEA430594EA050F08BF90EA020FA5
:1001B0001FBF54EA000C55EA020C7FEA645C7FEA38
:1001C000655C00F0E2804FEA5454D4EB5555B8BF5B
:1001D0006D420CDD2C4480EA020281EA030382EACC
:1001E000000083EA010180EA020281EA0303362D5E
:1001F00088BF30BD11F0004F4FEA01314FF4801C31
:100200004CEA113102D0404261EB410113F0004F42
:100210004FEA03334CEA133302D0524263EB4303F9
:1002200094EA050F00F0A780A4F10104D5F1200E97
:100230000DDB02FA0EFC22FA05F2801841F10001F2
:1002400003FA0EF2801843FA05F359410EE0A5F1C6
:1002500020050EF1200E012A03FA0EFC28BF4CF0F7
:10026000020C43FA05F3C01851EBE37101F00045AD
:1002700007D54FF0000EDCF1000C7EEB00006EEBBA
:100280000101B1F5801F1BD3B1F5001F0CD3490844
:100290005FEA30004FEA3C0C04F101044FEA44529B
:1002A00012F5800F80F09A80BCF1004F08BF5FEA22
:1002B000500C50F1000041EB045141EA050130BD02
:1002C0005FEA4C0C404141EB0101013C28BFB1F514
:1002D000801FE9D291F0000F04BF01460020B1FA5F
:1002E00081F308BF2033A3F10B03B3F120020CDA32
:1002F0000C3208DD02F1140CC2F10C0201FA0CF010
:1003000021FA02F10CE002F11402D8BFC2F1200C74
:1003100001FA02F120FA0CFCDCBF41EA0C0190402A
:10032000E41AA2BF01EB0451294330BD6FEA040473
:100330001F3C1CDA0C340EDC04F11404C4F120025E
:1003400020FA04F001FA02F340EA030021FA04F370
:1003500045EA030130BDC4F10C04C4F1200220FAC7
:1003600002F001FA04F340EA0300294630BD21FA05
:1003700004F0294630BD94F0000F83F4801306BFCB
:1003800081F480110134013D4EE77FEA645C18BFBF
:100390007FEA655C29D094EA050F08BF90EA020F56
:1003A00005D054EA000C04BF1946104630BD91EA4E
:1003B000030F1EBF0021002030BD5FEA545C05D151
:1003C0004000494128BF41F0004130BD14F5800490
:1003D0003CBF01F5801130BD01F0004545F0FE4104
:1003E00041F470014FF0000030BD7FEA645C1ABF39
:1003F000194610467FEA655C1CBF0B46024650EA70
:10040000013406BF52EA033591EA030F41F400219B
:1004100030BD00BF90F0000F04BF0021704730B521
:100420004FF4806404F132044FF000054FF00001F6
:1004300050E700BF90F0000F04BF0021704730B5B7
:100440004FF4806404F1320410F0004548BF40428C
:100450004FF000013EE700BF42004FEAE2014FEAE1
:1004600031014FEA02701FBF12F07F4393F07F4FBC
:1004700081F06051704732F07F4208BF704793F0BF
:100480007F4F04BF41F40021704730B54FF46074D2
:1004900001F0004521F000411CE700BF50EA0102D5
:1004A00008BF704730B54FF000050AE050EA01027E
:1004B00008BF704730B511F0004502D5404261EBEE
:1004C00041014FF4806404F132045FEA915C3FF42F
:1004D000D8AE4FF003025FEADC0C18BF03325FEACC
:1004E000DC0C18BF033202EBDC02C2F1200300FA7D
:1004F00003FC20FA02F001FA03FE40EA0E0021FAA2
:1005000002F11444BDE600BF70B54FF0FF0C4CF48F
:10051000E06C1CEA11541DBF1CEA135594EA0C0F41
:1005200095EA0C0F00F0DEF82C4481EA030621EA7C
:100530004C5123EA4C5350EA013518BF52EA0335B7
:1005400041F4801143F4801338D0A0FB02CE4FF069
:100550000005E1FB02E506F00042E0FB03E54FF099
:100560000006E1FB03569CF0000F18BF4EF0010E91
:10057000A4F1FF04B6F5007F64F5407404D25FEA8D
:100580004E0E6D4146EB060642EAC62141EA555140
:100590004FEAC52040EA5E504FEACE2EB4F1FD0C82
:1005A00088BFBCF5E06F1ED8BEF1004F08BF5FEA00
:1005B000500E50F1000041EB045170BD06F00046B2
:1005C00046EA010140EA020081EA0301B4EB5C045F
:1005D000C2BFD4EB0C0541EA045170BD41F4801157
:1005E0004FF0000E013C00F3AB8014F1360FDEBF7C
:1005F000002001F0004170BDC4F10004203C35DA58
:100600000C341BDC04F11404C4F1200500FA05F3DA
:1006100020FA04F001FA05F240EA020001F000427B
:1006200021F0004110EBD37021FA04F642EB0601F1
:100630005EEA430E08BF20EAD37070BDC4F10C041B
:10064000C4F1200500FA04F320FA05F001FA04F2DF
:1006500040EA020001F0004110EBD37041F10001CB
:100660005EEA430E08BF20EAD37070BDC4F12005D6
:1006700000FA05F24EEA020E20FA04F301FA05F23E
:1006800043EA020321FA04F001F0004121FA04F2E6
:1006900020EA020000EBD3705EEA430E08BF20EAB6
:1006A000D37070BD94F0000F0FD101F000464000F0
:1006B00041EB010111F4801F08BF013CF7D041EA72
:1006C000060195F0000F18BF704703F00046520076
:1006D00043EB030313F4801F08BF013DF7D043EA47
:1006E0000603704794EA0C0F0CEA135518BF95EAFD
:1006F0000C0F0CD050EA410618BF52EA4306D1D184
:1007000081EA030101F000414FF0000070BD50EAA2
:10071000410606BF1046194652EA430619D094EA2C
:100720000C0F02D150EA013613D195EA0C0F05D116
:1007300052EA03361CBF104619460AD181EA03016A
:1007400001F0004141F0FE4141F470014FF0000022
:1007500070BD41F0FE4141F4780170BD70B54FF0BD
:10076000FF0C4CF4E06C1CEA11541DBF1CEA13553D
:1007700094EA0C0F95EA0C0F00F0A7F8A4EB05041F
:1007800081EA030E52EA03354FEA013100F0888016
:100790004FEA03334FF0805545EA131343EA1263DF
:1007A0004FEA022245EA111545EA10654FEA002694
:1007B0000EF000419D4208BF964244F1FD0404F54D
:1007C000407402D25B084FEA3202B61A65EB0305A9
:1007D0005B084FEA32024FF480104FF4002CB6EB66
:1007E000020E75EB030E22BFB61A754640EA0C00E6
:1007F0005B084FEA3202B6EB020E75EB030E22BF26
:10080000B61A754640EA5C005B084FEA3202B6EB66
:10081000020E75EB030E22BFB61A754640EA9C0025
:100820005B084FEA3202B6EB020E75EB030E22BFF5
:10083000B61A754640EADC0055EA060E18D04FEAB3
:10084000051545EA16754FEA06164FEAC30343EA53
:1008500052734FEAC2025FEA1C1CC0D111F4801F20
:100860000BD141EA00014FF000004FF0004CB6E719
:1008700011F4801F04BF01430020B4F1FD0C88BFB8
:10088000BCF5E06F3FF6AFAEB5EB030C04BFB6EBC3
:10089000020C5FEA500C50F1000041EB045170BDB6
:1008A0000EF0004E4EEA113114EB5C04C2BFD4EBE3
:1008B0000C0541EA045170BD41F480114FF0000E67
:1008C000013C90E645EA060E8DE60CEA135594EAE3
:1008D0000C0F08BF95EA0C0F3FF43BAF94EA0C0FE6
:1008E0000AD150EA01347FF434AF95EA0C0F7FF45B
:1008F00025AF104619462CE795EA0C0F06D152EAAF
:1009000003353FF4FDAE1046194622E750EA410692
:1009100018BF52EA43067FF4C5AE50EA41047FF4A3
:100920000DAF52EA43057FF4EBAE12E74FF0FF3C08
:1009300006E000BF4FF0010C02E000BF4FF0010CD9
:100940004DF804CD4FEA410C7FEA6C5C4FEA430C52
:1009500018BF7FEA6C5C1BD001B050EA410C0CBFA1
:1009600052EA430C91EA030F02BF90EA020F002003
:10097000704710F1000F91EA030F58BF994208BF6A
:1009800090422CBFD8176FEAE37040F00100704727
:100990004FEA410C7FEA6C5C02D150EA013C07D17E
:1009A0004FEA430C7FEA6C5CD6D152EA033CD3D0C9
:1009B0005DF8040B704700BF8446104662468C46C3
:1009C0001946634600E000BF01B5FFF7B7FF0028F6
:1009D00048BF10F1000F01BD4DF808EDFFF7F4FF1F
:1009E0000CBF012000205DF808FB00BF4DF808EDAA
:1009F000FFF7EAFF34BF012000205DF808FB00BFCD
:100A00004DF808EDFFF7E0FF94BF012000205DF8EE
:100A100008FB00BF4DF808EDFFF7CEFF94BF0120A3
:100A200000205DF808FB00BF4DF808EDFFF7C4FF9C
:100A300034BF012000205DF808FB00BF4FEA410CE5
:100A40007FEA6C5C02D150EA013C0AD14FEA430CC8
:100A50007FEA6C5C02D152EA033C02D14FF0000005
:100A600070474FF0010070474FEA410212F5001243
:100A700015D211D56FF47873B3EB625212D94FEAE5
:100A8000C12343F0004343EA505311F0004F23FACF
:100A900002F018BF404270474FF00000704750EA24
:100AA000013005D111F0004008BF6FF000407047E1
:100AB0004FF00000704700BF53B94AB9002908BF82
:100AC00000281CBF4FF0FF314FF0FF3000F00CB892
:100AD000ADF1080C6DE904CE0EF0ACF9DDF804E0E0
:100AE000DDE9022304B07047704700BF4A0011D20D
:100AF00012F5001211D20DD56FF47873B3EB625278
:100B00000ED44FEAC12343F0004343EA505323FA83
:100B100002F070474FF00000704750EA013002D1F8
:100B20004FF0FF3070474FF00000704700000000AA
:100B300001F0FF01102A2BDB10F0070F08D010F88E
:100B4000013B013A8B422DD010F0070F42B3F6D192
:100B5000F0B441EA012141EA014122F007047FF0AB
:100B600000070023F0E80256083C85EA010586EA02
:100B7000010685FA47F5A3FA87F586FA47F6A5FA3E
:100B800087F68EB9EED1F0BC01F0FF0102F007024A
:100B900032B110F8013B013A83EA010313B1F8D1F5
:100BA0000020704701387047002D06BF35460338D6
:100BB000073815F0010F07D1013015F4807F02BF0F
:100BC000013015F4C03F0130F0BC0138704700BF60
:100BD000034613F8012B002AFBD1181A013870477D
:100BE0000348044B834202D0034B03B118477047BC
:100BF0003C2500203C250020000000000548064B55
:100C00001B1AD90F01EBA301491002D0034B03B10A
:100C1000184770473C2500203C25002000000000BC
:100C200010B5064C237843B9FFF7DAFF044B13B134
:100C30000448AFF300800123237010BD3C25002041
:100C4000000000006C1B010808B5054B1BB10549ED
:100C50000548AFF30080BDE80840FFF7CFBF00BFF5
:100C600000000000402500206C1B010880B400AF8C
:100C7000054BD3F88830044A43F47003C2F8883037
:100C800000BFBD4680BC704700ED00E080B586B077
:100C900000AF78607B68002B01D1012367E27B689D
:100CA0001B6803F00103002B75D0884B9B6803F091
:100CB0000C03042B0CD0854B9B6803F00C03082B12
:100CC00012D1824B5B6803F48003B3F5800F0BD124
:100CD0007E4B1B6803F40033002B5BD07B685B68A2
:100CE000002B57D1012342E27B685B68B3F5803F5C
:100CF00006D1764B1B68754A43F4803313601DE0C0
:100D00007B685B68B3F5A02F0CD1704B1B686F4AF2
:100D100043F4802313606D4B1B686C4A43F48033AB
:100D200013600BE0694B1B68684A23F4803313603F
:100D3000664B1B68654A23F4802313607B685B68FD
:100D4000002B13D000F0F4FF386108E000F0F0FF52
:100D500002463B69D31A642B01D9032307E25B4B9C
:100D60001B6803F40033002BF0D014E000F0E0FF28
:100D7000386108E000F0DCFF02463B69D31A642BBF
:100D800001D90323F3E1514B1B6803F40033002B1B
:100D9000F0D100E000BF7B681B6803F00203002B6A
:100DA00063D04A4B9B6803F00C03002B0BD0474BDE
:100DB0009B6803F00C03082B1CD1444B5B6803F4C5
:100DC0008003002B16D1414B1B6803F00203002B5C
:100DD00005D07B68DB68012B01D00123C7E13B4BC9
:100DE0001B6823F0F8027B681B69DB00374913435B
:100DF0000B603AE07B68DB68002B20D0344B01228B
:100E00001A6000F095FF386108E000F091FF02469B
:100E10003B69D31A022B01D90323A8E12B4B1B6892
:100E200003F00203002BF0D0284B1B6823F0F802DC
:100E30007B681B69DB00254913430B6015E0244BDD
:100E400000221A6000F074FF386108E000F070FFC3
:100E500002463B69D31A022B01D9032387E11B4BBE
:100E60001B6803F00203002BF0D17B681B6803F0C2
:100E70000803002B36D07B685B69002B16D0154B1E
:100E800001221A6000F054FF386108E000F050FFC2
:100E900002463B69D31A022B01D9032367E10B4BAE
:100EA0005B6F03F00203002BF0D01BE0094B002224
:100EB0001A6000F03DFF38610EE000F039FF024695
:100EC0003B69D31A022B07D9032350E100380240B3
:100ED00000004742800E4742884B5B6F03F00203DD
:100EE000002BEAD17B681B6803F00403002B00F0A1
:100EF00097800023FB75814B1B6C03F08053002B04
:100F00000FD10023BB607D4B1B6C7C4A43F08053A8
:100F100013647A4B1B6C03F08053BB60BB680123E6
:100F2000FB75774B1B6803F48073002B18D1744B4F
:100F30001B68734A43F48073136000F0F9FE386154
:100F400008E000F0F5FE02463B69D31A022B01D9F6
:100F500003230CE16A4B1B6803F48073002BF0D071
:100F60007B689B68012B06D1644B1B6F634A43F07F
:100F7000010313671CE07B689B68052B0CD15F4B5A
:100F80001B6F5E4A43F0040313675C4B1B6F5B4AA5
:100F900043F0010313670BE0584B1B6F574A23F0D4
:100FA00001031367554B1B6F544A23F00403136767
:100FB0007B689B68002B15D000F0BAFE38610AE010
:100FC00000F0B6FE02463B69D31A41F288329342E2
:100FD00001D90323CBE0494B1B6F03F00203002B25
:100FE000EED014E000F0A4FE38610AE000F0A0FEAC
:100FF00002463B69D31A41F28832934201D9032356
:10100000B5E03E4B1B6F03F00203002BEED1FB7DDE
:10101000012B05D1394B1B6C384A23F080531364E4
:101020007B689B69002B00F0A180344B9B6803F028
:101030000C03082B5CD07B689B69022B41D1314BA0
:1010400000221A6000F074FE386108E000F070FEC3
:1010500002463B69D31A022B01D9032387E0274BB1
:101060001B6803F00073002BF0D17B68DA697B68A2
:101070001B6A1A437B685B6A9B011A437B689B6A05
:101080005B08013B1B041A437B68DB6A1B061B4998
:1010900013434B601B4B01221A6000F049FE38617C
:1010A00008E000F045FE02463B69D31A022B01D945
:1010B00003235CE0114B1B6803F00073002BF0D09E
:1010C00054E0104B00221A6000F032FE386108E054
:1010D00000F02EFE02463B69D31A022B01D90323EE
:1010E00045E0064B1B6803F00073002BF0D13DE098
:1010F0007B689B69012B07D1012338E0003802404F
:1011000000700040600047421B4B5B68FB607B68DF
:101110009B69012B28D0FB6803F480027B68DB69A4
:101120009A4221D1FB6803F03F027B681B6A9A4216
:101130001AD1FA6847F6C07313407A68526A92016E
:10114000934211D1FB6803F440327B689B6A5B08D1
:10115000013B1B049A4207D1FB6803F070627B6875
:10116000DB6A1B069A4201D0012300E000231846E7
:101170001837BD4680BD00BF0038024080B584B03E
:1011800000AF786039607B68002B01D10123CCE08F
:10119000684B1B6803F007033A689A420CD9654B09
:1011A0003A68D2B21A70634B1B6803F007033A68BF
:1011B0009A4201D00123B8E07B681B6803F0020368
:1011C000002B20D07B681B6803F00403002B05D0A4
:1011D000594B9B68584A43F4E05393607B681B6803
:1011E00003F00803002B05D0534B9B68524A43F48D
:1011F00060439360504B9B6823F0F0027B689B68D0
:101200004D4913438B607B681B6803F00103002B7F
:1012100044D07B685B68012B07D1474B1B6803F404
:101220000033002B19D101237FE07B685B68022B20
:1012300003D07B685B68032B07D13F4B1B6803F02F
:101240000073002B09D101236FE03B4B1B6803F0B7
:101250000203002B01D1012367E0374B9B6823F089
:1012600003027B685B68344913438B6000F060FDC8
:10127000F8600AE000F05CFD0246FB68D31A41F218
:101280008832934201D903234FE02B4B9B6803F034
:101290000C027B685B689B009A42EBD1254B1B6874
:1012A00003F007033A689A420CD2224B3A68D2B252
:1012B0001A70204B1B6803F007033A689A4201D06A
:1012C000012332E07B681B6803F00403002B08D085
:1012D000194B9B6823F4E0527B68DB681649134383
:1012E0008B607B681B6803F00803002B09D0124B4E
:1012F0009B6823F460427B681B69DB000E49134343
:101300008B6000F021F802460B4B9B681B0903F031
:101310000F030A49CB5C22FA03F3094A1360094B15
:101320001B68184600F0C2FC002318461037BD4663
:1013300080BD00BF003C024000380240A01B0108F5
:1013400000000020040000202DE9B04F94B000AF51
:1013500000237B640023FB6400233B640023BB6405
:10136000794B9B6803F00C03082B0DD0082B00F27F
:10137000E180002B02D0042B03D0DBE0734BBB6475
:10138000DBE0734BBB64D8E06F4B5B6803F03F035B
:101390007B646D4B5B6803F48003002B63D06A4B66
:1013A0005B689B090022BB63FA63BB6BC3F3080352
:1013B0003B6300237B63D7E90C4522462B464FF065
:1013C00000004FF00001590141EAD261500102468C
:1013D0000B462146511A3961294663EB01037B61B3
:1013E0004FF000024FF00003D7E904AB59468B01E0
:1013F000514643EA916351468A015146B2EB0108D6
:10140000594663EB01094FF000024FF000034FEA29
:10141000C90343EA58734FEAC802904699462346E7
:1014200018EB0303BB602B4649EB0303FB604FF053
:1014300000024FF00003D7E9024529464B0221463E
:1014400043EAD15321464A02104619467B6C0022DA
:10145000BB62FA62D7E90A23FFF72EFB02460B466E
:101460001346FB6458E0384B5B689B090022184622
:101470001146C0F308033B6200237B62D7E9088969
:1014800042464B464FF000004FF00001590141EA3F
:10149000D261500102460B464146B2EB010A494671
:1014A00063EB010B4FF000024FF000034FEA8B1388
:1014B00043EA9A634FEA8A12B2EB0A0463EB0B0524
:1014C0004FF000024FF00003EB0043EA5473E200D8
:1014D00014461D464346E3183B604B4645EB030369
:1014E0007B604FF000024FF00003D7E9004529462A
:1014F0008B02214643EA915321468A02104619463F
:101500007B6C0022BB61FA61D7E90623FFF7D4FAAE
:1015100002460B461346FB640B4B5B681B0C03F047
:10152000030301335B003B64FA6C3B6CB2FBF3F3E7
:10153000BB6402E0054BBB6400BFBB6C1846503770
:10154000BD46BDE8B08F00BF003802400024F40063
:1015500000127A0080B400AF024B1B681846BD46EB
:1015600080BC70470000002080B500AFFFF7F2FF9D
:101570000246054B9B689B0A03F007030349CB5CBB
:1015800022FA03F3184680BD00380240B01B010860
:1015900080B500AFFFF7DEFF0246054B9B685B0B93
:1015A00003F007030349CB5C22FA03F3184680BD1E
:1015B00000380240B01B010880B489B000AF7860E9
:1015C000396000237B6100233B610023BB61002362
:1015D000FB616BE10122FB6902FA03F37B613B686B
:1015E0001B687A6913403B613A697B699A4240F013
:1015F0005A813B685B6803F00303012B05D03B680D
:101600005B6803F00303022B30D17B689B68BB61EE
:10161000FB695B00032202FA03F3DB43BA69134060
:10162000BB613B68DA68FB695B0002FA03F3BA69E5
:101630001343BB617B68BA699A607B685B68BB6176
:101640000122FB6902FA03F3DB43BA691340BB6171
:101650003B685B681B0903F00102FB6902FA03F3B4
:10166000BA691343BB617B68BA695A603B685B68BF
:1016700003F00303032B17D07B68DB68BB61FB69B6
:101680005B00032202FA03F3DB43BA691340BB6138
:101690003B689A68FB695B0002FA03F3BA6913437B
:1016A000BB617B68BA69DA603B685B6803F003037F
:1016B000022B23D1FB69DA087B68083253F8223009
:1016C000BB61FB6903F007039B000F2202FA03F3DF
:1016D000DB43BA691340BB613B681A69FB6903F0DD
:1016E00007039B0002FA03F3BA691343BB61FB696A
:1016F000DA087B680832B96943F822107B681B68F6
:10170000BB61FB695B00032202FA03F3DB43BA69A6
:101710001340BB613B685B6803F00302FB695B003D
:1017200002FA03F3BA691343BB617B68BA691A60B2
:101730003B685B6803F44033002B00F0B480002367
:10174000FB605F4B5B6C5E4A43F4804353645C4BCD
:101750005B6C03F48043FB60FB685A4AFB699B089F
:10176000023352F82330BB61FB6903F003039B0093
:101770000F2202FA03F3DB43BA691340BB617B68B3
:10178000514A93422BD07B68504A934225D07B68C4
:101790004F4A93421FD07B684E4A934219D07B68D0
:1017A0004D4A934213D07B684C4A93420DD07B68DC
:1017B0004B4A934207D07B684A4A934201D10723A0
:1017C0000EE008230CE006230AE0052308E00423CA
:1017D00006E0032304E0022302E0012300E00023EB
:1017E000FA6902F0030292009340BA691343BB61A5
:1017F0003449FB699B080233BA6941F823203A4B0C
:101800009B68BB613B69DB43BA691340BB613B68C2
:101810005B6803F48013002B03D0BA693B69134360
:10182000BB61314ABB6993602F4BDB68BB613B698D
:10183000DB43BA691340BB613B685B6803F4001388
:10184000002B03D0BA693B691343BB61264ABB69CD
:10185000D360254B5B68BB613B69DB43BA691340CE
:10186000BB613B685B6803F40033002B03D0BA69AB
:101870003B691343BB611C4ABB6953601A4B1B682D
:10188000BB613B69DB43BA691340BB613B685B6882
:1018900003F48033002B03D0BA693B691343BB6167
:1018A000114ABB691360FB690133FB61FB690F2BB4
:1018B0007FF690AE00BF00BF2437BD4680BC7047A6
:1018C000003802400038014000000240000402409D
:1018D00000080240000C02400010024000140240C8
:1018E00000180240001C0240003C014080B483B05C
:1018F00000AF78600B467B8013467B707B78002BB3
:1019000003D07A887B689A6103E07B881A047B683D
:101910009A6100BF0C37BD4680BC704780B584B06B
:1019200000AF78607B689B6DFB6000F001FAB860E7
:101930007B6893F83530DBB2022B08D07B688022BD
:101940005A657B68002283F83420012352E07B68CB
:101950001B681A687B681B6822F016021A607B6895
:101960001B685A697B681B6822F080025A617B6899
:101970001B6C002B03D17B689B6C002B07D07B6812
:101980001B681A687B681B6822F008021A607B6873
:101990001B681A687B681B6822F001021A6013E05A
:1019A00000F0C6F90246BB68D31A052B0CD97B6838
:1019B00020225A657B68032283F835207B68002249
:1019C00083F83420032315E07B681B681B6803F051
:1019D0000103002BE4D17B68DB6D3F229A40FB685A
:1019E0009A607B68012283F835207B68002283F8A7
:1019F0003420002318461037BD4680BD80B483B024
:101A000000AF78607B6893F83530DBB2022B04D0EE
:101A10007B6880225A6501230CE07B68052283F8ED
:101A200035207B681B681A687B681B6822F00102FE
:101A30001A60002318460C37BD4680BC7047000072
:101A400080B485B000AF78607B6803F00703FB606B
:101A50000C4BDB68BB60BA684FF6FF031340BB60FA
:101A6000FB681A02BB68134343F0BF6343F40033BF
:101A7000BB60044ABB68D36000BF1437BD4680BC5E
:101A8000704700BF00ED00E080B400AF044BDB689E
:101A90001B0A03F007031846BD4680BC704700BF11
:101AA00000ED00E080B483B000AF0346FB7197F90E
:101AB0000730002B0BDBFB7903F01F02064997F977
:101AC00007305B09012000FA02F241F8232000BF31
:101AD0000C37BD4680BC704700E100E080B483B0A5
:101AE00000AF03463960FB7197F90730002B0ADB22
:101AF0003B68DAB20C4997F907301201D2B20B44B5
:101B000083F800230AE03B68DAB20849FB7903F066
:101B10000F03043B1201D2B20B441A7600BF0C37FC
:101B2000BD4680BC704700BF00E100E000ED00E072
:101B300080B489B000AFF860B9607A60FB6803F0E8
:101B400007037B617B69033B042B04D87B69C3F1EA
:101B50000703FB6101E00423FB617B690433062B6F
:101B600003D97B69033BBB6101E00023BB614FF0FC
:101B7000FF32FB6902FA03F3DA43BB681A40BB6920
:101B80009A404FF0FF31BB6901FA03F3D9437B68F8
:101B90000B40134318462437BD4680BC70470000F5
:101BA00080B582B000AF78607B68013BB3F1807F85
:101BB00001D301230FE00A4A7B68013B53600F21E8
:101BC0004FF0FF30FFF78AFF054B00229A60044B6D
:101BD00007221A60002318460837BD4680BD00BFA3
:101BE00010E000E080B582B000AF78607868FFF761
:101BF00027FF00BF0837BD4680BD80B586B000AF67
:101C00000346B9607A60FB7300237B61FFF73CFFFA
:101C100078617A68B9687869FFF78AFF024697F9B0
:101C20000F3011461846FFF759FF00BF1837BD4661
:101C300080BD80B582B000AF0346FB7197F90730D5
:101C40001846FFF72FFF00BF0837BD4680BD80B59F
:101C500082B000AF78607868FFF7A2FF03461846AD
:101C60000837BD4680BD000080B500AF0E4B1B6835
:101C70000D4A43F4007313600B4B1B680A4A43F48C
:101C800080631360084B1B68074A43F4807313603A
:101C90000320FFF7A7FF0F2000F008F804F0DCFB9B
:101CA0000023184680BD00BF003C024080B582B0D2
:101CB00000AF7860124B1A68124B1B7819464FF42C
:101CC0007A73B3FBF1F3B2FBF3F31846FFF7BFFFF0
:101CD0000346002B01D001230EE07B680F2B0AD8AE
:101CE000002279684FF0FF30FFF787FF064A7B68D4
:101CF0001360002300E0012318460837BD4680BD6D
:101D000000000020080000200400002080B400AF84
:101D1000054B1B781A46054B1B681344034A136096
:101D200000BFBD4680BC7047080000205825002039
:101D300080B400AF024B1B681846BD4680BC70479C
:101D40005825002080B582B000AF78607B68002BFA
:101D500001D1012342E07B6893F84130DBB2002BD4
:101D600006D17B68002283F84020786804F004FBE9
:101D70007B68242283F841207B681B68DA687B68D3
:101D80001B6822F40052DA60786800F077FD7B6807
:101D90001B681A697B681B6822F490421A617B6891
:101DA0001B685A697B681B6822F02A025A617B68AB
:101DB0001B68DA687B681B6842F40052DA607B6853
:101DC00000225A647B68202283F841207B6820220D
:101DD00083F842207B6800225A63002318460837A4
:101DE000BD4680BD80B58AB002AFF860B9603B6087
:101DF0001346FB8000237B61FB6893F84130DBB224
:101E0000202B75D1BB68002B02D0FB88002B01D1A1
:101E100001236EE0FB6800225A64FB68212283F8EC
:101E20004120FFF785FF7861FB68FA889A84FB6898
:101E3000FA88DA84FB689B68B3F5805F08D1FB6899
:101E40001B69002B04D10023FB61BB68BB6103E06D
:101E5000BB68FB610023BB612EE03B6800937B699C
:101E600000228021F86800F017FB0346002B05D004
:101E7000FB68202283F8412003233AE0FB69002B12
:101E80000BD1BB691B881A46FB681B68C2F30802AA
:101E90005A60BB690233BB6107E0FB691A78FB68D3
:101EA0001B685A60FB690133FB61FB68DB8C9BB2EA
:101EB000013B9AB2FB68DA84FB68DB8C9BB2002B97
:101EC000CBD13B6800937B6900224021F86800F089
:101ED000E3FA0346002B05D0FB68202283F841205B
:101EE000032306E0FB68202283F84120002300E062
:101EF000022318462037BD4680BD000080B5BAB029
:101F000000AF78607B681B681B68C7F8E4307B68AB
:101F10001B68DB68C7F8E0307B681B685B69C7F843
:101F2000DC300023C7F8D8300023C7F8D430D7F806
:101F3000E43003F00F03C7F8D830D7F8D830002BBF
:101F40000FD1D7F8E43003F02003002B09D0D7F8E5
:101F5000E03003F02003002B03D0786800F0CFFBC3
:101F600071E2D7F8D830002B00F0DC80D7F8DC30F5
:101F700003F00103002B06D1D7F8E03003F490738F
:101F8000002B00F0CF80D7F8E43003F00103002BE2
:101F90000BD0D7F8E03003F48073002B05D07B68BA
:101FA0005B6C43F001027B685A64D7F8E43003F0BD
:101FB0000403002B0BD0D7F8DC3003F00103002B17
:101FC00005D07B685B6C43F002027B685A64D7F8EB
:101FD000E43003F00203002B0BD0D7F8DC3003F021
:101FE0000103002B05D07B685B6C43F004027B6827
:101FF0005A64D7F8E43003F00803002B11D0D7F867
:10200000E03003F02003002B05D1D7F8DC3003F0DB
:102010000103002B05D07B685B6C43F008027B68F2
:102020005A647B685B6C002B00F00882D7F8E430C0
:1020300003F02003002B08D0D7F8E03003F0200392
:10204000002B02D0786800F05AFB7B681B685B6944
:1020500003F04003C3F38013DBB2C7F8D4307B68CE
:102060005B6C03F00803002B03D1D7F8D430002BAE
:102070004FD0786800F069FA7B681B685B6903F0F1
:102080004003402B41D17B681B681433C7F89C3058
:10209000D7F89C3053E8003FC7F89830D7F898300D
:1020A00023F04003C7F8D0307B681B681433D7F89F
:1020B000D020C7F8A820C7F8A430D7F8A410D7F8C4
:1020C000A82041E80023C7F8A030D7F8A030002BA3
:1020D000D9D17B68DB6B002B13D07B68DB6B8A4A22
:1020E0001A657B68DB6B1846FFF788FC0346002BFC
:1020F00016D07B68DB6B1B6D7A68D26B10469847F5
:102100000EE0786800F0B4F90AE0786800F0B0F901
:1021100006E0786800F0ACF97B6800225A648DE133
:1021200000BF8BE17B681B6B012B40F06781D7F808
:10213000E43003F01003002B00F06081D7F8E030AA
:1021400003F01003002B00F059810023BB607B6873
:102150001B681B68BB607B681B685B68BB60BB68F7
:102160007B681B685B6903F04003402B40F0CE8026
:102170007B68DB6B1B685B68A7F8BE30B7F8BE30C6
:10218000002B00F0A9807B689B8DB7F8BE209A4297
:1021900080F0A2807B68B7F8BE20DA857B68DB6BB5
:1021A000DB69B3F5807F00F088807B681B680C33A7
:1021B000C7F88830D7F8883053E8003FC7F8843034
:1021C000D7F8843023F48073C7F8B8307B681B6875
:1021D0000C33D7F8B820C7F89420C7F89030D7F858
:1021E0009010D7F8942041E80023C7F88C30D7F836
:1021F0008C30002BD9D17B681B6814337B677B6FD5
:1022000053E8003F3B673B6F23F00103C7F8B4304E
:102210007B681B681433D7F8B420C7F88020FB67AD
:10222000F96FD7F8802041E80023BB67BB6F002B14
:10223000E1D17B681B6814333B663B6E53E8003F7B
:10224000FB65FB6D23F04003C7F8B0307B681B686B
:102250001433D7F8B020FA66BB66B96EFA6E41E85F
:1022600000237B667B6E002BE3D17B68202283F802
:1022700042207B6800221A637B681B680C33FB6476
:10228000FB6C53E8003FBB64BB6C23F01003C7F842
:10229000AC307B681B680C33D7F8AC20BA657B6523
:1022A000796DBA6D41E800233B653B6D002BE3D1AE
:1022B0007B68DB6B1846FFF731FB7B6802225A63B1
:1022C0007B689A8D7B68DB8D9BB2D31A9BB21946D3
:1022D000786800F0D6F8B3E07B689B8DB7F8BE2035
:1022E0009A4240F0AD807B68DB6BDB69B3F5807FA1
:1022F00040F0A6807B6802225A637B689B8D19465A
:10230000786800F0BEF89BE00F2600087B689A8D85
:102310007B68DB8D9BB2D31AA7F8CE307B68DB8D50
:102320009BB2002B00F08E80B7F8CE30002B00F06F
:1023300089807B681B680C33BB63BB6B53E8003F31
:102340007B637B6B23F49073C7F8C8307B681B6892
:102350000C33D7F8C8207A643B64396C7A6C41E856
:102360000023FB63FB6B002BE3D17B681B681433FA
:102370007B627B6A53E8003F3B623B6A23F00103C8
:10238000C7F8C4307B681B681433D7F8C4203A639D
:10239000FB62F96A3A6B41E80023BB62BB6A002B1F
:1023A000E3D17B68202283F842207B6800221A63F5
:1023B0007B681B680C333B613B6953E8003FFB6063
:1023C000FB6823F01003C7F8C0307B681B680C3330
:1023D000D7F8C020FA61BB61B969FA6941E8002306
:1023E0007B617B69002BE3D17B6802225A63B7F8DB
:1023F000CE301946786800F044F823E0D7F8E4308E
:1024000003F08003002B09D0D7F8E03003F08003FD
:10241000002B03D0786800F00BF914E0D7F8E43013
:1024200003F04003002B0ED0D7F8E03003F0400358
:10243000002B08D0786800F04AF904E000BF02E001
:1024400000BF00E000BFE837BD4680BD80B483B068
:1024500000AF786000BF0C37BD4680BC704780B4C9
:1024600083B000AF786000BF0C37BD4680BC7047BA
:1024700080B483B000AF786000BF0C37BD4680BC2D
:10248000704780B483B000AF78600B467B8000BF9C
:102490000C37BD4680BC704780B586B000AFF86091
:1024A000B9603B601346FB713BE03B6AB3F1FF3F11
:1024B00037D0FFF73DFC02463B68D31A3A6A9A428E
:1024C00002D33B6A002B01D103233AE0FB681B686F
:1024D000DB6803F00403002B23D0BB68802B20D0E3
:1024E000BB68402B1DD0FB681B681B6803F008030A
:1024F000082B16D100237B61FB681B681B687B617E
:10250000FB681B685B687B617B69F86800F01DF8FD
:10251000FB6808225A64FB68002283F840200123EC
:102520000FE0FB681B681A68BB681340BA689A42E0
:102530000CBF01230023DBB21A46FB799A42B4D0C8
:10254000002318461837BD4680BD80B495B000AF53
:1025500078607B681B680C337B637B6B53E8003FC0
:102560003B633B6B23F49073FB647B681B680C3309
:10257000FA6C3A64FB63F96B3A6C41E80023BB6385
:10258000BB6B002BE5D17B681B6814333B623B6A55
:1025900053E8003FFB61FB6923F00103BB647B68E8
:1025A0001B681433BA6CFA62BB62B96AFA6A41E812
:1025B00000237B627B6A002BE5D17B681B6B012BC0
:1025C00019D17B681B680C33FB60FB6853E8003F44
:1025D000BB60BB6823F010037B647B681B680C3313
:1025E0007A6CBA617B617969BA6941E800233B6121
:1025F0003B69002BE5D17B68202283F842207B6871
:1026000000221A6300BF5437BD4680BC704780B5B6
:1026100084B000AF78607B689B6BFB60FB68002236
:10262000DA85F868FFF724FF00BF1037BD4680BD8C
:1026300080B485B000AF78607B6893F84130DBB23E
:10264000212B3ED17B689B68B3F5805F14D17B68FA
:102650001B69002B10D17B681B6AFB60FB681B8821
:102660001A467B681B68C2F308025A607B681B6AC3
:102670009A1C7B681A6208E07B681B6A591C7A689E
:1026800011621A787B681B685A607B68DB8C9BB28E
:10269000013B9BB27A681946D184002B0FD17B682D
:1026A0001B68DA687B681B6822F08002DA607B684E
:1026B0001B68DA687B681B6842F04002DA6000231E
:1026C00000E0022318461437BD4680BC704780B531
:1026D00082B000AF78607B681B68DA687B681B6833
:1026E00022F04002DA607B68202283F8412078687B
:1026F000FFF7ACFE002318460837BD4680BD80B505
:102700008CB000AF78600023FB620023BB627B6863
:1027100093F84230DBB2222B40F0AA807B689B68A2
:10272000B3F5805F15D17B681B69002B11D17B68E5
:102730009B6ABB627B681B685B689BB2C3F3080340
:102740009AB2BB6A1A807B689B6A9A1C7B689A6201
:1027500024E07B689B6AFB627B689B68B3F5805FC3
:1027600007D07B689B68002B0AD17B681B69002B14
:1027700006D17B681B685B68DAB2FB6A1A7008E0F6
:102780007B681B685B68DBB203F07F03DAB2FB6A2D
:102790001A707B689B6A5A1C7B689A627B68DB8D27
:1027A0009BB2013B9BB27A681946D185002B5DD163
:1027B0007B681B68DA687B681B6822F02002DA609D
:1027C0007B681B68DA687B681B6822F48072DA60B9
:1027D0007B681B685A697B681B6822F001025A619A
:1027E0007B68202283F842207B6800225A637B6842
:1027F0001B6B012B35D17B6800221A637B681B6839
:102800000C337B617B6953E8003F3B613B6923F0FC
:1028100010037B627B681B680C337A6A3A62FB6147
:10282000F9693A6A41E80023BB61BB69002BE5D135
:102830007B681B681B6803F01003102B0AD1002370
:10284000FB607B681B681B68FB607B681B685B68C0
:10285000FB60FB687B689B8D19467868FFF711FE6B
:1028600002E07868FFF7FBFD002302E0002300E0B0
:10287000022318463037BD4680BD00002DE9B04F19
:10288000C0B000AFC7F8F400D7F8F4301B681B697C
:1028900023F44050D7F8F430D968D7F8F4301A68E8
:1028A00040EA01031361D7F8F4309A68D7F8F4309E
:1028B0001B691A43D7F8F4305B691A43D7F8F43030
:1028C000DB691343C7F8F830D7F8F4301B68DB68CE
:1028D00023F4164121F00C01D7F8F4301A68D7F828
:1028E000F8300B43D360D7F8F4301B685B6923F4EE
:1028F0004070D7F8F4309969D7F8F4301A6840EA94
:1029000001035361D7F8F4301A688F4B9A4205D00F
:10291000D7F8F4301A688D4B9A4204D1FEF738FE8E
:10292000C7F8FC0003E0FEF71FFEC7F8FC00D7F86D
:10293000F430DB69B3F5004F40F00C81D7F8FC3080
:102940000022C7F8E830C7F8EC20D7E93A4522461C
:102950002B469118B9655B41FB65D7E916232146E3
:1029600012EB0108294643EB01094FF000024FF03A
:1029700000034FEAC90343EA58734FEAC80290467E
:102980009946234618EB0303C7F8E0302B4649EB82
:102990000303C7F8E430D7F8F4305B680022C7F8C7
:1029A000D830C7F8DC20D7E936120B46DB183B6578
:1029B000134642EB03037B65D7E91423D7E93801BB
:1029C000FEF77AF802460B46614BA3FB02235B0934
:1029D0001C01D7F8FC300022C7F8D030C7F8D4204B
:1029E000D7E9348942464B469118B9645B41FB6490
:1029F000D7E91223414612EB010A494643EB010B8A
:102A00004FF000024FF000034FEACB0343EA5A7342
:102A10004FEACA0292469B4643461AEB0303C7F8A5
:102A2000C8304B464BEB0303C7F8CC30D7F8F43033
:102A30005B680022C7F8C030C7F8C420D7E930125D
:102A40000B46DB183B64134642EB03037B64D7E978
:102A50001023D7E93201FEF72FF802460B46114644
:102A60003B4BA3FB01235B09642202FB03F3CB1A5C
:102A7000DB0003F13202364BA3FB02235B095B0050
:102A800003F4F8731C44D7F8FC300022C7F8B830C0
:102A9000C7F8BC20D7E92E8942464B469118B96346
:102AA0005B41FB63D7E90E23414651183963494620
:102AB0004B417B634FF000024FF00003D7E90CABB2
:102AC0005946CB00514643EA51735146CA0010465D
:102AD0001946034642469B18C7F8B0304B460A4693
:102AE00042EB0303C7F8B430D7F8F4305B68002238
:102AF000C7F8A830C7F8AC20D7E92A120B46DB1874
:102B0000BB62134642EB0303FB62D7E90A23D7E912
:102B10002C01FDF7D1FF02460B460D4BA3FB021320
:102B20005B09642101FB03F3D31ADB003233084A4B
:102B3000A2FB03235B0903F00702D7F8F4301B68FC
:102B400022449A6006E100BF0010014000140140D9
:102B50001F85EB51D7F8FC300022C7F8A030C7F82A
:102B6000A420D7E9288942464B46911839625B4137
:102B70007B62D7E9082341465418494643EB0105D7
:102B80004FF000024FF00003EB0043EA5473E20001
:102B900014461D464346E318C7F898304B4645EBAC
:102BA0000303C7F89C30D7F8F4305B680022C7F8FD
:102BB0009030C7F894204FF000024FF00003D7E99F
:102BC000244529468B00214643EA917321468A0019
:102BD000D7E92601FDF770FF02460B46604BA3FBC9
:102BE00002235B091C01D7F8FC300022C7F88830AB
:102BF000C7F88C20D7E9228942464B469118B96123
:102C00005B41FB61D7E906234146511839614946CA
:102C10004B417B614FF000024FF00003D7E904AB5A
:102C20005946CB00514643EA51735146CA001046FB
:102C30001946034642469B18C7F880304B460A4661
:102C400042EB0303C7F88430D7F8F4305B68002206
:102C5000BB67FA674FF000024FF00003D7E91E8907
:102C600049468B00414643EA917341468A00D7E9C1
:102C70002001FDF721FF02460B461146384BA3FB0E
:102C800001235B09642202FB03F3CB1A1B013233DD
:102C9000334AA2FB03235B0903F0F0031C44D7F87B
:102CA000FC3000223B677A67D7E91C8942464B46D5
:102CB0009118B9605B41FB60D7E902234146511886
:102CC000396049464B417B604FF000024FF00003F2
:102CD000D7E900AB5946CB00514643EA5173514600
:102CE000CA0010461946034642469B18BB664B462F
:102CF0000A4642EB0303FB66D7F8F4305B68002218
:102D00003B667A664FF000024FF00003D7E918895E
:102D100049468B00414643EA917341468A00D7E910
:102D20001A01FDF7C9FE02460B460D4BA3FB021329
:102D30005B09642101FB03F3D31A1B013233084AF8
:102D4000A2FB03235B0903F00F02D7F8F4301B68E2
:102D500022449A6000BF07F58077BD46BDE8B08F7A
:102D60001F85EB512DE9F04F8A4691B001464FEA9D
:102D70009A032AF00300CDE9013101EB000B01EBCE
:102D80004006174691469046964630445D460C46AE
:102D90000022CDF80CA0216891FA22F3316893FA51
:102DA00022FA91FA22F3296893FA22FC91FA22F38B
:102DB000016893FA22F391FA22F191FA22F193FA3F
:102DC00011F39AFA1CF1DAFA1CFA91FA23FC44F88E
:102DD00004CBD1FA13F15EF810CB2CFB01F34CFBC2
:102DE00011F11B0CC3EA010C296845F804CB91FAD8
:102DF00022F3016893FA22FC91FA22F393FA22F16A
:102E0000DCFA11F358F808CBAAFA13F1EAFA13F333
:102E10002CFB03FA4CFB13FC4FEA1A43C3EA0C03E6
:102E200046F8043B59F818AB2AFB01F34AFB11F1B1
:102E3000A3454FEA1343C3EA010140F8041BAAD19A
:102E4000DDE90141042CDDF80CA000F08F80CDE914
:102E50000E4BC7EBC77008260A90224606969008CC
:102E6000069B08938245CDE90B014FEA80054FEAA6
:102E700083061446524628BF0246079509920696D5
:102E80008B4601EBC00301973D4600220D970A993E
:102E90000198D5F80080D0F800E005EB4507CDE9B2
:102EA000022B57F811900799CDE9045301EB0B0061
:102EB0005F461E46194494463A68D6F800B00B683F
:102EC000056895FA13F592FA1BF3D2FA1BF293FAFE
:102ED00025FBD3FA25F300259BFA25F53D6007EB8A
:102EE00084072EFB03F54EFB13FB2B0C0568C3EA8E
:102EF0000B0303600B68D5FA13FB00EB8400A2FA06
:102F00002BF5E2FA2BF328FB03F248FB13FB130C1F
:102F1000C3EA0B02326006EB840629FB05F349FB8A
:102F200015F5A444E2454FEA1342C2EA05030B60DB
:102F300001EB8401C0D8DDE90453DDE90229069FD5
:102F4000019E08983D44099F013206EBC001BA4238
:102F5000019109F1040B03F1040398D3DDE90B217E
:102F6000042A0D9F3FF67BAFDDE90E4B04EB4405D1
:102F70000BEB85056B1AA3F110063009013010F038
:102F800003023CD0012A1BD0022A40F0A8800B6823
:102F90004F688A68CE6893FA12FCD3FA12F997FA4E
:102FA00016F0D7FA16F49CFA20F3DCFA20F70B603F
:102FB0004F60E9FA24F2A9FA24F68A60CE60103153
:102FC0000B684F688C68CA6893FA14FBD3FA14FA3A
:102FD00097FA12F0D7FA12F310319BFA20F6DBFAC7
:102FE00020F7EAFA23F4AAFA23F241F8106C41F828
:102FF0000C7C41F8084C41F8042CA9426CD00A68BA
:1030000048688C68CF68D1F810E0D1F81CC092FAFB
:1030100014F8D2FA14F690FA17F34C69D0FA17F2B2
:10302000D4FA1CFA8F6998FA23F09EFA17F9DEFA9F
:1030300017FB0860D1F820E0E6FA22F0EBFA2AF755
:1030400088608F61486AD8FA23F3A6FA22F6D1F88D
:103050002C8094FA1CF24B60D1F838C099FA22F413
:10306000D9FA22F3CE60ABFA2AF28E6A0C619EFA8C
:1030700016F990FA18F44B6199FA24F70B6BCA61B0
:103080000F62D9FA24F2CF6B4A62DEFA16FBD0FA4D
:1030900018F04E6BEBFA20F493FA1CFA8C6296FA55
:1030A00017F8D3FA1CF94031D6FA17F3ABFA20F02F
:1030B0009AFA28F6DAFA28F2E9FA23F7A9FA23F4B9
:1030C00041F8140C41F8106C41F80C2C41F8087CC4
:1030D00041F8044CA94292D111B0BDE8F08F0F68BD
:1030E0004A688C68CE6897FA14FAD7FA14F892FAFC
:1030F00016F3D2FA16F7DAFA23F09AFA23F24860B6
:103100000A60E8FA27F4A8FA27F68C60CE6010313E
:103110003DE700BF2DE9F04F8A4691B001464FEAE6
:103120009A032AF00300CDE9013101EB000B01EB1A
:103130004006174691469046964630445D460C46FA
:103140000022CDF80CA0216891FA22F3316893FA9D
:1031500022FA91FA22F3296893FA22FC91FA22F3D7
:10316000016893FA22F391FA22F191FA22F193FA8B
:1031700011F39AFA1CF1DAFA1CFA91FA23FC44F8DA
:1031800004CBD1FA13F15EF810CB4CFB01F32CFB0E
:1031900011F11B0CC3EA010C296845F804CB91FA24
:1031A00022F3016893FA22FC91FA22F393FA22F1B6
:1031B000DCFA11F358F808CBEAFA13F1AAFA13F380
:1031C0004CFB03FA2CFB13FC4FEA1A43C3EA0C0333
:1031D00046F8043B59F818AB4AFB01F32AFB11F1FE
:1031E000A3454FEA1343C3EA010140F8041BAAD1E7
:1031F000DDE90141042CDDF80CA000F08F80CDE961
:103200000E4BC7EBC77008260A9022460696900818
:10321000069B08938245CDE90B014FEA80054FEAF2
:1032200083061446524628BF024607950992069621
:103230008B4601EBC00301973D4600220D970A998A
:103240000198D5F80080D0F800E005EB4507CDE9FE
:10325000022B57F811900799CDE9045301EB0B00AD
:103260005F461E46194494463A68D6F800B00B688B
:10327000056895FA13F592FA1BF3D2FA1BF293FA4A
:1032800025FBD3FA25F300259BFA25F53D6007EBD6
:1032900084074EFB03F52EFB13FB2B0C0568C3EADA
:1032A0000B0303600B68D5FA13FB00EB8400E2FA12
:1032B0002BF5A2FA2BF348FB03F228FB13FB130CAC
:1032C000C3EA0B02326006EB840649FB05F329FBD7
:1032D00015F5A444E2454FEA1342C2EA05030B6028
:1032E00001EB8401C0D8DDE90453DDE90229069F22
:1032F000019E08983D44099F013206EBC001BA4285
:10330000019109F1040B03F1040398D3DDE90B21CA
:10331000042A0D9F3FF67BAFDDE90E4B04EB44051D
:103320000BEB85056B1AA3F110063009013010F084
:1033300003023CD0012A1BD0022A40F0A8800B686F
:103340004F688A68CE6893FA12FCD3FA12F997FA9A
:1033500016F0D7FA16F49CFA20F3DCFA20F70B608B
:103360004F60A9FA24F2E9FA24F68A60CE6010319F
:103370000B684F688C68CA6893FA14FBD3FA14FA86
:1033800097FA12F0D7FA12F310319BFA20F6DBFA13
:1033900020F7AAFA23F4EAFA23F241F8106C41F874
:1033A0000C7C41F8084C41F8042CA9426CD00A6806
:1033B00048688C68CF68D1F810E0D1F81CC092FA48
:1033C00014F8D2FA14F690FA17F34C69D0FA17F2FF
:1033D000D4FA1CFA8F6998FA23F09EFA17F9DEFAEC
:1033E00017FB0860D1F820E0A6FA22F0ABFA2AF722
:1033F00088608F61486AD8FA23F3E6FA22F6D1F89A
:103400002C8094FA1CF24B60D1F838C099FA22F45F
:10341000D9FA22F3CE60EBFA2AF28E6A0C619EFA98
:1034200016F990FA18F44B6199FA24F70B6BCA61FC
:103430000F62D9FA24F2CF6B4A62DEFA16FBD0FA99
:1034400018F04E6BABFA20F493FA1CFA8C6296FAE1
:1034500017F8D3FA1CF94031D6FA17F3EBFA20F03B
:103460009AFA28F6DAFA28F2A9FA23F7E9FA23F405
:1034700041F8140C41F8106C41F80C2C41F8087C10
:1034800041F8044CA94292D111B0BDE8F08F0F6809
:103490004A688C68CE6897FA14FAD7FA14F892FA48
:1034A00016F3D2FA16F7DAFA23F09AFA23F2486002
:1034B0000A60A8FA27F4E8FA27F68C60CE6010318B
:1034C0003DE700BF2DE9F04F93B08246012A008806
:1034D00001900D4600F06382B0F5807F00F03584E6
:1034E00011D9B0F5006F18D000F22B84B0F5007F31
:1034F00013D0B0F5806F00F02884002B40F0D1810C
:1035000013B0BDE8F08F402800F01F8400F28D87D3
:10351000102800F01A842028EFD1019ADAF80480EC
:103520005708BE00301F8108013108EB870405EB06
:10353000420911F0030601944A462846C4464FF05A
:1035400000044FD0012E31D0022E18D02A68D9F8AD
:10355000001092FA24FB5CF804EB91FA24F29BFA37
:1035600022F6DBFA12FB40F8046B2EFB0BF14EFB4C
:103570001BF20E0CC6EA020E4A4642F804EB016842
:10358000166891FA24F196FA24F65CF804EB91FAA5
:1035900026FBD1FA16F640F804BB2EFB06F14EFBD3
:1035A00016F6090CC1EA060642F8046B01681668B3
:1035B00091FA24F196FA24F65CF804EB91FA26FBD2
:1035C000D1FA16F640F804BB2EFB06F14EFB16F6B8
:1035D00008EB870EF4454FEA1141C1EA060642F8AE
:1035E000046B6BD0CDE90289E0460646D2F8009024
:1035F000016899FA24FE91FA24F158F8049B91FA93
:103600002EFBD1FA1EFE46F804BB29FB0EF149FB46
:103610001EF99646090CC1EA090B4EF804BB416835
:10362000D8F8009091FA24F8516891FA24F198FAA8
:1036300021FBD8FA11F1C0F804B029FB01F849FBCD
:1036400011F94FEA1841C1EA09015160DEF804B0EE
:1036500071689BFA24F891FA24F1DCF8089091FA49
:1036600028FBD1FA18F1C6F804B029FB01F649FB92
:1036700011F80CF1100C310CC1EA0806CEF8046008
:10368000C168D66891FA24F95CF804EC96FA24F142
:10369000103099FA21FBD9FA11F840F804BC2EFB3E
:1036A00008F64EFB18F9310CC1EA09060199D660FB
:1036B0008C4502F1100297D1DDE902893946424674
:1036C00028460193FFF74EFB424639464846FFF72E
:1036D00049FBFB00A3F10804E008013005EBC70734
:1036E00010F00302019B0997AC4658D0012A37D04D
:1036F000022A1AD0B5F90060B5F90410B5F90240F4
:10370000B5F906004FF0000CE64676004F00640065
:10371000400067F30F0E66F30F0C64F31F4C60F369
:103720001F4EC5E900CE05F1080CBCF90020BCF91C
:103730000410BCF90240BCF906004FF0000BD8465B
:1037400056004F006400400067F30F0866F30F0B4C
:1037500064F31F4B60F31F48CCE900B80CF1080C70
:10376000BCF90020BCF90410BCF90240BCF9060009
:103770004FF000095600CE464F006400400067F34A
:103780000F0E66F30F09099A64F31F4960F31F4E89
:10379000CCE9009E0CF1080C62453FF4AEAECDE9D9
:1037A0000AA50C93BCF90430BCF90050BCF91040D8
:1037B000BCF91420BCF90C10BCF908604FEA430BAB
:1037C000BCF918304FEA450A60005500BCF91C40AE
:1037D00003954F00BCF9065001905900BCF90A301E
:1037E000BCF9022005916000BCF90E1007904FEA69
:1037F0004508BCF912005D00BCF916304FEA4209D9
:103800004C0042005900BCF91A00BCF91E3002926B
:1038100004914200590000200891014603467600B9
:103820000692864602466AF30F008A4667F30F0A3D
:1038300066F30F01019F039E65F31F416BF30F0EAB
:10384000029D64F31F4A9346049C66F30F0B67F3D3
:103850000F0269F31F4065F31F4268F31F4E64F3C4
:103860001F4BCCE9000ECCE9021ACCE9042B0798D7
:103870000599069A089E994660F30F0961F30F03B4
:1038800062F31F4366F31F49CCE90639099B0CF12B
:10389000200C634586D10C9BDDE90AA5002B3FF483
:1038A0002FAEBAF80C0000283FF42AAEDAF8084030
:1038B00027886688431EBA08C3F34001B30835F869
:1038C00012A035F813C025F812C005EB430B25F8FC
:1038D00013A005EB42090223B9F80220BBF80280CD
:1038E000A9F802809842ABF802207FF609AED9B160
:1038F000A788E188BA088B0835F8126035F813C03C
:1039000025F812C005EB420A25F8136005EB4309C0
:103910000423BAF80270B9F80220AAF802209842EB
:10392000A9F802707FF6ECAD04EB430B34F813609A
:103930009F1CBBF80230B1089B0835F81180BAB261
:1039400035F8137025F811704E0025F813805B00D0
:103950000236023335F806A0E95AA95304EB420CAB
:1039600025F803A0971C34F81260BCF80220B108B7
:10397000920835F81190BBB235F8127025F8117025
:103980004E0025F8129052000236023235F806B089
:10399000A95AA953984225F802B0C5D8B0E5B0F5A8
:1039A000807F0FD040F2A683B0F5006F00F0AD83AA
:1039B00000F24585B0F5007F00F0A783B0F5806F79
:1039C0007FF49BAD019FDAF804104FEA970E01EBEC
:1039D0008E0205EBCE0C0292CDE903E10CEB8E0BCF
:1039E00005EB8E08CDE905A3029BA8F10404ACF118
:1039F0000406ABF10400A5F1040C88460F468B4683
:103A000000225CF8041F91FA22F191FA22FE56F886
:103A1000041F91FA22F191FA22FA54F8041F91FA44
:103A200022F999FA22F150F8049F99FA22F999FAA9
:103A300022F991FA19F19EFA1AF9DEFA1AFE99FAA8
:103A400021FACCF800A05BF808ABD9FA11F94AFBCF
:103A500009F12AFB19F9D4F800A0090CC1EA0901FF
:103A600021609AFA22F191FA22F9016891FA22FA78
:103A70009AFA22F157F804ABD9FA11F1EEFA11F9DA
:103A8000AEFA11F14AFB01FE2AFB11FA4FEA1E4180
:103A9000C1EA0A01316058F80CEB4EFB09F12EFB2C
:103AA00019FE9F424FEA1141C1EA0E010160A8D1FF
:103AB000DDE903010428DDE905A300F09180CDE9EB
:103AC0000F0AC1EBC1740B9406460424002711931E
:103AD000019B0291B20893423046CDE90C214FEA96
:103AE000820628BF13460896A600E4000A930796AC
:103AF0000994AB4605EBC2040B4600260E95029ACC
:103B00000B99D2F80080089AD3F8009003EB430594
:103B1000CDE90364CDE905B355F811A0DC4602EB0D
:103B20000B0125462244B646DCF80030D5F800B03B
:103B300016680C6894FA16F493FA1BF6D3FA1BF382
:103B400096FA24FBD6FA24F69BFA27F4CCF8004028
:103B50000CEB800C48FB06F428FB16FB260CC6EA8F
:103B60000B040E680C601468D6FA14FB01EB80019C
:103B7000E3FA2BF4A3FA2BF349FB03F629FB13FB1F
:103B8000330CC3EA0B062E6005EB80054AFB04F3F9
:103B90002AFB14F41E0CC6EA0403019C136086443D
:103BA000744502EB8002BFD8DDE905A3DDE90364BB
:103BB0000799029D099A0B440A99013615448E42D1
:103BC00002950AF1040B04F1040498D3DDE90C61B9
:103BD000042E0E9D079C3FF67BAFDDE90F0A119B7B
:103BE0000701A7F110063109013105F1100211F0AA
:103BF000030402EB001939D0012C1BD0022C40F039
:103C0000408452E9021452E904B090FA14F79BFA86
:103C100011F8D0FA14F0DBFA11FBD8FA27FC98FA65
:103C200027F1ABFA20F642E9041CEBFA20F442E952
:103C30000264103252E9040852E902B490FA1BF609
:103C4000D0FA1BF198FA14F7D8FA14F0D6FA27FC38
:103C500096FA27F4A1FA20F842E9044CE1FA20F69A
:103C600042E9028610324A453FF447AC52E904105B
:103C700052E9024791FA14FED0FA17FCD1FA14F176
:103C800090FA17F4A1FA2CF89EFA24F6DEFA24F042
:103C9000E1FA2CF742E9046042E902879346403298
:103CA0005BF8101B5BE9030691FA16FCD1FA16F1DA
:103CB0005BF8048CD0FA18FE90FA18F69CFA26F7F6
:103CC000DCFA26F04BE90470A1FA2EF7E1FA2EF1A6
:103CD0004BE902715C464A4554F8100B54E903B6AF
:103CE000D0FA16F190FA16FE54F8047C9BFA17F0FD
:103CF000DBFA17FC9EFA20F6A1FA2CFBE1FA2CF76E
:103D0000DEFA20F844E902B744E9046852E90814ED
:103D100052E9060C91FA10F6D1FA10F8D4FA1CF711
:103D200094FA1CFBA8FA27F096FA2BF1D6FA2BF49A
:103D3000E8FA27F642E9081442E9060696D1FFF7A9
:103D4000DCBBB0F5805F7FF4D8AB019906934FEAF6
:103D5000910EDAF8041005EBCE06CDE902E1CDE9CB
:103D600004A506EB8E0705EB8E04381F043C043EC9
:103D7000A5F1040C01EB8E0B89460F468846002204
:103D80005CF8045F56F8041F95FA22F393FA22F5C3
:103D900091FA22F354F8041F93FA22FA91FA22F3CB
:103DA00095FA1AFE93FA22F150F8043F93FA22F39F
:103DB00093FA22F391FA13F19EFA21F3CCF8003032
:103DC000D5FA1AF5DEFA11F358F808AB2AFB03F11D
:103DD0004AFB13F3090CC1EA03012368216093FA3B
:103DE00022F191FA22F3016891FA22FE9EFA22FA58
:103DF000D3FA1AF357F804ABA5FA13FEE5FA13F158
:103E00002AFB01F54AFB11F3290CC1EA03053560D1
:103E100059F80C3B23FB0EF143FB1EFABB454FEA5E
:103E20001145C5EA0A030360AAD1DDE902E1BEF14A
:103E3000040FDDE904A5069B00F09280CDE90FEAAE
:103E4000C1EBC1740B94774604244FF00008119322
:103E5000019A0291BE08B242CDE90C614FEA840397
:103E600038464FEAC4044FEA860728BF324608970F
:103E700007930A94099205EBC604AB460B4600274C
:103E80000E950B99029D089AD3F80090D5F800E0A2
:103E900003EB430CCDE90374CDE905B35CF811A045
:103EA0005E4602EB0B0125462244BC463368D5F83A
:103EB00000B017680C6894FA17F493FA1BF7D3FA5A
:103EC0001BF397FA24FBD7FA24F79BFA28F4346003
:103ED00006EB80062EFB07F44EFB17FB270CC7EA08
:103EE0000B040F680C601468D7FA14FB01EB800117
:103EF000A3FA2BF4E3FA2BF329FB03F749FB13FB9B
:103F00003B0CC3EA0B072F6005EB80052AFB04F38B
:103F10004AFB14F41F0CC7EA0403019C1360844499
:103F2000644502EB8002C1D8DDE90374DDE905A335
:103F3000029D0A99099A079E01370D44974233441E
:103F400002950AF1040B04F104049AD3DDE90C7123
:103F5000042F0E9D079C3FF67BAFDDE90FEA119B16
:103F60004FEA0E18A8F110000709013705F11002F9
:103F700017F0030602EB0E1951D0012E33D0022E9A
:103F800018D052E904B852E902109BFA11F4DBFA96
:103F900011F698FA10F7D8FA10F1D4FA27FC94FA2F
:103FA00027F0E6FA21FB42E9040CA6FA21F442E9E3
:103FB00002B4103252E9027052E90468D6FA17F1DD
:103FC00096FA17FB98FA10F4D8FA10F69BFA24F731
:103FD000DBFA24F0E1FA26FC42E90470A1FA26F8A3
:103FE00042E902C8103252E9021052E904B69BFAC3
:103FF00011F4DBFA11F896FA10F7D6FA10F694FAE3
:1040000027F1D4FA27F0E8FA26FC42E90410A8FACE
:1040100026F442E902C4103291453FF46EAA52E9F7
:10402000046152E9020896FA10F7D1FA18FED6FA9E
:1040300010F691FA18F0E6FA2EFC97FA20F4D7FA67
:1040400020F1A6FA2EF742E9044142E902C793465D
:1040500040325BF8106B5BE9031496FA14FCD6FA55
:1040600014F65BF8048CD1FA18FE91FA18F49CFA55
:1040700024F7DCFA24F14BE90471E6FA2EF7A6FAEC
:104080002EF64BE902765846914550F8101B50E940
:1040900003B4D1FA14F691FA14FE50F8047C9BFA9A
:1040A00017F1DBFA17FC9EFA21F4E6FA2CFBA6FACC
:1040B0002CF7DEFA21F840E902B740E9044852E95A
:1040C000086052E9061C96FA11F4D0FA1CF7D6FAE9
:1040D00011F690FA1CF8E6FA27FB94FA28F0D4FAC5
:1040E00028F1A6FA27F442E9080142E906B496D17C
:1040F000FFF703BA40283FF465AC00F29B8110281B
:104100003FF460AC20287FF4F8A9019ADAF8048023
:104110005708B9000C1FA608013608EB870005EB0D
:10412000420916F0030103904A46284644464FF0E0
:10413000000C37D0012919D0022940F0BD81016857
:10414000166891FA2CF196FA2CF654F804EB91FAD1
:1041500026FBD1FA16F640F804BB4EFB06F12EFB07
:1041600016F6090CC1EA060642F8046B01681668E7
:1041700091FA2CF196FA2CF654F804EB91FA26FBFE
:10418000D1FA16F640F804BB4EFB06F12EFB16F6EC
:1041900008EB870E74454FEA1141C1EA060642F862
:1041A000046B6AD0CDE90189A0460646016858F83B
:1041B000049B91FA2CFE116891FA2CF19EFA21FBD6
:1041C000DEFA11F146F804BB49FB01FE29FB11F9A7
:1041D0004FEA1E419646C1EA090B4EF804BB4168FE
:1041E000D8F8009091FA2CF8516891FA2CF198FACD
:1041F00021FBD8FA11F1C0F804B049FB01F829FB02
:1042000011F94FEA1841C1EA090151607168DEF8FD
:1042100004B091FA2CF19BFA2CF9D4F8088091FAA9
:1042200029FBC6F804B0D1FA19F648FB06F128FBC1
:1042300016F61034090CC1EA0606CEF80460C1680F
:10424000D66891FA2CF954F804EC96FA2CF1103057
:1042500099FA21F8D9FA11FB40F8048C4EFB0BF6C1
:104260002EFB1BF9310CC1EA09060399D6608C427A
:1042700002F1100298D1DDE901893946424628460B
:104280000293FEF747FF424639464846FEF742FF93
:10429000FB00A3F10804E008013005EBC70710F0AC
:1042A0000302029B0197AC463ED0012A1DD0022A90
:1042B00040F0CB80BCF90020BCF90410BCF90240EE
:1042C000BCF906004FF00008C34656004F006400DA
:1042D000400067F30F0B66F30F0864F31F4860F3A9
:1042E0001F4BCCE9008B0CF1080CBCF90020BCF989
:1042F0000410BCF90240BCF906004FF0000956005A
:10430000CE464F006400400067F30F0E66F30F09BE
:10431000019A64F31F4960F31F4ECCE9009E0CF133
:10432000080C62453FF4E9A8BCF90410BCF9102060
:10433000BCF90060BCF90870BCF90C004FEA410BF5
:1043400051004FEA46097C004600BCF91470BCF9E4
:1043500018000591BCF91C10029442007C00BCF9C5
:10436000060007944F00BCF9024009920B97BCF974
:104370000A20BCF90E704FEA400EBCF912004FEA59
:10438000440851007C0003910494BCF91610BCF958
:104390001A4042000692BCF91E204F006000002423
:1043A000510008970A902746204622460C916BF34D
:1043B0000F07214669F30F04814668F31F446EF32B
:1043C0001F4766F30F09029ECCE90047039C049F38
:1043D00066F30F0064F31F4067F31F49CCE902093D
:1043E0000798059E069C089F8B4660F30F0B66F3AB
:1043F0000F0164F31F4167F31F4BCCE9041B0998BD
:104400000B990A9E0C9C904661F30F0860F30F0213
:1044100066F31F4264F31F48CCE90628019A0CF1A9
:10442000200C624580D1FFF768B880283FF475A85A
:10443000FFF763B880283FF468AEFFF75EB8B0F5C9
:10444000805F7FF45AA8FFF7BDBAB5F90060B5F9EF
:104450000410B5F90240B5F906004FF0000CE6462D
:1044600076004F006400400067F30F0E66F30F0CF8
:1044700064F31F4C60F31F4EC5E900CE05F1080C34
:1044800018E752E9040852E902B490FA1BF6D0FA90
:104490001BF198FA14F7D8FA14F0D6FA27FC96FA1A
:1044A00027F4A1FA20F842E9044CE1FA20F642E9A7
:1044B00002861032FFF7A5BB2A68D9F8006092FA8D
:1044C0002CFB54F804EB96FA2CF29BFA22F1DBFA5F
:1044D00012F640F8041B4EFB06F22EFB16FB110CE5
:1044E0004A46C1EA0B0642F8046B28E62DE9F04F74
:1044F000C44BADF6CC2D821E05910DF20230C1A940
:1045000003F5707C1C46B3F9067034F902ABB2F8BF
:104510000280B4F902E01489B3F902909688D58834
:1045200018FB0AFB14FB07F4B3F90880B2F80AA0E1
:1045300016FB09F624134FEA2B391AFB08F7B2F8D9
:104540000CB0B3F90CA0B3F90E80A0F8029015FBE3
:104550000EF5B2F80E90B3F90AE0048132F8104F6C
:1045600036132D138680C5801BFB0EF619FB0AF54A
:1045700014FB08F410333F1336132D1324139C45FA
:1045800047818681C58120F8104FBBD1B1F9004029
:10459000002C03DC0023D3FA14F214B201F10A0256
:1045A00001F2C23C002632F9085C002D02DCD6FA8A
:1045B00015F005B232F9063C002B02DCD6FA13F7EF
:1045C0003BB232F9047C9D42B8BF1D46002F02DC8D
:1045D000D6FA17F007B232F9020CBD42B8BF3D4619
:1045E00000280FFA85FE40F3B3848645B8BF86469F
:1045F000744502F10802B8BF74469445D3D1B1F9AD
:10460000BA23002A04DC0026D6FA12FA0FFA8AF23C
:10461000B1F9BC33A242B8BF2246002B40F3118649
:10462000B1F9BE639A42B8BF1A46002E13B240F3E6
:10463000E584B342B8BF3346B3FA83F4112C40F09B
:10464000988400270DF2C46504970395DFF8BCA198
:104650000AF1B8094FF4707248460BF09EFC4022F4
:1046600000210AF58F600BF0C4FBDAF800109AF80D
:104670000420DAF814804C08012A4FEA840B00F079
:10468000FF859AF8053040464946FEF71BFF621E3B
:10469000029200F0CB87DAE9028EE700DAF8100028
:1046A000ABF10406A7F1040C0AF5976109EB0604C7
:1046B000B8F1010F0EEB880500EB88070194069115
:1046C0008C4440F0E9860299CA07ACF104030AF170
:1046D000BC0001F1FF341FD5026855F8048B42FB82
:1046E00008F6019957F804EB51F80409019120FBF1
:1046F0000E6640FB1EF10AF1C00022FB18121214D4
:10470000360C5142A0F8FC63A0F8FE23043B1E8146
:1047100059810294002C47D0CDF81CB00446AC4619
:1047200054F8042B5CF8049B42FB09F1DDF804808B
:10473000BE4658F804695EF804BB26FB0B1146FB25
:104740001BF622FB19621614090C7242A4F8FC1322
:10475000A4F8FE639980DA8042686D6842FB05F92F
:1047600001987E6850F8040C20FB0691A8F104071C
:10477000019740FB16F8201D22FB15840D0C221416
:104780000299A0F8FC53A0F8FE2323F804595642DE
:104790008C1EDE800EF104070CF10405A3F1040366
:1047A0000294BBD1DDF81CB0BAF9B830BAF9BA003E
:1047B000069A154E1F1A00217D1022F80B5026F87C
:1047C0000B10BAF9B840BAF9BAC0AAF8BA146444DE
:1047D0006310AAF8B83440F20442039800210BF0A9
:1047E00008FB0A4BB3F9CE24B3F9CC9402FB02F2D6
:1047F0000DF5DB6A09FB09200DF5286B0433CAF8B7
:10480000000005E0A06D0908BE330020042F002041
:10481000B3F9CE74B3F9CCC4B3F9D224B3F9D664E6
:10482000B3F9DA54B3F9DE44B3F9E204B3F9E614A8
:1048300007FB07F70CFB0C7EB3F9D074CAF804E051
:1048400002FB02F207FB0722B3F9D47406FB06F65B
:1048500007FB0767B3F9D86405FB05F506FB0658A7
:10486000B3F9DC54B3F9EA6404FB04F405FB05492D
:10487000B3F9E04400FB00F004FB040CB3F9E404DA
:10488000CAE9022701FB01F1B3F9EE24B3F9EC7494
:1048900000FB0015B3F9E81406FB06F602FB02F272
:1048A00001FB016407FB0720CAE90489CAE906C5C0
:1048B000CAF820404AF8240FD34503F12403A7D1B6
:1048C0000DF5D87A0022DFF804C3DFF804B3DFF86F
:1048D0000483CDF818A0D64614463CF9027F002F79
:1048E0001146204640F3C683BBF90030039EB8F959
:1048F0000050FC1806EB83090294B14EB14CED1A3E
:10490000002217F0070706EB450604EB45051446A1
:1049100000F08280012F6BD0022F59D0032F47D097
:10492000042F35D0052F23D0062F11D0B3F5807F6B
:104930000BDC039C36F8137054F823A0EAFB071035
:1049400035F813701446EAFB0724013309F1040912
:10495000B3F5807F09DCD9F800A036F81370EAFBC4
:10496000071035F81370EAFB0724013309F1040935
:10497000B3F5807F09DCD9F800A036F81370EAFBA4
:10498000071035F81370EAFB0724013309F1040915
:10499000B3F5807F09DCD9F800A036F81370EAFB84
:1049A000071035F81370EAFB0724013309F10409F5
:1049B000B3F5807F09DCD9F800A036F81370EAFB64
:1049C000071035F81370EAFB0724013309F10409D5
:1049D000B3F5807F09DCD9F8007036F813A0E7FB47
:1049E0000A1035F813A0E7FB0A24013309F1040982
:1049F000B3F5807F09DCD9F8007036F813A0E7FB27
:104A00000A1035F813A0E7FB0A24029F0133BB42CA
:104A100009F1040900F087800195B3F5807F0ADC75
:104A2000D9F8007036F81350E7FB0510019D35F8F2
:104A30001350E7FB05240133B3F5807F09F1040728
:104A40000ADCD9F8049036F81350E9FB0510019DF3
:104A500035F81350E9FB052403F10109B9F5807F0E
:104A60000ADC36F819A07D68E5FB0A10019D35F8CF
:104A700019907D68E5FB092403F10209B9F5807FEF
:104A80000ADC36F819A0BD68E5FB0A10019D35F86F
:104A90001990BD68E5FB092403F10309B9F5807F8E
:104AA0000ADC36F819A0FD68E5FB0A10019D35F80F
:104AB0001990FD68E5FB092403F10409B9F5807F2D
:104AC0000ADC36F819A03D69E5FB0A10019D35F8AE
:104AD00019903D69E5FB092403F10509B9F5807FCB
:104AE0000ADC36F819A07D69E5FB0A10019D35F84E
:104AF00019907D69E5FB092403F10609B9F5807F6A
:104B00000ADC36F819A0BD69E5FB0A10019D35F8ED
:104B10001990BD69E5FB092407F11C09029F0733C1
:104B2000BB427FF47AAF4EF8081F2749CEF8040045
:104B300061450BF1020B08F102087FF4CEAE43A8E9
:104B4000DDF818A0DDF8108001900DF53E7B4FF0E8
:104B5000004904905AF8086FDAF80400002800F0C1
:104B60006B82B0FA80F343F0010CCCF13F07CCF13B
:104B7000200EACF12004791009FA0EF229FA04F59E
:104B80000023CF0742EA050229FA0CFC01F1010ECD
:104B90001D4621D4111C4CF100048E4270EB040719
:104BA00004D3761A60EB040065469B189208BEF1A8
:104BB000010E42EA8C724FEA9C0C46D00CE000BF1A
:104BC000CC6A0908F4680908F46C0908A26C0908A1
:104BD0004C6D0908F86C0908CDE9028AD4184CEB31
:104BE0000508A6424FEA92074FEA530370EB080A02
:104BF00047EA8C7143EAC5734FEA9C074FEA5505B3
:104C00000EF1FF3E05D3361B60EB08009B184CEB02
:104C10000505CA1845EB9C0A5C08964244EAC57330
:104C200070EB0A044FEA550505D3B61A60EB0A008B
:104C30005B1845EB07058908BEF1010E41EA877252
:104C40004FEA970CCAD1DDE9028AB34275EB000046
:104C5000C0F0DE81C8F1200723FA08F205FA07F454
:104C6000A8F12000224325FA00F31A43019E46F8DA
:104C7000042FD34501967FF46DAF049FDD491BA837
:104C8000002540F2333C7A68EE074FEA82234E68F3
:104C900054BF40F2991840F2D73808FB03F854BFCC
:104CA00043F6676943F6294906FB09884FEA9836B7
:104CB0009E42A2FB0C2994BF9B1BDB1A920B9B0A02
:104CC00042EA894A534538BF53466A1CED074E6095
:104CD000436043F6294E40F2D73407F1040701F14F
:104CE000040100F1040003D543F6676E40F2991405
:104CF0007E684D68B30203FB04F405FB0E44A50B6C
:104D00009D42A6FB0C6B94BF5B1BDB1AB40B9B0A8A
:104D100044EA8B4A534538BF5346272A4D604360C7
:104D200007F1040701F1040100F1040002F101059B
:104D3000A9D11BAE43ACA31B0DF11E015B07AE480E
:104D40000F464FF001054BF2721251D556F8047F11
:104D5000002F40F39383B7FA87FCCCF11F0305FAC9
:104D600003F8BCF10F0FA7EB080940F39083ACF1F7
:104D70000F0709FA07FB4FEA6B2A0AF1010730F91E
:104D80001AC030F91770ABEB4A284FEAE37EA7EB65
:104D90000C07E3444FEA0E4908FB07F70BEB2747E4
:104DA00049EA134B1B04FB184BEBE77AA3FB028782
:104DB00018F5004302FB0A7747F100071B0C43EA92
:104DC00007434FEA274CDF184CEB0C0EFB184CEB5B
:104DD0000E07DB187F4113F5004347F100071B0C5A
:104DE00043EA07490F46A64227F8029F00F0648174
:104DF0008A46A4E0B1FA81FECEF11F08BEF10F0F82
:104E000005FA08F3A1EB030CCBBFAEF10F0ECEF108
:104E10000F0E0CFA0EFC4CFA0EFC4FEA6C2101F15D
:104E2000010B30F9119030F91B30ACEB4121A3EBB1
:104E3000090E01FB0EFB4FEAE873CC440CEB2B4C44
:104E40004FEA084919041CEB090B41EA184343EBEC
:104E5000EC71ABFB028E18F5004302FB01E141F15E
:104E600000011B0C43EA014919EB090C4FEA2141EF
:104E700041EB010B1CEB090341EB0B01DB18494132
:104E800013F5004341F100011B0C43EA014B71682B
:104E9000A7F802B0002907F1020706F1040640F363
:104EA0000381B1FA81F3C3F11F0805FA08FE0F2B45
:104EB000A1EB0E0140F3BB81A3F10F0C01FA0CFB37
:104EC0004FEA6B23591C30F913C030F91110ABEBCA
:104ED0004323A1EB0C0103FB01F3DC444FEAE8712F
:104EE0000CEB23494FEA084E090419EB0E0B41EA7B
:104EF000184343EBE971ABFB028C18F5004302FB4E
:104F000001C141F100011B0C43EA014919EB090EF3
:104F10004FEA214141EB010B1EEB090341EB0B0171
:104F2000DB18494113F5004341F100011B0C43EA32
:104F30000141A642798007F1020700F0BC80716848
:104F4000002906F104063FF755AF4FF0000B9EE72E
:104F5000D6FA10F50FFA85FBDE45B8BFDE4674457C
:104F600002F10802B8BF744662457FF41CABFFF73C
:104F700046BBA4F111020DF2C46704920B460397DD
:104F80009B463BF9020B904000F30F04DA462BF8E6
:104F9000024C3AF9026B964006F30F052AF8025CC0
:104FA000B3F90400904000F30F06B3F906409E8069
:104FB000944004F30F05B3F90800DD80904000F33E
:104FC0000F06B3F90A401E81944004F30F05B3F9AC
:104FD0000C005D81904000F30F06B3F90E409E81F6
:104FE0009440103304F30F05BB4223F8025CC7D191
:104FF000FFF72CBB182F0020F06709080024D4FA13
:1050000016F70FFA87F94B45B8BF4B46FFF714BBAD
:10501000754508BFB3F1FF3F2FD05E1C45F100017D
:10502000C8F1200701FA07F426FA08F2A8F12000D7
:105030002243C1400A4319E63246002E3FF416AE21
:10504000B6F1804F4FF0804305D29B089E42FCD3BF
:10505000002B00F0F18000215E1896424FEA5101CA
:105060009CBFC918921B9B08F6D191420AD321FA22
:1050700008F2FBE50022144655E54FF0FF3525FA0E
:1050800008F2F3E54FF6FF77B94200F0D7804D1CE8
:10509000C8F1200425FA08F203FA04F0A8F120056B
:1050A0000243EB401A43E1E50021A642798007F173
:1050B00002077FF444AF51460DF16E077C1AA51E1E
:1050C0006B080598854C013313F0030300F1FF32A0
:1050D0004FF0FF064FF011056FF07F0044D0012B19
:1050E0002BD0022B14D031F802AF059A1AFB0653CD
:1050F00084FB03E89844DB17C3EB68136FF4E37C8D
:1051000063447F2BA8BF7F238342B8BF034613703D
:1051100031F8029F19FB065384FB03EB9B44DB171A
:10512000C3EB6B136FF4E37E73447F2BA8BF7F2325
:105130008342B8BF034602F8013F31F802AF1AFBC1
:10514000065384FB03E89844DB17C3EB68136FF442
:10515000E37C63447F2BA8BF7F238342B8BF034611
:10516000B94202F8013F5ED0B1F80290B1F806A052
:10517000B1F804B031F8083F19FB06581AFB065C79
:1051800084FB08A91BFB065EC1444FEAE87BCBEB1E
:10519000691884FB0EA9F1444FEAEE7ACAEB691E46
:1051A00013FB065384FB0CABE34484FB03A94FEAD7
:1051B000EC7C6FF4E37AD0449944CCEB6B1CDB17A6
:1051C0006FF4E37BDE44B8F17F0FC3EB69136FF438
:1051D000E379CC44A8BF4FF07F086FF4E37ABEF1C7
:1051E0007F0F5344A8BF4FF07F0EBCF17F0FA8BFC5
:1051F0004FF07F0C7F2BA8BF7F238045B8BF804630
:105200008645B8BF86468445B8BF84468342B8BF4A
:105210000346B94282F8018082F802E082F803C0B6
:1052200002F8043FA0D10DF6CC2DBDE8F08FC3F1FC
:105230000F0941FA09FB43E6012529E727FA08F29D
:1052400014E50025B1F9BE63D5FA13F00FFA80F822
:105250009045B8BF9046AE420FFA88F33FF7E9A9F0
:10526000D5FA16FC0FFA8CFE7345B8BF7346002BB7
:105270003FF7E2A90DF2C46204950392FFF7E6B985
:10528000002C74D0DAE90220012ADAF8101009EBB8
:105290000B0E40F07F81E5074B4604F1FF371FD529
:1052A0005EF8045951F8049B45FB09F21E6850F85A
:1052B000044B26FB042225FB19F35D420AF1BC03D3
:1052C00044FB1656120C3414C2EA0445CAF8B8540A
:1052D000002F4AD0CDF81880BB4604E0EBA00EEAC0
:1052E000CDF81880A346F0460F4658F8045957F8F1
:1052F000049B45FB09F602469C4652F8044B019676
:1053000002925CF8046B019A26FB042225FB19F536
:105310006D4244FB16563414120CC2EA0445C3F81D
:1053200000545EF8046C4C6803F2044946FB04FE2A
:105330005968406821FB00E2A8F1040E26FB14F531
:105340000CF104036E4240FB1164100C2114C0EAFE
:1053500001420298C9F80020BBF1020B07F10401D9
:1053600000F10400BFD1DDF818809AF804209AF803
:105370000530C5494046FEF7A5F8DAF80020002AB6
:105380003FF429AA12F00707BF4B3ED0012F32D0BD
:10539000022F28D0032F1ED0042F14D0052F0AD09F
:1053A000062F40F0678133F9020B410001F30F072C
:1053B00023F8027C013A33F9025B6E0006F30F0416
:1053C00023F8024C013A33F9020B410001F30F07B5
:1053D00023F8027C013A33F9025B6E0006F30F04F6
:1053E00023F8024C013A33F9020B410001F30F0795
:1053F00023F8027C013A33F9025B6E0006F30F04D6
:10540000013A23F8024C3FF4E6A99A463AF9020B16
:10541000410001F30F072AF8027C3AF9025B6E00A3
:1054200006F30F042AF8024CB3F90400410001F31B
:105430000F07B3F906509F806E0006F30F04B3F90F
:105440000800DC80410001F30F07B3F90A501F8107
:105450006E0006F30F04B3F90C005C81410001F308
:105460000F079F81B3F90E5010336E0006F30F043F
:10547000083A23F8024CC8D1FFF7ADB90F464FF0F8
:105480000009A64227F8029F7FF4B2AC14E6CCF1E3
:105490000F0749FA07FB6EE4029AD107ACF1040E3C
:1054A0000AF1BC0902F1FF3626D5D9F80030286888
:1054B00043FB00F9019C54F8041901943C6821FB5A
:1054C000049241FB14FC0AF1C00923FB10C3181419
:1054D000110C4442A9F8FC13A9F8FE0307EB880756
:1054E000AEF80410AEF8064005EB8805AEF1040EE8
:1054F0000296002E3FF458A949462E6851F8043B05
:1055000043FB06F2019C07922246D7F800C052F8EE
:1055100004090192079A20FB0C2240FB1CFC23FB90
:1055200016C63314100C5A42A1F8FC03A1F8FE333E
:10553000AEF80400AEF80620D9F8043055F828007B
:1055400007EB880643FB00F954F804CC57F82870A1
:105550002CFB0792019C043C01944CFB17F701F1D2
:10556000040923FB1071100C0B1406EB8807029E34
:10557000A9F8FC03A9F8FE332EF804095A42B41E18
:10558000AEF8062005EBC805AEF1040E0294B3D1C7
:10559000FFF70AB9E60704F1FF3B4CD4CDF80480CD
:1055A000F446D1F800B05CF8046946FB0BF34F46B3
:1055B000056857F8048B28FB053326FB1BF676425B
:1055C00045FB18651B0C2E14C3EA0645C9F80054A8
:1055D00051F822605EF8045C01EB820B00EB820163
:1055E000029109F2044845FB06FED9F8041050F870
:1055F000220021FB00E3ACF1040E25FB16F507F1B8
:1056000004096F4240FB1176029D023C4FEA1340B1
:105610004FEA2641C0EA01430BEB8201C8F8003093
:1056200005EB8200BCD1DDF804809EE60AF59763A5
:105630000693FFF7B9B85EF804790D6847FB05FCDF
:10564000D9F80060046826FB04C327FB15F77D42E8
:105650000AF1BC0944FB165634141B0CC3EA044778
:105660005C46CAF8B87401EB820100EB8200002CA2
:1056700094D17AE633F9025B6E0006F30F0423F847
:10568000024C013A8FE600BFBC3300202DE9804870
:10569000B7B0FCF7E9FA0023CDE91433CDE91633AE
:1056A000CDE90D33CDE90F334E4D0A931193296C9B
:1056B0004D4A41F0805028642C6C04F080560A96C4
:1056C0000A990993176847F480431360116801F43D
:1056D00080424FF48000099202240427099B19900C
:1056E0004FF001084FF48036A82312A8CDF8488067
:1056F000139618941C941A971D971B93FBF7C6FAE0
:1057000008B172B6FEE70F21CDE90E400D914FF4BE
:10571000A0524FF4805405210DA8CDE91024FBF7C9
:105720002DFD044600285AD1CDE91200CDE9140020
:1057300008901690286B40F080032B63296B01F0D2
:1057400080020892089B0794286B40F001032B63AA
:10575000296B01F001020792079B0694286B40F029
:1057600002032B632D6B214805F0020122460691AE
:105770003946069BFCF7BAF81C4812A9CDE9127805
:10578000CDE91444FBF718FF19481A4F0461C0E92A
:105790000244C0E906440C224FF4E134C0E900742D
:1057A0004261FCF7CFFA0546002840F065841248B4
:1057B0000CF0D4F9052043460090104A104801959A
:1057C000294601F03BF910F0FF0980461ED0C0F3D6
:1057D00017230C490C484A460CF058F9FEE772B6FC
:1057E000FEE700BF003802400070004000040240A5
:1057F000F8260020004C0040B81B0108242300209C
:10580000C03B0020D81B0108F81B0108C64B0B96B3
:105810000D960DA9C54E0C960BAA12A80E9300F07A
:10582000F1FF002800F02A84BDF8561069B1C04F7E
:105830004C4657F8042B214615A800F02FFF0134E1
:10584000BDF856A0A2B29245F3D8BA4D12A9286865
:10585000039001F035F90490002800F05A81B64E0B
:1058600012AA0121304600F027FF0590002800F021
:105870002385DFF81CE33368DEF80040AF4EB04FFD
:10588000B048B149B14AB24DDFF808C3DFF808B3F8
:1058900044F08044CEF80040346844F080443460E2
:1058A0003C6844F080443C60046844F080440460F8
:1058B0000C6803F5E85A44F080440C600AF1100AC1
:1058C0001468C0E902AA03F5F25044F08044103095
:1058D000C1E90200146003F5A0412C68DFF8BCA206
:1058E0005031C2E9021144F0804403F5A5422C6016
:1058F0005032DCF80040CEE90233C5E90222DFF87D
:10590000A0E203F5C85003F5B245C6E90200103520
:1059100003F5D25644F08044C7E90266CCF8004053
:10592000CCF80850CCF80C50DEF80070894CDBF84D
:1059300000002268DFF86CC247F08041864FCEF845
:105940000010396842F0804541F080423A60834F50
:1059500025603968824D41F080423A60814F396854
:1059600041F0804203F5B2413831CEE9021103F52E
:10597000BE417831C4E9021103F5C34440F08046CA
:1059800078342868CBF80060CBE9024403F5CF41B6
:10599000714C3A6040F080461831C4E902112E6023
:1059A0006F4C714D714A286803F5D4411831C4E930
:1059B00002116A4C03F576411831C4E9021140F036
:1059C000804603F5823E6A48674C2E6003F57941B4
:1059D0003E460EF5EC7B9831C4E90211C6E902BBE4
:1059E00016680468634D644FDFF8BCB1DFF8BCE1B2
:1059F00046F0804144F080461160066029685F4EA1
:105A000041F0804431682C6041F0804434603E684D
:105A1000DCF8004046F0804144F080463960CCF824
:105A20000060DAF80010564E41F080443168CAF840
:105A3000004041F08044346003F583361036C2E9FB
:105A4000026603F589325032C0E9022203F58A303A
:105A500000F5E876C5E9026603F58E3503F5903664
:105A600005F5D8724548474C474906F59875C7E98A
:105A7000025503F50737C0E9022207F59872CCE911
:105A8000022203F5083C0CF5D870CAE902003C4D2F
:105A900003F50D3A0AF5F876C5E90266DBF8002051
:105AA000DEF8006042F080400AF50E7746F080454F
:105AB000CBE90277CBF800002768CEF8005003F559
:105AC000123B0BF51E7547F08042CEE9025503F5F7
:105AD000133E03F55033086822600EF53E7703F558
