:020000040800F2
:1000000000C00120C5500008114F0008154F00081E
:10001000194F00081D4F0008214F00080000000084
:10002000000000000000000000000000254F000854
:10003000294F0008000000002D4F0008314F000834
:1000400015510008155100081551000815510008F8
:1000500015510008155100081551000815510008E8
:1000600015510008155100081551000815510008D8
:100070001551000815510008354F000815510008AA
:1000800015510008155100081551000815510008B8
:1000900015510008155100081551000815510008A8
:1000A0001551000815510008155100081551000898
:1000B0001551000815510008155100081551000888
:1000C0001551000815510008155100081551000878
:1000D0001551000815510008155100081551000868
:1000E0001551000815510008155100081551000858
:1000F0001551000815510008155100081551000848
:100100001551000815510008155100081551000837
:10011000414F0008155100081551000815510008FD
:100120001551000815510008155100081551000817
:100130001551000815510008155100081551000807
:1001400015510008155100081551000815510008F7
:1001500015510008155100081551000815510008E7
:1001600015510008155100081551000815510008D7
:100170001551000815510008155100080000000035
:0801800015510008155100089B
:1001900081F0004102E000BF83F0004330B54FEA38
:1001A00041044FEA430594EA050F08BF90EA020FA5
:1001B0001FBF54EA000C55EA020C7FEA645C7FEA38
:1001C000655C00F0E2804FEA5454D4EB5555B8BF5B
:1001D0006D420CDD2C4480EA020281EA030382EACC
:1001E000000083EA010180EA020281EA0303362D5E
:1001F00088BF30BD11F0004F4FEA01314FF4801C31
:100200004CEA113102D0404261EB410113F0004F42
:100210004FEA03334CEA133302D0524263EB4303F9
:1002200094EA050F00F0A780A4F10104D5F1200E97
:100230000DDB02FA0EFC22FA05F2801841F10001F2
:1002400003FA0EF2801843FA05F359410EE0A5F1C6
:1002500020050EF1200E012A03FA0EFC28BF4CF0F7
:10026000020C43FA05F3C01851EBE37101F00045AD
:1002700007D54FF0000EDCF1000C7EEB00006EEBBA
:100280000101B1F5801F1BD3B1F5001F0CD3490844
:100290005FEA30004FEA3C0C04F101044FEA44529B
:1002A00012F5800F80F09A80BCF1004F08BF5FEA22
:1002B000500C50F1000041EB045141EA050130BD02
:1002C0005FEA4C0C404141EB0101013C28BFB1F514
:1002D000801FE9D291F0000F04BF01460020B1FA5F
:1002E00081F308BF2033A3F10B03B3F120020CDA32
:1002F0000C3208DD02F1140CC2F10C0201FA0CF010
:1003000021FA02F10CE002F11402D8BFC2F1200C74
:1003100001FA02F120FA0CFCDCBF41EA0C0190402A
:10032000E41AA2BF01EB0451294330BD6FEA040473
:100330001F3C1CDA0C340EDC04F11404C4F120025E
:1003400020FA04F001FA02F340EA030021FA04F370
:1003500045EA030130BDC4F10C04C4F1200220FAC7
:1003600002F001FA04F340EA0300294630BD21FA05
:1003700004F0294630BD94F0000F83F4801306BFCB
:1003800081F480110134013D4EE77FEA645C18BFBF
:100390007FEA655C29D094EA050F08BF90EA020F56
:1003A00005D054EA000C04BF1946104630BD91EA4E
:1003B000030F1EBF0021002030BD5FEA545C05D151
:1003C0004000494128BF41F0004130BD14F5800490
:1003D0003CBF01F5801130BD01F0004545F0FE4104
:1003E00041F470014FF0000030BD7FEA645C1ABF39
:1003F000194610467FEA655C1CBF0B46024650EA70
:10040000013406BF52EA033591EA030F41F400219B
:1004100030BD00BF90F0000F04BF0021704730B521
:100420004FF4806404F132044FF000054FF00001F6
:1004300050E700BF90F0000F04BF0021704730B5B7
:100440004FF4806404F1320410F0004548BF40428C
:100450004FF000013EE700BF42004FEAE2014FEAE1
:1004600031014FEA02701FBF12F07F4393F07F4FBC
:1004700081F06051704732F07F4208BF704793F0BF
:100480007F4F04BF41F40021704730B54FF46074D2
:1004900001F0004521F000411CE700BF50EA0102D5
:1004A00008BF704730B54FF000050AE050EA01027E
:1004B00008BF704730B511F0004502D5404261EBEE
:1004C00041014FF4806404F132045FEA915C3FF42F
:1004D000D8AE4FF003025FEADC0C18BF03325FEACC
:1004E000DC0C18BF033202EBDC02C2F1200300FA7D
:1004F00003FC20FA02F001FA03FE40EA0E0021FAA2
:1005000002F11444BDE600BF70B54FF0FF0C4CF48F
:10051000E06C1CEA11541DBF1CEA135594EA0C0F41
:1005200095EA0C0F00F0DEF82C4481EA030621EA7C
:100530004C5123EA4C5350EA013518BF52EA0335B7
:1005400041F4801143F4801338D0A0FB02CE4FF069
:100550000005E1FB02E506F00042E0FB03E54FF099
:100560000006E1FB03569CF0000F18BF4EF0010E91
:10057000A4F1FF04B6F5007F64F5407404D25FEA8D
:100580004E0E6D4146EB060642EAC62141EA555140
:100590004FEAC52040EA5E504FEACE2EB4F1FD0C82
:1005A00088BFBCF5E06F1ED8BEF1004F08BF5FEA00
:1005B000500E50F1000041EB045170BD06F00046B2
:1005C00046EA010140EA020081EA0301B4EB5C045F
:1005D000C2BFD4EB0C0541EA045170BD41F4801157
:1005E0004FF0000E013C00F3AB8014F1360FDEBF7C
:1005F000002001F0004170BDC4F10004203C35DA58
:100600000C341BDC04F11404C4F1200500FA05F3DA
:1006100020FA04F001FA05F240EA020001F000427B
:1006200021F0004110EBD37021FA04F642EB0601F1
:100630005EEA430E08BF20EAD37070BDC4F10C041B
:10064000C4F1200500FA04F320FA05F001FA04F2DF
:1006500040EA020001F0004110EBD37041F10001CB
:100660005EEA430E08BF20EAD37070BDC4F12005D6
:1006700000FA05F24EEA020E20FA04F301FA05F23E
:1006800043EA020321FA04F001F0004121FA04F2E6
:1006900020EA020000EBD3705EEA430E08BF20EAB6
:1006A000D37070BD94F0000F0FD101F000464000F0
:1006B00041EB010111F4801F08BF013CF7D041EA72
:1006C000060195F0000F18BF704703F00046520076
:1006D00043EB030313F4801F08BF013DF7D043EA47
:1006E0000603704794EA0C0F0CEA135518BF95EAFD
:1006F0000C0F0CD050EA410618BF52EA4306D1D184
:1007000081EA030101F000414FF0000070BD50EAA2
:10071000410606BF1046194652EA430619D094EA2C
:100720000C0F02D150EA013613D195EA0C0F05D116
:1007300052EA03361CBF104619460AD181EA03016A
:1007400001F0004141F0FE4141F470014FF0000022
:1007500070BD41F0FE4141F4780170BD70B54FF0BD
:10076000FF0C4CF4E06C1CEA11541DBF1CEA13553D
:1007700094EA0C0F95EA0C0F00F0A7F8A4EB05041F
:1007800081EA030E52EA03354FEA013100F0888016
:100790004FEA03334FF0805545EA131343EA1263DF
:1007A0004FEA022245EA111545EA10654FEA002694
:1007B0000EF000419D4208BF964244F1FD0404F54D
:1007C000407402D25B084FEA3202B61A65EB0305A9
:1007D0005B084FEA32024FF480104FF4002CB6EB66
:1007E000020E75EB030E22BFB61A754640EA0C00E6
:1007F0005B084FEA3202B6EB020E75EB030E22BF26
:10080000B61A754640EA5C005B084FEA3202B6EB66
:10081000020E75EB030E22BFB61A754640EA9C0025
:100820005B084FEA3202B6EB020E75EB030E22BFF5
:10083000B61A754640EADC0055EA060E18D04FEAB3
:10084000051545EA16754FEA06164FEAC30343EA53
:1008500052734FEAC2025FEA1C1CC0D111F4801F20
:100860000BD141EA00014FF000004FF0004CB6E719
:1008700011F4801F04BF01430020B4F1FD0C88BFB8
:10088000BCF5E06F3FF6AFAEB5EB030C04BFB6EBC3
:10089000020C5FEA500C50F1000041EB045170BDB6
:1008A0000EF0004E4EEA113114EB5C04C2BFD4EBE3
:1008B0000C0541EA045170BD41F480114FF0000E67
:1008C000013C90E645EA060E8DE60CEA135594EAE3
:1008D0000C0F08BF95EA0C0F3FF43BAF94EA0C0FE6
:1008E0000AD150EA01347FF434AF95EA0C0F7FF45B
:1008F00025AF104619462CE795EA0C0F06D152EAAF
:1009000003353FF4FDAE1046194622E750EA410692
:1009100018BF52EA43067FF4C5AE50EA41047FF4A3
:100920000DAF52EA43057FF4EBAE12E74FF0FF3C08
:1009300006E000BF4FF0010C02E000BF4FF0010CD9
:100940004DF804CD4FEA410C7FEA6C5C4FEA430C52
:1009500018BF7FEA6C5C1BD001B050EA410C0CBFA1
:1009600052EA430C91EA030F02BF90EA020F002003
:10097000704710F1000F91EA030F58BF994208BF6A
:1009800090422CBFD8176FEAE37040F00100704727
:100990004FEA410C7FEA6C5C02D150EA013C07D17E
:1009A0004FEA430C7FEA6C5CD6D152EA033CD3D0C9
:1009B0005DF8040B704700BF8446104662468C46C3
:1009C0001946634600E000BF01B5FFF7B7FF0028F6
:1009D00048BF10F1000F01BD4DF808EDFFF7F4FF1F
:1009E0000CBF012000205DF808FB00BF4DF808EDAA
:1009F000FFF7EAFF34BF012000205DF808FB00BFCD
:100A00004DF808EDFFF7E0FF94BF012000205DF8EE
:100A100008FB00BF4DF808EDFFF7CEFF94BF0120A3
:100A200000205DF808FB00BF4DF808EDFFF7C4FF9C
:100A300034BF012000205DF808FB00BF4FEA410CE5
:100A40007FEA6C5C02D150EA013C0AD14FEA430CC8
:100A50007FEA6C5C02D152EA033C02D14FF0000005
:100A600070474FF0010070474FEA410212F5001243
:100A700015D211D56FF47873B3EB625212D94FEAE5
:100A8000C12343F0004343EA505311F0004F23FACF
:100A900002F018BF404270474FF00000704750EA24
:100AA000013005D111F0004008BF6FF000407047E1
:100AB0004FF00000704700BF53B94AB9002908BF82
:100AC00000281CBF4FF0FF314FF0FF3000F00CB892
:100AD000ADF1080C6DE904CE0CF050FBDDF804E03C
:100AE000DDE9022304B07047704700BF4A0011D20D
:100AF00012F5001211D20DD56FF47873B3EB625278
:100B00000ED44FEAC12343F0004343EA505323FA83
:100B100002F070474FF00000704750EA013002D1F8
:100B20004FF0FF3070474FF00000704700000000AA
:100B300001F0FF01102A2BDB10F0070F08D010F88E
:100B4000013B013A8B422DD010F0070F42B3F6D192
:100B5000F0B441EA012141EA014122F007047FF0AB
:100B600000070023F0E80256083C85EA010586EA02
:100B7000010685FA47F5A3FA87F586FA47F6A5FA3E
:100B800087F68EB9EED1F0BC01F0FF0102F007024A
:100B900032B110F8013B013A83EA010313B1F8D1F5
:100BA0000020704701387047002D06BF35460338D6
:100BB000073815F0010F07D1013015F4807F02BF0F
:100BC000013015F4C03F0130F0BC0138704700BF60
:100BD000034613F8012B002AFBD1181A013870477D
:100BE0000348044B834202D0034B03B118477047BC
:100BF0003C2500203C250020000000000548064B55
:100C00001B1AD90F01EBA301491002D0034B03B10A
:100C1000184770473C2500203C25002000000000BC
:100C200010B5064C237843B9FFF7DAFF044B13B134
:100C30000448AFF300800123237010BD402500203D
:100C400000000000B4FE000808B5054B1BB10549C3
:100C50000548AFF30080BDE80840FFF7CFBF00BFF5
:100C60000000000044250020B4FE000880B400AF5E
:100C7000054BD3F88830044A43F47003C2F8883037
:100C800000BFBD4680BC704700ED00E080B588B075
:100C900000AF78607B68002B01D1012328E17B68DD
:100CA00093F84130DBB2002B09D17B68002283F836
:100CB00040207B68904A5A63786804F051F87B685A
:100CC000022283F841207B681B68DB697A6812681E
:100CD00023F47B6323F00F03D3617B681B6802223C
:100CE0001A627B685B69022B60D07B68DB68002B33
:100CF00002D110237B6101E020237B617B689B682C
:100D0000202B02D87B695B007B61012001F0DCFBBA
:100D1000F8607B681B69B3F5007F25D17B68DB68D1
:100D2000002B10D07B699B00FA68B2FBF3F21346EC
:100D30009B0013445B001A467B685B69B2FBF3F3CC
:100D400005333B611FE07B69DB00FA68B2FBF3F21D
:100D500013469B0013445B001A467B685B69B2FB39
:100D6000F3F305333B610EE0FA687B69B2FBF3F203
:100D700013469B0013445B001A467B685B69B2FB19
:100D8000F3F305333B613B695C4AA2FB0323DB08B9
:100D90003B613B6903F00103BB613A69BB69D31A4C
:100DA0005B08FB61BB691B02BB6103E00223FB61C3
:100DB0000023BB61FB69012B02D9FB69FF2B07D91B
:100DC0007B685B6C43F010027B685A6401238FE000
:100DD0007B681A69BB6942EA03017B681B68FA6990
:100DE0000A431A627B681B68DB6923F47B6323F088
:100DF0000F037A6851687A68926811437A68D268FA
:100E000011437A6892690A431A437B681B6842F46B
:100E10000062DA617B681B6A012B61D17B68384A0A
:100E20005A637B681B68374A934201D1364B01E015
:100E30004FF04023DB697A68126832498A4201D157
:100E4000314A01E04FF0402223F47B6323F00F038B
:100E5000D3617B681B682B4A934201D12A4B01E086
:100E60004FF0402302221A627B681B68254A934296
:100E700001D1254B01E04FF04023DB697B817B688A
:100E80005B68B3F5007F03D07B685B68002B03D100
:100E90004FF480733B6101E000233B613B699AB2F0
:100EA0007B689B689BB213439AB27B68DB689BB2FA
:100EB00013439AB27B689B699BB213439AB27B89B6
:100EC00013439BB243F400637B817B681B680D4A2C
:100ED000934201D10C4B01E04FF040237A89DA6153
:100EE0007B6800225A647B68012283F8412000233A
:100EF00018462037BD4680BDA3130008CDCCCCCC0E
:100F000029150008003800400034004080B588B042
:100F100000AFF860B9603B601346FB80BB68002BF4
:100F200002D0FB88002B01D10123B0E0FB6893F8CD
:100F30004130DBB2012B01D00223A8E0FB6893F81B
:100F40004030DBB2012B01D10223A0E0FB6801227B
:100F500083F84020FB68042283F84120FB680022CC
:100F60005A64FB68BA68DA62FB681B68DB6903F0E5
:100F70000703FB61FB69032B02D0FB69052B0AD138
:100F8000FB885B009AB2FB681A86FB885B009AB20A
:100F9000FB685A8605E0FB68FA881A86FB68FA88BF
:100FA0005A86FB681B68DB6903F48063B3F5806FC6
:100FB00007D0FB681B68DA69FB681B6842F4806233
:100FC000DA61FB681B68DB6903F44073B3F5407FAB
:100FD0004FD10023BB61FB681B68DB68BB61FB680A
:100FE0001B689B68BB61BB6943E03B680122012130
:100FF000F86800F060FA0346002B0FD0FB685B6CCA
:1010000043F00102FB685A64FB68012283F8412027
:10101000FB68002283F84020012338E0FB681B684E
:10102000DA68FB68DB6A92B21A80FB68DB6A9A1C9A
:10103000FB68DA62FB685B8E9BB2013B9AB2FB688D
:101040005A86FB681B689B6803F04003402B10D155
:1010500000237B61FB681B68DB687B61FB681B68A6
:101060009B687B617B69FB685B6C43F00202FB68F9
:101070005A64FB685B8E9BB2002BB6D1FB680122E1
:1010800083F84120FB68002283F8402000231846A3
:101090002037BD4680BD000080B586B000AFF86047
:1010A000B9601346FB80BB68002B02D0FB88002B85
:1010B00001D101239DE0FB6893F84130DBB2012BA5
:1010C00001D0022395E0FB6893F84030DBB2012B9E
:1010D00001D102238DE0FB68012283F84020FB68E8
:1010E000042283F84120FB6800225A64FB68BA6836
:1010F000DA62FB681B68DB6903F007037B617B69CD
:10110000032B02D07B69052B0AD1FB885B009AB2C6
:10111000FB681A86FB885B009AB2FB685A8605E07A
:10112000FB68FA881A86FB68FA885A86FB68DB6BCC
:10113000324A1A64FB68DB6B314ADA63FB68DB6BAB
:10114000304ADA64FB681B68DB6903F44073B3F56B
:10115000407F0AD100233B61FB681B68DB683B6171
:10116000FB681B689B683B613B69FB68D86BFB684D
:101170001B680C331946FB68DB6A1A46FB681B8E3A
:101180009BB201F05FFC0346002B0FD0FB685B6C49
:1011900043F00802FB685A64FB68012283F841208F
:1011A000FB68002283F84020012322E0FB68002234
:1011B00083F84020FB681B685B6803F00103002B89
:1011C00007D1FB681B685A68FB681B6842F0010284
:1011D0005A60FB681B68DB6903F48063002B07D14E
:1011E000FB681B68DA69FB681B6842F48062DA619D
:1011F000002318461837BD4680BD00BF8112000885
:101200003F1200089D12000880B483B000AF7860E0
:1012100000BF0C37BD4680BC704780B483B000AFC0
:10122000786000BF0C37BD4680BC704780B483B087
:1012300000AF786000BF0C37BD4680BC704780B5FA
:1012400084B000AF78607B689B6BFB607B68DB6978
:10125000002B0ED1FB681B685A68FB681B6822F0E4
:1012600001025A60FB6800225A86FB68012283F85B
:101270004120F86803F0D4F800BF1037BD4680BDA8
:1012800080B584B000AF78607B689B6BFB60F868CA
:10129000FFF7C3FF00BF1037BD4680BD80B584B0E7
:1012A00000AF78607B689B6BFB60FB681B685A68CB
:1012B000FB681B6822F003025A60FB6800225A8513
:1012C000FB6800225A86FB68012283F84120FB68F4
:1012D0005B6C43F00802FB685A64F868FFF7A6FFEE
:1012E00000BF1037BD4680BD80B582B000AF7860CA
:1012F0007B685B6A1A887B681B68DA607B685B6A5C
:101300009A1C7B685A627B685B8D9BB2013B9AB2E8
:101310007B685A857B685B8D9BB2002B0ED17B6806
:101320001B685A687B681B6822F0A0025A607B68C1
:10133000012283F841207868FFF766FF00BF083775
:10134000BD4680BD80B582B000AF78607B681B6809
:10135000DA687B68DB6A92B21A807B68DB6A9A1C67
:101360007B68DA627B685B8E9BB2013B9AB27B68DA
:101370005A867B685B8E9BB2002B0ED17B681B6804
:101380005A687B681B6822F060025A607B68012201
:1013900083F84120786803F043F800BF0837BD4662
:1013A00080BD80B586B000AF78607B681B689B68A5
:1013B0007B617B6893F84130DBB2042B3AD17B69C7
:1013C00003F00103012B09D17B681B685B6803F004
:1013D0004003402B02D17868FFF7B4FF7B6903F02C
:1013E0004003402B26D17B681B685B6803F0200319
:1013F000202B1FD17B681B685A687B681B6822F012
:1014000060025A6000233B617B681B68DB683B61BC
:101410007B681B689B683B613B697B68012283F8A2
:1014200041207B685B6C43F002027B685A647868F9
:10143000FFF7FCFE7B6893F84130DBB2032B36D11B
:101440007B6903F00203022B09D17B681B685B6890
:1014500003F08003802B02D17868FFF745FF7B699A
:1014600003F00803082B22D17B681B685B6803F03C
:101470002003202B1BD17B681B685A687B681B6884
:1014800022F0A0025A600023FB607B681B689B6807
:10149000FB60FB687B68012283F841207B685B6C02
:1014A00043F004027B685A647868FFF7BFFE00BF10
:1014B0001837BD4680BD80B586B000AFF860B96012
:1014C0003B601346FB7101F091FF786118E03B68C7
:1014D000B3F1FF3F14D001F089FF02467B69D31AB4
:1014E0003A689A4202D93B68002B09D1FB68012275
:1014F00083F84120FB68002283F8402003230FE09B
:10150000FB681B689A68BB681340BA689A420CBFB4
:1015100001230023DBB21A46FB799A42D7D100237C
:1015200018461837BD4680BD80B588B000AF7860DA
:101530007B681B689B68FB617B681B68924A9342CF
:1015400001D1924B01E04FF040239B68BB617B6867
:101550001B685B687B617B681B688B4A934201D187
:101560008A4B01E04FF040235B683B617B685B681E
:10157000B3F5007F04D07B685B68002B40F0998056
:10158000FB6903F00203022B07D17B6903F08003A0
:10159000002B02D0786800F024F9BB6903F0010346
:1015A000012B07D13B6903F04003002B02D0786880
:1015B00000F0C6F9BB6903F04003402B3AD13B6908
:1015C00003F02003002B35D07B681B686E4A9342E2
:1015D00001D16E4B01E04FF040235A687B681B68D5
:1015E00069498B4201D1694B01E04FF0402322F061
:1015F00060025A607B681B685A687B681B6822F02F
:10160000A0025A600023FB607B681B68DB68FB60FC
:101610007B681B689B68FB60FB687B68012283F822
:1016200041207B685B6C43F002027B685A647868F7
:10163000FFF7FCFDFB6903F00803082B40F0C380B3
:101640007B6903F02003002B00F0BD807B681B68E2
:101650005A687B681B6822F0A0025A607B681B688E
:10166000494A934201D1494B01E04FF040235A6867
:101670007B681B6844498B4201D1444B01E04FF029
:10168000402322F060025A600023BB607B681B6825
:101690009B68BB60BB687B68012283F841207B6844
:1016A0005B6C43F004027B685A647868FFF7BEFD08
:1016B00089E0BB6903F00203022B07D13B6903F009
:1016C0008003002B02D0786800F0BCF8FB6903F0BF
:1016D0000103012B07D17B6903F04003002B02D0EB
:1016E000786800F0FBF8FB6903F04003402B2FD132
:1016F0007B6903F02003002B2AD07B681B685A68A3
:101700007B681B6822F060025A607B681B681E4A77
:10171000934201D11D4B01E04FF040235A687B6892
:101720001B6819498B4201D1184B01E04FF040234F
:1017300022F0A0025A607B68012283F841207B6876
:101740005B6C43F002027B685A647868FFF76EFDB9
:10175000BB6903F00803082B36D13B6903F0200373
:10176000002B31D07B681B68074A934201D1074B9D
:1017700001E04FF040235A687B681B6802498B42A6
:1017800006D1024B06E000BF0038004000340040A4
:101790004FF0402322F0A0025A607B681B685A6811
:1017A0007B681B6822F060025A607B68012283F824
:1017B00041207B685B6C43F004027B685A64786864
:1017C000FFF734FD00E000BF00BF2037BD4680BDFD
:1017D00080B483B000AF786000BF0C37BD4680BCDA
:1017E000704780B582B000AF78607B685B6A991CF7
:1017F0007A6851621A887B681B68DA607B685B8D47
:101800009BB2013B9AB27B685A857B685B8D9BB229
:10181000002B13D17B681B685A687B681B6822F019
:10182000A0025A607B685B8E9BB2002B06D17B685E
:10183000012283F841207868FFF7CAFF00BF08370C
:10184000BD4680BD80B582B000AF78607B685B6AC2
:10185000991C7A68516219887B681B681D4A9342FB
:1018600001D11D4B01E04FF040230A46DA607B684E
:101870005B8D9BB2013B9AB27B685A857B685B8D1E
:101880009BB2002B21D17B681B68124A934201D185
:10189000114B01E04FF040235A687B681B680D49EB
:1018A0008B4201D10C4B01E04FF0402322F0A0020B
:1018B0005A607B685B8E9BB2002B06D17B6801224D
:1018C00083F841207868FFF783FF00BF0837BD46E3
:1018D00080BD00BF003800400034004080B582B0B9
:1018E00000AF78607B681B68D8687B68DB6A991CEE
:1018F0007A68D16282B21A807B685B8E9BB2013BB0
:101900009AB27B685A867B685B8E9BB2002B13D1A0
:101910007B681B685A687B681B6822F060025A600B
:101920007B685B8D9BB2002B06D17B68012283F81C
:1019300041207868FFF74CFF00BF0837BD4680BDE7
:1019400080B582B000AF78607B681B68204A934204
:1019500001D1204B01E04FF04023D8687B68DB6A5F
:10196000991C7A68D16282B21A807B685B8E9BB2C6
:10197000013B9AB27B685A867B685B8E9BB2002BD8
:1019800021D17B681B68124A934201D1114B01E0BF
:101990004FF040235A687B681B680D498B4201D188
:1019A0000C4B01E04FF0402322F060025A607B684C
:1019B0005B8D9BB2002B06D17B68012283F841200E
:1019C0007868FFF705FF00BF0837BD4680BD00BF40
:1019D000003800400034004080B586B000AF786029
:1019E0007B68002B01D1012367E27B681B6803F051
:1019F0000103002B75D0884B9B6803F00C03042B6C
:101A00000CD0854B9B6803F00C03082B12D1824B42
:101A10005B6803F48003B3F5800F0BD17E4B1B682A
:101A200003F40033002B5BD07B685B68002B57D13D
:101A3000012342E27B685B68B3F5803F06D1764BB9
:101A40001B68754A43F4803313601DE07B685B6854
:101A5000B3F5A02F0CD1704B1B686F4A43F4802361
:101A600013606D4B1B686C4A43F4803313600BE0CA
:101A7000694B1B68684A23F480331360664B1B680C
:101A8000654A23F4802313607B685B68002B13D0C6
:101A900001F0ACFC386108E001F0A8FC02463B69AB
:101AA000D31A642B01D9032307E25B4B1B6803F4B1
:101AB0000033002BF0D014E001F098FC386108E00E
:101AC00001F094FC02463B69D31A642B01D903232D
:101AD000F3E1514B1B6803F40033002BF0D100E01D
:101AE00000BF7B681B6803F00203002B63D04A4BE6
:101AF0009B6803F00C03002B0BD0474B9B6803F053
:101B00000C03082B1CD1444B5B6803F48003002BAF
:101B100016D1414B1B6803F00203002B05D07B68F4
:101B2000DB68012B01D00123C7E13B4B1B6823F08D
:101B3000F8027B681B69DB00374913430B603AE00E
:101B40007B68DB68002B20D0344B01221A6001F047
:101B50004DFC386108E001F049FC02463B69D31AAC
:101B6000022B01D90323A8E12B4B1B6803F00203CE
:101B7000002BF0D0284B1B6823F0F8027B681B6910
:101B8000DB00254913430B6015E0244B00221A604B
:101B900001F02CFC386108E001F028FC02463B69AA
:101BA000D31A022B01D9032387E11B4B1B6803F0D7
:101BB0000203002BF0D17B681B6803F00803002BA5
:101BC00036D07B685B69002B16D0154B01221A605A
:101BD00001F00CFC386108E001F008FC02463B69AA
:101BE000D31A022B01D9032367E10B4B5B6F03F080
:101BF0000203002BF0D01BE0094B00221A6001F019
:101C0000F5FB38610EE001F0F1FB02463B69D31AA7
:101C1000022B07D9032350E100380240000047425D
:101C2000800E4742884B5B6F03F00203002BEAD122
:101C30007B681B6803F00403002B00F097800023EF
:101C4000FB75814B1B6C03F08053002B0FD10023DD
:101C5000BB607D4B1B6C7C4A43F0805313647A4B12
:101C60001B6C03F08053BB60BB680123FB75774B93
:101C70001B6803F48073002B18D1744B1B68734AE4
:101C800043F48073136001F0B1FB386108E001F0A8
:101C9000ADFB02463B69D31A022B01D903230CE1A9
:101CA0006A4B1B6803F48073002BF0D07B689B6841
:101CB000012B06D1644B1B6F634A43F0010313678A
:101CC0001CE07B689B68052B0CD15F4B1B6F5E4A49
:101CD00043F0040313675C4B1B6F5B4A43F0010343
:101CE00013670BE0584B1B6F574A23F00103136730
:101CF000554B1B6F544A23F0040313677B689B68A2
:101D0000002B15D001F072FB38610AE001F06EFB88
:101D100002463B69D31A41F28832934201D9032328
:101D2000CBE0494B1B6F03F00203002BEED014E015
:101D300001F05CFB38610AE001F058FB02463B69A8
:101D4000D31A41F28832934201D90323B5E03E4BC6
:101D50001B6F03F00203002BEED1FB7D012B05D19D
:101D6000394B1B6C384A23F0805313647B689B69A2
:101D7000002B00F0A180344B9B6803F00C03082B70
:101D80005CD07B689B69022B41D1314B00221A60E9
:101D900001F02CFB386108E001F028FB02463B69AA
:101DA000D31A022B01D9032387E0274B1B6803F0CA
:101DB0000073002BF0D17B68DA697B681B6A1A43D9
:101DC0007B685B6A9B011A437B689B6A5B08013BEB
:101DD0001B041A437B68DB6A1B061B4913434B60D9
:101DE0001B4B01221A6001F001FB386108E001F091
:101DF000FDFA02463B69D31A022B01D903235CE0AA
:101E0000114B1B6803F00073002BF0D054E0104B13
:101E100000221A6001F0EAFA386108E001F0E6FAFF
:101E200002463B69D31A022B01D9032345E0064B36
:101E30001B6803F00073002BF0D13DE07B689B69C9
:101E4000012B07D1012338E0003802400070004028
:101E5000600047421B4B5B68FB607B689B69012B02
:101E600028D0FB6803F480027B68DB699A4221D1A9
:101E7000FB6803F03F027B681B6A9A421AD1FA683A
:101E800047F6C07313407A68526A9201934211D1A7
:101E9000FB6803F440327B689B6A5B08013B1B04D0
:101EA0009A4207D1FB6803F070627B68DB6A1B060D
:101EB0009A4201D0012300E0002318461837BD469E
:101EC00080BD00BF0038024080B584B000AF7860AC
:101ED00039607B68002B01D10123CCE0684B1B6883
:101EE00003F007033A689A420CD9654B3A68D2B2BC
:101EF0001A70634B1B6803F007033A689A4201D0DB
:101F00000123B8E07B681B6803F00203002B20D09C
:101F10007B681B6803F00403002B05D0594B9B68BA
:101F2000584A43F4E05393607B681B6803F008034E
:101F3000002B05D0534B9B68524A43F46043936097
:101F4000504B9B6823F0F0027B689B684D4913431C
:101F50008B607B681B6803F00103002B44D07B6817
:101F60005B68012B07D1474B1B6803F40033002B40
:101F700019D101237FE07B685B68022B03D07B686B
:101F80005B68032B07D13F4B1B6803F00073002BEA
:101F900009D101236FE03B4B1B6803F00203002BC8
:101FA00001D1012367E0374B9B6823F003027B6874
:101FB0005B68344913438B6001F018FAF8600AE05B
:101FC00001F014FA0246FB68D31A41F288329342B8
:101FD00001D903234FE02B4B9B6803F00C027B6875
:101FE0005B689B009A42EBD1254B1B6803F007030B
:101FF0003A689A420CD2224B3A68D2B21A70204BFD
:102000001B6803F007033A689A4201D0012332E0CB
:102010007B681B6803F00403002B08D0194B9B68F6
:1020200023F4E0527B68DB68164913438B607B68BE
:102030001B6803F00803002B09D0124B9B6823F4A4
:1020400060427B681B69DB000E4913438B6000F024
:1020500021F802460B4B9B681B0903F00F030A494A
:10206000CB5C22FA03F3094A1360094B1B6818463C
:1020700001F07AF9002318461037BD4680BD00BF35
:10208000003C024000380240E0FE00080000002052
:10209000040000202DE9B04F94B000AF00237B6412
:1020A0000023FB6400233B640023BB64794B9B68E3
:1020B00003F00C03082B0DD0082B00F2E180002B5D
:1020C00002D0042B03D0DBE0734BBB64DBE0734B2B
:1020D000BB64D8E06F4B5B6803F03F037B646D4BE0
:1020E0005B6803F48003002B63D06A4B5B689B0939
:1020F0000022BB63FA63BB6BC3F308033B6300239B
:102100007B63D7E90C4522462B464FF000004FF089
:102110000001590141EAD261500102460B462146B5
:10212000511A3961294663EB01037B614FF00002CC
:102130004FF00003D7E904AB59468B01514643EAFF
:10214000916351468A015146B2EB0108594663EB4F
:1021500001094FF000024FF000034FEAC90343EAC0
:1021600058734FEAC80290469946234618EB03037A
:10217000BB602B4649EB0303FB604FF000024FF0BE
:102180000003D7E9024529464B02214643EAD153D1
:1021900021464A02104619467B6C0022BB62FA6255
:1021A000D7E90A23FEF788FC02460B461346FB6478
:1021B00058E0384B5B689B09002218461146C0F373
:1021C00008033B6200237B62D7E9088942464B46FD
:1021D0004FF000004FF00001590141EAD261500177
:1021E00002460B464146B2EB010A494663EB010B3E
:1021F0004FF000024FF000034FEA8B1343EA9A635B
:102200004FEA8A12B2EB0A0463EB0B054FF00002AF
:102210004FF00003EB0043EA5473E20014461D46FE
:102220004346E3183B604B4645EB03037B604FF0AE
:1022300000024FF00003D7E9004529468B022146F2
:1022400043EA915321468A02104619467B6C0022CC
:10225000BB61FA61D7E90623FEF72EFC02460B4666
:102260001346FB640B4B5B681B0C03F00303013349
:102270005B003B64FA6C3B6CB2FBF3F3BB6402E0C3
:10228000054BBB6400BFBB6C18465037BD46BDE86C
:10229000B08F00BF003802400024F40000127A0022
:1022A00080B400AF024B1B681846BD4680BC704727
:1022B0000000002080B500AFFFF7F2FF0246054B9B
:1022C0009B689B0A03F007030349CB5C22FA03F3E4
:1022D000184680BD00380240F0FE000880B500AF0F
:1022E000FFF7DEFF0246054B9B685B0B03F007031D
:1022F0000349CB5C22FA03F3184680BD0038024044
:10230000F0FE000880B586B000AF786000237B61E6
:1023100000233B617B681B6803F00103002B05D1A0
:102320007B681B6803F00403002B35D0624B00224E
:102330001A6001F05BF8786108E001F057F8024696
:102340007B69D31A022B01D90323B0E05B4B1B68D6
:1023500003F00063002BF0D17B685B689A017B6817
:102360009B681B0755491343C1F88430524B012227
:102370001A6001F03BF8786108E001F037F8024696
:102380007B69D31A022B01D9032390E04B4B1B68C6
:1023900003F00063002BF0D07B681B6803F002039E
:1023A000002B00F083800023FB60444B1B6C434AEE
:1023B00043F080531364414B1B6C03F08053FB606C
:1023C000FB683F4B1B683E4A43F48073136001F087
:1023D0000DF8786108E001F009F802467B69D31A2C
:1023E000022B01D9032362E0354B1B6803F4807391
:1023F000002BF0D0314B1B6F03F440733B613B6902
:10240000002B2FD07B68DB6803F440733A699A4253
:1024100028D02A4B1B6F23F440733B61294B0122C8
:102420001A60284B00221A60244A3B691367234B29
:102430001B6F03F00103012B14D100F0D7FF78616B
:102440000AE000F0D3FF02467B69D31A41F28832DA
:10245000934201D903232AE0184B1B6F03F00203B8
:10246000002BEED07B68DB6803F44073B3F5407F4C
:102470000DD1124B9B6823F4F8127B68DB6823F0C4
:10248000704323F440730D4913438B6005E00B4BFD
:102490009B680A4A23F4F8139360084B1A6F7B6811
:1024A000DB68C3F30B03054913430B67002318468E
:1024B0001837BD4680BD00BF680047420038024063
:1024C00000700040400E474280B487B000AF786093
:1024D00000237B6100233B610023FB600023BB6082
:1024E0007B68012B3FD1234B9B6803F40003FB6007
:1024F000FB68002B06D0FB68B3F5000F2FD11E4BF5
:102500007B612FE01B4B5B6803F48003B3F5800F06
:1025100008D1184B5B6803F03F03184AB2FBF3F392
:102520003B6107E0134B5B6803F03F03144AB2FBC7
:10253000F3F33B610F4BD3F884309B09C3F30802DC
:102540003B6902FB03F3BB600A4BD3F884301B0FDB
:1025500003F00703BA68B2FBF3F37B6102E00023E8
:102560007B6100BF00E000BF7B6918461C37BD4699
:1025700080BC7047003802400080BB0000127A0027
:102580000024F40080B489B000AF78603960002383
:102590007B6100233B610023BB610023FB616BE196
:1025A0000122FB6902FA03F37B613B681B687A69CD
:1025B00013403B613A697B699A4240F05A813B681B
:1025C0005B6803F00303012B05D03B685B6803F0F5
:1025D0000303022B30D17B689B68BB61FB695B0006
:1025E000032202FA03F3DB43BA691340BB613B6881
:1025F000DA68FB695B0002FA03F3BA691343BB6153
:102600007B68BA699A607B685B68BB610122FB6981
:1026100002FA03F3DB43BA691340BB613B685B68B2
:102620001B0903F00102FB6902FA03F3BA691343C1
:10263000BB617B68BA695A603B685B6803F003035F
:10264000032B17D07B68DB68BB61FB695B0003224F
:1026500002FA03F3DB43BA691340BB613B689A6833
:10266000FB695B0002FA03F3BA691343BB617B6841
:10267000BA69DA603B685B6803F00303022B23D17D
:10268000FB69DA087B68083253F82230BB61FB69CA
:1026900003F007039B000F2202FA03F3DB43BA693E
:1026A0001340BB613B681A69FB6903F007039B0099
:1026B00002FA03F3BA691343BB61FB69DA087B686A
:1026C0000832B96943F822107B681B68BB61FB695B
:1026D0005B00032202FA03F3DB43BA691340BB61D8
:1026E0003B685B6803F00302FB695B0002FA03F3DB
:1026F000BA691343BB617B68BA691A603B685B685F
:1027000003F44033002B00F0B4800023FB605F4BE8
:102710005B6C5E4A43F4804353645C4B5B6C03F434
:102720008043FB60FB685A4AFB699B08023352F8FE
:102730002330BB61FB6903F003039B000F2202FA05
:1027400003F3DB43BA691340BB617B68514A934290
:102750002BD07B68504A934225D07B684F4A9342E6
:102760001FD07B684E4A934219D07B684D4A9342F2
:1027700013D07B684C4A93420DD07B684B4A9342FE
:1027800007D07B684A4A934201D107230EE0082311
:102790000CE006230AE0052308E0042306E00323F7
:1027A00004E0022302E0012300E00023FA6902F0C2
:1027B000030292009340BA691343BB613449FB6939
:1027C0009B080233BA6941F823203A4B9B68BB61EE
:1027D0003B69DB43BA691340BB613B685B6803F448
:1027E0008013002B03D0BA693B691343BB61314AA4
:1027F000BB6993602F4BDB68BB613B69DB43BA6904
:102800001340BB613B685B6803F40013002B03D0EB
:10281000BA693B691343BB61264ABB69D360254B48
:102820005B68BB613B69DB43BA691340BB613B68D2
:102830005B6803F40033002B03D0BA693B69134390
:10284000BB611C4ABB6953601A4B1B68BB613B6987
:10285000DB43BA691340BB613B685B6803F48033B8
:10286000002B03D0BA693B691343BB61114ABB69B2
:102870001360FB690133FB61FB690F2B7FF690AEA0
:1028800000BF00BF2437BD4680BC704700380240FF
:1028900000380140000002400004024000080240ED
:1028A000000C0240001002400014024000180240D8
:1028B000001C0240003C014080B483B000AF78604F
:1028C0000B467B8013467B707B78002B03D07A8885
:1028D0007B689A6103E07B881A047B689A6100BF79
:1028E0000C37BD4680BC704780B586B000AF7860BD
:1028F00000237B6100F07AFD38617B68002B01D1F9
:10290000012399E07B68022283F835207B6800224E
:1029100083F834207B681B681A687B681B6822F088
:1029200001021A600FE000F061FD02463B69D31A14
:10293000052B08D97B6820225A657B68032283F81F
:102940003520032378E07B681B681B6803F00103D4
:10295000002BE8D17B681B681B687B617A69384B68
:1029600013407B617B685A687B689B681A437B686D
:10297000DB681A437B681B691A437B685B691A43EF
:102980007B689B691A437B68DB691A437B681B6A17
:1029900013437A6913437B617B685B6A042B07D11D
:1029A0007B68DA6A7B681B6B13437A6913437B612C
:1029B0007B681B687A691A607B681B685B697B614E
:1029C0007B6923F007037B617B685B6A7A69134349
:1029D0007B617B685B6A042B17D17B689B6A7A6991
:1029E00013437B617B68DB6A002B0ED0786800F0B4
:1029F000FFFA0346002B08D07B6840225A657B68AB
:102A0000012283F83520012316E07B681B687A6970
:102A10005A61786800F0B8FA0346FB607B68DB6DAA
:102A20003F229A40FB689A607B6800225A657B6867
:102A3000012283F83520002318461837BD4680BD93
:102A40003F8010F080B586B000AFF860B9607A6062
:102A50003B600023FB75FB689B6D3B61FB6893F853
:102A60003430012B01D1022340E0FB68012283F8BE
:102A70003420FB6893F83530DBB2012B2FD1FB6893
:102A8000022283F83520FB6800225A653B687A6889
:102A9000B968F86800F04AFAFB68DB6D3F229A409B
:102AA0003B699A60FB681B681A68FB681B6842F008
:102AB00016021A60FB681B6C002B07D0FB681B68B2
:102AC0001A68FB681B6842F008021A60FB681B6802
:102AD0001A68FB681B6842F001021A6005E0FB6897
:102AE000002283F834200223FB75FB7D184618373B
:102AF000BD4680BD80B584B000AF78607B689B6DBB
:102B0000FB6000F073FCB8607B6893F83530DBB293
:102B1000022B08D07B6880225A657B68002283F8EC
:102B20003420012352E07B681B681A687B681B68AD
:102B300022F016021A607B681B685A697B681B6862
:102B400022F080025A617B681B6C002B03D17B68EA
:102B50009B6C002B07D07B681B681A687B681B681E
:102B600022F008021A607B681B681A687B681B6881
:102B700022F001021A6013E000F038FC0246BB6844
:102B8000D31A052B0CD97B6820225A657B68032257
:102B900083F835207B68002283F83420032315E076
:102BA0007B681B681B6803F00103002BE4D17B6882
:102BB000DB6D3F229A40FB689A607B68012283F8B4
:102BC00035207B68002283F8342000231846103714
:102BD000BD4680BD80B483B000AF78607B6893F859
:102BE0003530DBB2022B04D07B6880225A6501238A
:102BF0000CE07B68052283F835207B681B681A6827
:102C00007B681B6822F001021A60002318460C370B
:102C1000BD4680BC7047000080B586B000AF7860CC
:102C20000023BB608E4B1B688E4AA2FB03239B0ACA
:102C30007B617B689B6D3B613B691B68FB607B68CC
:102C4000DB6D08229A40FB681340002B1AD07B688A
:102C50001B681B6803F00403002B13D07B681B6800
:102C60001A687B681B6822F004021A607B68DB6DBF
:102C700008229A403B699A607B685B6D43F00102D1
:102C80007B685A657B68DB6D01229A40FB681340C4
:102C9000002B12D07B681B685B6903F08003002B5C
:102CA0000BD07B68DB6D01229A403B699A607B68A0
:102CB0005B6D43F002027B685A657B68DB6D042222
:102CC0009A40FB681340002B12D07B681B681B687E
:102CD00003F00203002B0BD07B68DB6D04229A40CB
:102CE0003B699A607B685B6D43F004027B685A65C0
:102CF0007B68DB6D10229A40FB681340002B43D0A9
:102D00007B681B681B6803F00803002B3CD07B68C2
:102D1000DB6D10229A403B699A607B681B681B68D8
:102D200003F48023002B18D07B681B681B6803F416
:102D30000023002B08D17B681B6C002B24D07B6800
:102D40001B6C786898471FE07B689B6C002B1BD03E
:102D50007B689B6C7868984716E07B681B681B68EB
:102D600003F48073002B07D17B681B681A687B68AB
:102D70001B6822F008021A607B681B6C002B03D0D2
:102D80007B681B6C786898477B68DB6D20229A40D3
:102D9000FB681340002B00F08F807B681B681B686A
:102DA00003F01003002B00F087807B68DB6D20228E
:102DB0009A403B699A607B6893F83530DBB2052B0B
:102DC00036D17B681B681A687B681B6822F0160284
:102DD0001A607B681B685A697B681B6822F0800256
:102DE0005A617B681B6C002B03D17B689B6C002BAA
:102DF00007D07B681B681A687B681B6822F0080292
:102E00001A607B68DB6D3F229A403B699A607B6861
:102E1000012283F835207B68002283F834207B6808
:102E20001B6D002B7ED07B681B6D7868984779E01E
:102E30007B681B681B6803F48023002B1DD07B6814
:102E40001B681B6803F40023002B0DD17B685B6CAF
:102E5000002B31D07B685B6C786898472CE000BF12
:102E600000000020B5814E1B7B68DB6B002B23D05C
:102E70007B68DB6B786898471EE07B681B681B6883
:102E800003F48073002B0FD17B681B681A687B6882
:102E90001B6822F010021A607B68012283F835203B
:102EA0007B68002283F834207B68DB6B002B03D027
:102EB0007B68DB6B786898477B685B6D002B32D052
:102EC0007B685B6D03F00103002B22D07B68052239
:102ED00083F835207B681B681A687B681B6822F0C2
:102EE00001021A60BB680133BB607A699A4207D35A
:102EF0007B681B681B6803F00103002BF2D100E024
:102F000000BF7B68012283F835207B68002283F8AC
:102F100034207B68DB6C002B05D07B68DB6C786829
:102F2000984700E000BF1837BD4680BD80B485B02B
:102F300000AFF860B9607A603B60FB681B681A6894
:102F4000FB681B6822F480221A60FB681B683A68E1
:102F50005A60FB689B68402B08D1FB681B687A6845
:102F60009A60FB681B68BA68DA6007E0FB681B6858
:102F7000BA689A60FB681B687A68DA6000BF143729
:102F8000BD4680BC7047000080B485B000AF78605B
:102F90007B681B68DBB2103B134AA2FB03231B09AF
:102FA000FB60124AFB6813441B781A467B68DA659B
:102FB000FB68032B09D97B681B6823F47F7323F01C
:102FC00003031A1D7B689A6507E07B681B6823F47E
:102FD0007F7323F003037A6893657B689B6D1846C3
:102FE0001437BD4680BC7047ABAAAAAAF8FE0008F9
:102FF00080B485B000AF78600023FB737B689B6A68
:10300000BB607B689B69002B23D1BB68032B5FD01F
:10301000BB68032B5ED8BB68022B09D0BB68022BB0
:1030200058D8BB68002B03D0BB68012B09D051E0F6
:103030007B68DB6A03F08073002B4DD00123FB73A8
:103040004AE07B68DB6AB3F1C07F47D10123FB73A1
:1030500044E07B689B69B3F5005F26D1BB68032B16
:103060001BD0BB68032B3BD8BB68022B09D0BB68C5
:10307000022B35D8BB68002B03D0BB68012B03D0D3
:103080002EE00123FB7332E07B68DB6A03F0807380
:10309000002B27D00123FB7324E07B68DB6AB3F1AC
:1030A000C07F21D10123FB731EE0BB68022B03D933
:1030B000BB68032B03D01AE00123FB7317E07B6886
:1030C000DB6A03F08073002B10D00123FB730DE04B
:1030D00000BF0CE000BF0AE000BF08E000BF06E050
:1030E00000BF04E000BF02E000BF00E000BFFB7BC8
:1030F00018461437BD4680BC7047000080B485B0C8
:1031000000AF78607B6803F00703FB600C4BDB6863
:10311000BB60BA684FF6FF031340BB60FB681A023E
:10312000BB68134343F0BF6343F40033BB60044AFE
:10313000BB68D36000BF1437BD4680BC704700BF7A
:1031400000ED00E080B400AF044BDB681B0A03F025
:1031500007031846BD4680BC704700BF00ED00E085
:1031600080B483B000AF0346FB7197F90730002BA2
:103170000BDBFB7903F01F02064997F907305B0967
:10318000012000FA02F241F8232000BF0C37BD46AF
:1031900080BC704700E100E080B483B000AF03461C
:1031A0003960FB7197F90730002B0ADB3B68DAB214
:1031B0000C4997F907301201D2B20B4483F800236F
:1031C0000AE03B68DAB20849FB7903F00F03043BDD
:1031D0001201D2B20B441A7600BF0C37BD4680BC38
:1031E000704700BF00E100E000ED00E080B489B06E
:1031F00000AFF860B9607A60FB6803F007037B6199
:103200007B69033B042B04D87B69C3F10703FB6193
:1032100001E00423FB617B690433062B03D97B693E
:10322000033BBB6101E00023BB614FF0FF32FB6950
:1032300002FA03F3DA43BB681A40BB699A404FF0C5
:10324000FF31BB6901FA03F3D9437B680B40134399
:1032500018462437BD4680BC7047000080B582B058
:1032600000AF78607B68013BB3F1807F01D301231D
:103270000FE00A4A7B68013B53600F214FF0FF309B
:10328000FFF78AFF054B00229A60044B07221A6061
:10329000002318460837BD4680BD00BF10E000E09F
:1032A00080B582B000AF78607868FFF727FF00BF75
:1032B0000837BD4680BD80B586B000AF0346B96013
:1032C0007A60FB7300237B61FFF73CFF78617A68CB
:1032D000B9687869FFF78AFF024697F90F301146FF
:1032E0001846FFF759FF00BF1837BD4680BD80B5AF
:1032F00082B000AF0346FB7197F907301846FFF71D
:103300002FFF00BF0837BD4680BD80B582B000AF3B
:1033100078607868FFF7A2FF034618460837BD4675
:1033200080BD000080B500AF0E4B1B680D4A43F412
:10333000007313600B4B1B680A4A43F480631360ED
:10334000084B1B68074A43F4807313600320FFF7A0
:10335000A7FF0F2000F008F801F0F8FD0023184641
:1033600080BD00BF003C024080B582B000AF7860F5
:10337000124B1A68124B1B7819464FF47A73B3FB41
:10338000F1F3B2FBF3F31846FFF7BFFF0346002B40
:1033900001D001230EE07B680F2B0AD80022796848
:1033A0004FF0FF30FFF787FF064A7B68136000236A
:1033B00000E0012318460837BD4680BD000000200C
:1033C000080000200400002080B400AF054B1B78EB
:1033D0001A46054B1B681344034A136000BFBD46E1
:1033E00080BC7047080000205C25002080B400AF3E
:1033F000024B1B681846BD4680BC70475C25002008
:1034000080B582B000AF78607B68002B01D10123CA
:1034100042E07B6893F84130DBB2002B06D17B6839
:10342000002283F84020786801F01AFD7B6824228E
:1034300083F841207B681B68DA687B681B6822F48C
:103440000052DA60786800F077FD7B681B681A69C3
:103450007B681B6822F490421A617B681B685A697A
:103460007B681B6822F02A025A617B681B68DA6855
:103470007B681B6842F40052DA607B6800225A6461
:103480007B68202283F841207B68202283F8422039
:103490007B6800225A63002318460837BD4680BD6A
:1034A00080B58AB002AFF860B9603B601346FB801C
:1034B00000237B61FB6893F84130DBB2202B75D190
:1034C000BB68002B02D0FB88002B01D101236EE0EA
:1034D000FB6800225A64FB68212283F84120FFF731
:1034E00085FF7861FB68FA889A84FB68FA88DA8439
:1034F000FB689B68B3F5805F08D1FB681B69002BF4
:1035000004D10023FB61BB68BB6103E0BB68FB61C6
:103510000023BB612EE03B6800937B690022802181
:10352000F86800F017FB0346002B05D0FB6820224B
:1035300083F8412003233AE0FB69002B0BD1BB69E0
:103540001B881A46FB681B68C2F308025A60BB69F5
:103550000233BB6107E0FB691A78FB681B685A609D
:10356000FB690133FB61FB68DB8C9BB2013B9AB2C8
:10357000FB68DA84FB68DB8C9BB2002BCBD13B6809
:1035800000937B6900224021F86800F0E3FA0346CB
:10359000002B05D0FB68202283F84120032306E09E
:1035A000FB68202283F84120002300E00223184614
:1035B0002037BD4680BD000080B5BAB000AF78604E
:1035C0007B681B681B68C7F8E4307B681B68DB6896
:1035D000C7F8E0307B681B685B69C7F8DC30002304
:1035E000C7F8D8300023C7F8D430D7F8E43003F058
:1035F0000F03C7F8D830D7F8D830002B0FD1D7F841
:10360000E43003F02003002B09D0D7F8E03003F0BA
:103610002003002B03D0786800F0CFFB71E2D7F8CD
:10362000D830002B00F0DC80D7F8DC3003F0010349
:10363000002B06D1D7F8E03003F49073002B00F094
:10364000CF80D7F8E43003F00103002B0BD0D7F87C
:10365000E03003F48073002B05D07B685B6C43F093
:1036600001027B685A64D7F8E43003F00403002BAE
:103670000BD0D7F8DC3003F00103002B05D07B68BA
:103680005B6C43F002027B685A64D7F8E43003F0C5
:103690000203002B0BD0D7F8DC3003F00103002B22
:1036A00005D07B685B6C43F004027B685A64D7F8F2
:1036B000E43003F00803002B11D0D7F8E03003F01A
:1036C0002003002B05D1D7F8DC3003F00103002BD9
:1036D00005D07B685B6C43F008027B685A647B68AA
:1036E0005B6C002B00F00882D7F8E43003F0200375
:1036F000002B08D0D7F8E03003F02003002B02D0D5
:10370000786800F05AFB7B681B685B6903F0400334
:10371000C3F38013DBB2C7F8D4307B685B6C03F073
:103720000803002B03D1D7F8D430002B4FD0786892
:1037300000F069FA7B681B685B6903F04003402B6B
:1037400041D17B681B681433C7F89C30D7F89C3094
:1037500053E8003FC7F89830D7F8983023F040037B
:10376000C7F8D0307B681B681433D7F8D020C7F86F
:10377000A820C7F8A430D7F8A410D7F8A82041E8AB
:103780000023C7F8A030D7F8A030002BD9D17B6830
:10379000DB6B002B13D07B68DB6B8A4A1A657B6876
:1037A000DB6B1846FFF716FA0346002B16D07B6832
:1037B000DB6B1B6D7A68D26B104698470EE0786819
:1037C00000F0B4F90AE0786800F0B0F906E0786833
:1037D00000F0ACF97B6800225A648DE100BF8BE1F8
:1037E0007B681B6B012B40F06781D7F8E43003F056
:1037F0001003002B00F06081D7F8E03003F01003D5
:10380000002B00F059810023BB607B681B681B689C
:10381000BB607B681B685B68BB60BB687B681B68C0
:103820005B6903F04003402B40F0CE807B68DB6B8C
:103830001B685B68A7F8BE30B7F8BE30002B00F0FD
:10384000A9807B689B8DB7F8BE209A4280F0A28049
:103850007B68B7F8BE20DA857B68DB6BDB69B3F584
:10386000807F00F088807B681B680C33C7F8883045
:10387000D7F8883053E8003FC7F88430D7F8843051
:1038800023F48073C7F8B8307B681B680C33D7F813
:10389000B820C7F89420C7F89030D7F89010D7F820
:1038A000942041E80023C7F88C30D7F88C30002BE7
:1038B000D9D17B681B6814337B677B6F53E8003F6B
:1038C0003B673B6F23F00103C7F8B4307B681B688C
:1038D0001433D7F8B420C7F88020FB67F96FD7F806
:1038E000802041E80023BB67BB6F002BE1D17B68E0
:1038F0001B6814333B663B6E53E8003FFB65FB6D72
:1039000023F04003C7F8B0307B681B681433D7F846
:10391000B020FA66BB66B96EFA6E41E800237B669A
:103920007B6E002BE3D17B68202283F842207B68EA
:1039300000221A637B681B680C33FB64FB6C53E842
:10394000003FBB64BB6C23F01003C7F8AC307B684E
:103950001B680C33D7F8AC20BA657B65796DBA6DFE
:1039600041E800233B653B6D002BE3D17B68DB6BBB
:103970001846FFF7BFF87B6802225A637B689A8D6E
:103980007B68DB8D9BB2D31A9BB21946786800F036
:10399000D6F8B3E07B689B8DB7F8BE209A4240F022
:1039A000AD807B68DB6BDB69B3F5807F40F0A68080
:1039B0007B6802225A637B689B8D1946786800F009
:1039C000BEF89BE0CB3C00087B689A8D7B68DB8D62
:1039D0009BB2D31AA7F8CE307B68DB8D9BB2002B4D
:1039E00000F08E80B7F8CE30002B00F089807B6825
:1039F0001B680C33BB63BB6B53E8003F7B637B6B83
:103A000023F49073C7F8C8307B681B680C33D7F871
:103A1000C8207A643B64396C7A6C41E80023FB630C
:103A2000FB6B002BE3D17B681B6814337B627B6AE2
:103A300053E8003F3B623B6A23F00103C7F8C43000
:103A40007B681B681433D7F8C4203A63FB62F96AB9
:103A50003A6B41E80023BB62BB6A002BE3D17B6871
:103A6000202283F842207B6800221A637B681B684F
:103A70000C333B613B6953E8003FFB60FB6823F07C
:103A80001003C7F8C0307B681B680C33D7F8C02020
:103A9000FA61BB61B969FA6941E800237B617B691E
:103AA000002BE3D17B6802225A63B7F8CE30194667
:103AB000786800F044F823E0D7F8E43003F080039E
:103AC000002B09D0D7F8E03003F08003002B03D09F
:103AD000786800F00BF914E0D7F8E43003F0400305
:103AE000002B0ED0D7F8E03003F04003002B08D0B5
:103AF000786800F04AF904E000BF02E000BF00E08F
:103B000000BFE837BD4680BD80B483B000AF7860A9
:103B100000BF0C37BD4680BC704780B483B000AF97
:103B2000786000BF0C37BD4680BC704780B483B05E
:103B300000AF786000BF0C37BD4680BC704780B4D2
:103B400083B000AF78600B467B8000BF0C37BD466A
:103B500080BC704780B586B000AFF860B9603B604C
:103B60001346FB713BE03B6AB3F1FF3F37D0FFF7F1
:103B70003DFC02463B68D31A3A6A9A4202D33B6A3A
:103B8000002B01D103233AE0FB681B68DB6803F0DC
:103B90000403002B23D0BB68802B20D0BB68402BB4
:103BA0001DD0FB681B681B6803F00803082B16D1A7
:103BB00000237B61FB681B681B687B61FB681B68DB
:103BC0005B687B617B69F86800F01DF8FB68082280
:103BD0005A64FB68002283F8402001230FE0FB6851
:103BE0001B681A68BB681340BA689A420CBF01236D
:103BF0000023DBB21A46FB799A42B4D00023184660
:103C00001837BD4680BD80B495B000AF78607B6842
:103C10001B680C337B637B6B53E8003F3B633B6B60
:103C200023F49073FB647B681B680C33FA6C3A6472
:103C3000FB63F96B3A6C41E80023BB63BB6B002B61
:103C4000E5D17B681B6814333B623B6A53E8003F55
:103C5000FB61FB6923F00103BB647B681B681433C1
:103C6000BA6CFA62BB62B96AFA6A41E800237B6205
:103C70007B6A002BE5D17B681B6B012B19D17B681C
:103C80001B680C33FB60FB6853E8003FBB60BB68FC
:103C900023F010037B647B681B680C337A6CBA6179
:103CA0007B617969BA6941E800233B613B69002B7C
:103CB000E5D17B68202283F842207B6800221A63CA
:103CC00000BF5437BD4680BC704780B584B000AF9C
:103CD00078607B689B6BFB60FB680022DA85F86884
:103CE000FFF724FF00BF1037BD4680BD80B485B00C
:103CF00000AF78607B6893F84130DBB2212B3ED176
:103D00007B689B68B3F5805F14D17B681B69002BCF
:103D100010D17B681B6AFB60FB681B881A467B68B6
:103D20001B68C2F308025A607B681B6A9A1C7B6896
:103D30001A6208E07B681B6A591C7A6811621A785B
:103D40007B681B685A607B68DB8C9BB2013B9BB233
:103D50007A681946D184002B0FD17B681B68DA681A
:103D60007B681B6822F08002DA607B681B68DA6877
:103D70007B681B6842F04002DA60002300E0022307
:103D800018461437BD4680BC704780B582B000AF7E
:103D900078607B681B68DA687B681B6822F04002E9
:103DA000DA607B68202283F841207868FFF7ACFE58
:103DB000002318460837BD4680BD80B58CB000AFE3
:103DC00078600023FB620023BB627B6893F842307B
:103DD000DBB2222B40F0AA807B689B68B3F5805F42
:103DE00015D17B681B69002B11D17B689B6ABB6274
:103DF0007B681B685B689BB2C3F308039AB2BB6A1B
:103E00001A807B689B6A9A1C7B689A6224E07B68B4
:103E10009B6AFB627B689B68B3F5805F07D07B6819
:103E20009B68002B0AD17B681B69002B06D17B683D
:103E30001B685B68DAB2FB6A1A7008E07B681B6873
:103E40005B68DBB203F07F03DAB2FB6A1A707B684F
:103E50009B6A5A1C7B689A627B68DB8D9BB2013B34
:103E60009BB27A681946D185002B5DD17B681B68AF
:103E7000DA687B681B6822F02002DA607B681B68C6
:103E8000DA687B681B6822F48072DA607B681B68E2
:103E90005A697B681B6822F001025A617B68202204
:103EA00083F842207B6800225A637B681B6B012BDE
:103EB00035D17B6800221A637B681B680C337B61F9
:103EC0007B6953E8003F3B613B6923F010037B6251
:103ED0007B681B680C337A6A3A62FB61F9693A6A5B
:103EE00041E80023BB61BB69002BE5D17B681B68FF
:103EF0001B6803F01003102B0AD10023FB607B68C2
:103F00001B681B68FB607B681B685B68FB60FB6869
:103F10007B689B8D19467868FFF711FE02E0786890
:103F2000FFF7FBFD002302E0002300E00223184618
:103F30003037BD4680BD00002DE9B04FC0B000AFA6
:103F4000C7F8F400D7F8F4301B681B6923F440501D
:103F5000D7F8F430D968D7F8F4301A6840EA01038A
:103F60001361D7F8F4309A68D7F8F4301B691A4314
:103F7000D7F8F4305B691A43D7F8F430DB691343A0
:103F8000C7F8F830D7F8F4301B68DB6823F4164123
:103F900021F00C01D7F8F4301A68D7F8F8300B4349
:103FA000D360D7F8F4301B685B6923F44070D7F80E
:103FB000F4309969D7F8F4301A6840EA0103536184
:103FC000D7F8F4301A688F4B9A4205D0D7F8F430FE
:103FD0001A688D4B9A4204D1FEF780F9C7F8FC00AD
:103FE00003E0FEF767F9C7F8FC00D7F8F430DB69A7
:103FF000B3F5004F40F00C81D7F8FC300022C7F831
:10400000E830C7F8EC20D7E93A4522462B4691180C
:10401000B9655B41FB65D7E91623214612EB010820
:10402000294643EB01094FF000024FF000034FEA2D
:10403000C90343EA58734FEAC8029046994623469B
:1040400018EB0303C7F8E0302B4649EB0303C7F82E
:10405000E430D7F8F4305B680022C7F8D830C7F8EE
:10406000DC20D7E936120B46DB183B65134642EBE2
:1040700003037B65D7E91423D7E93801FCF71CFD5E
:1040800002460B46614BA3FB02235B091C01D7F8D8
:10409000FC300022C7F8D030C7F8D420D7E93489E3
:1040A00042464B469118B9645B41FB64D7E9122341
:1040B000414612EB010A494643EB010B4FF0000267
:1040C0004FF000034FEACB0343EA5A734FEACA02A8
:1040D00092469B4643461AEB0303C7F8C8304B464B
:1040E0004BEB0303C7F8CC30D7F8F4305B68002201
:1040F000C7F8C030C7F8C420D7E930120B46DB1828
:104100003B64134642EB03037B64D7E91023D7E9F2
:104110003201FCF7D1FC02460B4611463B4BA3FB98
:1041200001235B09642202FB03F3CB1ADB0003F1DA
:104130003202364BA3FB02235B095B0003F4F873E6
:104140001C44D7F8FC300022C7F8B830C7F8BC20B0
:10415000D7E92E8942464B469118B9635B41FB6310
:10416000D7E90E2341465118396349464B417B63D9
:104170004FF000024FF00003D7E90CAB5946CB00DB
:10418000514643EA51735146CA0010461946034648
:1041900042469B18C7F8B0304B460A4642EB030331
:1041A000C7F8B430D7F8F4305B680022C7F8A830FD
:1041B000C7F8AC20D7E92A120B46DB18BB621346BE
:1041C00042EB0303FB62D7E90A23D7E92C01FCF792
:1041D00073FC02460B460D4BA3FB02135B096421E3
:1041E00001FB03F3D31ADB003233084AA2FB03239B
:1041F0005B0903F00702D7F8F4301B6822449A6089
:1042000006E100BF00100140001401401F85EB5182
:10421000D7F8FC300022C7F8A030C7F8A420D7E9AF
:10422000288942464B46911839625B417B62D7E947
:10423000082341465418494643EB01054FF000025C
:104240004FF00003EB0043EA5473E20014461D46AE
:104250004346E318C7F898304B4645EB0303C7F8CD
:104260009C30D7F8F4305B680022C7F89030C7F86C
:1042700094204FF000024FF00003D7E9244529466F
:104280008B00214643EA917321468A00D7E9260133
:10429000FCF712FC02460B46604BA3FB02235B09B2
:1042A0001C01D7F8FC300022C7F88830C7F88C20F2
:1042B000D7E9228942464B469118B9615B41FB61BF
:1042C000D7E9062341465118396149464B417B6184
:1042D0004FF000024FF00003D7E904AB5946CB0082
:1042E000514643EA51735146CA00104619460346E7
:1042F00042469B18C7F880304B460A4642EB030300
:10430000C7F88430D7F8F4305B680022BB67FA67DF
:104310004FF000024FF00003D7E91E8949468B0099
:10432000414643EA917341468A00D7E92001FCF7F0
:10433000C3FB02460B461146384BA3FB01235B0926
:10434000642202FB03F3CB1A1B013233334AA2FB74
:1043500003235B0903F0F0031C44D7F8FC30002270
:104360003B677A67D7E91C8942464B469118B9608A
:104370005B41FB60D7E90223414651183960494649
:104380004B417B604FF000024FF00003D7E900ABD8
:104390005946CB00514643EA51735146CA00104674
:1043A0001946034642469B18BB664B460A4642EBFB
:1043B0000303FB66D7F8F4305B6800223B667A663D
:1043C0004FF000024FF00003D7E9188949468B00EF
:1043D000414643EA917341468A00D7E91A01FCF746
:1043E0006BFB02460B460D4BA3FB02135B096421DA
:1043F00001FB03F3D31A1B013233084AA2FB032348
:104400005B0903F00F02D7F8F4301B6822449A606E
:1044100000BF07F58077BD46BDE8B08F1F85EB5123
:10442000134B984200D070471248134A4168D0F8A5
:1044300000C0124B10B51468080A00EB0C210134BF
:10444000196014600B020E4A0E4848BF41F07F41CC
:1044500011600029B8BF1F3149110BF0BBFCBDE84A
:1044600010400449024864230422FCF74FBD00BFFA
:10447000FC970020E8970020F8970020E4970020A0
:10448000E097002000FF00082DE98048A1B0FEF76A
:1044900049FF0023CDE91433CDE91633CDE90D33BF
:1044A000CDE90F33734C0A931193216C724A41F09A
:1044B00080502064256C05F080560A960A9909936D
:1044C000176847F480431360116801F480424FF489
:1044D000800009924FF002080426099B19900125DB
:1044E0004FF48037A82312A812951397CDF8608057
:1044F000CDF870801A961D961B93FDF76DFA08B1E2
:1045000072B6FEE7CDE90E800F214FF4A0524FF4B2
:104510008050CDE910200D910DA80521FDF7D4FCA8
:104520008146002840F09180CDE91200CDE91400C9
:1045300008901690236B43F080012163226B02F0F8
:1045400080000890089BCDF81C90236B43F0040179
:104550002163226B02F004000790079BCDF81890AE
:10456000236B43F001012163226B02F001000690EE
:10457000069BCDF81490236B43F002012163226B5C
:1045800002F0020005904A4631463C48059BFEF782
:1045900093F93A4812A9CDE91265CDE91499FDF7CE
:1045A000F1FFCDF81090266B46F400132363246BC3
:1045B00004F4001104914A4649460E20049BFEF77C
:1045C0007AFE0E20FEF793FE2D482E4AC0F810907A
:1045D0004FF4E1360C23C0E90299C0E90699C0E91D
:1045E00000264361FEF70CFF002830D1264CC4E9B9
:1045F0000600A0602061206224484FF44071C4E9A5
:104600000001032220464FF47A56E2606661FCF70F
:104610003DFB0446002840F041821D480BF042FC5F
:104620002B4605251B4A1C4801942146009500F0A5
:104630007FFF10F0FF0980460BD0C0F31723174906
:1046400017484A460BF0C6FBFEE772B6FEE772B6A5
:10465000FEE7144B0B970D970DA9134F0C970BAA60
:1046600012A80E9300F048FE002800F003830F4EBE
:104670004C4622E000380240007000400004024036
:10468000C48A0020004C0040FC9700200038004005
:1046900008FF000824230020248B002028FF0008A6
:1046A00048FF00086C1E0020881E00207023002098
:1046B00056F82A2000F06CFD0134BDF856201FFA90
:1046C00084FA5245514615A8F2D8C24812A9D0F82A
:1046D00000B0006800F06EFF0290002800F05181E9
:1046E000BD4D12AA0121284600F060FD039000286C
:1046F00000F0BA82B94FDFF858E33C682B68B8493C
:10470000DEF80050DFF84CC3B648B74ADFF848A3DC
:1047100044F080463E60B54E3468C7E9023345F048
:10472000804744F080450C68356044F08045DCF8F3
:104730000040CEF800700D60076844F08045CCF86A
:10474000005003F5E85547F080461035C0E90255A2
:10475000066003F5F25017681030C1E9020003F556
:10476000A04147F080465031A14F1660C2E90211C6
:1047700003F5A5423E689E489C495032CCE902228E
:1047800003F5C85503F5B242CEE9025546F0804420
:10479000103203F5D25EC1E902EE3C608260C26075
:1047A0009448954C02682168944F954EDFF8ACC24E
:1047B000DFF8ACE242F080450560924D41F0804068
:1047C0002A682060904842F080412960056845F0E1
:1047D000804202608D488E4A016841F08045056044
:1047E00010683D6840F080413068116045F08042BB
:1047F00040F080413A607F4D316003F5B24203F5ED
:10480000BE4138327831C5E90222C4E9021103F50C
:10481000C3427C4C7C4D7F487832C4E902227B4CF9
:1048200003F5D4421832C4E9022203F5CF4103F55F
:10483000794218319832C5E90211C7E90222744D54
:1048400003F5823703F5764107F5EC741831C5E9B5
:104850000211C6E90244DAF800600568DCF800706D
:1048600045F0804247F080446B4DCCF8004046F064
:1048700080416A4CDEF8006002602A68CAF80010C5
:1048800046F080412668CEF8001042F08047644A26
:104890002F6046F08041634E17682160316847F011
:1048A0008044146041F08042326003F5833210325C
:1048B000CAE9022203F5893203F58A3A5032C0E987
:1048C00002220AF5E870CCE9020003F58E3C0CF5F3
:1048D000D872CEE9022203F5903E0EF59870C5E934
:1048E00002004E4A504F4E48504E514C514903F52C
:1048F000073505F5987AC2E902AA03F50D3E03F5DE
:10490000083C484A0CF5D8750EF5F87AC0E902550E
:10491000C2E902AA38680EF50E7540F08042C7E978
:10492000025520683A60376803F5123C47F080452D
:1049300040F080420CF51E703560C6E9020003F5B8
:10494000133603F550330F68226006F53E7E03F5FB
:10495000FC72C4E902EEC1E9022247F080450D6015
:10496000354C12AA0121204600F072FC002840F0CC
:10497000978002981322302100F0ECFC584600F09A
:10498000B1FE144A106800F0D9FC5FFA80F9804645
:1049900069F30708B9F1000F40F074810D4E3068DB
:1049A000002800F05B81254C254F002100F0D8FC49
:1049B000084A38601368002B00F04C81184600212B
:1049C00000F044FD1F4D3E68286047681E491F489F
:1049D000746847E0248B00200C8B002054200020BA
:1049E0001420002024200020042000203420002057
:1049F000E41F0020D41F0020C41F0020741F0020CB
:104A0000641F0020B41F0020A41F0020941F00205A
:104A1000841F0020441F0020141F0020041F0020BA
:104A2000F41E0020E41E0020D41E0020C41E00201E
:104A3000B41E0020A41E0020108B00202423002080
:104A4000208B00201C8B0020188B0020148B002052
:104A500044200020F41F0020541F0020341F002099
:104A6000241F00200C60076040F6B84200218748F0
:104A7000864D874E09F061FB864A874B87486B61FC
:104A80004FF40071C5E903622960012410278449AD
:104A90006C710422AF60FCF7FFFAFEE772B6FEE726
:104AA0002468804B804D814E8149AC6004F56D5A7D
:104AB0005846DFF8A8B27F4F0AF12002CBE9022264
:104AC00004F5864C7C4A0CF1080EC2E902EE04F5AE
:104AD0003B5B7A4A0BF1200AC2E902AA784A04F544
:104AE000B74CC2E902AA774A0CF1600EC2E902EEA5
:104AF00004F5974B744A0BF1200AC2E902AA04F5A7
:104B0000994C724A0CF1600EC2E902EE04F5964B24
:104B10006F4A0BF1140A04F5974CC2E902AA0CF192
:104B20003402C3E902226B4A04F5964EC2E902EE52
:104B3000694AC2E902EE694A04F5166BC2E902BB92
:104B4000674A04F52F5AC1E90244C6E902BBC2E92B
:104B500002AAEC60634D644A6449C5E902EE04F5BB
:104B60006853634D2433C5E90233624B624DC2E999
:104B70000244624AC3E90244614BC2E90244614A09
:104B8000C3E9024404F5A866C5E902445E4B04F596
:104B90000C55C2E90266C1E902555C4A04F534616C
:104BA000C3E9021104F1E00C59495A4BC2E902CCA5
:104BB00004F52875584A04F11C0EC1E90255C3E9F1
:104BC00002EE04F1FC05554BC2E9025504F51651FD
:104BD000534AC3E9021104F5B6555249524BC2E992
:104BE0000255524A524DC1E90244C3E90266514B93
:104BF000514EC2E9024404F5A051504AC5E90244AD
:104C0000C3E902114E4D4F4B04F55871C6E90244F9
:104C1000C2E9021104F5907604F51971C5E902663E
:104C2000C7E90211484D494F04F1240B04F5A2765F
:104C300004F62414C3E902BBC5E90266C7E90244CD
:104C400000F050FD00283FF49CAE039800287FF44C
:104C50009FAE96E63E483F4B2060AFE63D4D3C4957
:104C600029602C4628469FE602981222302100F047
:104C700071FB75E6384B186800F060FB80465FFA00
:104C800080F987E6C8F31723D9E400BF288B0020FA
:104C900098A704089867040888670408FC97002010
:104CA000E89700203422002024220020C422002083
:104CB000942200208420002004230020F4220020DD
:104CC000D4220020A422002074220020642200208C
:104CD000442200208422002054220020E4220020CC
:104CE000B42200201422002004220020F4210020FD
:104CF000E4210020D421002084210020B4210020C0
:104D00004421002034210020C4210020A4210020BF
:104D100094210020742100206421002054210020CF
:104D200024210020142100200421002064200020E0
:104D3000B4200020F4200020E4200020C420002023
:104D4000D4200020A42000209420002074200020E3
:104D50000001C0A124230020248B00201423002064
:104D600030B50168384A91B000239142CDE90B3348
:104D7000CDE90D330F93099301D011B030BD054635
:104D80000122C023022406A8CDE906230894FDF7DA
:104D9000B9FA002854D12D4A0390116C41F4804394
:104DA0001364146C04F48041039103990490136B11
:104DB00043F004041463116B01F004030493049999
:104DC0000590146B44F002011163126B01900224F0
:104DD0002240059205990C9405210823CDE90D0088
:104DE0000F911B480B930BA9FDF7CCFB019A1948B7
:104DF0000C944FF4A0530BA90524CDE90D220F9478
:104E00000B93FDF7BFFB144A019C144810604FF44C
:104E100080614FF480534FF48040C2E90341C2E9FE
:104E200005304FF480711046C2E90144C2E907140D
:104E30005462FDF759FD084A20B9EA6395639CE77F
:104E400072B6FEE772B6FEE7003800400038024056
:104E50000008024000040240648A002058600240BA
:104E600000B50168224B89B000229942CDE90222A7
:104E7000CDE90422069201D009B000BD03F5F63C4D
:104E80000092DCF8400040F40023CCF84030DCF81D
:104E9000400000F40023009300980192DCF83020D9
:104EA00042F00100CCF83000DCF8303011489FEDC2
:104EB0000E7B03F001024FF0080C019202A90322BD
:104EC000CDE9052C8DED027BDDF804E0FDF75AFB02
:104ED000002211463420FEF7EEF93420FEF707FADF
:104EE00009B000BDAFF30080030000000200000025
:104EF000004C00400000024010B54FF0FF33144654
:104F0000024892B2FEF7CCFA204610BDC48A0020B7
:104F1000FEE700BFFEE700BFFEE700BFFEE700BF01
:104F2000FEE700BF704700BF704700BF704700BF7B
:104F3000FEF74ABA0148FDF76FBE00BF648A002041
:104F40000148FEF739BB00BFC48A002082B00C4B79
:104F5000002100915A6C42F4804058645A6C02F46B
:104F600080400090009A0191196C41F080521A64BF
:104F70001B6C03F080500190019B02B0704700BF92
:104F8000003802400D490E4ADFF83CC008B50B68F6
:104F9000A2EB0C022BB11844904207D808601846C7
:104FA00008BD084B0B6018449042F7D909F06CF922
:104FB0000C214FF0FF330160184608BD608A0020C5
:104FC00000C00120909900200008000001207047D7
:104FD00008B509F059F9162303604FF0FF3008BDFA
:104FE00008B509F051F916230360FEE770B5151EE8
:104FF00082B050DD15F007030C4601EB050625D005
:10500000012B1DD0022B17D0032B11D0042B0BD05A
:10501000052B05D0062B41D1AFF3008004F8010B1E
:10502000AFF3008004F8010BAFF3008004F8010B2C
:10503000AFF3008004F8010BAFF3008004F8010B1C
:10504000AFF3008004F8010BA64224D0AFF3008038
:105050002146083401F8010B0191AFF30080019A59
:105060001070AFF3008004F8060CAFF3008004F872
:10507000050CAFF3008004F8040CAFF3008004F8D3
:10508000030CAFF3008004F8020CAFF30080A642DB
:1050900004F8010CDAD1284602B070BDAFF30080ED
:1050A00004F8010BB8E700BF4FF0FF30704700BFB6
:1050B0004FF400534B600020704700BF0120704741
:1050C00000207047DFF834D0FBF7D0FD0C480D49C5
:1050D0000D4A002302E0D458C4500433C4188C4253
:1050E000F9D30A4A0A4C002301E013600432A242B9
:1050F000FBD309F0CFF8FFF7C7F9704700C00120D4
:10510000000000203C25002018EB04083C2500206E
:1051100090990020FEE7000060B330B40368164D9C
:10512000846923F07E4323F40003AB4262681BD002
:10513000037D4169A3F10103B3FA83F35B09B3EB88
:10514000112FC1F317200BDA012B02D1022807D04F
:10515000022354F823100133984201FB02F2F3D1E9
:1051600022EAE27030BC70470029E1D01F3222F001
:105170001F02DDE7704700BFC000040038B143687C
:1051800023B14088003818BF012070471846704787
:1051900058B1436843B1408838B1C1EBC10103EB5A
:1051A000810301205A60704718467047F2B1F8B584
:1051B0000546C8B10C46B9B1244B11689942164650
:1051C0000BD0566886B137689F4211D00660A4F1B3
:1051D0000100B0FA80F04009F8BD101DFFF7CEFFC6
:1051E00010B1F3889C421BD00020F8BD002070470E
:1051F00031460438002304E001339C4240F8042F78
:1052000005D051F8042FBA42F6D19C42ECD10134BA
:105210000E4B56F82400C01AB0FA80F04009F8BDD1
:105220000021281F8C4605E00CF1010C644540F874
:10523000043F05D0B3680B441C315B68002BF3D1ED
:10524000A4EB0C00B0FA80F04009F8BDDECAFAA168
:10525000FAB1F8B50546D0B10C46C1B1254B11687D
:10526000994216460BD0166A8EB137689F4212D00B
:105270000660A4F10100B0FA80F04009F8BD02F127
:105280000C00FFF77BFF10B1F3899C421BD000207C
:10529000F8BD0020704731460438002304E0013394
:1052A0009C4240F8042F05D051F8042FBA42F6D1A1
:1052B0009C42ECD101340F4B56F82400C01AB0FACE
:1052C00080F04009F8BD0021281F8C4605E00CF154
:1052D000010C644540F8043F05D033690B441C3190
:1052E0005B68002BF3D1A4EB0C00B0FA80F040090E
:1052F000F8BD00BFDECAFAA1A0B1B1B1C2B110B40D
:1053000003460D4C43F8044B00F10C0C03C983E831
:10531000030092E803008CE80300012318465DF8BF
:10532000044B70470346184670470B4618467047B3
:1053300013461846704700BFDECAFAA1044B026844
:10534000934302D10C3000F0FDB941F210007047D8
:105350000001C0A110B10C3000F0FAB9704700BFD5
:10536000394B0268934363D12DE9F04F038E85B02A
:1053700005460C46002B4ED0476B002F4BD04FF00C
:10538000000BCDE902015E46BA4616E00199012202
:105390007A50A1694C6828604FF001022A7568694B
:1053A000AB6068F31F200023C5E90334C5E9050994
:1053B000C5F804C001360BF11C0BBAF80030F2003E
:1053C000B342019236D9DAF80430002B32D053F8C8
:1053D00026407CB3DAF80830A269D4F80C90106843
:1053E000D3E90157A368C3F3172807F037FBA16976
:1053F00007EBC603D1F808C05D44002BCAD00021DA
:1054000047F836102168596011B149880029BDD18B
:10541000A1690023BEE71822112105F10C00002626
:1054200000F096F9304604B1268005B0BDE8F08F53
:1054300000207047B6B2DDE90254002EEBD0DAF856
:1054400008305868EFE700BF0001C0A1374B026881
:10545000934369D12DE9F04F038E012B85B00546AA
:105460000C464BD9476B4FF0000BCDE902015E466D
:10547000D846BA4616E0019901227A50A9694D68CA
:1054800020604FF0010222756069C4F804C069F31E
:105490001F20C4E90450C4E90238009BA36101360F
:1054A0000BF11C0BBAF80C30F200B342019232D966
:1054B000DAF810307BB353F8265065B3DAF81430BD
:1054C000AA69D3E90147AB681068C3F31729EB68F1
:1054D000009307F0C3FAA96907EBC603D1F808C027
:1054E0005C44002BCBD047F836802968596011B155
:1054F00049880029BFD1A9690023C0E718221121DA
:1055000005F10C00002600F023F9304604B1268096
:1055100005B0BDE8F08FB6B2DDE90254002EEDD043
:10552000DAF814305868F1E7002070470001C0A194
:105530002DE9F04383B09DF828809DF82C9020B38E
:10554000026016461F46044600F0FAF870B930258E
:105550000023236010244A464146384607F00CFBDE
:10556000B06045EA042003B0BDE8F0830022414664
:10557000384607F001FB002205460521012007F00F
:10558000FBFA854208D00125E2E710252C4645EAC2
:10559000042003B0BDE8F083054B019301A800F09F
:1055A000E3F810B100242546D5E70225D0E700BF77
:1055B000038404842DE9F843484A044600680B46F6
:1055C00000EA020182433BD1002B78D0444A1D6897
:1055D00095420AD18842D3E90325D3E901633DD03E
:1055E000032323612046BDE8F883012118461D46A8
:1055F000D3F80480FFF790FD05F11C070646012152
:105600003846D5F82090FFF787FD002E0ABF3146B7
:1056100001213546B0B1B9F1000F57D04FF0010E5E
:10562000B8F1000F11D02D4B22689A42D8D1638C6B
:105630008B421BD21222162104F10C0000F088F8D4
:105640000020D0E707468646EAE7002EEBD012227C
:10565000102104F10C0000F07BF8F1E7C4E90863C5
:10566000E562A262204600F0A9F8B9E7E1B1AC46D4
:10567000BCE80F00656A0FC59CE8070085E80700D5
:10568000638D4FF480367345266211D3BEF1000F4F
:1056900007D03E460FCEE56A0FC596E8070085E8BD
:1056A00007004FEA0E42DCE7638D21627345EDD2BD
:1056B0001322162104F10C0000F04AF8C0E7112271
:1056C000102104F10C0000F043F8B9E71322102177
:1056D00004F10C0000F03CF8B2E700BF0001C0A1EB
:1056E000DECAFAA1154B026802EA0301934323D1F3
:1056F00070B503699B07044603D58A4208D0012090
:1057000070BD102211210C3000F022F8002070BD75
:1057100000F064F8266C002EF1D0A56B002DEED0C1
:10572000626C29460020B0472B69AB42E7D0002BC2
:10573000E5D0266C1D46F3E7002070470001C0A1AC
:10574000012070470346002200681A60704700BFBE
:105750000346007808B1002070471970196862F399
:105760001F2101201960704782B0134B019318B1BB
:105770000378032B02D0002002B070479DF804206C
:10578000934204D0012080F0010002B070474278BB
:105790009DF805309A4200F10100F3D110F8012F75
:1057A0009DF806309A42EDD142789DF807309A4232
:1057B000E8D10020E7E700BF03840484836B01463F
:1057C00053B100201A46D9601B69934200F10100D1
:1057D00003D0002BF6D170471846704738B5846B5C
:1057E000B4B16368DB074FF0000504D5236A204697
:1057F0000BB1984701352369A34207D033B11C464A
:105800006368DB07F2D42369A342F7D1284638BD89
:105810002546284638BD00BF704700BF82691388FF
:105820000BB95B68FFDE2DE9F04F2DED028B52685E
:10583000D2F80490D5B08046B9F1000F01D0D9F864
:105840000090012B00F0668211691D9109B1096871
:105850001D91022B00F04F82D169002900F0578280
:10586000108BD1F800A0012840F2578248681690AA
:10587000032B00F05782936AD8F82420002B00F005
:105880004F821868279058681490002A00F03A82D6
:105890009B681A9333920346DB68D9F80C605F6803
:1058A0001D9BD8F83C50DB68DAF80CC0D8689B68C0
:1058B00021903A93D6E902301C93B8F828307268E8
:1058C0003593AB88159237932A68AB68DCF808509B
:1058D0002695DCF804503895D8F84450D8F858E0AC
:1058E0003B95D8F84C50D8F82C4018973C95D8F8F0
:1058F00050501B95DEF800502895DEF804503D9579
:10590000BDF854503495BDB22295A5B2369595B2E6
:105910001795002900F0E6818968002900F0E281EE
:105920008D69002D08BF2946299192B226991D9FA5
:1059300012FA83F3024403441F92A2B224925B1A28
:10594000B3FBF2F345AA529240F201454FF0807248
:10595000CDE94E2540F202451A995195149D8E6964
:10596000BF69AD692A9703F1010B0023CDE94133EB
:10597000CDE945334D9343934793449348935393D1
:10598000D8F8483023930DF5827CD8F85C30CDF8F8
:1059900040C149AC4DA8399307F0CCF931462046B7
:1059A00007F0FAF914995394CB68D9F80020D3F88A
:1059B00008C0279BDAF800E09B69BDF9A0409B680E
:1059C0002D930B68002A00F073815168002900F0C4
:1059D0006F815088002800F06B81096891ED008A82
:1059E000002B00F062815968002900F05E81588820
:1059F000002800F05A810968D1ED008A1699D9F87B
:105A000018908969DAF818008968D9F808708068F0
:105A1000309198F8411019972F902E91BEF1000FF8
:105A200006D0DEF804E0BEF1000F01D0DEF800E0A1
:105A3000002A00F051815168002900F061815288EC
:105A4000002A00F049814A6892F900202B92002B2D
:105A500000F046815A68002A00F050815B88002BD4
:105A600000F03E81536893F900302C93219B002B6A
:105A700000F00F81BDF860301C99BDF85420DDF8AE
:105A8000989018940CFB03F325931FFA8CF3209342
:105A9000249BCDF8C8E001FB03F302FB03F33E9324
:105AA00001FB02F33F938BB231934FF0000ABDF933
:105AB0008C301E93CDF870A0B9E0289BAA6815928F
:105AC000A34206BFBAFA8AF35B0900231693279B09
:105AD0009869D0E9000107F031F8169B10932E9BCE
