:020000040800F2
:1000000000C001205D7E0008417C0008457C00089E
:10001000597C00086D7C0008817C0008000000000D
:10002000000000000000000000000000957C0008B7
:10003000997C0008000000009D7C0008A17C00085D
:10004000AD7E0008AD7E0008AD7E0008AD7E0008E4
:10005000AD7E0008AD7E0008AD7E0008AD7E0008D4
:10006000AD7E0008AD7E0008AD7E0008AD7E0008C4
:10007000AD7E0008AD7E0008A57C0008AD7E0008BE
:10008000AD7E0008AD7E0008AD7E0008AD7E0008A4
:10009000AD7E0008AD7E0008AD7E0008AD7E000894
:1000A000AD7E0008AD7E0008AD7E0008AD7E000884
:1000B000AD7E0008AD7E0008AD7E0008AD7E000874
:1000C000AD7E0008AD7E0008AD7E0008AD7E000864
:1000D000AD7E0008AD7E0008AD7E0008AD7E000854
:1000E000AD7E0008AD7E0008AD7E0008AD7E000844
:1000F000AD7E0008AD7E0008AD7E0008AD7E000834
:10010000AD7E0008AD7E0008AD7E0008AD7E000823
:10011000B17C0008AD7E0008AD7E0008AD7E000811
:10012000AD7E0008AD7E0008AD7E0008AD7E000803
:10013000AD7E0008AD7E0008AD7E0008AD7E0008F3
:10014000AD7E0008AD7E0008AD7E0008AD7E0008E3
:10015000AD7E0008AD7E0008AD7E0008AD7E0008D3
:10016000AD7E0008AD7E0008AD7E0008AD7E0008C3
:10017000AD7E0008AD7E0008AD7E000800000000E6
:08018000AD7E0008AD7E000811
:1001900081F0004102E000BF83F0004330B54FEA38
:1001A00041044FEA430594EA050F08BF90EA020FA5
:1001B0001FBF54EA000C55EA020C7FEA645C7FEA38
:1001C000655C00F0E2804FEA5454D4EB5555B8BF5B
:1001D0006D420CDD2C4480EA020281EA030382EACC
:1001E000000083EA010180EA020281EA0303362D5E
:1001F00088BF30BD11F0004F4FEA01314FF4801C31
:100200004CEA113102D0404261EB410113F0004F42
:100210004FEA03334CEA133302D0524263EB4303F9
:1002200094EA050F00F0A780A4F10104D5F1200E97
:100230000DDB02FA0EFC22FA05F2801841F10001F2
:1002400003FA0EF2801843FA05F359410EE0A5F1C6
:1002500020050EF1200E012A03FA0EFC28BF4CF0F7
:10026000020C43FA05F3C01851EBE37101F00045AD
:1002700007D54FF0000EDCF1000C7EEB00006EEBBA
:100280000101B1F5801F1BD3B1F5001F0CD3490844
:100290005FEA30004FEA3C0C04F101044FEA44529B
:1002A00012F5800F80F09A80BCF1004F08BF5FEA22
:1002B000500C50F1000041EB045141EA050130BD02
:1002C0005FEA4C0C404141EB0101013C28BFB1F514
:1002D000801FE9D291F0000F04BF01460020B1FA5F
:1002E00081F308BF2033A3F10B03B3F120020CDA32
:1002F0000C3208DD02F1140CC2F10C0201FA0CF010
:1003000021FA02F10CE002F11402D8BFC2F1200C74
:1003100001FA02F120FA0CFCDCBF41EA0C0190402A
:10032000E41AA2BF01EB0451294330BD6FEA040473
:100330001F3C1CDA0C340EDC04F11404C4F120025E
:1003400020FA04F001FA02F340EA030021FA04F370
:1003500045EA030130BDC4F10C04C4F1200220FAC7
:1003600002F001FA04F340EA0300294630BD21FA05
:1003700004F0294630BD94F0000F83F4801306BFCB
:1003800081F480110134013D4EE77FEA645C18BFBF
:100390007FEA655C29D094EA050F08BF90EA020F56
:1003A00005D054EA000C04BF1946104630BD91EA4E
:1003B000030F1EBF0021002030BD5FEA545C05D151
:1003C0004000494128BF41F0004130BD14F5800490
:1003D0003CBF01F5801130BD01F0004545F0FE4104
:1003E00041F470014FF0000030BD7FEA645C1ABF39
:1003F000194610467FEA655C1CBF0B46024650EA70
:10040000013406BF52EA033591EA030F41F400219B
:1004100030BD00BF90F0000F04BF0021704730B521
:100420004FF4806404F132044FF000054FF00001F6
:1004300050E700BF90F0000F04BF0021704730B5B7
:100440004FF4806404F1320410F0004548BF40428C
:100450004FF000013EE700BF42004FEAE2014FEAE1
:1004600031014FEA02701FBF12F07F4393F07F4FBC
:1004700081F06051704732F07F4208BF704793F0BF
:100480007F4F04BF41F40021704730B54FF46074D2
:1004900001F0004521F000411CE700BF50EA0102D5
:1004A00008BF704730B54FF000050AE050EA01027E
:1004B00008BF704730B511F0004502D5404261EBEE
:1004C00041014FF4806404F132045FEA915C3FF42F
:1004D000D8AE4FF003025FEADC0C18BF03325FEACC
:1004E000DC0C18BF033202EBDC02C2F1200300FA7D
:1004F00003FC20FA02F001FA03FE40EA0E0021FAA2
:1005000002F11444BDE600BF70B54FF0FF0C4CF48F
:10051000E06C1CEA11541DBF1CEA135594EA0C0F41
:1005200095EA0C0F00F0DEF82C4481EA030621EA7C
:100530004C5123EA4C5350EA013518BF52EA0335B7
:1005400041F4801143F4801338D0A0FB02CE4FF069
:100550000005E1FB02E506F00042E0FB03E54FF099
:100560000006E1FB03569CF0000F18BF4EF0010E91
:10057000A4F1FF04B6F5007F64F5407404D25FEA8D
:100580004E0E6D4146EB060642EAC62141EA555140
:100590004FEAC52040EA5E504FEACE2EB4F1FD0C82
:1005A00088BFBCF5E06F1ED8BEF1004F08BF5FEA00
:1005B000500E50F1000041EB045170BD06F00046B2
:1005C00046EA010140EA020081EA0301B4EB5C045F
:1005D000C2BFD4EB0C0541EA045170BD41F4801157
:1005E0004FF0000E013C00F3AB8014F1360FDEBF7C
:1005F000002001F0004170BDC4F10004203C35DA58
:100600000C341BDC04F11404C4F1200500FA05F3DA
:1006100020FA04F001FA05F240EA020001F000427B
:1006200021F0004110EBD37021FA04F642EB0601F1
:100630005EEA430E08BF20EAD37070BDC4F10C041B
:10064000C4F1200500FA04F320FA05F001FA04F2DF
:1006500040EA020001F0004110EBD37041F10001CB
:100660005EEA430E08BF20EAD37070BDC4F12005D6
:1006700000FA05F24EEA020E20FA04F301FA05F23E
:1006800043EA020321FA04F001F0004121FA04F2E6
:1006900020EA020000EBD3705EEA430E08BF20EAB6
:1006A000D37070BD94F0000F0FD101F000464000F0
:1006B00041EB010111F4801F08BF013CF7D041EA72
:1006C000060195F0000F18BF704703F00046520076
:1006D00043EB030313F4801F08BF013DF7D043EA47
:1006E0000603704794EA0C0F0CEA135518BF95EAFD
:1006F0000C0F0CD050EA410618BF52EA4306D1D184
:1007000081EA030101F000414FF0000070BD50EAA2
:10071000410606BF1046194652EA430619D094EA2C
:100720000C0F02D150EA013613D195EA0C0F05D116
:1007300052EA03361CBF104619460AD181EA03016A
:1007400001F0004141F0FE4141F470014FF0000022
:1007500070BD41F0FE4141F4780170BD70B54FF0BD
:10076000FF0C4CF4E06C1CEA11541DBF1CEA13553D
:1007700094EA0C0F95EA0C0F00F0A7F8A4EB05041F
:1007800081EA030E52EA03354FEA013100F0888016
:100790004FEA03334FF0805545EA131343EA1263DF
:1007A0004FEA022245EA111545EA10654FEA002694
:1007B0000EF000419D4208BF964244F1FD0404F54D
:1007C000407402D25B084FEA3202B61A65EB0305A9
:1007D0005B084FEA32024FF480104FF4002CB6EB66
:1007E000020E75EB030E22BFB61A754640EA0C00E6
:1007F0005B084FEA3202B6EB020E75EB030E22BF26
:10080000B61A754640EA5C005B084FEA3202B6EB66
:10081000020E75EB030E22BFB61A754640EA9C0025
:100820005B084FEA3202B6EB020E75EB030E22BFF5
:10083000B61A754640EADC0055EA060E18D04FEAB3
:10084000051545EA16754FEA06164FEAC30343EA53
:1008500052734FEAC2025FEA1C1CC0D111F4801F20
:100860000BD141EA00014FF000004FF0004CB6E719
:1008700011F4801F04BF01430020B4F1FD0C88BFB8
:10088000BCF5E06F3FF6AFAEB5EB030C04BFB6EBC3
:10089000020C5FEA500C50F1000041EB045170BDB6
:1008A0000EF0004E4EEA113114EB5C04C2BFD4EBE3
:1008B0000C0541EA045170BD41F480114FF0000E67
:1008C000013C90E645EA060E8DE60CEA135594EAE3
:1008D0000C0F08BF95EA0C0F3FF43BAF94EA0C0FE6
:1008E0000AD150EA01347FF434AF95EA0C0F7FF45B
:1008F00025AF104619462CE795EA0C0F06D152EAAF
:1009000003353FF4FDAE1046194622E750EA410692
:1009100018BF52EA43067FF4C5AE50EA41047FF4A3
:100920000DAF52EA43057FF4EBAE12E74FF0FF3C08
:1009300006E000BF4FF0010C02E000BF4FF0010CD9
:100940004DF804CD4FEA410C7FEA6C5C4FEA430C52
:1009500018BF7FEA6C5C1BD001B050EA410C0CBFA1
:1009600052EA430C91EA030F02BF90EA020F002003
:10097000704710F1000F91EA030F58BF994208BF6A
:1009800090422CBFD8176FEAE37040F00100704727
:100990004FEA410C7FEA6C5C02D150EA013C07D17E
:1009A0004FEA430C7FEA6C5CD6D152EA033CD3D0C9
:1009B0005DF8040B704700BF8446104662468C46C3
:1009C0001946634600E000BF01B5FFF7B7FF0028F6
:1009D00048BF10F1000F01BD4DF808EDFFF7F4FF1F
:1009E0000CBF012000205DF808FB00BF4DF808EDAA
:1009F000FFF7EAFF34BF012000205DF808FB00BFCD
:100A00004DF808EDFFF7E0FF94BF012000205DF8EE
:100A100008FB00BF4DF808EDFFF7CEFF94BF0120A3
:100A200000205DF808FB00BF4DF808EDFFF7C4FF9C
:100A300034BF012000205DF808FB00BF4FEA410CE5
:100A40007FEA6C5C02D150EA013C0AD14FEA430CC8
:100A50007FEA6C5C02D152EA033C02D14FF0000005
:100A600070474FF0010070474FEA410212F5001243
:100A700015D211D56FF47873B3EB625212D94FEAE5
:100A8000C12343F0004343EA505311F0004F23FACF
:100A900002F018BF404270474FF00000704750EA24
:100AA000013005D111F0004008BF6FF000407047E1
:100AB0004FF00000704700BF53B94AB9002908BF82
:100AC00000281CBF4FF0FF314FF0FF3000F00CB892
:100AD000ADF1080C6DE904CE0FF0F4FDDDF804E093
:100AE000DDE9022304B07047704700BF4A0011D20D
:100AF00012F5001211D20DD56FF47873B3EB625278
:100B00000ED44FEAC12343F0004343EA505323FA83
:100B100002F070474FF00000704750EA013002D1F8
:100B20004FF0FF3070474FF00000704700000000AA
:100B300001F0FF01102A2BDB10F0070F08D010F88E
:100B4000013B013A8B422DD010F0070F42B3F6D192
:100B5000F0B441EA012141EA014122F007047FF0AB
:100B600000070023F0E80256083C85EA010586EA02
:100B7000010685FA47F5A3FA87F586FA47F6A5FA3E
:100B800087F68EB9EED1F0BC01F0FF0102F007024A
:100B900032B110F8013B013A83EA010313B1F8D1F5
:100BA0000020704701387047002D06BF35460338D6
:100BB000073815F0010F07D1013015F4807F02BF0F
:100BC000013015F4C03F0130F0BC0138704700BF60
:100BD000034613F8012B002AFBD1181A013870477D
:100BE0000348044B834202D0034B03B118477047BC
:100BF0003C2500203C250020000000000548064B55
:100C00001B1AD90F01EBA301491002D0034B03B10A
:100C1000184770473C2500203C25002000000000BC
:100C200010B5064C237843B9FFF7DAFF044B13B134
:100C30000448AFF300800123237010BD402500203D
:100C4000000000002C34010808B5054B1BB1054914
:100C50000548AFF30080BDE80840FFF7CFBF00BFF5
:100C600000000000442500202C34010880B400AFAF
:100C7000054BD3F88830044A43F47003C2F8883037
:100C800000BFBD4680BC704700ED00E080B588B075
:100C900000AF78607B68002B01D1012328E17B68DD
:100CA00093F84130DBB2002B09D17B68002283F836
:100CB00040207B68904A5A63786806F0E7FE7B68BC
:100CC000022283F841207B681B68DB697A6812681E
:100CD00023F47B6323F00F03D3617B681B6802223C
:100CE0001A627B685B69022B60D07B68DB68002B33
:100CF00002D110237B6101E020237B617B689B682C
:100D0000202B02D87B695B007B61012001F0D4FAC3
:100D1000F8607B681B69B3F5007F25D17B68DB68D1
:100D2000002B10D07B699B00FA68B2FBF3F21346EC
:100D30009B0013445B001A467B685B69B2FBF3F3CC
:100D400005333B611FE07B69DB00FA68B2FBF3F21D
:100D500013469B0013445B001A467B685B69B2FB39
:100D6000F3F305333B610EE0FA687B69B2FBF3F203
:100D700013469B0013445B001A467B685B69B2FB19
:100D8000F3F305333B613B695C4AA2FB0323DB08B9
:100D90003B613B6903F00103BB613A69BB69D31A4C
:100DA0005B08FB61BB691B02BB6103E00223FB61C3
:100DB0000023BB61FB69012B02D9FB69FF2B07D91B
:100DC0007B685B6C43F010027B685A6401238FE000
:100DD0007B681A69BB6942EA03017B681B68FA6990
:100DE0000A431A627B681B68DB6923F47B6323F088
:100DF0000F037A6851687A68926811437A68D268FA
:100E000011437A6892690A431A437B681B6842F46B
:100E10000062DA617B681B6A012B61D17B68384A0A
:100E20005A637B681B68374A934201D1364B01E015
:100E30004FF04023DB697A68126832498A4201D157
:100E4000314A01E04FF0402223F47B6323F00F038B
:100E5000D3617B681B682B4A934201D12A4B01E086
:100E60004FF0402302221A627B681B68254A934296
:100E700001D1254B01E04FF04023DB697B817B688A
:100E80005B68B3F5007F03D07B685B68002B03D100
:100E90004FF480733B6101E000233B613B699AB2F0
:100EA0007B689B689BB213439AB27B68DB689BB2FA
:100EB00013439AB27B689B699BB213439AB27B89B6
:100EC00013439BB243F400637B817B681B680D4A2C
:100ED000934201D10C4B01E04FF040237A89DA6153
:100EE0007B6800225A647B68012283F8412000233A
:100EF00018462037BD4680BD05120008CDCCCCCCAD
:100F000019130008003800400034004080B586B056
:100F100000AFF860B9601346FB80BB68002B02D0BD
:100F2000FB88002B01D101239DE0FB6893F8413041
:100F3000DBB2012B01D0022395E0FB6893F840302F
:100F4000DBB2012B01D102238DE0FB68012283F883
:100F50004020FB68042283F84120FB6800225A6489
:100F6000FB68BA68DA62FB681B68DB6903F0070399
:100F70007B617B69032B02D07B69052B0AD1FB883F
:100F80005B009AB2FB681A86FB885B009AB2FB682A
:100F90005A8605E0FB68FA881A86FB68FA885A8642
:100FA000FB68DB6B324A1A64FB68DB6B314ADA633D
:100FB000FB68DB6B304ADA64FB681B68DB6903F4AF
:100FC0004073B3F5407F0AD100233B61FB681B6887
:100FD000DB683B61FB681B689B683B613B69FB68A6
:100FE000D86BFB681B680C331946FB68DB6A1A4632
:100FF000FB681B8E9BB201F01DFC0346002B0FD03B
:10100000FB685B6C43F00802FB685A64FB680122D2
:1010100083F84120FB68002283F84020012322E06E
:10102000FB68002283F84020FB681B685B6803F0C4
:101030000103002B07D1FB681B685A68FB681B681B
:1010400042F001025A60FB681B68DB6903F48063AD
:10105000002B07D1FB681B68DA69FB681B6842F448
:101060008062DA61002318461837BD4680BD00BF94
:10107000E3100008A1100008FF10000880B483B03E
:1010800000AF786000BF0C37BD4680BC704780B4AD
:1010900083B000AF786000BF0C37BD4680BC70479E
:1010A00080B584B000AF78607B689B6BFB607B6829
:1010B000DB69002B0ED1FB681B685A68FB681B6854
:1010C00022F001025A60FB6800225A86FB68012266
:1010D00083F84120F86806F0B7FE00BF1037BD4620
:1010E00080BD80B584B000AF78607B689B6BFB608F
:1010F000F86806F09FFE00BF1037BD4680BD80B582
:1011000084B000AF78607B689B6BFB60FB681B68FA
:101110005A68FB681B6822F003025A60FB680022D1
:101120005A85FB6800225A86FB68012283F8412019
:10113000FB685B6C43F00802FB685A64F868FFF7D1
:10114000A6FF00BF1037BD4680BD80B582B000AF9E
:1011500078607B685B6A1A887B681B68DA607B68EA
:101160005B6A9A1C7B685A627B685B8D9BB2013B11
:101170009AB27B685A857B685B8D9BB2002B0ED13F
:101180007B681B685A687B681B6822F0A0025A6063
:101190007B68012283F841207868FFF76FFF00BF6A
:1011A0000837BD4680BD80B582B000AF78607B68EF
:1011B0001B68DA687B68DB6A92B21A807B68DB6A3C
:1011C0009A1C7B68DA627B685B8E9BB2013B9AB2A9
:1011D0007B685A867B685B8E9BB2002B0ED17B6846
:1011E0001B685A687B681B6822F060025A607B6843
:1011F000012283F84120786806F026FE00BF0837F8
:10120000BD4680BD80B586B000AF78607B681B6846
:101210009B687B617B6893F84130DBB2042B3AD149
:101220007B6903F00103012B09D17B681B685B68B4
:1012300003F04003402B02D17868FFF7B4FF7B69CD
:1012400003F04003402B26D17B681B685B6803F0EA
:101250002003202B1FD17B681B685A687B681B68A2
:1012600022F060025A6000233B617B681B68DB68E8
:101270003B617B681B689B683B613B697B68012223
:1012800083F841207B685B6C43F002027B685A6400
:101290007868FFF7FCFE7B6893F84130DBB2032BE4
:1012A00036D17B6903F00203022B09D17B681B68EE
:1012B0005B6803F08003802B02D17868FFF745FF5D
:1012C0007B6903F00803082B22D17B681B685B68ED
:1012D00003F02003202B1BD17B681B685A687B68B6
:1012E0001B6822F0A0025A600023FB607B681B6829
:1012F0009B68FB60FB687B68012283F841207B6868
:101300005B6C43F004027B685A647868FFF7BFFEA9
:1013100000BF1837BD4680BD80B588B000AF78608B
:101320007B681B689B68FB617B681B68924A9342E1
:1013300001D1924B01E04FF040239B68BB617B6879
:101340001B685B687B617B681B688B4A934201D199
:101350008A4B01E04FF040235B683B617B685B6830
:10136000B3F5007F04D07B685B68002B40F0998068
:10137000FB6903F00203022B07D17B6903F08003B2
:10138000002B02D0786800F024F9BB6903F0010358
:10139000012B07D13B6903F04003002B02D0786892
:1013A00000F0C6F9BB6903F04003402B3AD13B691A
:1013B00003F02003002B35D07B681B686E4A9342F4
:1013C00001D16E4B01E04FF040235A687B681B68E7
:1013D00069498B4201D1694B01E04FF0402322F073
:1013E00060025A607B681B685A687B681B6822F041
:1013F000A0025A600023FB607B681B68DB68FB600F
:101400007B681B689B68FB60FB687B68012283F834
:1014100041207B685B6C43F002027B685A64786809
:10142000FFF735FEFB6903F00803082B40F0C3808B
:101430007B6903F02003002B00F0BD807B681B68F4
:101440005A687B681B6822F0A0025A607B681B68A0
:10145000494A934201D1494B01E04FF040235A6879
:101460007B681B6844498B4201D1444B01E04FF03B
:10147000402322F060025A600023BB607B681B6837
:101480009B68BB60BB687B68012283F841207B6856
:101490005B6C43F004027B685A647868FFF7F7FDE1
:1014A00089E0BB6903F00203022B07D13B6903F01B
:1014B0008003002B02D0786800F0BCF8FB6903F0D1
:1014C0000103012B07D17B6903F04003002B02D0FD
:1014D000786800F0FBF8FB6903F04003402B2FD144
:1014E0007B6903F02003002B2AD07B681B685A68B5
:1014F0007B681B6822F060025A607B681B681E4A8A
:10150000934201D11D4B01E04FF040235A687B68A4
:101510001B6819498B4201D1184B01E04FF0402361
:1015200022F0A0025A607B68012283F841207B6888
:101530005B6C43F002027B685A647868FFF7A7FD92
:10154000BB6903F00803082B36D13B6903F0200385
:10155000002B31D07B681B68074A934201D1074BAF
:1015600001E04FF040235A687B681B6802498B42B8
:1015700006D1024B06E000BF0038004000340040B6
:101580004FF0402322F0A0025A607B681B685A6823
:101590007B681B6822F060025A607B68012283F836
:1015A00041207B685B6C43F004027B685A64786876
:1015B000FFF76DFD00E000BF00BF2037BD4680BDD6
:1015C00080B483B000AF786000BF0C37BD4680BCEC
:1015D000704780B582B000AF78607B685B6A991C09
:1015E0007A6851621A887B681B68DA607B685B8D59
:1015F0009BB2013B9AB27B685A857B685B8D9BB23C
:10160000002B13D17B681B685A687B681B6822F02B
:10161000A0025A607B685B8E9BB2002B06D17B6870
:10162000012283F841207868FFF7CAFF00BF08371E
:10163000BD4680BD80B582B000AF78607B685B6AD4
:10164000991C7A68516219887B681B681D4A93420D
:1016500001D11D4B01E04FF040230A46DA607B6860
:101660005B8D9BB2013B9AB27B685A857B685B8D30
:101670009BB2002B21D17B681B68124A934201D197
:10168000114B01E04FF040235A687B681B680D49FD
:101690008B4201D10C4B01E04FF0402322F0A0021D
:1016A0005A607B685B8E9BB2002B06D17B6801225F
:1016B00083F841207868FFF783FF00BF0837BD46F5
:1016C00080BD00BF003800400034004080B582B0CB
:1016D00000AF78607B681B68D8687B68DB6A991C00
:1016E0007A68D16282B21A807B685B8E9BB2013BC2
:1016F0009AB27B685A867B685B8E9BB2002B13D1B3
:101700007B681B685A687B681B6822F060025A601D
:101710007B685B8D9BB2002B06D17B68012283F82E
:1017200041207868FFF74CFF00BF0837BD4680BDF9
:1017300080B582B000AF78607B681B68204A934216
:1017400001D1204B01E04FF04023D8687B68DB6A71
:10175000991C7A68D16282B21A807B685B8E9BB2D8
:10176000013B9AB27B685A867B685B8E9BB2002BEA
:1017700021D17B681B68124A934201D1114B01E0D1
:101780004FF040235A687B681B680D498B4201D19A
:101790000C4B01E04FF0402322F060025A607B685E
:1017A0005B8D9BB2002B06D17B68012283F8412020
:1017B0007868FFF705FF00BF0837BD4680BD00BF52
:1017C000003800400034004080B586B000AF78603B
:1017D0007B68002B01D1012367E27B681B6803F063
:1017E0000103002B75D0884B9B6803F00C03042B7E
:1017F0000CD0854B9B6803F00C03082B12D1824B55
:101800005B6803F48003B3F5800F0BD17E4B1B683C
:1018100003F40033002B5BD07B685B68002B57D14F
:10182000012342E27B685B68B3F5803F06D1764BCB
:101830001B68754A43F4803313601DE07B685B6866
:10184000B3F5A02F0CD1704B1B686F4A43F4802373
:1018500013606D4B1B686C4A43F4803313600BE0DC
:10186000694B1B68684A23F480331360664B1B681E
:10187000654A23F4802313607B685B68002B13D0D8
:1018800001F0ACFC386108E001F0A8FC02463B69BD
:10189000D31A642B01D9032307E25B4B1B6803F4C3
:1018A0000033002BF0D014E001F098FC386108E020
:1018B00001F094FC02463B69D31A642B01D903233F
:1018C000F3E1514B1B6803F40033002BF0D100E02F
:1018D00000BF7B681B6803F00203002B63D04A4BF8
:1018E0009B6803F00C03002B0BD0474B9B6803F065
:1018F0000C03082B1CD1444B5B6803F48003002BC2
:1019000016D1414B1B6803F00203002B05D07B6806
:10191000DB68012B01D00123C7E13B4B1B6823F09F
:10192000F8027B681B69DB00374913430B603AE020
:101930007B68DB68002B20D0344B01221A6001F059
:101940004DFC386108E001F049FC02463B69D31ABE
:10195000022B01D90323A8E12B4B1B6803F00203E0
:10196000002BF0D0284B1B6823F0F8027B681B6922
:10197000DB00254913430B6015E0244B00221A605D
:1019800001F02CFC386108E001F028FC02463B69BC
:10199000D31A022B01D9032387E11B4B1B6803F0E9
:1019A0000203002BF0D17B681B6803F00803002BB7
:1019B00036D07B685B69002B16D0154B01221A606C
:1019C00001F00CFC386108E001F008FC02463B69BC
:1019D000D31A022B01D9032367E10B4B5B6F03F092
:1019E0000203002BF0D01BE0094B00221A6001F02B
:1019F000F5FB38610EE001F0F1FB02463B69D31ABA
:101A0000022B07D9032350E100380240000047426F
:101A1000800E4742884B5B6F03F00203002BEAD134
:101A20007B681B6803F00403002B00F09780002301
:101A3000FB75814B1B6C03F08053002B0FD10023EF
:101A4000BB607D4B1B6C7C4A43F0805313647A4B24
:101A50001B6C03F08053BB60BB680123FB75774BA5
:101A60001B6803F48073002B18D1744B1B68734AF6
:101A700043F48073136001F0B1FB386108E001F0BA
:101A8000ADFB02463B69D31A022B01D903230CE1BB
:101A90006A4B1B6803F48073002BF0D07B689B6853
:101AA000012B06D1644B1B6F634A43F0010313679C
:101AB0001CE07B689B68052B0CD15F4B1B6F5E4A5B
:101AC00043F0040313675C4B1B6F5B4A43F0010355
:101AD00013670BE0584B1B6F574A23F00103136742
:101AE000554B1B6F544A23F0040313677B689B68B4
:101AF000002B15D001F072FB38610AE001F06EFB9B
:101B000002463B69D31A41F28832934201D903233A
:101B1000CBE0494B1B6F03F00203002BEED014E027
:101B200001F05CFB38610AE001F058FB02463B69BA
:101B3000D31A41F28832934201D90323B5E03E4BD8
:101B40001B6F03F00203002BEED1FB7D012B05D1AF
:101B5000394B1B6C384A23F0805313647B689B69B4
:101B6000002B00F0A180344B9B6803F00C03082B82
:101B70005CD07B689B69022B41D1314B00221A60FB
:101B800001F02CFB386108E001F028FB02463B69BC
:101B9000D31A022B01D9032387E0274B1B6803F0DC
:101BA0000073002BF0D17B68DA697B681B6A1A43EB
:101BB0007B685B6A9B011A437B689B6A5B08013BFD
:101BC0001B041A437B68DB6A1B061B4913434B60EB
:101BD0001B4B01221A6001F001FB386108E001F0A3
:101BE000FDFA02463B69D31A022B01D903235CE0BC
:101BF000114B1B6803F00073002BF0D054E0104B26
:101C000000221A6001F0EAFA386108E001F0E6FA11
:101C100002463B69D31A022B01D9032345E0064B48
:101C20001B6803F00073002BF0D13DE07B689B69DB
:101C3000012B07D1012338E000380240007000403A
:101C4000600047421B4B5B68FB607B689B69012B14
:101C500028D0FB6803F480027B68DB699A4221D1BB
:101C6000FB6803F03F027B681B6A9A421AD1FA684C
:101C700047F6C07313407A68526A9201934211D1B9
:101C8000FB6803F440327B689B6A5B08013B1B04E2
:101C90009A4207D1FB6803F070627B68DB6A1B061F
:101CA0009A4201D0012300E0002318461837BD46B0
:101CB00080BD00BF0038024080B584B000AF7860BE
:101CC00039607B68002B01D10123CCE0684B1B6895
:101CD00003F007033A689A420CD9654B3A68D2B2CE
:101CE0001A70634B1B6803F007033A689A4201D0ED
:101CF0000123B8E07B681B6803F00203002B20D0AF
:101D00007B681B6803F00403002B05D0594B9B68CC
:101D1000584A43F4E05393607B681B6803F0080360
:101D2000002B05D0534B9B68524A43F460439360A9
:101D3000504B9B6823F0F0027B689B684D4913432E
:101D40008B607B681B6803F00103002B44D07B6829
:101D50005B68012B07D1474B1B6803F40033002B52
:101D600019D101237FE07B685B68022B03D07B687D
:101D70005B68032B07D13F4B1B6803F00073002BFC
:101D800009D101236FE03B4B1B6803F00203002BDA
:101D900001D1012367E0374B9B6823F003027B6886
:101DA0005B68344913438B6001F018FAF8600AE06D
:101DB00001F014FA0246FB68D31A41F288329342CA
:101DC00001D903234FE02B4B9B6803F00C027B6887
:101DD0005B689B009A42EBD1254B1B6803F007031D
:101DE0003A689A420CD2224B3A68D2B21A70204B0F
:101DF0001B6803F007033A689A4201D0012332E0DE
:101E00007B681B6803F00403002B08D0194B9B6808
:101E100023F4E0527B68DB68164913438B607B68D0
:101E20001B6803F00803002B09D0124B9B6823F4B6
:101E300060427B681B69DB000E4913438B6000F036
:101E400021F802460B4B9B681B0903F00F030A495C
:101E5000CB5C22FA03F3094A1360094B1B6818464E
:101E600001F07AF9002318461037BD4680BD00BF47
:101E7000003C0240003802406034010800000020AD
:101E8000040000202DE9B04F94B000AF00237B6424
:101E90000023FB6400233B640023BB64794B9B68F5
:101EA00003F00C03082B0DD0082B00F2E180002B6F
:101EB00002D0042B03D0DBE0734BBB64DBE0734B3D
:101EC000BB64D8E06F4B5B6803F03F037B646D4BF2
:101ED0005B6803F48003002B63D06A4B5B689B094B
:101EE0000022BB63FA63BB6BC3F308033B630023AD
:101EF0007B63D7E90C4522462B464FF000004FF09C
:101F00000001590141EAD261500102460B462146C7
:101F1000511A3961294663EB01037B614FF00002DE
:101F20004FF00003D7E904AB59468B01514643EA11
:101F3000916351468A015146B2EB0108594663EB61
:101F400001094FF000024FF000034FEAC90343EAD2
:101F500058734FEAC80290469946234618EB03038C
:101F6000BB602B4649EB0303FB604FF000024FF0D0
:101F70000003D7E9024529464B02214643EAD153E3
:101F800021464A02104619467B6C0022BB62FA6267
:101F9000D7E90A23FEF790FD02460B461346FB6481
:101FA00058E0384B5B689B09002218461146C0F385
:101FB00008033B6200237B62D7E9088942464B460F
:101FC0004FF000004FF00001590141EAD261500189
:101FD00002460B464146B2EB010A494663EB010B50
:101FE0004FF000024FF000034FEA8B1343EA9A636D
:101FF0004FEA8A12B2EB0A0463EB0B054FF00002C2
:102000004FF00003EB0043EA5473E20014461D4610
:102010004346E3183B604B4645EB03037B604FF0C0
:1020200000024FF00003D7E9004529468B02214604
:1020300043EA915321468A02104619467B6C0022DE
:10204000BB61FA61D7E90623FEF736FD02460B466F
:102050001346FB640B4B5B681B0C03F0030301335B
:102060005B003B64FA6C3B6CB2FBF3F3BB6402E0D5
:10207000054BBB6400BFBB6C18465037BD46BDE87E
:10208000B08F00BF003802400024F40000127A0034
:1020900080B400AF024B1B681846BD4680BC704739
:1020A0000000002080B500AFFFF7F2FF0246054BAD
:1020B0009B689B0A03F007030349CB5C22FA03F3F6
:1020C000184680BD003802407034010880B500AF6A
:1020D000FFF7DEFF0246054B9B685B0B03F007032F
:1020E0000349CB5C22FA03F3184680BD0038024056
:1020F0007034010880B586B000AF786000237B6142
:1021000000233B617B681B6803F00103002B05D1B2
:102110007B681B6803F00403002B35D0624B002260
:102120001A6001F05BF8786108E001F057F80246A8
:102130007B69D31A022B01D90323B0E05B4B1B68E8
:1021400003F00063002BF0D17B685B689A017B6829
:102150009B681B0755491343C1F88430524B012239
:102160001A6001F03BF8786108E001F037F80246A8
:102170007B69D31A022B01D9032390E04B4B1B68D8
:1021800003F00063002BF0D07B681B6803F00203B0
:10219000002B00F083800023FB60444B1B6C434A00
:1021A00043F080531364414B1B6C03F08053FB607E
:1021B000FB683F4B1B683E4A43F48073136001F099
:1021C0000DF8786108E001F009F802467B69D31A3E
:1021D000022B01D9032362E0354B1B6803F48073A3
:1021E000002BF0D0314B1B6F03F440733B613B6914
:1021F000002B2FD07B68DB6803F440733A699A4266
:1022000028D02A4B1B6F23F440733B61294B0122DA
:102210001A60284B00221A60244A3B691367234B3B
:102220001B6F03F00103012B14D100F0D7FF78617D
:102230000AE000F0D3FF02467B69D31A41F28832EC
:10224000934201D903232AE0184B1B6F03F00203CA
:10225000002BEED07B68DB6803F44073B3F5407F5E
:102260000DD1124B9B6823F4F8127B68DB6823F0D6
:10227000704323F440730D4913438B6005E00B4B0F
:102280009B680A4A23F4F8139360084B1A6F7B6823
:10229000DB68C3F30B03054913430B6700231846A0
:1022A0001837BD4680BD00BF680047420038024075
:1022B00000700040400E474280B487B000AF7860A5
:1022C00000237B6100233B610023FB600023BB6094
:1022D0007B68012B3FD1234B9B6803F40003FB6019
:1022E000FB68002B06D0FB68B3F5000F2FD11E4B07
:1022F0007B612FE01B4B5B6803F48003B3F5800F19
:1023000008D1184B5B6803F03F03184AB2FBF3F3A4
:102310003B6107E0134B5B6803F03F03144AB2FBD9
:10232000F3F33B610F4BD3F884309B09C3F30802EE
:102330003B6902FB03F3BB600A4BD3F884301B0FED
:1023400003F00703BA68B2FBF3F37B6102E00023FA
:102350007B6100BF00E000BF7B6918461C37BD46AB
:1023600080BC7047003802400080BB0000127A0039
:102370000024F40080B489B000AF78603960002395
:102380007B6100233B610023BB610023FB616BE1A8
:102390000122FB6902FA03F37B613B681B687A69DF
:1023A00013403B613A697B699A4240F05A813B682D
:1023B0005B6803F00303012B05D03B685B6803F007
:1023C0000303022B30D17B689B68BB61FB695B0018
:1023D000032202FA03F3DB43BA691340BB613B6893
:1023E000DA68FB695B0002FA03F3BA691343BB6165
:1023F0007B68BA699A607B685B68BB610122FB6994
:1024000002FA03F3DB43BA691340BB613B685B68C4
:102410001B0903F00102FB6902FA03F3BA691343D3
:10242000BB617B68BA695A603B685B6803F0030371
:10243000032B17D07B68DB68BB61FB695B00032261
:1024400002FA03F3DB43BA691340BB613B689A6845
:10245000FB695B0002FA03F3BA691343BB617B6853
:10246000BA69DA603B685B6803F00303022B23D18F
:10247000FB69DA087B68083253F82230BB61FB69DC
:1024800003F007039B000F2202FA03F3DB43BA6950
:102490001340BB613B681A69FB6903F007039B00AB
:1024A00002FA03F3BA691343BB61FB69DA087B687C
:1024B0000832B96943F822107B681B68BB61FB696D
:1024C0005B00032202FA03F3DB43BA691340BB61EA
:1024D0003B685B6803F00302FB695B0002FA03F3ED
:1024E000BA691343BB617B68BA691A603B685B6871
:1024F00003F44033002B00F0B4800023FB605F4BFB
:102500005B6C5E4A43F4804353645C4B5B6C03F446
:102510008043FB60FB685A4AFB699B08023352F810
:102520002330BB61FB6903F003039B000F2202FA17
:1025300003F3DB43BA691340BB617B68514A9342A2
:102540002BD07B68504A934225D07B684F4A9342F8
:102550001FD07B684E4A934219D07B684D4A934204
:1025600013D07B684C4A93420DD07B684B4A934210
:1025700007D07B684A4A934201D107230EE0082323
:102580000CE006230AE0052308E0042306E0032309
:1025900004E0022302E0012300E00023FA6902F0D4
:1025A000030292009340BA691343BB613449FB694B
:1025B0009B080233BA6941F823203A4B9B68BB6100
:1025C0003B69DB43BA691340BB613B685B6803F45A
:1025D0008013002B03D0BA693B691343BB61314AB6
:1025E000BB6993602F4BDB68BB613B69DB43BA6916
:1025F0001340BB613B685B6803F40013002B03D0FE
:10260000BA693B691343BB61264ABB69D360254B5A
:102610005B68BB613B69DB43BA691340BB613B68E4
:102620005B6803F40033002B03D0BA693B691343A2
:10263000BB611C4ABB6953601A4B1B68BB613B6999
:10264000DB43BA691340BB613B685B6803F48033CA
:10265000002B03D0BA693B691343BB61114ABB69C4
:102660001360FB690133FB61FB690F2B7FF690AEB2
:1026700000BF00BF2437BD4680BC70470038024011
:1026800000380140000002400004024000080240FF
:10269000000C0240001002400014024000180240EA
:1026A000001C0240003C014080B483B000AF786061
:1026B0000B467B8013467B707B78002B03D07A8897
:1026C0007B689A6103E07B881A047B689A6100BF8B
:1026D0000C37BD4680BC704780B586B000AF7860CF
:1026E00000237B6100F07AFD38617B68002B01D10B
:1026F000012399E07B68022283F835207B68002261
:1027000083F834207B681B681A687B681B6822F09A
:1027100001021A600FE000F061FD02463B69D31A26
:10272000052B08D97B6820225A657B68032283F831
:102730003520032378E07B681B681B6803F00103E6
:10274000002BE8D17B681B681B687B617A69384B7A
:1027500013407B617B685A687B689B681A437B687F
:10276000DB681A437B681B691A437B685B691A4301
:102770007B689B691A437B68DB691A437B681B6A29
:1027800013437A6913437B617B685B6A042B07D12F
:102790007B68DA6A7B681B6B13437A6913437B613E
:1027A0007B681B687A691A607B681B685B697B6160
:1027B0007B6923F007037B617B685B6A7A6913435B
:1027C0007B617B685B6A042B17D17B689B6A7A69A3
:1027D00013437B617B68DB6A002B0ED0786800F0C6
:1027E000FFFA0346002B08D07B6840225A657B68BD
:1027F000012283F83520012316E07B681B687A6983
:102800005A61786800F0B8FA0346FB607B68DB6DBC
:102810003F229A40FB689A607B6800225A657B6879
:10282000012283F83520002318461837BD4680BDA5
:102830003F8010F080B586B000AFF860B9607A6074
:102840003B600023FB75FB689B6D3B61FB6893F865
:102850003430012B01D1022340E0FB68012283F8D0
:102860003420FB6893F83530DBB2012B2FD1FB68A5
:10287000022283F83520FB6800225A653B687A689B
:10288000B968F86800F04AFAFB68DB6D3F229A40AD
:102890003B699A60FB681B681A68FB681B6842F01A
:1028A00016021A60FB681B6C002B07D0FB681B68C4
:1028B0001A68FB681B6842F008021A60FB681B6814
:1028C0001A68FB681B6842F001021A6005E0FB68A9
:1028D000002283F834200223FB75FB7D184618374D
:1028E000BD4680BD80B584B000AF78607B689B6DCD
:1028F000FB6000F073FCB8607B6893F83530DBB2A6
:10290000022B08D07B6880225A657B68002283F8FE
:102910003420012352E07B681B681A687B681B68BF
:1029200022F016021A607B681B685A697B681B6874
:1029300022F080025A617B681B6C002B03D17B68FC
:102940009B6C002B07D07B681B681A687B681B6830
:1029500022F008021A607B681B681A687B681B6893
:1029600022F001021A6013E000F038FC0246BB6856
:10297000D31A052B0CD97B6820225A657B68032269
:1029800083F835207B68002283F83420032315E088
:102990007B681B681B6803F00103002BE4D17B6894
:1029A000DB6D3F229A40FB689A607B68012283F8C6
:1029B00035207B68002283F8342000231846103726
:1029C000BD4680BD80B483B000AF78607B6893F86B
:1029D0003530DBB2022B04D07B6880225A6501239C
:1029E0000CE07B68052283F835207B681B681A6839
:1029F0007B681B6822F001021A60002318460C371E
:102A0000BD4680BC7047000080B586B000AF7860DE
:102A10000023BB608E4B1B688E4AA2FB03239B0ADC
:102A20007B617B689B6D3B613B691B68FB607B68DE
:102A3000DB6D08229A40FB681340002B1AD07B689C
:102A40001B681B6803F00403002B13D07B681B6812
:102A50001A687B681B6822F004021A607B68DB6DD1
:102A600008229A403B699A607B685B6D43F00102E3
:102A70007B685A657B68DB6D01229A40FB681340D6
:102A8000002B12D07B681B685B6903F08003002B6E
:102A90000BD07B68DB6D01229A403B699A607B68B2
:102AA0005B6D43F002027B685A657B68DB6D042234
:102AB0009A40FB681340002B12D07B681B681B6890
:102AC00003F00203002B0BD07B68DB6D04229A40DD
:102AD0003B699A607B685B6D43F004027B685A65D2
:102AE0007B68DB6D10229A40FB681340002B43D0BB
:102AF0007B681B681B6803F00803002B3CD07B68D5
:102B0000DB6D10229A403B699A607B681B681B68EA
:102B100003F48023002B18D07B681B681B6803F428
:102B20000023002B08D17B681B6C002B24D07B6812
:102B30001B6C786898471FE07B689B6C002B1BD050
:102B40007B689B6C7868984716E07B681B681B68FD
:102B500003F48073002B07D17B681B681A687B68BD
:102B60001B6822F008021A607B681B6C002B03D0E4
:102B70007B681B6C786898477B68DB6D20229A40E5
:102B8000FB681340002B00F08F807B681B681B687C
:102B900003F01003002B00F087807B68DB6D2022A0
:102BA0009A403B699A607B6893F83530DBB2052B1D
:102BB00036D17B681B681A687B681B6822F0160296
:102BC0001A607B681B685A697B681B6822F0800268
:102BD0005A617B681B6C002B03D17B689B6C002BBC
:102BE00007D07B681B681A687B681B6822F00802A4
:102BF0001A607B68DB6D3F229A403B699A607B6874
:102C0000012283F835207B68002283F834207B681A
:102C10001B6D002B7ED07B681B6D7868984779E030
:102C20007B681B681B6803F48023002B1DD07B6826
:102C30001B681B6803F40023002B0DD17B685B6CC1
:102C4000002B31D07B685B6C786898472CE000BF24
:102C500000000020B5814E1B7B68DB6B002B23D06E
:102C60007B68DB6B786898471EE07B681B681B6895
:102C700003F48073002B0FD17B681B681A687B6894
:102C80001B6822F010021A607B68012283F835204D
:102C90007B68002283F834207B68DB6B002B03D039
:102CA0007B68DB6B786898477B685B6D002B32D064
:102CB0007B685B6D03F00103002B22D07B6805224B
:102CC00083F835207B681B681A687B681B6822F0D4
:102CD00001021A60BB680133BB607A699A4207D36C
:102CE0007B681B681B6803F00103002BF2D100E036
:102CF00000BF7B68012283F835207B68002283F8BF
:102D000034207B68DB6C002B05D07B68DB6C78683B
:102D1000984700E000BF1837BD4680BD80B485B03D
:102D200000AFF860B9607A603B60FB681B681A68A6
:102D3000FB681B6822F480221A60FB681B683A68F3
:102D40005A60FB689B68402B08D1FB681B687A6857
:102D50009A60FB681B68BA68DA6007E0FB681B686A
:102D6000BA689A60FB681B687A68DA6000BF14373B
:102D7000BD4680BC7047000080B485B000AF78606D
:102D80007B681B68DBB2103B134AA2FB03231B09C1
:102D9000FB60124AFB6813441B781A467B68DA65AD
:102DA000FB68032B09D97B681B6823F47F7323F02E
:102DB00003031A1D7B689A6507E07B681B6823F490
:102DC0007F7323F003037A6893657B689B6D1846D5
:102DD0001437BD4680BC7047ABAAAAAA7834010854
:102DE00080B485B000AF78600023FB737B689B6A7A
:102DF000BB607B689B69002B23D1BB68032B5FD032
:102E0000BB68032B5ED8BB68022B09D0BB68022BC2
:102E100058D8BB68002B03D0BB68012B09D051E008
:102E20007B68DB6A03F08073002B4DD00123FB73BA
:102E30004AE07B68DB6AB3F1C07F47D10123FB73B3
:102E400044E07B689B69B3F5005F26D1BB68032B28
:102E50001BD0BB68032B3BD8BB68022B09D0BB68D7
:102E6000022B35D8BB68002B03D0BB68012B03D0E5
:102E70002EE00123FB7332E07B68DB6A03F0807392
:102E8000002B27D00123FB7324E07B68DB6AB3F1BE
:102E9000C07F21D10123FB731EE0BB68022B03D945
:102EA000BB68032B03D01AE00123FB7317E07B6898
:102EB000DB6A03F08073002B10D00123FB730DE05D
:102EC00000BF0CE000BF0AE000BF08E000BF06E062
:102ED00000BF04E000BF02E000BF00E000BFFB7BDA
:102EE00018461437BD4680BC7047000080B485B0DA
:102EF00000AF78607B6803F00703FB600C4BDB6876
:102F0000BB60BA684FF6FF031340BB60FB681A0250
:102F1000BB68134343F0BF6343F40033BB60044A10
:102F2000BB68D36000BF1437BD4680BC704700BF8C
:102F300000ED00E080B400AF044BDB681B0A03F037
:102F400007031846BD4680BC704700BF00ED00E097
:102F500080B483B000AF0346FB7197F90730002BB4
:102F60000BDBFB7903F01F02064997F907305B0979
:102F7000012000FA02F241F8232000BF0C37BD46C1
:102F800080BC704700E100E080B483B000AF03462E
:102F90003960FB7197F90730002B0ADB3B68DAB226
:102FA0000C4997F907301201D2B20B4483F8002381
:102FB0000AE03B68DAB20849FB7903F00F03043BEF
:102FC0001201D2B20B441A7600BF0C37BD4680BC4A
:102FD000704700BF00E100E000ED00E080B489B080
:102FE00000AFF860B9607A60FB6803F007037B61AB
:102FF0007B69033B042B04D87B69C3F10703FB61A6
:1030000001E00423FB617B690433062B03D97B6950
:10301000033BBB6101E00023BB614FF0FF32FB6962
:1030200002FA03F3DA43BB681A40BB699A404FF0D7
:10303000FF31BB6901FA03F3D9437B680B401343AB
:1030400018462437BD4680BC7047000080B582B06A
:1030500000AF78607B68013BB3F1807F01D301232F
:103060000FE00A4A7B68013B53600F214FF0FF30AD
:10307000FFF78AFF054B00229A60044B07221A6073
:10308000002318460837BD4680BD00BF10E000E0B1
:1030900080B582B000AF78607868FFF727FF00BF87
:1030A0000837BD4680BD80B586B000AF0346B96025
:1030B0007A60FB7300237B61FFF73CFF78617A68DD
:1030C000B9687869FFF78AFF024697F90F30114611
:1030D0001846FFF759FF00BF1837BD4680BD80B5C1
:1030E00082B000AF0346FB7197F907301846FFF72F
:1030F0002FFF00BF0837BD4680BD80B582B000AF4E
:1031000078607868FFF7A2FF034618460837BD4687
:1031100080BD000080B500AF0E4B1B680D4A43F424
:10312000007313600B4B1B680A4A43F480631360FF
:10313000084B1B68074A43F4807313600320FFF7B2
:10314000A7FF0F2000F008F804F0B8FD0023184690
:1031500080BD00BF003C024080B582B000AF786007
:10316000124B1A68124B1B7819464FF47A73B3FB53
:10317000F1F3B2FBF3F31846FFF7BFFF0346002B52
:1031800001D001230EE07B680F2B0AD8002279685A
:103190004FF0FF30FFF787FF064A7B68136000237C
:1031A00000E0012318460837BD4680BD000000201E
:1031B000080000200400002080B400AF054B1B78FD
:1031C0001A46054B1B681344034A136000BFBD46F3
:1031D00080BC7047080000205C25002080B400AF50
:1031E000024B1B681846BD4680BC70475C2500201A
:1031F00080B582B000AF78607B68002B01D10123DD
:1032000042E07B6893F84130DBB2002B06D17B684B
:10321000002283F84020786804F0BAFC7B682422FE
:1032200083F841207B681B68DA687B681B6822F49E
:103230000052DA60786800F077FD7B681B681A69D5
:103240007B681B6822F490421A617B681B685A698C
:103250007B681B6822F02A025A617B681B68DA6867
:103260007B681B6842F40052DA607B6800225A6473
:103270007B68202283F841207B68202283F842204B
:103280007B6800225A63002318460837BD4680BD7C
:1032900080B58AB002AFF860B9603B601346FB802E
:1032A00000237B61FB6893F84130DBB2202B75D1A2
:1032B000BB68002B02D0FB88002B01D101236EE0FC
:1032C000FB6800225A64FB68212283F84120FFF743
:1032D00085FF7861FB68FA889A84FB68FA88DA844B
:1032E000FB689B68B3F5805F08D1FB681B69002B06
:1032F00004D10023FB61BB68BB6103E0BB68FB61D9
:103300000023BB612EE03B6800937B690022802193
:10331000F86800F017FB0346002B05D0FB6820225D
:1033200083F8412003233AE0FB69002B0BD1BB69F2
:103330001B881A46FB681B68C2F308025A60BB6907
:103340000233BB6107E0FB691A78FB681B685A60AF
:10335000FB690133FB61FB68DB8C9BB2013B9AB2DA
:10336000FB68DA84FB68DB8C9BB2002BCBD13B681B
:1033700000937B6900224021F86800F0E3FA0346DD
:10338000002B05D0FB68202283F84120032306E0B0
:10339000FB68202283F84120002300E00223184626
:1033A0002037BD4680BD000080B5BAB000AF786060
:1033B0007B681B681B68C7F8E4307B681B68DB68A8
:1033C000C7F8E0307B681B685B69C7F8DC30002316
:1033D000C7F8D8300023C7F8D430D7F8E43003F06A
:1033E0000F03C7F8D830D7F8D830002B0FD1D7F853
:1033F000E43003F02003002B09D0D7F8E03003F0CD
:103400002003002B03D0786800F0CFFB71E2D7F8DF
:10341000D830002B00F0DC80D7F8DC3003F001035B
:10342000002B06D1D7F8E03003F49073002B00F0A6
:10343000CF80D7F8E43003F00103002B0BD0D7F88E
:10344000E03003F48073002B05D07B685B6C43F0A5
:1034500001027B685A64D7F8E43003F00403002BC0
:103460000BD0D7F8DC3003F00103002B05D07B68CC
:103470005B6C43F002027B685A64D7F8E43003F0D7
:103480000203002B0BD0D7F8DC3003F00103002B34
:1034900005D07B685B6C43F004027B685A64D7F804
:1034A000E43003F00803002B11D0D7F8E03003F02C
:1034B0002003002B05D1D7F8DC3003F00103002BEB
:1034C00005D07B685B6C43F008027B685A647B68BC
:1034D0005B6C002B00F00882D7F8E43003F0200387
:1034E000002B08D0D7F8E03003F02003002B02D0E7
:1034F000786800F05AFB7B681B685B6903F0400347
:10350000C3F38013DBB2C7F8D4307B685B6C03F085
:103510000803002B03D1D7F8D430002B4FD07868A4
:1035200000F069FA7B681B685B6903F04003402B7D
:1035300041D17B681B681433C7F89C30D7F89C30A6
:1035400053E8003FC7F89830D7F8983023F040038D
:10355000C7F8D0307B681B681433D7F8D020C7F881
:10356000A820C7F8A430D7F8A410D7F8A82041E8BD
:103570000023C7F8A030D7F8A030002BD9D17B6842
:10358000DB6B002B13D07B68DB6B8A4A1A657B6888
:10359000DB6B1846FFF716FA0346002B16D07B6844
:1035A000DB6B1B6D7A68D26B104698470EE078682B
:1035B00000F0B4F90AE0786800F0B0F906E0786845
:1035C00000F0ACF97B6800225A648DE100BF8BE10A
:1035D0007B681B6B012B40F06781D7F8E43003F068
:1035E0001003002B00F06081D7F8E03003F01003E7
:1035F000002B00F059810023BB607B681B681B68AF
:10360000BB607B681B685B68BB60BB687B681B68D2
:103610005B6903F04003402B40F0CE807B68DB6B9E
:103620001B685B68A7F8BE30B7F8BE30002B00F00F
:10363000A9807B689B8DB7F8BE209A4280F0A2805B
:103640007B68B7F8BE20DA857B68DB6BDB69B3F596
:10365000807F00F088807B681B680C33C7F8883057
:10366000D7F8883053E8003FC7F88430D7F8843063
:1036700023F48073C7F8B8307B681B680C33D7F825
:10368000B820C7F89420C7F89030D7F89010D7F832
:10369000942041E80023C7F88C30D7F88C30002BF9
:1036A000D9D17B681B6814337B677B6F53E8003F7D
:1036B0003B673B6F23F00103C7F8B4307B681B689E
:1036C0001433D7F8B420C7F88020FB67F96FD7F818
:1036D000802041E80023BB67BB6F002BE1D17B68F2
:1036E0001B6814333B663B6E53E8003FFB65FB6D84
:1036F00023F04003C7F8B0307B681B681433D7F859
:10370000B020FA66BB66B96EFA6E41E800237B66AC
:103710007B6E002BE3D17B68202283F842207B68FC
:1037200000221A637B681B680C33FB64FB6C53E854
:10373000003FBB64BB6C23F01003C7F8AC307B6860
:103740001B680C33D7F8AC20BA657B65796DBA6D10
:1037500041E800233B653B6D002BE3D17B68DB6BCD
:103760001846FFF7BFF87B6802225A637B689A8D80
:103770007B68DB8D9BB2D31A9BB21946786800F048
:10378000D6F8B3E07B689B8DB7F8BE209A4240F034
:10379000AD807B68DB6BDB69B3F5807F40F0A68092
:1037A0007B6802225A637B689B8D1946786800F01B
:1037B000BEF89BE0BB3A00087B689A8D7B68DB8D86
:1037C0009BB2D31AA7F8CE307B68DB8D9BB2002B5F
:1037D00000F08E80B7F8CE30002B00F089807B6837
:1037E0001B680C33BB63BB6B53E8003F7B637B6B95
:1037F00023F49073C7F8C8307B681B680C33D7F884
:10380000C8207A643B64396C7A6C41E80023FB631E
:10381000FB6B002BE3D17B681B6814337B627B6AF4
:1038200053E8003F3B623B6A23F00103C7F8C43012
:103830007B681B681433D7F8C4203A63FB62F96ACB
:103840003A6B41E80023BB62BB6A002BE3D17B6883
:10385000202283F842207B6800221A637B681B6861
:103860000C333B613B6953E8003FFB60FB6823F08E
:103870001003C7F8C0307B681B680C33D7F8C02032
:10388000FA61BB61B969FA6941E800237B617B6930
:10389000002BE3D17B6802225A63B7F8CE30194679
:1038A000786800F044F823E0D7F8E43003F08003B0
:1038B000002B09D0D7F8E03003F08003002B03D0B1
:1038C000786800F00BF914E0D7F8E43003F0400317
:1038D000002B0ED0D7F8E03003F04003002B08D0C7
:1038E000786800F04AF904E000BF02E000BF00E0A1
:1038F00000BFE837BD4680BD80B483B000AF7860BC
:1039000000BF0C37BD4680BC704780B483B000AFA9
:10391000786000BF0C37BD4680BC704780B483B070
:1039200000AF786000BF0C37BD4680BC704780B4E4
:1039300083B000AF78600B467B8000BF0C37BD467C
:1039400080BC704780B586B000AFF860B9603B605E
:103950001346FB713BE03B6AB3F1FF3F37D0FFF703
:103960003DFC02463B68D31A3A6A9A4202D33B6A4C
:10397000002B01D103233AE0FB681B68DB6803F0EE
:103980000403002B23D0BB68802B20D0BB68402BC6
:103990001DD0FB681B681B6803F00803082B16D1B9
:1039A00000237B61FB681B681B687B61FB681B68ED
:1039B0005B687B617B69F86800F01DF8FB68082292
:1039C0005A64FB68002283F8402001230FE0FB6863
:1039D0001B681A68BB681340BA689A420CBF01237F
:1039E0000023DBB21A46FB799A42B4D00023184672
:1039F0001837BD4680BD80B495B000AF78607B6855
:103A00001B680C337B637B6B53E8003F3B633B6B72
:103A100023F49073FB647B681B680C33FA6C3A6484
:103A2000FB63F96B3A6C41E80023BB63BB6B002B73
:103A3000E5D17B681B6814333B623B6A53E8003F67
:103A4000FB61FB6923F00103BB647B681B681433D3
:103A5000BA6CFA62BB62B96AFA6A41E800237B6217
:103A60007B6A002BE5D17B681B6B012B19D17B682E
:103A70001B680C33FB60FB6853E8003FBB60BB680E
:103A800023F010037B647B681B680C337A6CBA618B
:103A90007B617969BA6941E800233B613B69002B8E
:103AA000E5D17B68202283F842207B6800221A63DC
:103AB00000BF5437BD4680BC704780B584B000AFAE
:103AC00078607B689B6BFB60FB680022DA85F86896
:103AD000FFF724FF00BF1037BD4680BD80B485B01E
:103AE00000AF78607B6893F84130DBB2212B3ED188
:103AF0007B689B68B3F5805F14D17B681B69002BE2
:103B000010D17B681B6AFB60FB681B881A467B68C8
:103B10001B68C2F308025A607B681B6A9A1C7B68A8
:103B20001A6208E07B681B6A591C7A6811621A786D
:103B30007B681B685A607B68DB8C9BB2013B9BB245
:103B40007A681946D184002B0FD17B681B68DA682C
:103B50007B681B6822F08002DA607B681B68DA6889
:103B60007B681B6842F04002DA60002300E0022319
:103B700018461437BD4680BC704780B582B000AF90
:103B800078607B681B68DA687B681B6822F04002FB
:103B9000DA607B68202283F841207868FFF7ACFE6A
:103BA000002318460837BD4680BD80B58CB000AFF5
:103BB00078600023FB620023BB627B6893F842308D
:103BC000DBB2222B40F0AA807B689B68B3F5805F54
:103BD00015D17B681B69002B11D17B689B6ABB6286
:103BE0007B681B685B689BB2C3F308039AB2BB6A2D
:103BF0001A807B689B6A9A1C7B689A6224E07B68C7
:103C00009B6AFB627B689B68B3F5805F07D07B682B
:103C10009B68002B0AD17B681B69002B06D17B684F
:103C20001B685B68DAB2FB6A1A7008E07B681B6885
:103C30005B68DBB203F07F03DAB2FB6A1A707B6861
:103C40009B6A5A1C7B689A627B68DB8D9BB2013B46
:103C50009BB27A681946D185002B5DD17B681B68C1
:103C6000DA687B681B6822F02002DA607B681B68D8
:103C7000DA687B681B6822F48072DA607B681B68F4
:103C80005A697B681B6822F001025A617B68202216
:103C900083F842207B6800225A637B681B6B012BF0
:103CA00035D17B6800221A637B681B680C337B610B
:103CB0007B6953E8003F3B613B6923F010037B6263
:103CC0007B681B680C337A6A3A62FB61F9693A6A6D
:103CD00041E80023BB61BB69002BE5D17B681B6811
:103CE0001B6803F01003102B0AD10023FB607B68D4
:103CF0001B681B68FB607B681B685B68FB60FB687C
:103D00007B689B8D19467868FFF711FE02E07868A2
:103D1000FFF7FBFD002302E0002300E0022318462A
:103D20003037BD4680BD00002DE9B04FC0B000AFB8
:103D3000C7F8F400D7F8F4301B681B6923F440502F
:103D4000D7F8F430D968D7F8F4301A6840EA01039C
:103D50001361D7F8F4309A68D7F8F4301B691A4326
:103D6000D7F8F4305B691A43D7F8F430DB691343B2
:103D7000C7F8F830D7F8F4301B68DB6823F4164135
:103D800021F00C01D7F8F4301A68D7F8F8300B435B
:103D9000D360D7F8F4301B685B6923F44070D7F820
:103DA000F4309969D7F8F4301A6840EA0103536196
:103DB000D7F8F4301A688F4B9A4205D0D7F8F43010
:103DC0001A688D4B9A4204D1FEF780F9C7F8FC00BF
:103DD00003E0FEF767F9C7F8FC00D7F8F430DB69B9
:103DE000B3F5004F40F00C81D7F8FC300022C7F843
:103DF000E830C7F8EC20D7E93A4522462B4691181F
:103E0000B9655B41FB65D7E91623214612EB010832
:103E1000294643EB01094FF000024FF000034FEA3F
:103E2000C90343EA58734FEAC802904699462346AD
:103E300018EB0303C7F8E0302B4649EB0303C7F840
:103E4000E430D7F8F4305B680022C7F8D830C7F800
:103E5000DC20D7E936120B46DB183B65134642EBF4
:103E600003037B65D7E91423D7E93801FCF724FE67
:103E700002460B46614BA3FB02235B091C01D7F8EA
:103E8000FC300022C7F8D030C7F8D420D7E93489F5
:103E900042464B469118B9645B41FB64D7E9122353
:103EA000414612EB010A494643EB010B4FF0000279
:103EB0004FF000034FEACB0343EA5A734FEACA02BA
:103EC00092469B4643461AEB0303C7F8C8304B465D
:103ED0004BEB0303C7F8CC30D7F8F4305B68002213
:103EE000C7F8C030C7F8C420D7E930120B46DB183A
:103EF0003B64134642EB03037B64D7E91023D7E905
:103F00003201FCF7D9FD02460B4611463B4BA3FBA1
:103F100001235B09642202FB03F3CB1ADB0003F1EC
:103F20003202364BA3FB02235B095B0003F4F873F8
:103F30001C44D7F8FC300022C7F8B830C7F8BC20C2
:103F4000D7E92E8942464B469118B9635B41FB6322
:103F5000D7E90E2341465118396349464B417B63EB
:103F60004FF000024FF00003D7E90CAB5946CB00ED
:103F7000514643EA51735146CA001046194603465A
:103F800042469B18C7F8B0304B460A4642EB030343
:103F9000C7F8B430D7F8F4305B680022C7F8A8300F
:103FA000C7F8AC20D7E92A120B46DB18BB621346D0
:103FB00042EB0303FB62D7E90A23D7E92C01FCF7A4
:103FC0007BFD02460B460D4BA3FB02135B096421EC
:103FD00001FB03F3D31ADB003233084AA2FB0323AD
:103FE0005B0903F00702D7F8F4301B6822449A609B
:103FF00006E100BF00100140001401401F85EB5195
:10400000D7F8FC300022C7F8A030C7F8A420D7E9C1
:10401000288942464B46911839625B417B62D7E959
:10402000082341465418494643EB01054FF000026E
:104030004FF00003EB0043EA5473E20014461D46C0
:104040004346E318C7F898304B4645EB0303C7F8DF
:104050009C30D7F8F4305B680022C7F89030C7F87E
:1040600094204FF000024FF00003D7E92445294681
:104070008B00214643EA917321468A00D7E9260145
:10408000FCF71AFD02460B46604BA3FB02235B09BB
:104090001C01D7F8FC300022C7F88830C7F88C2004
:1040A000D7E9228942464B469118B9615B41FB61D1
:1040B000D7E9062341465118396149464B417B6196
:1040C0004FF000024FF00003D7E904AB5946CB0094
:1040D000514643EA51735146CA00104619460346F9
:1040E00042469B18C7F880304B460A4642EB030312
:1040F000C7F88430D7F8F4305B680022BB67FA67F2
:104100004FF000024FF00003D7E91E8949468B00AB
:10411000414643EA917341468A00D7E92001FCF702
:10412000CBFC02460B461146384BA3FB01235B092F
:10413000642202FB03F3CB1A1B013233334AA2FB86
:1041400003235B0903F0F0031C44D7F8FC30002282
:104150003B677A67D7E91C8942464B469118B9609C
:104160005B41FB60D7E9022341465118396049465B
:104170004B417B604FF000024FF00003D7E900ABEA
:104180005946CB00514643EA51735146CA00104686
:104190001946034642469B18BB664B460A4642EB0D
:1041A0000303FB66D7F8F4305B6800223B667A664F
:1041B0004FF000024FF00003D7E9188949468B0001
:1041C000414643EA917341468A00D7E91A01FCF758
:1041D00073FC02460B460D4BA3FB02135B096421E3
:1041E00001FB03F3D31A1B013233084AA2FB03235A
:1041F0005B0903F00F02D7F8F4301B6822449A6081
:1042000000BF07F58077BD46BDE8B08F1F85EB5135
:104210002DE9F04F8A4691B001464FEA9A032AF001
:104220000300CDE9013101EB000B01EB400617461D
:1042300091469046964630445D460C460022CDF8A5
:104240000CA0216891FA22F3316893FA22FA91FACC
:1042500022F3296893FA22FC91FA22F3016893FA77
:1042600022F391FA22F191FA22F193FA11F39AFAD8
:104270001CF1DAFA1CFA91FA23FC44F804CBD1FAC7
:1042800013F15EF810CB2CFB01F34CFB11F11B0C6E
:10429000C3EA010C296845F804CB91FA22F30168BE
:1042A00093FA22FC91FA22F393FA22F1DCFA11F349
:1042B00058F808CBAAFA13F1EAFA13F32CFB03FA25
:1042C0004CFB13FC4FEA1A43C3EA0C0346F8043BC9
:1042D00059F818AB2AFB01F34AFB11F1A3454FEA49
:1042E0001343C3EA010140F8041BAAD1DDE90141EF
:1042F000042CDDF80CA000F08F80CDE90E4BC7EB4D
:10430000C77008260A90224606969008069B0893D6
:104310008245CDE90B014FEA80054FEA830614463A
:10432000524628BF02460795099206968B4601EB36
:10433000C00301973D4600220D970A990198D5F8D0
:104340000080D0F800E005EB4507CDE9022B57F8D7
:1043500011900799CDE9045301EB0B005F461E460F
:10436000194494463A68D6F800B00B68056895FA87
:1043700013F592FA1BF3D2FA1BF293FA25FBD3FA48
:1043800025F300259BFA25F53D6007EB84072EFBFE
:1043900003F54EFB13FB2B0C0568C3EA0B0303600C
:1043A0000B68D5FA13FB00EB8400A2FA2BF5E2FAB6
:1043B0002BF328FB03F248FB13FB130CC3EA0B029D
:1043C000326006EB840629FB05F349FB15F5A4448E
:1043D000E2454FEA1342C2EA05030B6001EB840198
:1043E000C0D8DDE90453DDE90229069F019E089843
:1043F0003D44099F013206EBC001BA42019109F127
:10440000040B03F1040398D3DDE90B21042A0D9F6B
:104410003FF67BAFDDE90E4B04EB44050BEB850566
:104420006B1AA3F110063009013010F003023CD0E2
:10443000012A1BD0022A40F0A8800B684F688A68C6
:10444000CE6893FA12FCD3FA12F997FA16F0D7FA5B
:1044500016F49CFA20F3DCFA20F70B604F60E9FABF
:1044600024F2A9FA24F68A60CE6010310B684F68F6
:104470008C68CA6893FA14FBD3FA14FA97FA12F00C
:10448000D7FA12F310319BFA20F6DBFA20F7EAFA9A
:1044900023F4AAFA23F241F8106C41F80C7C41F89D
:1044A000084C41F8042CA9426CD00A6848688C6812
:1044B000CF68D1F810E0D1F81CC092FA14F8D2FA03
:1044C00014F690FA17F34C69D0FA17F2D4FA1CFAE2
:1044D0008F6998FA23F09EFA17F9DEFA17FB086045
:1044E000D1F820E0E6FA22F0EBFA2AF788608F6133
:1044F000486AD8FA23F3A6FA22F6D1F82C8094FA67
:104500001CF24B60D1F838C099FA22F4D9FA22F3A0
:10451000CE60ABFA2AF28E6A0C619EFA16F990FA16
:1045200018F44B6199FA24F70B6BCA610F62D9FA40
:1045300024F2CF6B4A62DEFA16FBD0FA18F04E6B0B
:10454000EBFA20F493FA1CFA8C6296FA17F8D3FA75
:104550001CF94031D6FA17F3ABFA20F09AFA28F694
:10456000DAFA28F2E9FA23F7A9FA23F441F8140C4D
:1045700041F8106C41F80C2C41F8087C41F8044CCF
:10458000A94292D111B0BDE8F08F0F684A688C68DB
:10459000CE6897FA14FAD7FA14F892FA16F3D2FA08
:1045A00016F7DAFA23F09AFA23F248600A60E8FA7A
:1045B00027F4A8FA27F68C60CE6010313DE700BFE3
:1045C0002DE9F04F8A4691B001464FEA9A032AF04E
:1045D0000300CDE9013101EB000B01EB400617466A
:1045E00091469046964630445D460C460022CDF8F2
:1045F0000CA0216891FA22F3316893FA22FA91FA19
:1046000022F3296893FA22FC91FA22F3016893FAC3
:1046100022F391FA22F191FA22F193FA11F39AFA24
:104620001CF1DAFA1CFA91FA23FC44F804CBD1FA13
:1046300013F15EF810CB4CFB01F32CFB11F11B0CBA
:10464000C3EA010C296845F804CB91FA22F301680A
:1046500093FA22FC91FA22F393FA22F1DCFA11F395
:1046600058F808CBEAFA13F1AAFA13F34CFB03FA51
:104670002CFB13FC4FEA1A43C3EA0C0346F8043B35
:1046800059F818AB4AFB01F32AFB11F1A3454FEA95
:104690001343C3EA010140F8041BAAD1DDE901413B
:1046A000042CDDF80CA000F08F80CDE90E4BC7EB99
:1046B000C77008260A90224606969008069B089323
:1046C0008245CDE90B014FEA80054FEA8306144687
:1046D000524628BF02460795099206968B4601EB83
:1046E000C00301973D4600220D970A990198D5F81D
:1046F0000080D0F800E005EB4507CDE9022B57F824
:1047000011900799CDE9045301EB0B005F461E465B
:10471000194494463A68D6F800B00B68056895FAD3
:1047200013F592FA1BF3D2FA1BF293FA25FBD3FA94
:1047300025F300259BFA25F53D6007EB84074EFB2A
:1047400003F52EFB13FB2B0C0568C3EA0B03036078
:104750000B68D5FA13FB00EB8400E2FA2BF5A2FA02
:104760002BF348FB03F228FB13FB130CC3EA0B02E9
:10477000326006EB840649FB05F329FB15F5A444DA
:10478000E2454FEA1342C2EA05030B6001EB8401E4
:10479000C0D8DDE90453DDE90229069F019E08988F
:1047A0003D44099F013206EBC001BA42019109F173
:1047B000040B03F1040398D3DDE90B21042A0D9FB8
:1047C0003FF67BAFDDE90E4B04EB44050BEB8505B3
:1047D0006B1AA3F110063009013010F003023CD02F
:1047E000012A1BD0022A40F0A8800B684F688A6813
:1047F000CE6893FA12FCD3FA12F997FA16F0D7FAA8
:1048000016F49CFA20F3DCFA20F70B604F60A9FA4B
:1048100024F2E9FA24F68A60CE6010310B684F6802
:104820008C68CA6893FA14FBD3FA14FA97FA12F058
:10483000D7FA12F310319BFA20F6DBFA20F7AAFA26
:1048400023F4EAFA23F241F8106C41F80C7C41F8A9
:10485000084C41F8042CA9426CD00A6848688C685E
:10486000CF68D1F810E0D1F81CC092FA14F8D2FA4F
:1048700014F690FA17F34C69D0FA17F2D4FA1CFA2E
:104880008F6998FA23F09EFA17F9DEFA17FB086091
:10489000D1F820E0A6FA22F0ABFA2AF788608F61FF
:1048A000486AD8FA23F3E6FA22F6D1F82C8094FA73
:1048B0001CF24B60D1F838C099FA22F4D9FA22F3ED
:1048C000CE60EBFA2AF28E6A0C619EFA16F990FA23
:1048D00018F44B6199FA24F70B6BCA610F62D9FA8D
:1048E00024F2CF6B4A62DEFA16FBD0FA18F04E6B58
:1048F000ABFA20F493FA1CFA8C6296FA17F8D3FA02
:104900001CF94031D6FA17F3EBFA20F09AFA28F6A0
:10491000DAFA28F2A9FA23F7E9FA23F441F8140C99
:1049200041F8106C41F80C2C41F8087C41F8044C1B
:10493000A94292D111B0BDE8F08F0F684A688C6827
:10494000CE6897FA14FAD7FA14F892FA16F3D2FA54
:1049500016F7DAFA23F09AFA23F248600A60A8FA06
:1049600027F4E8FA27F68C60CE6010313DE700BFEF
:104970002DE9F04F93B08246012A008801900D4640
:1049800000F06382B0F5807F00F0358411D9B0F576
:10499000006F18D000F22B84B0F5007F13D0B0F573
:1049A000806F00F02884002B40F0D18113B0BDE867
:1049B000F08F402800F01F8400F28D87102800F04F
:1049C0001A842028EFD1019ADAF804805708BE0033
:1049D000301F8108013108EB870405EB420911F013
:1049E000030601944A462846C4464FF000044FD0BF
:1049F000012E31D0022E18D02A68D9F8001092FA70
:104A000024FB5CF804EB91FA24F29BFA22F6DBFA21
:104A100012FB40F8046B2EFB0BF14EFB1BF20E0C4D
:104A2000C6EA020E4A4642F804EB0168166891FA9B
:104A300024F196FA24F65CF804EB91FA26FBD1FAFD
:104A400016F640F804BB2EFB06F14EFB16F6090CD9
:104A5000C1EA060642F8046B0168166891FA24F16F
:104A600096FA24F65CF804EB91FA26FBD1FA16F6D6
:104A700040F804BB2EFB06F14EFB16F608EB870E42
:104A8000F4454FEA1141C1EA060642F8046B6BD0C7
:104A9000CDE90289E0460646D2F80090016899FA0D
:104AA00024FE91FA24F158F8049B91FA2EFBD1FAD6
:104AB0001EFE46F804BB29FB0EF149FB1EF9964683
:104AC000090CC1EA090B4EF804BB4168D8F8009004
:104AD00091FA24F8516891FA24F198FA21FBD8FA56
:104AE00011F1C0F804B029FB01F849FB11F94FEAB4
:104AF0001841C1EA09015160DEF804B071689BFAFF
:104B000024F891FA24F1DCF8089091FA28FBD1FA04
:104B100018F1C6F804B029FB01F649FB11F80CF1B5
:104B2000100C310CC1EA0806CEF80460C168D668E2
:104B300091FA24F95CF804EC96FA24F1103099FA11
:104B400021FBD9FA11F840F804BC2EFB08F64EFB05
:104B500018F9310CC1EA09060199D6608C4502F1B9
:104B6000100297D1DDE90289394642462846019371
:104B7000FFF74EFB424639464846FFF749FBFB002C
:104B8000A3F10804E008013005EBC70710F00302A9
:104B9000019B0997AC4658D0012A37D0022A1AD077
:104BA000B5F90060B5F90410B5F90240B5F9060091
:104BB0004FF0000CE64676004F006400400067F3BB
:104BC0000F0E66F30F0C64F31F4C60F31F4EC5E924
:104BD00000CE05F1080CBCF90020BCF90410BCF9AA
:104BE0000240BCF906004FF0000BD84656004F00BB
:104BF0006400400067F30F0866F30F0B64F31F4B6C
:104C000060F31F48CCE900B80CF1080CBCF9002097
:104C1000BCF90410BCF90240BCF906004FF00009D1
:104C20005600CE464F006400400067F30F0E66F357
:104C30000F09099A64F31F4960F31F4ECCE9009EE7
:104C40000CF1080C62453FF4AEAECDE90AA50C9319
:104C5000BCF90430BCF90050BCF91040BCF9142078
:104C6000BCF90C10BCF908604FEA430BBCF91830D2
:104C70004FEA450A60005500BCF91C4003954F00FF
:104C8000BCF9065001905900BCF90A30BCF9022069
:104C900005916000BCF90E1007904FEA4508BCF979
:104CA00012005D00BCF916304FEA42094C00420088
:104CB0005900BCF91A00BCF91E300292049142005E
:104CC0005900002008910146034676000692864668
:104CD00002466AF30F008A4667F30F0A66F30F0174
:104CE000019F039E65F31F416BF30F0E029D64F35A
:104CF0001F4A9346049C66F30F0B67F30F0269F398
:104D00001F4065F31F4268F31F4E64F31F4BCCE94D
:104D1000000ECCE9021ACCE9042B07980599069AF3
:104D2000089E994660F30F0961F30F0362F31F4376
:104D300066F31F49CCE90639099B0CF1200C634549
:104D400086D10C9BDDE90AA5002B3FF42FAEBAF803
:104D50000C0000283FF42AAEDAF80840278866885D
:104D6000431EBA08C3F34001B30835F812A035F862
:104D700013C025F812C005EB430B25F813A005EB73
:104D800042090223B9F80220BBF80280A9F8028088
:104D90009842ABF802207FF609AED9B1A788E18826
:104DA000BA088B0835F8126035F813C025F812C020
:104DB00005EB420A25F8136005EB43090423BAF812
:104DC0000270B9F80220AAF802209842A9F80270ED
:104DD0007FF6ECAD04EB430B34F813609F1CBBF87B
:104DE0000230B1089B0835F81180BAB235F813705B
:104DF00025F811704E0025F813805B00023602334F
:104E000035F806A0E95AA95304EB420C25F803A093
:104E1000971C34F81260BCF80220B108920835F8EB
:104E20001190BBB235F8127025F811704E0025F8BC
:104E3000129052000236023235F806B0A95AA95330
:104E4000984225F802B0C5D8B0E5B0F5807F0FD004
:104E500040F2A683B0F5006F00F0AD8300F2458507
:104E6000B0F5007F00F0A783B0F5806F7FF49BADB5
:104E7000019FDAF804104FEA970E01EB8E0205EB62
:104E8000CE0C0292CDE903E10CEB8E0B05EB8E0804
:104E9000CDE905A3029BA8F10404ACF10406ABF133
:104EA0000400A5F1040C88460F468B4600225CF8EE
:104EB000041F91FA22F191FA22FE56F8041F91FA8A
:104EC00022F191FA22FA54F8041F91FA22F999FA80
:104ED00022F150F8049F99FA22F999FA22F991FAED
:104EE00019F19EFA1AF9DEFA1AFE99FA21FACCF8AB
:104EF00000A05BF808ABD9FA11F94AFB09F12AFBCB
:104F000019F9D4F800A0090CC1EA090121609AFA44
:104F100022F191FA22F9016891FA22FA9AFA22F121
:104F200057F804ABD9FA11F1EEFA11F9AEFA11F112
:104F30004AFB01FE2AFB11FA4FEA1E41C1EA0A01AF
:104F4000316058F80CEB4EFB09F12EFB19FE9F4225
:104F50004FEA1141C1EA0E010160A8D1DDE9030168
:104F60000428DDE905A300F09180CDE90F0AC1EB2B
:104F7000C1740B940646042400271193019B0291EF
:104F8000B20893423046CDE90C214FEA820628BF91
:104F900013460896A600E4000A9307960994AB46C8
:104FA00005EBC2040B4600260E95029A0B99D2F827
:104FB0000080089AD3F8009003EB4305CDE9036421
:104FC000CDE905B355F811A0DC4602EB0B012546EF
:104FD0002244B646DCF80030D5F800B016680C68FC
:104FE00094FA16F493FA1BF6D3FA1BF396FA24FB01
:104FF000D6FA24F69BFA27F4CCF800400CEB800C90
:1050000048FB06F428FB16FB260CC6EA0B040E68C8
:105010000C601468D6FA14FB01EB8001E3FA2BF460
:10502000A3FA2BF349FB03F629FB13FB330CC3EA6A
:105030000B062E6005EB80054AFB04F32AFB14F4F3
:105040001E0CC6EA0403019C13608644744502EBFF
:105050008002BFD8DDE905A3DDE903640799029D5D
:10506000099A0B440A99013615448E4202950AF1B9
:10507000040B04F1040498D3DDE90C61042E0E9DA9
:10508000079C3FF67BAFDDE90F0A119B0701A7F1F3
:1050900010063109013105F1100211F0030402EB91
:1050A000001939D0012C1BD0022C40F0408452E969
:1050B000021452E904B090FA14F79BFA11F8D0FAEE
:1050C00014F0DBFA11FBD8FA27FC98FA27F1ABFAB7
:1050D00020F642E9041CEBFA20F442E902641032A3
:1050E00052E9040852E902B490FA1BF6D0FA1BF117
:1050F00098FA14F7D8FA14F0D6FA27FC96FA27F49F
:10510000A1FA20F842E9044CE1FA20F642E90286CD
:1051100010324A453FF447AC52E9041052E90247C5
:1051200091FA14FED0FA17FCD1FA14F190FA17F4A0
:10513000A1FA2CF89EFA24F6DEFA24F0E1FA2CF714
:1051400042E9046042E90287934640325BF8101B53
:105150005BE9030691FA16FCD1FA16F15BF8048CB0
:10516000D0FA18FE90FA18F69CFA26F7DCFA26F028
:105170004BE90470A1FA2EF7E1FA2EF14BE9027126
:105180005C464A4554F8100B54E903B6D0FA16F1C0
:1051900090FA16FE54F8047C9BFA17F0DBFA17FC21
:1051A0009EFA20F6A1FA2CFBE1FA2CF7DEFA20F8A1
:1051B00044E902B744E9046852E9081452E9060CCC
:1051C00091FA10F6D1FA10F8D4FA1CF794FA1CFBF5
:1051D000A8FA27F096FA2BF1D6FA2BF4E8FA27F67C
:1051E00042E9081442E9060696D1FFF7DCBBB0F5A8
:1051F000805F7FF4D8AB019906934FEA910EDAF8FD
:10520000041005EBCE06CDE902E1CDE904A506EBDD
:105210008E0705EB8E04381F043C043EA5F1040CF8
:1052200001EB8E0B89460F46884600225CF8045F2E
:1052300056F8041F95FA22F393FA22F591FA22F315
:1052400054F8041F93FA22FA91FA22F395FA1AFEFF
:1052500093FA22F150F8043F93FA22F393FA22F3DF
:1052600091FA13F19EFA21F3CCF80030D5FA1AF531
:10527000DEFA11F358F808AB2AFB03F14AFB13F3EB
:10528000090CC1EA03012368216093FA22F191FA23
:1052900022F3016891FA22FE9EFA22FAD3FA1AF357
:1052A00057F804ABA5FA13FEE5FA13F12AFB01F552
:1052B0004AFB11F3290CC1EA0305356059F80C3B90
:1052C00023FB0EF143FB1EFABB454FEA1145C5EA2D
:1052D0000A030360AAD1DDE902E1BEF1040FDDE9B2
:1052E00004A5069B00F09280CDE90FEAC1EBC174E2
:1052F0000B94774604244FF000081193019A029111
:10530000BE08B242CDE90C614FEA840338464FEA49
:10531000C4044FEA860728BF3246089707930A94C9
:10532000099205EBC604AB460B4600270E950B9978
:10533000029D089AD3F80090D5F800E003EB430CE7
:10534000CDE90374CDE905B35CF811A05E4602EB2C
:105350000B0125462244BC463368D5F800B01768D7
:105360000C6894FA17F493FA1BF7D3FA1BF397FA25
:1053700024FBD7FA24F79BFA28F4346006EB800666
:105380002EFB07F44EFB17FB270CC7EA0B040F6834
:105390000C601468D7FA14FB01EB8001A3FA2BF41C
:1053A000E3FA2BF329FB03F749FB13FB3B0CC3EA9E
:1053B0000B072F6005EB80052AFB04F34AFB14F46E
:1053C0001F0CC7EA0403019C13608444644502EB8C
:1053D0008002C1D8DDE90374DDE905A3029D0A99C5
:1053E000099A079E01370D449742334402950AF10A
:1053F000040B04F104049AD3DDE90C71042F0E9D13
:10540000079C3FF67BAFDDE90FEA119B4FEA0E18D0
:10541000A8F110000709013705F1100217F0030683
:1054200002EB0E1951D0012E33D0022E18D052E9C2
:1054300004B852E902109BFA11F4DBFA11F698FA5B
:1054400010F7D8FA10F1D4FA27FC94FA27F0E6FA0C
:1054500021FB42E9040CA6FA21F442E902B410321D
:1054600052E9027052E90468D6FA17F196FA17FB6E
:1054700098FA10F4D8FA10F69BFA24F7DBFA24F025
:10548000E1FA26FC42E90470A1FA26F842E902C8D2
:10549000103252E9021052E904B69BFA11F4DBFA19
:1054A00011F896FA10F7D6FA10F694FA27F1D4FA12
:1054B00027F0E8FA26FC42E90410A8FA26F442E9AB
:1054C00002C4103291453FF46EAA52E9046152E9D8
:1054D000020896FA10F7D1FA18FED6FA10F691FAE9
:1054E00018F0E6FA2EFC97FA20F4D7FA20F1A6FA83
:1054F0002EF742E9044142E902C7934640325BF885
:10550000106B5BE9031496FA14FCD6FA14F65BF8F8
:10551000048CD1FA18FE91FA18F49CFA24F7DCFAFC
:1055200024F14BE90471E6FA2EF7A6FA2EF64BE9C0
:1055300002765846914550F8101B50E903B4D1FA51
:1055400014F691FA14FE50F8047C9BFA17F1DBFA7A
:1055500017FC9EFA21F4E6FA2CFBA6FA2CF7DEFAE9
:1055600021F840E902B740E9044852E9086052E9ED
:10557000061C96FA11F4D0FA1CF7D6FA11F690FA36
:105580001CF8E6FA27FB94FA28F0D4FA28F1A6FAD8
:1055900027F442E9080142E906B496D1FFF703BABD
:1055A00040283FF465AC00F29B8110283FF460ACCA
:1055B00020287FF4F8A9019ADAF804805708B90086
:1055C0000C1FA608013608EB870005EB420916F010
:1055D000030103904A46284644464FF0000C37D05A
:1055E000012919D0022940F0BD810168166891FA9D
:1055F0002CF196FA2CF654F804EB91FA26FBD1FA2A
:1056000016F640F804BB4EFB06F12EFB16F6090C0D
:10561000C1EA060642F8046B0168166891FA2CF19B
:1056200096FA2CF654F804EB91FA26FBD1FA16F60A
:1056300040F804BB4EFB06F12EFB16F608EB870E76
:1056400074454FEA1141C1EA060642F8046B6AD07C
:10565000CDE90189A0460646016858F8049B91FAF5
:105660002CFE116891FA2CF19EFA21FBDEFA11F161
:1056700046F804BB49FB01FE29FB11F94FEA1E4124
:105680009646C1EA090B4EF804BB4168D8F8009071
:1056900091FA2CF8516891FA2CF198FA21FBD8FA7A
:1056A00011F1C0F804B049FB01F829FB11F94FEAE8
:1056B0001841C1EA090151607168DEF804B091FA3D
:1056C0002CF19BFA2CF9D4F8088091FA29FBC6F842
:1056D00004B0D1FA19F648FB06F128FB16F610348F
:1056E000090CC1EA0606CEF80460C168D66891FAD2
:1056F0002CF954F804EC96FA2CF1103099FA21F8B0
:10570000D9FA11FB40F8048C4EFB0BF62EFB1BF96B
:10571000310CC1EA09060399D6608C4202F11002ED
:1057200098D1DDE901893946424628460293FEF7C1
:1057300047FF424639464846FEF742FFFB00A3F1C9
:105740000804E008013005EBC70710F00302029BD4
:105750000197AC463ED0012A1DD0022A40F0CB80F2
:10576000BCF90020BCF90410BCF90240BCF90600E9
:105770004FF00008C34656004F006400400067F336
:105780000F0B66F30F0864F31F4860F31F4BCCE95F
:10579000008B0CF1080CBCF90020BCF90410BCF91A
:1057A0000240BCF906004FF000095600CE464F00FB
:1057B0006400400067F30F0E66F30F09019A64F36B
:1057C0001F4960F31F4ECCE9009E0CF1080C6245A6
:1057D0003FF4E9A8BCF90410BCF91020BCF9006042
:1057E000BCF90870BCF90C004FEA410B51004FEABC
:1057F00046097C004600BCF91470BCF918000591FC
:10580000BCF91C10029442007C00BCF9060007940D
:105810004F00BCF9024009920B97BCF90A20BCF971
:105820000E704FEA400EBCF912004FEA44085100D6
:105830007C0003910494BCF91610BCF91A40420094
:105840000692BCF91E204F0060000024510008970A
:105850000A902746204622460C916BF30F072146FB
:1058600069F30F04814668F31F446EF31F4766F324
:105870000F09029ECCE90047039C049F66F30F00CA
:1058800064F31F4067F31F49CCE902090798059E9E
:10589000069C089F8B4660F30F0B66F30F0164F3C1
:1058A0001F4167F31F4BCCE9041B09980B990A9E13
:1058B0000C9C904661F30F0860F30F0266F31F42E1
:1058C00064F31F48CCE90628019A0CF1200C6245CC
:1058D00080D1FFF768B880283FF475A8FFF763B858
:1058E00080283FF468AEFFF75EB8B0F5805F7FF4C4
:1058F0005AA8FFF7BDBAB5F90060B5F90410B5F9BB
:105900000240B5F906004FF0000CE64676004F0065
:105910006400400067F30F0E66F30F0C64F31F4C36
:1059200060F31F4EC5E900CE05F1080C18E752E9F7
:10593000040852E902B490FA1BF6D0FA1BF198FA67
:1059400014F7D8FA14F0D6FA27FC96FA27F4A1FA3D
:1059500020F842E9044CE1FA20F642E902861032CE
:10596000FFF7A5BB2A68D9F8006092FA2CFB54F81F
:1059700004EB96FA2CF29BFA22F1DBFA12F640F8CD
:10598000041B4EFB06F22EFB16FB110C4A46C1EA25
:105990000B0642F8046B28E62DE9F843674C684B88
:1059A0004042A61E00F420700022184431461346DF
:1059B000571C30F9225030F927E0A1F804E002F139
:1059C000020CD71C30F92CC030F927704D802B44C5
:1059D00002F1040802F10509734430F9288030F916
:1059E0002990A1F806C002F1060E6344D51D3B4480
:1059F00030F92EE030F925500F8143444B440832F2
:105A00007344A02AA1F80A80A1F80C90A1F80EE036
:105A10002B4421F8105FCBD14A48DFF830C1D917A9
:105A200080FB0323ACEB0602971E7D08013515F0C1
:105A30000700C1EBA31325D001281DD0022817D0E1
:105A4000032811D004280BD0052805D006286FD1D3
:105A500036F8027FFD1A358036F8020FC11A318000
:105A600036F8022FD71A378036F8025FE81A3080EE
:105A700036F8021FCA1A328036F8027FFD1AB44582
:105A8000358020D0B6F80280B6F80490F7883589C2
:105A90007089B189F289FF1AED1AA8EB0308A9EB06
:105AA000030EC01AC91AD21A3581A6F80280A6F8C8
:105AB00004E0F7807081B181F28136F8107FFD1A21
:105AC000B4453580DED1204D286820B3A968EB6845
:105AD0006E6995F8049001FB03F39F1BA02FB84655
